:020000040800F2
:10000000680600201D020008DB020008D302000879
:10001000D7020008CD02000855030008FFFFFFFFCC
:10002000FFFFFFFFFFFFFFFFFFFFFFFFDF020008F3
:10003000D1020008FFFFFFFFDD020008E102000817
:1000400037020008370200083702000837020008AC
:10005000370200083702000837020008370200089C
:10006000370200083702000837020008370200088C
:10007000370200083702000837020008370200087C
:10008000370200083702000837020008370200086C
:10009000370200083702000837020008370200085C
:1000A000370200083702000837020008370200084C
:1000B000370200083702000837020008370200083C
:1000C000370200083702000837020008370200082C
:1000D000370200083702000837020008370200081C
:1000E000370200083702000837020008370200080C
:1000F00037020008370200083702000837020008FC
:1001000037020008370200083702000837020008EB
:1001100037020008370200083702000837020008DB
:1001200037020008370200083702000837020008CB
:1001300037020008370200083702000837020008BB
:10014000FFFFFFFFFFFFFFFFFFFFFFFFFFFFFFFFBF
:10015000370200083702000837020008370200089B
:10016000370200083702000837020008370200088B
:1001700037020008370200083702000800F002F8D2
:1001800000F03CF80AA090E8000C82448344AAF1F5
:100190000107DA4501D100F031F8AFF2090EBAE8F3
:1001A0000F0013F0010F18BFFB1A43F001031847AB
:1001B0001007000030070000103A24BF78C878C14B
:1001C000FAD8520724BF30C830C144BF04680C605D
:1001D000704700000023002400250026103A28BFA5
:1001E00078C1FBD8520728BF30C148BF0B607047A9
:1001F0001FB500F057FB1FBD10B510BD00F033F860
:100200001146FFF7F5FF00F077FA00F051F803B45C
:10021000FFF7F2FF03BC00F09FF800000948804799
:1002200009480047FEE7FEE7FEE7FEE7FEE7FEE7D8
:10023000FEE7FEE7FEE7FEE704480549054A064BF0
:1002400070470000E50200087D01000868000020FA
:10025000680600206802002068020020704770478E
:10026000704770477047754600F02CF8AE460500A1
:100270006946534620F00700854618B020B5FFF7C1
:10028000DBFFBDE820404FF000064FF000074FF0C5
:1002900000084FF0000B21F00701AC46ACE8C009A4
:1002A000ACE8C009ACE8C009ACE8C0098D467047AD
:1002B00010B50446AFF300802046BDE81040FFF7BC
:1002C000A6BF0000004870470400002000BFFEE702
:1002D000704700BFFEE700BFFEE7704770477047FA
:1002E000704700001848006840F470001649086024
:1002F0001648006820F00100401C1449086000BF47
:1003000012480068C0F340000028F9D00F48406848
:1003100020F003000D49486000BF0C484068C0F35E
:1003200081000028F9D109480068094908400749B7
:1003300008600020486008634FF41F008860C8030D
:10034000014980390860704788ED00E000100240E4
:10035000FFFFF2FE00BFFEE7704700000349496857
:1003600060F30711014A516070470000001002401D
:100370000349496860F30A21014A5160704700004F
:10038000001002400349496860F3CD21014A5160E1
:100390007047000000100240012807D10749496D4D
:1003A00021F030013031054A516505E00349496DBE
:1003B00021F03001014A51657047000000100240F1
:1003C000052827D2DFE800F0030A11181F00134A9E
:1003D000126861F30002114B1A601CE00F4A1268A8
:1003E00061F310420D4B1A6015E00C4A126861F37C
:1003F00018620A4B1A600EE0084A126A61F30002A2
:10040000064B1A6207E0054A526A61F30002034B89
:100410005A6200E000BF00BF7047000000100240B9
:1004200010B501460020094B03EB1142126801F0A0
:100430001F040123A3401A4001F01F040123A3401D
:100440009A4200D000E0012010BD000000100240E0
:100450000349496D60F30D31014A51657047000051
:100460000010024030B50024002500E0641C11207B
:10047000FFF7D6FF012802D0B4F5405FF6D3112074
:10048000FFF7CEFF012801D0002500E00125284616
:1004900030BD000010B501290DD10E4B03EB104209
:1004A000126800F01F040123A3401A43094C04EB17
:1004B00010431A600CE0074B03EB1042126800F087
:1004C0001F040123A3409A43024C04EB10431A601B
:1004D00010BD00000010024010B568B91C4B5B68ED
:1004E00023F480331A4C636023461B6B23F00073A4
:1004F00003F10073236317E0154B5B6823F480332B
:1005000003F58033124C6360012805D123465B68F4
:1005100023F40033636007E00D4B5B6823F4003382
:1005200003F500330A4C6360094B5B6861F3954344
:10053000074C63600C09064B5B6864F35E73044C04
:10054000636023465B6862F3DF73636010BD000085
:10055000001002401348006820F00100401C1149BF
:10056000086000BF0F480068C0F340000028F9D0C1
:100570000C48406820F003000A49486000BF094861
:100580004068C0F381000028F9D106480068064998
:100590000840044908600020486008634FF41F00C9
:1005A0008860704700100240FFFFF2FE0D49496865
:1005B00060F301010B4A516000BF00BF00BF00BFE4
:1005C00000BF00BF00BF00BF00BF00BF00BF00BF33
:1005D00000BF00BF00BF00BF00BF00BF00BF00BF23
:1005E000704700000010024002484068C0F38100DC
:1005F00070470000001002401CB501210C48FFF7B5
:1006000049FF684600F018F801208DF80700002027
:100610008DF8040010208DF80600022000900420C0
:100620008DF805006946034800F011F81CBD000074
:1006300002001800000801404FF6FF710160002120
:1006400081710171042141710121C1717047F0B5BF
:100650000A461588ABB29579032D01D100241AE022
:10066000957965B9557905F00F045579182D01D1A3
:10067000036110E05579282D0DD143610BE0957988
:1006800005F00805167906F004063543D67906F01C
:10069000030645EA0604DDB2A5B1002110E00125FC
:1006A0008D401D405DB105688F000F26BE40B543EB
:1006B000056005688E0004FA06F635430560491C9E
:1006C0000829ECD3FF2B15DD1B12002110E00125BA
:1006D0008D401D405DB145688F000F26BE40B5437B
:1006E000456045688E0004FA06F635434560491CAE
:1006F0000829ECD3F0BD000000F020F8FFF77CFFE4
:1007000018E002200C490860091D0860091F0860F4
:10071000091D0860091F0860091D0860091F08609D
:10072000091D0860091F0860091D0860091F08608D
:10073000091D0860E5E700001008014010B5FFF74B
:1007400009FF01210846FFF73BFE00BFFFF78AFEC5
:100750000028FBD001223B210220FFF7BDFE002034
:10076000FFF776FE01210220FFF72AFE00BF1920C5
:10077000FFF756FE0128FAD10020FFF7EFFD042015
:10078000FFF700FE0420FFF7F3FD0120FFF704FE52
:100790000220FFF70BFF00BFFFF726FF0228FBD167
:1007A0000020FFF7F9FD00F001F810BD2DE9F0473A
:1007B0000026002400250027A046A146FFF714FFCD
:1007C0008246BAF1000F06D0BAF1010F15D0BAF186
:1007D000020F46D115E02D48406DC0F3402040B1D6
:1007E0002A48006BC0F3406018B1294829490860C5
:1007F00002E029482749086037E027482549086072
:1008000033E022484068C0F3004720484068C0F306
:1008100083441E484068C0F341750DB90F2C03D1C5
:100820002801401C044400E0A41C27B91B48604375
:100830001849086014E015484068C0F3404058B1BA
:100840001248406DC0F30136B01C1349B1FBF0F003
:1008500060431049086003E00F4860430D49086099
:1008600003E00D480B49086000BF00BF074840681F
:10087000C0F303180A4810F808900648006820FAE8
:1008800009F004490860BDE8F0870000001002404C
:10089000006CDC020000002000127A0000093D001C
:1008A000AE0800084FF04070E1EE100A70470000FB
:1008B0000000000000000102030406070809000010
:1008C000E00800080000002004000000B801000853
:1008D000E40800080400002064060000D4010008B9
:0408E00000127A0088
:040000050800017D71
:00000001FF
