:020000040800F2
:1000000090070020490200080903000801030008C6
:1000100005030008F902000875030008FFFFFFFF51
:10002000FFFFFFFFFFFFFFFFFFFFFFFF11030008C0
:10003000FD020008FFFFFFFF0D0300081503000885
:1000400063020008630200086302000863020008FC
:1000500063020008630200086302000863020008EC
:1000600063020008630200086302000863020008DC
:1000700063020008630200086302000863020008CC
:1000800063020008630200086302000863020008BC
:1000900063020008630200086302000863020008AC
:1000A000630200086302000863020008630200089C
:1000B000630200086302000863020008630200088C
:1000C000630200086302000863020008630200087C
:1000D000630200086302000863020008630200086C
:1000E000630200086302000863020008630200085C
:1000F000630200086302000863020008630200084C
:10010000630200086302000863020008630200083B
:10011000630200086302000863020008630200082B
:10012000630200086302000863020008630200081B
:10013000630200086302000863020008630200080B
:10014000FFFFFFFFFFFFFFFFFFFFFFFFFFFFFFFFBF
:1001500063020008630200086302000863020008EB
:1001600063020008630200086302000863020008DB
:1001700063020008630200086302000800F002F84E
:1001800000F052F814A696E8000CB244B344DA45E5
:1001900001D100F049F8BAE80F000FA696E8300048
:1001A000A5EB040504EB0607AAEB0704A7F101077A
:1001B0004FEA15154FEA3414A4F10104AC4201D3FF
:1001C00000F032F813F0010F18BFFB1A43F00103DF
:1001D00000F001F8DBE71847200D0000400D00009B
:1001E000103A24BF78C878C1FAD8520724BF30C863
:1001F00030C144BF04680C607047000070470000C5
:100200000023002400250026103A28BF78C1FBD81F
:10021000520728BF30C148BF0B6070471FB500F0C0
:100220005AFE1FBD10B510BD00F033F81146FFF7A0
:10023000F5FF00F0BFFB00F051F803B4FFF7F2FF49
:1002400003BC00F099F800000948804709480047BE
:10025000FEE7FEE7FEE7FEE7FEE7FEE7FEE7FEE776
:10026000FEE7FEE704480549054A064B70470000D3
:10027000190300087D01000890010020900700206C
:10028000900300209003002070477047704770472C
:100290007047754600F02CF8AE4605006946534697
:1002A00020F00700854618B020B5FFF7DBFFBDE85A
:1002B00020404FF000064FF000074FF000084FF0CD
:1002C000000BAC46ACE8C009ACE8C009ACE8C0091A
:1002D000ACE8C00921F007018D46704710B504460F
:1002E000AFF300802046BDE81040FFF7A6BF000036
:1002F00000487047A8000020FEE70000704700009B
:10030000FEE70000FEE700007047000070470000B5
:1003100070470000704700004EF68850CEF2000093
:10032000026841F2000142F47002C4F2020102606C
:100330000A6842F001020A600A689207FCD54A681E
:1003400022F003024A6000BF4A6812F00C0FFBD192
:100350000A684FF6FF73CFF6F2631A400A60002274
:100360004A600A634FF41F028A604FF0006140F850
:10037000801C7047FEE700007047000041F2040156
:10038000C4F202010A6800F00F0022F0F00242EA13
:10039000001008607047000041F20401C4F202013D
:1003A0000A6800F0070022F4E06242EA00200860D8
:1003B0007047000041F20401C4F202010A6800F033
:1003C000070022F4605242EAC02008607047000033
:1003D00041F25401C4F202010A68012822F03002FD
:1003E00008BF30320A607047042888BF7047DFE8D2
:1003F00000F0032B15220C0041F20000C4F20200B1
:10040000026861F300020260704741F20000C4F22A
:100410000200426A61F300024262704741F200004A
:10042000C4F20200026801F0010122F0807242EA87
:1004300001610160704741F20000C4F20200026AEB
:1004400061F300020262704741F20000C4F2020050
:10045000026801F0010122F4803242EA01410160A8
:100460007047000041F20401C4F202010B6841F23E
:10047000002CC0F27A0CC3F38103B0B5DFE803F0BF
:100480002C023702C0F800C00A682FA3C2F303127F
:100490009A5C036840F6F06523FA02F242600B684A
:1004A000C0F60005C3F30223EB5C22FA03F3C3603A
:1004B0000B68C3F3C223EB5C0425DA4082600B684F
:1004C000096805EA9363C1F38131194422A3595C99
:1004D000B2FBF1F10161B0BD0A6D9205D2D5CA6AD5
:1004E000920144BF46F6004CC0F2DC2CCAE7D1F8BA
:1004F00000E00B680A689B0CC2F34172140103F020
:100500000F0301340F2B254618BF0225002A18BF00
:1005100025465FEACE322B4406D440F60012C0F2E4
:100520003D0203FB02FCADE70A68920302D403FB21
:100530000CFCA7E70A6DC2F301320232BCFBF2F2F7
:1005400002FB03FC9EE700BF00000000000000006B
:10055000010203040607080902040608020C081039
:1005600041F20002010CC4F20202895800F01F009F
:1005700021FA00F000F001007047000041F2540140
:10058000C4F202010A6800F0030022F4405242EA79
:10059000003008607047000041F200000021C4F202
:1005A000020000BF0268920304D4B1F5405F01F17C
:1005B0000101F7D30068C0F34040704741F20002E8
:1005C00000F01F034FF0010CC4F2020201290CFAE3
:1005D00003F14FEA1040835814BF23EA0101194385
:1005E0008150704780B541F2040EC4F2020EDEF86D
:1005F00000C070B14CF48033CEF80030DEF800C09B
:10060000012814BF4CF400302CF40030CEF8000068
:1006100009E02CF48030CEF80000DEF82C0040F029
:100620000070CEF82C00DEF8000061F39540CEF8A3
:100630000000DEF80000090961F35E70CEF80000EA
:10064000DEF8000020F0004040EAC270CEF8000062
:1006500080BD000041F20000C4F20200016841F0D8
:100660000101016001688907FCD5416821F003019F
:10067000416000BF416811F00C0FFBD101684FF6DB
:10068000FF72CFF6F2621140016000214160016308
:100690004FF41F018160704741F20401C4F202016E
:1006A0000A6860F301020A6000BF00BF00BF00BF1C
:1006B00000BF00BF00BF00BF00BF00BF00BF00BF42
:1006C00000BF00BF00BF00BF00BF00BF00BF00BF32
:1006D0007047000041F20400C4F202000068C0F359
:1006E00081007047002808BF7047B0B54EF2100275
:1006F00040F208130021CEF20002C2F200034FF0D4
:10070000320C4FF0000E00BF4FF4FA74A5B2332D37
:1007100006D31D68323C05FB0CF5556004E000BFB4
:100720001C686C43546000249160156845F0010515
:10073000156000BF156805F00115012DFAD0156888
:1007400025F00105156025049160DFD14FF4FA749E
:10075000A5B2332D06D31D68323C05FB0CF5556060
:1007600004E000BF1C686C4354600024916015686D
:1007700045F00105156000BF156805F00115012D54
:10078000FAD0156825F00105156025049160DFD1C8
:100790000EF1010E8645B7D3BDE8B04070470000AA
:1007A00040F200424FF6FF71C0F20012C0E90012A1
:1007B00070470000B0B58B790A88032B0BD07BB94A
:1007C0004979282901F00F0E18D0182908BF0261B5
:1007D000110616D12EE04FF0000E110611D129E0BE
:1007E00003F0080C0B79C97903F00403634401F0AA
:1007F000030103EB010E110603D11BE04261110658
:1008000018D000234FF00F0C002104E0013108291B
:1008100003F104030ED022FA01F4E407F6D00468D1
:100820000CFA03F5AC43046004680EFA03F52C439C
:100830000460EBE7B2F5807F38BFB0BD120A002339
:100840004FF00F0C002104E00131082903F10403EB
:100850000ED022FA01F4E407F6D044680CFA03F54E
:10086000AC43446044680EFA03F52C434460EBE764
:10087000B0BD00002DE9F04182B0042000F000FA84
:1008800040F22000C2F2000000684DF68361C4F21D
:100890001B31A0FB0101880C40F20C11C2F20001D7
:1008A000086008684FF47A71484340F20811C2F2B8
:1008B000000140F200080860C2F20008D8F8000009
:1008C0000121FFF77BFE6C462046FFF769FF40F2EF
:1008D0000C06C2F2000640F214053188C2F200058F
:1008E00040F200472868C0F2101700912146019796
:1008F000FFF760FFD8F804000121FFF75FFE6C46A8
:100900002046FFF74DFF71886868009121460197E6
:10091000FFF750FFD8F808000121FFF74FFE6C46A3
:100920002046FFF73DFFB188A86800912146019756
:10093000FFF740FF308800281CBF296808617088D5
:1009400000281CBF69680861B08800281CBFA9681E
:1009500008610220C0F2180001210125FFF72EFED8
:100960006C462046FFF71CFF42F60000C0F2001064
:10097000CDE9005040F60000C4F201002146FFF727
:1009800019FF02B0BDE8F081022811D840F20C0135
:10099000C2F2000131F81010002908BF704740F280
:1009A0001402C2F2000252F82000C2685140C16035
:1009B0007047000044F20044C4F2000400F0CCF898
:1009C000FFF758FF00F068F940F28C1640F2620819
:1009D000C2F20006C2F20008307898F8001088428F
:1009E0002FD240F24E1740F2240940F24F1AC2F2C1
:1009F0000007C2F2000904F58065C2F2000A00BFD8
:100A00002046802100F0D8F90028F9D0387819F86C
:100A10000010421C20463A7000F0C0F92846202100
:100A200000F0CAF90028F9D0284600F0B3F931786F
:100A300098F800304A1C3270D2B29A420AF801008B
:100A4000DED340F24D1640F2A108C2F20006C2F217
:100A50000008307898F8001088422ED240F28D17A6
:100A600040F2630940F2101A04F58065C2F20007F3
:100A7000C2F20009C2F2000A2846802100F09CF967
:100A80000028F9D0387819F80010421C28463A702E
:100A900000F084F92046202100F08EF90028F9D0DA
:100AA000204600F077F9317898F800304A1C32700F
:100AB000D2B29A420AF80100DED340F2240B40F28F
:100AC0004F1840F2630C40F21019C2F2000BC2F250
:100AD00000084FF03D0AC2F2000CC2F2000900BF4C
:100AE0003D2041465C4600BF22780B7826460F46E3
:100AF00005463D209A4241465C46F5D1681E85B2C6
:100B0000002D41465C460EBF5046791C741C002DDA
:100B100008BF9A42E8D13D20494663461A780F78CB
:100B2000BA42DDD101380133060401F10101F5D1EA
:100B30003D20BA4241465C46D6D100206446FFF7CC
:100B400023FF0120FFF720FF0220FFF71DFF0120F8
:100B5000FFF7C8FDA446C3E780B5FFF77BFD012082
:100B60000121FFF741FC00BFFFF716FD0028FBD075
:100B700002203B210122FFF735FD0020FFF7FEFC9C
:100B800002200121FFF730FC1920FFF7E9FC0128C2
:100B9000FAD10020FFF7F2FB0420FFF70BFC042042
:100BA000FFF7FAFB0120FFF713FC0220FFF774FDAB
:100BB000FFF790FD0228FBD10020FFF709FCBDE8FC
:100BC000804000F001B80000B0B541F2040441F2E9
:100BD0000025C4F20204C0F27A05FFF77BFD02286B
:100BE0000BD0A8BB206D800532D5E06A800144BFE0
:100BF00046F60045C0F2DC252AE0D4F800C02168A2
:100C00002268890CC2F34172130101F00F01581CD4
:100C10000F29034618BF0223002A18BF03465FEAC4
:100C2000CC3003EB010006D440F60011C0F23D01C8
:100C300000FB01F50CE02168890301D4454307E07E
:100C4000216DC1F301310231B5FBF1F101FB00F57A
:100C500040F22000C2F200000560216804A2C1F346
:100C60000311515C026822FA01F10160B0BD00BFBE
:100C7000000000000000000001020304060708094C
:100C80004EF21001CEF200010A68042822F004029C
:100C900008BF04320A607047F0B583B01124C0F277
:100CA0001C0420460121FFF789FC0225C0F218052B
:100CB00028460121FFF782FC601C0121FFF77EFC22
:100CC000681C0121FFF77AFC01AD2846FFF768FD9B
:100CD00040F2004044F20044C0F20810C4F20004A4
:100CE0000290042004F54446019030462946FFF75F
:100CF00061FD4FF4806004F548470190384629466D
:100D0000FFF758FD41F60000C0F2001002900820E5
:100D1000019030462946FFF74DFD4FF400600190E9
:100D200038462946FFF746FD30462946FFF742FD83
:100D300020464FF4E1310022002300F043F8204622
:100D4000002100F097F82046012100F0BBF8204672
:100D5000012100F0ADF82046012100F023F804F550
:100D6000806420464FF4E1310022002300F02AF88D
:100D70002046002100F07EF82046012100F0A2F874
:100D80002046012100F094F82046012100F00AF8E5
:100D900003B0F0BD406880B2704700006FF35F2180
:100DA00041607047C26801F0010122F4005242EA3A
:100DB0004131C160704700000068084018BF012041
:100DC000704700002DE9F04186B001AD0446284689
:100DD000984616460F46FFF745FB46F2FF30C4F231
:100DE0000100844205F1080008DC43F60001C4F26A
:100DF00001018C4210D046F2000107E046F20041AA
:100E0000C4F201018C4207D046F60001C4F2010190
:100E10008C4218BF05F10C0000684CF6CD4100EB88
:100E200080004000B0FBF7F0CCF6CC41A0FB0112F3
:100E3000D10801EB8103A0EB43000428A0684FF028
:100E4000010388BF03EBD201C1EA0000A060E068A3
:100E500006F0010120F4805040EA0130E060206992
:100E600008F0030120F4405040EA0130206106B050
:100E7000BDE8F081022911D001290BD0002918BF4B
:100E80007047C16821F40071C160C16821F48061BC
:100E9000C1607047C16821F4007102E0C16841F48B
:100EA0000071C160C16841F48061C1607047000099
:100EB000C26801F0010122F0040242EA8101C1602E
:100EC00070470000C26801F0010122F0080242EA06
:100ED000C101C1607047F1EE100A4FF6FF71C0F218
:100EE000C03120EA010040F04070E1EE100A704786
:100EF0000000000001020304180F00080000002099
:100F0000A8000000E0010008C00F0008A8000020B1
:100F1000E80600000002000805001800050018009F
:100F2000050018000020004000800000001401406F
:100F3000001401400014014000127A0075736172C0
:100F400074207472616E7366657220627920696EB6
:100F5000746572727570743A2075736172743220A0
:100F60002D3E20757361727433207573696E67202E
:100F7000696E74657272757074003D757361727418
:100F8000207472616E7366657220627920696E7476
:100F90006572727570743A20757361727433202DA6
:100FA0003E20757361727432207573696E672069B3
:100FB0006E74657272757074003D00000000000070
:040000050800017D71
:00000001FF
