:020000041000EA
:100000004B2A110200000000A4030000EEC3A6E981
:100010007EEEE78880B500F087F90020002100F02F
:100020000DF8292000F00FF8202000F011F800F062
:1000300033F900F013F800F025F980BD4CF2B93C1B
:10004000C0F2000C604747F67D1CC0F2000C604710
:1000500047F6D12CC0F2000C6047000080B54FF08D
:10006000A040012100F075F900060BD1032000F03B
:1000700075F9000606D1012000F075F9000604BFED
:10008000002080BD00F074F94FF47A7000F075F92B
:10009000012080BD2DE9F04381B019B343F2B83897
:1000A0000F4606464FF0FF344FF00009C2F2000839
:1000B0003D46B7F5807F28BF4FF480754FF0A040D4
:1000C000314642462B46CDF8009000F05BF960B90E
:1000D00040462946224600F05AF904467F1B2E442A
:1000E000E6D103E04FF0FF3400E00124204601B0E8
:1000F000BDE8F08310B582B004464FF0000C4FF01D
:10010000A0404FF4805122462023CDF800C000F0DB
:1001100039F9000622D120461C214FF0FF3200F0B1
:1001200036F9E169814219D1E078112816D1A07819
:10013000022813D1E168B1F5002F0FD8606846F2AC
:100140007872C4F26A72904208D1A068FFF7A2FFE9
:100150002169401A18BF012002B010BD012002B071
:1001600010BD00002DE9F0410C4605460E184FF079
:100170000008B4F5803F07D3A8B228B94FF4803700
:100180000321102021E000BFB4F5004F08D328461A
:100190006FF3DF3020B94FF4004702210F2014E045
:1001A00029466FF31F31200BB1FA81F1B8EB143FF0
:1001B00018BF0120490901404FF008004FF4807733
:1001C00018BF0C2018BF4FF4805725FA00F082B2F8
:1001D0004FF0A04047F2305300F0DEF800060BD19C
:1001E0003D44B542A4EB070424BF0020BDE8F081E4
:1001F000B4F5803FC0D2C7E700F0BAF84FF47A7088
:1002000000F0BBF80120BDE8F08100002DE9F047C7
:1002100082B04FF000098AB343F2B83814460E4654
:100220000746C2F2000840F6B83A00BF2546B4F5CA
:10023000807F28BF4FF480754FF0A040394642467A
:100240002B46CDF8009000F09DF890B94FF0A040FB
:10025000314642462B46CDF80090CDF804A000F080
:10026000A0F848B92F44641B2E44DFD14FF0000999
:1002700004E04FF0010901E04FF00109484602B0E7
:10028000BDE8F08780B542F20400C1F200000068CA
:1002900000F08CF880BD0000B0B588B06846FFF76C
:1002A00029FF08B101243CE0DDE90501FFF75AFF11
:1002B00038B100F05DF84FF47A7000F05EF8012478
:1002C0002FE0DDE902020599FFF7A0FF38B100F049
:1002D0004FF84FF47A7000F050F8012421E00399B0
:1002E0000598FFF7D7FE0499884213D14FF0A0403C
:1002F0000021102247F23053002400F04DF805464B
:1003000000F036F828060CD04FF47A7000F035F87B
:10031000012406E000F02CF84FF47A7000F02DF87C
:100320000124204608B0B0BDEC20C6F205000168EB
:100330007F2221F002010160016821F004010160C7
:100340006FF0030143180431342943F8D82CF9D154
:10035000704748F6F57CC0F2000C604747F2613CFC
:10036000C0F2000C604747F21D3CC0F2000C604731
:1003700047F6717CC0F2000C604744F2717CC0F219
:10038000000C604748F69D2CC0F2000C604744F218
:10039000C17CC0F2000C604748F6A10CC0F2000C12
:1003A000604749F2D90CC0F2000C604744F62D0CAE
:1003B000C0F2000C604700000000000000000000D8
:1003C000000000000000000000000000000000002D
:1003D000000000000000000000000000000000001D
:1003E000000000000000000000000000000000000D
:1003F00000000000000000000000000000000000FD
:020000041000EA
:102000000000012055210010692100107B210010E3
:102010008D2100108F210010912100100000000080
:10202000000000000000000000000000D1020000DD
:1020300095210010000000007503000081030000DE
:102040009B2100109D2100109F210010A121001054
:10205000A3210010A5210010A7210010A921001024
:10206000AB210010AD210010AF210010B1210010F4
:10207000B3210010B5210010ED3C0020F53C0020FC
:10208000FD3C0020BD210010BF210010C121001027
:10209000C3210010C5210010C7210010C921001064
:1020A000CB210010CD210010CF210010D121001034
:1020B000D3210010D5210010D7210010D921001004
:1020C000DB210010DD210010DF210010E1210010D4
:1020D0001D370020E5210010E7210010E921001044
:1020E000EB210010ED210010EF210010F121001074
:1020F000F3210010F5210010F7210010F921001044
:10210000FB210010FD210010FF2100100122001012
:1021100003220010052200100722001009220010DF
:102120000B2200100D2200100F22001000000000F2
:10213000000000000000000000000000000000009F
:10214000DFF80CD000F070F800480047114500207F
:10215000000001202E4880F308882E4880F30A886A
:102160002D4880472D4800475FEA0E00EFF30881B5
:10217000EFF309822A4B9847FEE75FEA0E00EFF380
:102180000881EFF30982274B9847FEE7FEE7FEE759
:10219000FEE7FEE7FEE7FEE7FEE7FEE7FEE7FEE717
:1021A000FEE7FEE7FEE7FEE7FEE7FEE7FEE7FEE707
:1021B000FEE7FEE7FEE7FEE7FEE7FEE7FEE7FEE7F7
:1021C000FEE7FEE7FEE7FEE7FEE7FEE7FEE7FEE7E7
:1021D000FEE7FEE7FEE7FEE7FEE7FEE7FEE7FEE7D7
:1021E000FEE7FEE7FEE7FEE7FEE7FEE7FEE7FEE7C7
:1021F000FEE7FEE7FEE7FEE7FEE7FEE7FEE7FEE7B7
:10220000FEE7FEE7FEE7FEE7FEE7FEE7FEE7FEE7A6
:102210000000012000F000204D220010412100109C
:10222000053D002055380020064C074D06E0E068CB
:1022300040F0010394E8070098471034AC42F6D30D
:10224000FFF782FFE82200101823001082B0002060
:102250000190009042F20001C1F200010091019052
:10226000FFE701984A2810D8FFE70098019950F835
:102270002100019943F20002C2F2000242F821005B
:10228000FFE7019801300190EBE743F20000C2F252
:1022900000004EF60851CEF2000108604EF688505C
:1022A000CEF20000016841F4700101604EF6145056
:1022B000CEF20000016841F010010160016841F4B4
:1022C0008071016002B0704702E008C8121F08C1A7
:1022D000002AFAD170477047002001E001C1121FA7
:1022E000002AFBD1704700001823001000320020A4
:1022F000B0290000C8220010C84C001000B0002017
:1023000004000000C8220010CC4C001004B00020D3
:1023100098000000D822001030B50B46014600207E
:102320002022012409E021FA02F59D4205D303FA97
:1023300002F5491B04FA02F52844151EA2F1010218
:10234000F1DC30BD2DE9F05F0546002092469B464A
:1023500088460646814640241BE0284641464746BB
:10236000224600F0E8F953465A46C01A914110D36C
:1023700011461846224600F0CFF92D1A67EB0108E6
:102380004F4622460120002100F0C6F917EB000954
:102390004E41201EA4F10104DFDC484631462A46A6
:1023A0004346BDE8F09F2DE9FE4F804681EA0300D9
:1023B000C00F0C46009021F0004123F00045B8EB1F
:1023C0000200A94105D24046214690461C460B46D4
:1023D000024623F00040104347D0270DC7F30A0000
:1023E000C3F30A510290401A019040286BDAC3F3FC
:1023F000130040F4801B0098924620B10023D2EBDA
:10240000030A63EB0B0B01985946C0F1400250469A
:1024100000F082F906460D4650465946019A00F0F2
:102420009AF910EB08006141002487EA115284EA0E
:10243000E7731A4340D0009A62B3019A012A4FEA27
:10244000075215DC001B61EB02014FF0004202EA6B
:102450000752CDE90042001C41F5801132462B465F
:1024600000F09AF903B0BDE8F08F40462146F9E745
:10247000001B61EB0201001C41F5801300185B4159
:102480002018A2F5001747EB030140EAD570B619F2
:102490006D4111E06D084FEA360645EAC0754FEA16
:1024A0000752001B61EB0201001C41F58011490835
:1024B0004FEA30000019514132462B4603B0BDE8C7
:1024C000F04F00F05AB90098012240000023D0EBF1
:1024D000020263EBE073009821464FEAE074B8EB28
:1024E000000061EB0401E9E783F000435BE781F062
:1024F000004158E72DE9FE4F81EA030404F000444F
:1025000021F0004100944FF0000B23F0004350EA0B
:1025100001045ED052EA03045BD0C3F30A54C1F352
:102520000A552C44A4F2F3340194A0FB0254C1F3E5
:10253000130141F48011C3F3130343F4801301FB2F
:10254000024400FB034E840A970A44EA815447EA96
:102550008357A4FB076802958D0A05FB07854FEAA0
:10256000932C04FB0C542705029D4FEA065847EABA
:102570001637B5EB08056EEB070C870E920E47EA8F
:10258000811742EA8312A7FB0201B6EB0B0164EB51
:1025900000042B0D43EA0C335E1844EB1C50DA4662
:1025A0005146E7FB0201C5F313044FEA0B3343EA3C
:1025B00014534FEA0432019C43EA0603A4F10C04CD
:1025C0000294009CCDE900B400F0E6F803B0BDE849
:1025D000F08F00200146F9E72DE9F04D81EA030470
:1025E00004F0004B21F0004514464FF0000A23F0A0
:1025F000004150EA050220D054EA01021DD0C5F383
:102600000A570246C5F31303C1F31300C1F30A5678
:1026100040F4801543F48013A7EB0608101BD64640
:1026200008F2FD3873EB050002D308F1010801E060
:1026300092185B41B8F1000F03DA00200146BDE8B3
:10264000F08D00204FF48011064684460EE0171BE3
:1026500073EB050705D3121B63EB050306434CEA36
:10266000010C49084FEA300092185B4150EA01071B
:10267000EDD152EA030012D082EA040083EA050198
:10268000084305D0101BAB4106D20122002306E00F
:1026900000224FF0004302E06FF0010253101AEBEA
:1026A00006004CEB085110EB0A0041EB0B01BDE8B2
:1026B000F04D00F062B8C1F30A52C1F3130140F2C9
:1026C000FF3341F480119A4202DA0020014670473C
:1026D00040F233439A42A2F2334202DC524200F00B
:1026E0002AB800F019B8000030B5041E71F10004DA
:1026F00004DB4FF00044404264EB0101141E73F10F
:10270000000405DB1C464FF00043524263EB040318
:10271000994208BF904230BD202A04DB203A00FADB
:1027200002F1002070479140C2F1200320FA03F328
:10273000194390407047202A04DB203A21FA02F026
:102740000021704721FA02F3D040C2F120029140EB
:10275000084319467047202A06DBCB17203A41FA76
:1027600002F043EAE07306E041FA02F3D040C2F11E
:102770002002914008431946704710B5141E73F1AA
:10278000000408DA401C41F1000192185B411A4331
:1027900001D120F0010010BD2DE9F04D92469B467D
:1027A00011B1B1FA81F202E0B0FA80F22032904623
:1027B000FFF7B2FF04460F4640EA0A0041EA0B0168
:1027C00053465A46084313D0114653EA010019D024
:1027D000C8F140025046FFF7AEFF05460E46504690
:1027E00059464246FFF798FF084305D0012004E010
:1027F00020463946BDE8F08D0020054346EAE076E4
:102800002C4337430A986305E40AA0EB0800002232
:10281000FD0A44EA47540A3002D500200146E9E7A0
:10282000010510196941DDE9084500196941BDE854
:10283000F04DA2E780B58EB048F28010C5F20000DE
:102840000DF137010B9001F094F99DF837100B9AB8
:102850000A90104601F092F99DF837108907002977
:102860004AD5FFE748F28010C5F200000DA9099093
:1028700001F089F909990890084601F089F945F6AF
:102880006F31C2F200010790084601F021FA0021E1
:102890000C91FFE70C98BDF83410884211DAFFE77D
:1028A0000C984BF24401C2F20001095C45F69230EB
:1028B000C2F2000001F00CFAFFE70C9801300C9016
:1028C000E8E745F67F30C2F2000001F001FA4BF272
:1028D0004402C2F2000243F20001C6F2000148F2D3
:1028E0008013C5F200034FF0200C069008461946ED
:1028F000634600F095FDFFE700208DF8370048F2B1
:10290000C010C5F200000DF13701059001F031F95A
:102910009DF83710059A0490104601F02FF99DF8A4
:102920003710890700291ED5FFE748F2C010C5F20D
:102930000000039001F02CF945F67831C2F2000155
:102940000290084601F0C4F94BF26402C2F20002A0
:1029500043F20001C6F200012023019008460399CA
:1029600000F0E0FDFFE70EB080BD000080B590B044
:102970000E900D910C9200F019FBEFF308810F916E
:102980000F9945F6CC22C2F200020990104601F0E0
:102990009FF900210B919DF838100907002907D5F0
:1029A000FFE745F6E810C2F2000001F091F906E0F9
:1029B00045F61820C2F2000001F08AF9FFE79DF801
:1029C00038004007002809D5FFE745F60920C2F284
:1029D000000001F07DF90C990B9108E045F6FA1022
:1029E000C2F2000001F074F90D990B91FFE745F672
:1029F0002F20C2F2000001F06BF90B99096845F62F
:102A00005C22C2F200020890104601F061F90B99B5
:102A1000496845F66A22C2F200020790104601F0AA
:102A200057F90B99896845F67822C2F200020690A0
:102A3000104601F04DF90B99C96845F68622C2F29D
:102A400000020590104601F043F90B99096945F61B
:102A5000B022C2F200020490104601F039F90B993D
:102A6000496945F6A222C2F200020390104601F025
:102A70002FF90B99896945F69422C2F2000202905F
:102A8000104601F025F90B99C96945F6BE22C2F23C
:102A900000020190104601F01BF90B9989690A9117
:102AA0004EF62C51CEF2000109688907002907D59E
:102AB000FFE745F68D00C2F2000001F009F9FFE7DB
:102AC0004EF62C50CEF200000068C00F002807D050
:102AD000FFE745F6A800C2F2000001F0F9F8FFE7B1
:102AE0004EF62C50CEF2000000684000002840F165
:102AF0008581FFE745F67800C2F2000001F0E8F8B2
:102B00004EF62851CEF200010968090600296ED060
:102B1000FFE745F65800C2F2000001F0D9F84EF682
:102B20002851CEF200010968C907002908D0FFE743
:102B30000A9945F66610C2F2000001F0C9F8FFE7F5
:102B40004EF62850CEF200000068800700281DD500
:102B5000FFE70A9945F6F300C2F2000001F0B8F869
:102B60004EF62851CEF200010968090600290CD55D
:102B7000FFE74EF63450CEF20000016845F6DB1058
:102B8000C2F2000001F0A4F8FFE7FFE74EF628507C
:102B9000CEF2000000680007002807D5FFE745F2E5
:102BA0001670C2F2000001F093F8FFE74EF62850CD
:102BB000CEF200000068C006002807D5FFE745F206
:102BC0006C70C2F2000001F083F8FFE74EF6285067
:102BD000CEF2000000688006002807D5FFE745F226
:102BE0007560C2F2000001F073F8FFE7FFE74EF6F0
:102BF0002850CEF20000006810F47F4F7DD0FFE730
:102C000045F69C00C2F2000001F062F84EF6285131
:102C1000CEF200010968C905002907D5FFE745F292
:102C20009B50C2F2000001F053F8FFE74EF6285027
:102C3000CEF200000068800500281DD5FFE70A9944
:102C400045F6BC00C2F2000001F042F84EF62851F1
:102C5000CEF200010968090400290CD5FFE74EF601
:102C60003850CEF20000016845F6DB10C2F20000D9
:102C700001F02EF8FFE7FFE74EF62850CEF20000F5
:102C800000684005002807D5FFE745F22F50C2F243
:102C9000000001F01DF8FFE74EF62850CEF20000CC
:102CA00000680005002807D5FFE745F2C070C2F2B2
:102CB000000001F00DF8FFE74EF62850CEF20000BC
:102CC0000068C004002807D5FFE745F60D00C2F2F2
:102CD000000000F0FDFFFFE74EF62850CEF20000A6
:102CE00000688004002807D5FFE745F2C960C2F2FA
:102CF000000000F0EDFFFFE7FFE74EF62850CEF2B0
:102D000000000068000C002877D0FFE745F66A0055
:102D1000C2F2000000F0DCFF4EF62851CEF20001B6
:102D20000968C903002907D5FFE745F2B940C2F297
:102D3000000000F0CDFFFFE74EF62850CEF2000075
:102D400000688003002807D5FFE745F23760C2F22C
:102D5000000000F0BDFFFFE74EF62850CEF2000065
:102D600000684003002807D5FFE745F28A40C2F219
:102D7000000000F0ADFFFFE74EF62850CEF2000055
:102D800000680003002807D5FFE745F2C950C2F2EA
:102D9000000000F09DFFFFE74EF62850CEF2000045
:102DA0000068C002002807D5FFE745F20A60C2F2BA
:102DB000000000F08DFFFFE74EF62850CEF2000035
:102DC0000068C001002807D5FFE745F26750C2F24E
:102DD000000000F07DFFFFE74EF62850CEF2000025
:102DE00000688001002807D5FFE745F2F340C2F2F2
:102DF000000000F06DFFFFE7FFE7FFE700F08EF84F
:102E0000FFE7FEE780B500F0E7F980BD80B500F090
:102E1000E3F980BD80B500F0DFF980BD80B586B0F4
:102E200005900491039200F0C1F80599049A039B60
:102E300045F63D2CC2F2000C0290604600F048FFBF
:102E4000019000F06BF8FFE7FEE7000080B586B068
:102E5000DDF820C004900391029201930298B0F132
:102E6000C04F10D0FFE7029840F20041C6F20001C7
:102E7000884208D0FFE7029840F60001C6F2000140
:102E8000884210D1FFE704984BF20001C6F204011A
:102E900088420CD0FFE704984BF28001C6F204018F
:102EA000884204D0FFE710208DF8170032E0089820
:102EB0004BF28401C2F200010860086800280CD0BF
:102EC000FFE74BF29200C2F20000002101804BF2BA
:102ED0009000C2F200000180FFE702984BF28C01E3
:102EE000C2F20001086004984BF28801C2F20001AE
:102EF000086003984BF29401C2F200010860019847
:102F00004BF29801C2F20001086000F04FF88DF812
:102F10001700FFE79DF8170006B080BD80B582B0AE
:102F20004BF28400C2F200000068002801D1FFE7E4
:102F30003AE0FFE74BF29200C2F2000000884BF249
:102F40009001C2F20001098888422DD0FFE74BF2C0
:102F50008C00C2F2000000684BF28401C2F2000152
:102F60000A6812684BF29203C2F20003B3F800C081
:102F700012F80C2001911146009300F00EFE00990A
:102F80000A8801320A800A88019BD3F800C0BCF885
:102F900004C0624507DBFFE74BF29200C2F200007B
:102FA00000210180FFE7C5E702B080BD80B586B093
:102FB0004BF28C00C2F200000068B0F1C04F17D194
:102FC000FFE72B2000F0EEFD4BF28801C2F200017A
:102FD00009684BF29402C2F20002126804230290C4
:102FE000084611461A4600F0E2FD8DF816003AE058
:102FF0004BF28C00C2F20000006840F20041C6F2C1
:103000000001884217D1FFE72C2000F0CBFD4BF2E6
:103010008801C2F2000109684BF29402C2F2000278
:10302000126808230190084611461A4600F0BFFDB9
:103030008DF8160016E02D2000F0B4FD4BF288014B
:10304000C2F2000109684BF29402C2F20002126857
:103050000C230090084611461A4600F0A8FD8DF892
:103060001600FFE7FFE7FFE79DF81600002805D0F0
:10307000FFE79DF816008DF8170031E0FFE74BF2EF
:103080008800C2F2000000684BF29401C2F2000115
:103090000968022200F090FD8DF81600FFE79DF808
:1030A0001600002805D0FFE79DF816008DF81700E0
:1030B00016E0FFE74BF29800C2F2000000680390B0
:1030C00043F22100C0F2011004904BF28C00C2F2D6
:1030D0000000006803A900F074FD8DF81700FFE7F9
:1030E0009DF8170006B080BD80B584B003900291B2
:1030F0004BF28400C2F20000006800280ED1FFE706
:1031000003988DF807004BF28C00C2F200000068B3
:103110000DF10701012200F059FD1FE003984BF269
:103120008401C2F200010A6812684BF29003C2F2F5
:103130000003B3F800C002F80C00188801301880B2
:10314000188809688988884207DBFFE74BF29000FE
:10315000C2F2000000210180FFE7FFE7039804B0FE
:1031600080BD000080B500F0A1F880BD80B588B0BA
:103170001C208DF81D001A208DF81F001B208DF8D3
:103180001E009DF81D0000F00DFD9DF81F204BF264
:103190000001C6F204010123069008460591194674
:1031A000049300F004FD9DF81E200221059B03906E
:1031B0001846029100F0FBFC05990190084604991D
:1031C000029A00F0F9FC0599009008460299029ACB
:1031D00000F0F2FC08B080BD80B584B00020ADF8EE
:1031E0000C0043F20000C6F200000DF10E0100F0E9
:1031F000F2FCBDF80E10090600294CD5FFE7FFE7E9
:1032000043F23400C6F2000000680021002801915A
:1032100008D0FFE7BDF80C0000212028B8BF01212D
:103220000191FFE70198C007002810D0FFE743F2A3
:103230000400C6F200000068BDF80C104A1CADF88E
:103240000C204BF24402C2F200025054D8E7BDF801
:103250000C0000281ED0FFE700200290FFE7029834
:10326000BDF80C10884211DAFFE702984BF24401D6
:10327000C2F20001095C45F69230C2F2000000F093
:1032800027FDFFE7029801300290E8E70020ADF843
:103290000C00FFE7FFE7BDF80E1043F20000C6F296
:1032A000000000F09DFC04B080BD000080B584B03B
:1032B00000F080F8FFE70A2000F097FC4BF22401B1
:1032C000C2F2000143F20000C6F2000020220123F6
:1032D00000F004FB8DF80E009DF80E00002809D0C8
:1032E000FFE79DF80E1045F63730C2F2000000F0FF
:1032F000EFFCE0E7642000F078FC4BF20401C2F23E
:10330000000143F20000C6F200002022002300F07A
:10331000A5F98DF80E009DF80E00002809D0FFE7F2
:103320009DF80E1045F61E30C2F2000000F0D0FCF1
:10333000C1E743F20000C6F2000000F09BFA8DF8EE
:103340000F009DF80F00002809D0FFE79DF80F102F
:1033500045F65130C2F2000000F0BAFCABE745F68A
:103360008130C2F2000000F0B3FC00210291FFE7BF
:1033700002981F2811D8FFE702984BF20401C2F20D
:103380000001095C45F69030C2F2000000F0A0FC9C
:10339000FFE7029801300290EAE745F6E510C2F235
:1033A000000000F095FC4FF47A710190084600F09F
:1033B0001CFC80E780B584B0FFF7D8FE6420019044
:1033C0006A20ADF80800039820F4003003900398B9
:1033D00040F4803003900398022161F393400390FE
:1033E000039840F48010039043F20000C6F20000FE
:1033F00001A900F0FFFB00210091FFE700981F28C2
:103400000BDCFFE700984BF22401C2F200010854E4
:10341000FFE7009801300090F0E704B080BD0000A5
:1034200080B588B09C46069005910492ADF80E30A8
:10343000069800280DD0FFE70598002809D0FFE77F
:103440000498002805D0FFE7BDF80E00002804D13D
:10345000FFE710208DF81F0060E006980430059902
:1034600048610498059988610598C0680290BDF884
:103470000A0000040290BDF80E0002990843029071
:1034800002980599C8600698012100F0B8FB8DF8F4
:103490000700FFE79DF80700002805D0FFE79DF82B
:1034A00007008DF81F0039E0FFE705983F2100F085
:1034B00065FB8DF80700FFE79DF80700002805D0A1
:1034C000FFE79DF807008DF81F0027E0FFE705984C
:1034D000022100F099FB8DF80700FFE79DF8070037
:1034E000002805D0FFE79DF807008DF81F0015E0C4
:1034F000FFE7059800F08DFB8DF80700FFE79DF8CA
:103500000700002805D0FFE79DF807008DF81F0091
:1035100004E0FFE700208DF81F00FFE79DF81F0083
:1035200008B080BD80B588B09C4606900591049295
:10353000ADF80E30069800280DD0FFE7059800285A
:1035400009D0FFE70498002805D0FFE7BDF80E007A
:10355000002804D1FFE710208DF81F005FE00498D9
:10356000059948610698059988610598C068029098
:10357000BDF80A0000040290BDF80E00029908434D
:10358000029002980599C86005983F2100F0F6FA6C
:103590008DF80700FFE79DF80700002805D0FFE73A
:1035A0009DF807008DF81F0039E0FFE7059802211C
:1035B00000F02AFB8DF80700FFE79DF807000028C0
:1035C00005D0FFE79DF807008DF81F0027E0FFE713
:1035D0000598002100F022FB8DF80700FFE79DF819
:1035E0000700002805D0FFE79DF807008DF81F00B1
:1035F00015E0FFE7059800F00CFB8DF80700FFE7EA
:103600009DF80700002805D0FFE79DF807008DF81A
:103610001F0004E0FFE700208DF81F00FFE79DF882
:103620001F0008B080BD000080B582B0002001906E
:103630004EF20000C6F2040000F0F5FA642100909A
:10364000084600F0D2FA00F07DFA012000F038FAC6
:1036500000F004FAFFF786FDFFE7FEE72DE9F04FE3
:1036600081B00446A0F1C040A0F540504FEAB02020
:10367000032882BF012001B0BDE8F08F0F4600296A
:103680004FF001001CBF9146002A02D101B0BDE8F5
:10369000F08F204601210093012500F0C9FA204651
:1036A000022100F0CAFA204600F0CCFA2020A064E3
:1036B0004FF6FF704E46206165642564B9F1100F26
:1036C00028BF1026F1B2204600F0C1FAA9EB060A85
:1036D000A5646425E06B00F01F00092834D0E06B7E
:1036E00000F01F000A282FD0012000F0B5FAE06B8F
:1036F00000F01F000D2818BFB5F10105EAD1E06BFD
:1037000000F01F000D280CD0642500BF013D00F023
:10371000AC80012000F0A0FAE06B00F01F000D2843
:10372000F4D10220A064E16BC906AFD0642500BFCC
:10373000013D00F09A80012000F08EFAE06BC00697
:103740004FF00200F4D1A1E7B9F1000F3ED04FF0E5
:10375000000B4FF08008002508E000BF052000F0B6
:103760007BFA4FF0000BA8B248452FD2E06B00F077
:103770001F000F280ED15FEA0A4014D01FFA8AF604
:103780002046102E28BF1026F1B200F060FAAAEBF6
:10379000060A0EE0012000F05FFABBF5FA6F40D296
:1037A0000BF1010BDFE7204600214FF0000A00F08B
:1037B0004EFAA0680006D1D56068A9B201357854E8
:1037C000C4F81080A0680006F6D4C7E70820A064FB
:1037D000E06B00F01F000D280AD06425013D44D0A5
:1037E000012000F039FAE06B00F01F000D28F5D140
:1037F000009868B10220A064E06BC00608D0642580
:10380000013D32D0012000F027FAE06BC006F7D16D
:1038100020464FF6FF7100F0E3F9002001B0BDE84B
:10382000F08F0820A064E06B00F01F000D280BD083
:10383000642500BF013D18D0012000F00DFAE06BB7
:1038400000F01F000D28F5D10220A064E06BC00637
:103850000BD06425013D08D0012000F0FDF9E06B9C
:10386000C0064FF00400F5D110E7042001B0BDE818
:10387000F08F0000B0B50446A0F1C040A0F5405064
:103880004FEAB020032884BF1020B0BDE06B00F0E9
:103890001F000A280BD0E06B00F01F000E2806D096
:1038A000E06B00F01F000D281CBF0120B0BD0220FE
:1038B000A064E06BC00604BF0020B0BD642500BF5B
:1038C000013D04BF0320B0BD012000F0C5F9E06B4D
:1038D000C00604BF0020B0BDF2E700002DE9F047AC
:1038E0000446A0F1C040A0F540504FEAB0200328A4
:1038F00084BF0120BDE8F0870F4600294FF001008A
:103900001CBF9246002A01D1BDE8F0872046012164
:103910009846012500F08CF92046012100F08DF930
:10392000204600F08FF92020A0644FF6FF70206140
:1039300065642564A5646425E06B00F01F0007281A
:103940003BD0E06B00F01F000E2836D0E06B00F09B
:103950001F00082831D0012000F07EF9E06B00F054
:103960001F000D2818BFB5F10105E5D1E06B00F08F
:103970001F000D280AD06425013D1BD0012000F056
:103980006BF9E06B00F01F000D28F5D10220A06458
:10399000E16BC906B8D06425013D0BD0012000F0D1
:1039A0005BF9E06BC0064FF0020008BFBDE8F0878E
:1039B000013DF3D10420BDE8F087BAF1000F30D00B
:1039C00000254FF4005902E00135554529D0785DB6
:1039D0002060A068800409D440F2D176013E1BD05B
:1039E000012000F039F9A0688004F7D5C4F81090E0
:1039F000E06B00F01F000E28E6D06426013E04BFF5
:103A00000320BDE8F087012000F026F9E06B00F00C
:103A10001F000E28F2D1D7E70220A0640420BDE8E1
:103A2000F087B8F1000F10D00220A064E06BC00650
:103A30000BD06425013D04BF0420BDE8F0870120C0
:103A400000F00AF9E06BC006F4D120464FF6FF7192
:103A500000F0C6F80020BDE8F087000080B584B013
:103A6000012000210391039A00F0FBF86946039AB4
:103A70000A604BF20001C6F204014FF0004340F22D
:103A80000042C6F200024FF4612C0290084619462B
:103A90006346FFF7DBF945F6F421C2F2000145F673
:103AA0009832C2F2000245F6A433C2F2000301903C
:103AB000084611461A4600F00BF904B080BD00001C
:103AC00080B584B001468DF80F0000208DF80E00FF
:103AD0000F200DF10E020123029111461A4600F04B
:103AE000C5F89DF80E10002904D1FFE7562000F01C
:103AF000C2F8FFE710200DF10E01012200F0B6F828
:103B00009DF80E10002905D0FFE79DF80E0000F08B
:103B1000B7F803E0A92000F0B3F8FFE7002000F0B9
:103B2000B4F8032164220190084600F0B3F89DF830
:103B30000F1040F6C41200900846114600F0AFF88E
:103B400004B080BD80B584B0022000F0ADF8002143
:103B500003900846029100F0ACF8029901900846E3
:103B600000F0ACF802990090084600F0ACF804B000
:103B700080BD48F21D2CC0F2000C604748F2590C81
:103B8000C0F2000C604748F2C52CC0F2000C604740
:103B900048F2AD0CC0F2000C60474DF67D7CC0F2DF
:103BA000000C604747F67D1CC0F2000C604749F6E8
:103BB000210CC0F2000C604749F69D0CC0F2000CCD
:103BC00060474DF6656CC0F2000C60474EF2CD1CAC
:103BD000C0F2000C604749F6013CC0F2000C60479F
:103BE00049F6812CC0F2000C604744F2717CC0F2AF
:103BF000000C604749F69D4CC0F2000C60474AF249
:103C00005D3CC0F2000C604748F2351CC0F2000C6D
:103C1000604748F2151CC0F2000C604748F2195C7E
:103C2000C0F2000C60474FF6310CC0F2000C604748
:103C30004AF22D3CC0F2000C60474AF2112CC0F24F
:103C4000000C604749F67D4CC0F2000C60474AF218
:103C5000911CC0F2000C604744F2817CC0F2000C61
:103C600060474CF2113CC0F2000C604748F20D7CFA
:103C7000C0F2000C60474AF6596CC0F2000C604775
:103C80004AF6696CC0F2000C60474AF6B13CC0F2DB
:103C9000000C604745F6651CC0F2000C604745F615
:103CA000295CC0F2000C60474AF67D5CC0F2000C53
:103CB00060474AF6A95CC0F2000C60474AF6FD5C1A
:103CC000C0F2000C604745F6214CC0F2000C604782
:103CD0000FB4054B10B503A9044A029800F0CAF8C6
:103CE00010BC5DF814FB0000D13F002000B00020A4
:103CF0002DE9FF5F82B00021DDE90430020DDDF81F
:103D000040B0034318D044F61050A2F2FF324243B1
:103D10001514119801281FD0A5EB0B00401C5FEA79
:103D2000000A4FF000064E4FDFF83891B04650467B
:103D300015D5CAF1000413E0119801244AA3012803
:103D400001D16FEA0B010298119AC0E90031C0E974
:103D5000024206B0BDE8F09FCBF10000DFE7044669
:103D60000021404A491842EB0450CDE9001012E00E
:103D7000E00707D032463B4640464946FEF7BAFBCD
:103D80008046894632463B4610461946FEF7B2FB4E
:103D900006460F466410002CEAD1DDE90401DDE996
:103DA0000023BAF1000F06DAFEF7A4FB42464B46A9
:103DB000FEF7A0FB05E0FEF70FFC42464B46FEF780
:103DC0000BFC04460E460022284BFEF78DFC03D860
:103DD0004FF0FF30014607E00022254B20463146D8
:103DE000FEF7E1FAFEF767FC102409E0002C0ADB7D
:103DF0000A220023FEF7A6FA039B30321A55641EEE
:103E000050EA0102F2D1641C039AC4F11103144474
:103E1000119A012A03D0012208430DD10AE0084378
:103E200004D000204FF0110B119072E7A3EB0B05AB
:103E30006D1E0DE05B4504DD4FF0000205F101054C
:103E400004E003DA4FF00002A5F10105002AECD0EE
:103E500002981199C0E90231C0E9004579E70000F4
:103E6000000014400000F03F300000000000F0436C
:103E70000000E03F2DE9FF4F95B09B46894606467E
:103E800000250FE2252877D100242746F84A012192
:103E9000059400E0044316F8013F203B01FA03F0CB
:103EA0001042F7D130782A2811D06FF02F033078E4
:103EB000A0F13002092A16D8059A44F0020402EB58
:103EC000820203EB42021044761C0590EFE759F89A
:103ED000042B0592002A03DA504244F40054059062
:103EE00044F00204761C30782E2816D116F8010F03
:103EF00044F004042A280DD06FF02F023078A0F18E
:103F00003003092B09D807EB870302EB4303C718DB
:103F1000761CF3E759F8047B761C30786C280FD0B8
:103F200006DC4C2817D068280DD06A2814D104E08C
:103F3000742810D07A280FD10DE044F400140AE060
:103F400044F4801401E044F440147278824202D1B7
:103F500004F58014761C761C307866280BD013DCB0
:103F6000582877D009DC002875D04528F6D0462897
:103F7000F4D047281AD19DE118E0632835D0642891
:103F800079D0652812D195E1702873D008DC6728B4
:103F9000F1D069286FD06E280DD06F2806D1B5E01A
:103FA00073282CD0752875D0782874D05A46179964
:103FB00090476D1C75E1C4F30250022809D0032814
:103FC0000DD0D9F8001004280DD00D6009F10409B6
:103FD00067E1D9F80010EA17C1E90052F6E7D9F80D
:103FE00000100D80F2E70D70F0E719F8041B8DF852
:103FF000001000208DF80100EA46012003E059F886
:1040000004AB4FF0FF3061074FF0000102D40DE028
:1040100008F101018846B9420FDA8045F8DB1AF849
:1040200008100029F4D108E008F101018846814216
:10403000FADB1AF808100029F6D105985B46A0EBC8
:10404000080721463846179A00F094FA284400EBF6
:10405000080507E04DE029E10DE01AF8010B5A468A
:1040600017999047B8F10108F7D25B4621463846C8
:10407000179A13E142E00A220092C4F302524FF071
:10408000000A022A08D059F804CB032A4FEAEC713F
:104090000AD00DE029E02AE009F1070121F007022A
:1040A000F2E802C1914609E00FFA8CFC4FEAEC718C
:1040B000042A03D14FFA8CFC4FEAEC71002907DA8D
:1040C0000A460021DCF1000C61EB02012D2202E026
:1040D000220504D52B228DF80420012203E0E207FB
:1040E00001D02022F7E7904659E00A2102E0102291
:1040F0000DE010214FF0000A00910BE010224FF06C
:10410000000A44F004040827009203E008224FF05C
:10411000000A0092C4F30252022A05D059F804CBD7
:104120000021032A08D009E009F1070121F0070264
:10413000F2E802C1914605E01FFA8CFC042A01D185
:104140000CF0FF0C4FF00008220728D5702806D08D
:10415000009B83F0100353EA0A0305D00EE04022CF
:104160008DF80420012208E05CEA010206D030222A
:104170008DF804208DF8050002229046009B83F004
:10418000080353EA0A030AD15CEA010201D162077B
:1041900005D530228DF804204FF001087F1E5828E5
:1041A00004D034A003900EA802900DE036A0F9E7E9
:1041B00053466046009AFEF7C5F884460398825C31
:1041C0000298401E029002705CEA0100F0D1029851
:1041D00006A9081A00F1200A600702D524F48034E9
:1041E00000E00127574502DDA7EB0A0000E00020B0
:1041F00000EB0A01009005984144401A0590E00345
:1042000006D45B462146179A059800F0B3F9054499
:10421000002706E001A85A46C05D179990476D1C1B
:104220007F1C4745F6DBE0030CD55B462146179A19
:10423000059800F09FF9054404E030205A4617998C
:1042400090476D1C0099481E00900029F5DC08E09D
:10425000029802995A460078491C02911799904792
:104260006D1CBAF10001AAF1010AF1DC65E1000060
:10427000092801003031323334353637383961623C
:104280006364656600000000303132333435363700
:1042900038394142434445460000000000F058F9D7
:1042A0000544761C307800287FF4ECAD19B0284620
:1042B000BDE8F08F620700D4062709F1070222F05B
:1042C000070CFCE80223E14603F000485FEA080C13
:1042D00002D00FF2702C0DE05FEA045C02D50FF201
:1042E000682C07E05FEAC47C02D00FF2602C01E08A
:1042F000AFF2700C4FF0FF3823F00043CDF850C000
:1043000065280CD006DC452809D046281DD0472852
:104310003DD13DE0662818D067287ED138E00021E5
:10432000112F01DB112000E0781CCDE9000106A966
:104330000EA8FFF7DDFCDDE90F010E9A03910021C5
:10434000009207F1010A04914DE04FF00040009700
:10435000CDE9011006A90EA8FFF7CAFCDDE90F029E
:1043600003920E9B11990022DDF80CA00093049299
:1043700011B9791C00EB010AB7EB0A0004D4C0F1B3
:10438000FF3007F1010A0490AAEB0700019044E016
:10439000012F00DA01270021112F01DD112000E09B
:1043A0003846CDE9000106A90EA8FFF7A1FCDDE91A
:1043B0000F010E9A0391002104910092BA46210741
:1043C0000CD40399514500DA8A46BAF1010F05DD94
:1043D000009AAAF10101515C302908D0B84202DAF2
:1043E00010F1040F06DA0121CDE9011015E0AAF160
:1043F0000101E9E7002805DC049901440491AAEBD6
:10440000000102E0411C514500DD8A460499401A32
:10441000401C01904FF000400290200704D4019806
:10442000504501DBCDF8048000208DF84F00029844
:104430000DF14F07B0F1004F25D02B200E900298C0
:104440004FF0020800280CDA404202902D200E9016
:1044500007E00A210298FDF75FFF3031029007F86C
:10446000011DB8F10001A8F10108F2DC0298002852
:10447000EFD1791E0E980870307800F0200040F0DF
:10448000450007F8020D12A8C01B00F10708149898
:10449000007800B1012000EB0A01019801EBE07106
:1044A00005984144401A401E0590E00306D45B463F
:1044B0002146179A059800F05DF805441498007895
:1044C00018B15A46179990476D1CE00324D55B46F6
:1044D0002146179A059800F04DF805441CE0049811
:1044E000002807DBDDE90301884203DD0098405C1A
:1044F000179901E0179930205A469047049805F122
:104500000105401C04900198401E019004D12E200A
:104510005A46179990476D1CBAF10001AAF1010A99
:10452000DDDC05E017F8010B5A46179990476D1C22
:10453000B8F10001A8F10108F4DC5B462146179AA6
:104540000598ABE62D0000002B00000020000000C5
:104550002DE9F041044600251E461746880404D480
:1045600005E039462020B0476D1C641EF9D5284669
:10457000BDE8F0812DE9F041044600251E46904635
:10458000C80301D5302700E02027880404D505E0C2
:1045900041463846B0476D1C641EF9D52846BDE833
:1045A000F0815B494E5650435D616E20696E7465C3
:1045B000677269747920636865636B206572726FD6
:1045C0007220686173206F636375727265640D0A8F
:1045D000005B554E444546494E5354525D616E2032
:1045E000756E646566696E656420696E7374727554
:1045F0006374696F6E206572726F722068617320D8
:104600006F636375727265640D0A005B44495642BC
:10461000595A45524F5D616E20696E7465676572C7
:10462000206469766973696F6E206279207A657299
:104630006F206572726F7220686173206F6363759B
:10464000727265640D0A005B494D505245434953EF
:104650004552525D496D707265636973652064618E
:10466000746120616363657373206572726F722079
:10467000686173206F636375727265640D0A005B15
:10468000554E414C49474E45445D616E20756E6103
:104690006C69676E6564206163636573732065721E
:1046A000726F7220686173206F63637572726564E4
:1046B0000D0A005B494255534552525D696E737451
:1046C00072756374696F6E20627573206572726FA4
:1046D0007220686173206F636375727265640D0A7E
:1046E000005B4E4F43505D6120636F70726F636576
:1046F00073736F722064697361626C6564206F729A
:10470000206E6F742070726573656E7420657272AE
:104710006F7220686173206F636375727265640DD8
:104720000A005B53544B4F465D6120737461636BA9
:10473000206F766572666C6F77206572726F72207B
:10474000686173206F636375727265640D0A005B44
:10475000494E5653544154455D20616E2045505397
:10476000522E54206F7220455053522E49542076B9
:10477000616C6964697479206572726F7220686116
:1047800073206F636375727265640D0A005B4D4C34
:1047900053504552525D41204D656D4D616E6167CC
:1047A00065206661756C74206F63637572726564F1
:1047B00020647572696E6720666C6F6174696E67DC
:1047C0002D706F696E74206C617A792073746174D6
:1047D0006520707265736572766174696F6E0D0A1B
:1047E000005B4C53504552525D4120627573206608
:1047F00061756C74206F6363757272656420647593
:1048000072696E6720666C6F6174696E672D706F78
:10481000696E74206C617A7920737461746520709C
:104820007265736572766174696F6E0D0A005B4D17
:10483000554E53544B4552525D556E737461636BC4
:1048400020666F7220616E20657863657074696F91
:104850006E2072657475726E206861732063617575
:10486000736564206F6E65206F72206D6F726520B6
:104870006163636573732076696F6C6174696F6ED1
:10488000730D0A005B4D53544B4552525D53746196
:10489000636B696E6720666F7220616E2065786356
:1048A000657074696F6E20656E74727920686173CB
:1048B00020636175736564206F6E65206F72206D73
:1048C0006F7265206163636573732076696F6C61D5
:1048D00074696F6E730D0A005B554E53544B45520D
:1048E000525D556E737461636B20666F7220616EEA
:1048F00020657863657074696F6E20726574757277
:104900006E2068617320636175736564206F6E65E6
:10491000206F72206D6F7265204275734661756CF1
:1049200074730D0A005B53544B4552525D537461CE
:10493000636B696E6720666F7220616E20657863B5
:10494000657074696F6E20656E747279206861732A
:1049500020636175736564206F6E65206F72206DD2
:104960006F7265204275734661756C74730D0A0031
:104970004D656D4D616E616765204661756C740DA6
:104980000A005573616765204661756C740D0A00F5
:10499000436F6E666967757261626C65204661750A
:1049A0006C740D0A00566563746F72204661756CF5
:1049B000740D0A00427573204661756C740D0A000F
:1049C0004465627567204576656E74204661756C36
:1049D000740D0A005B5052454349534552525D20C5
:1049E0006461746120627573206572726F722068F1
:1049F0006173206F636375727265642C205043206D
:104A00003A203078253038780D0A005B4441434322
:104A100056494F4C5D205468652070726F63657312
:104A2000736F7220617474656D70746564206120A9
:104A30006C6F6164206F722073746F726520617493
:104A40002061206C6F636174696F6E20746861749B
:104A500020646F6573206E6F74207065726D697469
:104A600020746865206F7065726174696F6E2C20A8
:104A70005043203A203078253038780D0A005B49C1
:104A800041434356494F4C5D5468652070726F63D3
:104A90006573736F7220617474656D7074656420E2
:104AA000616E20696E737472756374696F6E2066CF
:104AB000657463682066726F6D2061206C6F63613E
:104AC00074696F6E207468617420646F6573206E02
:104AD0006F74207065726D69742065786563757494
:104AE000696F6E2C205043203A203078253038787A
:104AF0000D0A004154203A3078253038780D0A00EC
:104B00004F63637572656420696E207461736B2EE8
:104B10000A005573696E67207533324D73702E0A23
:104B2000005573696E67207533325073702E0A001A
:104B30004F63637572656420696E20696E74657277
:104B4000727570742E0A00537461636B2066726113
:104B50006D653A0A004E4D495F48616E646C65723E
:104B60003A20253038582C20253038582C20253034
:104B700038580A00523020203A20307825303858F2
:104B80000A00523120203A203078253038580A0067
:104B9000523220203A203078253038580A005233DB
:104BA00020203A203078253038580A005043202001
:104BB0003A203078253038580A004C5220203A20CC
:104BC0003078253038580A00523132203A20307877
:104BD000253038580A00785053523A203078253022
:104BE00038580A005B486172644661756C745F48AE
:104BF000616E646C65725D43757272656E74206D72
:104C000073703A203078253038580A005B257320BD
:104C1000542025735D493243206578616D706C6561
:104C200020636F646520737461727420746F2077E1
:104C30006F726B2E0A004D6173746572205265614C
:104C400064204661696C6564203A2025640A004D41
:104C50006173746572205772697465204661696C6E
:104C60006564203A2025640A004D617374657220E2
:104C700053656E642053746F70204661696C65647F
:104C8000203A2025640A00727820646F6E650A005D
:104C9000747820646F6E650A004D617374657220CC
:104CA00052656164203A2000307825303258200067
:104CB0004A756E20323620323032340031383A357F
:0C4CC000363A3334000000000000000011
:040000051000215571
:00000001FF
