:020000041000EA
:100000004B2A110200000000A4030000EEC3A6E981
:100010007EEEE78880B500F087F90020002100F02F
:100020000DF8292000F00FF8202000F011F800F062
:1000300033F900F013F800F025F980BD4CF2B93C1B
:10004000C0F2000C604747F67D1CC0F2000C604710
:1000500047F6D12CC0F2000C6047000080B54FF08D
:10006000A040012100F075F900060BD1032000F03B
:1000700075F9000606D1012000F075F9000604BFED
:10008000002080BD00F074F94FF47A7000F075F92B
:10009000012080BD2DE9F04381B019B343F2B83897
:1000A0000F4606464FF0FF344FF00009C2F2000839
:1000B0003D46B7F5807F28BF4FF480754FF0A040D4
:1000C000314642462B46CDF8009000F05BF960B90E
:1000D00040462946224600F05AF904467F1B2E442A
:1000E000E6D103E04FF0FF3400E00124204601B0E8
:1000F000BDE8F08310B582B004464FF0000C4FF01D
:10010000A0404FF4805122462023CDF800C000F0DB
:1001100039F9000622D120461C214FF0FF3200F0B1
:1001200036F9E169814219D1E078112816D1A07819
:10013000022813D1E168B1F5002F0FD8606846F2AC
:100140007872C4F26A72904208D1A068FFF7A2FFE9
:100150002169401A18BF012002B010BD012002B071
:1001600010BD00002DE9F0410C4605460E184FF079
:100170000008B4F5803F07D3A8B228B94FF4803700
:100180000321102021E000BFB4F5004F08D328461A
:100190006FF3DF3020B94FF4004702210F2014E045
:1001A00029466FF31F31200BB1FA81F1B8EB143FF0
:1001B00018BF0120490901404FF008004FF4807733
:1001C00018BF0C2018BF4FF4805725FA00F082B2F8
:1001D0004FF0A04047F2305300F0DEF800060BD19C
:1001E0003D44B542A4EB070424BF0020BDE8F081E4
:1001F000B4F5803FC0D2C7E700F0BAF84FF47A7088
:1002000000F0BBF80120BDE8F08100002DE9F047C7
:1002100082B04FF000098AB343F2B83814460E4654
:100220000746C2F2000840F6B83A00BF2546B4F5CA
:10023000807F28BF4FF480754FF0A040394642467A
:100240002B46CDF8009000F09DF890B94FF0A040FB
:10025000314642462B46CDF80090CDF804A000F080
:10026000A0F848B92F44641B2E44DFD14FF0000999
:1002700004E04FF0010901E04FF00109484602B0E7
:10028000BDE8F08780B542F20400C1F200000068CA
:1002900000F08CF880BD0000B0B588B06846FFF76C
:1002A00029FF08B101243CE0DDE90501FFF75AFF11
:1002B00038B100F05DF84FF47A7000F05EF8012478
:1002C0002FE0DDE902020599FFF7A0FF38B100F049
:1002D0004FF84FF47A7000F050F8012421E00399B0
:1002E0000598FFF7D7FE0499884213D14FF0A0403C
:1002F0000021102247F23053002400F04DF805464B
:1003000000F036F828060CD04FF47A7000F035F87B
:10031000012406E000F02CF84FF47A7000F02DF87C
:100320000124204608B0B0BDEC20C6F205000168EB
:100330007F2221F002010160016821F004010160C7
:100340006FF0030143180431342943F8D82CF9D154
:10035000704748F6F57CC0F2000C604747F2613CFC
:10036000C0F2000C604747F21D3CC0F2000C604731
:1003700047F6717CC0F2000C604744F2717CC0F219
:10038000000C604748F69D2CC0F2000C604744F218
:10039000C17CC0F2000C604748F6A10CC0F2000C12
:1003A000604749F2D90CC0F2000C604744F62D0CAE
:1003B000C0F2000C604700000000000000000000D8
:1003C000000000000000000000000000000000002D
:1003D000000000000000000000000000000000001D
:1003E000000000000000000000000000000000000D
:1003F00000000000000000000000000000000000FD
:1020000000100320D12400103D2500104F250010A2
:1020100061250010612500106125001000000000FE
:10202000000000000000000000000000D1020000DD
:10203000612500100000000075030000810300000E
:102040006125001061250010612500106125001038
:102050006125001061250010612500106125001028
:102060006125001061250010612500106125001018
:102070006125001061250010612500106125001008
:1020800061250010612500106125001061250010F8
:1020900061250010612500106125001061250010E8
:1020A00061250010612500106125001061250010D8
:1020B00061250010612500106125001061250010C8
:1020C00061250010612500106125001061250010B8
:1020D00061250010612500106125001061250010A8
:1020E0006125001061250010612500106125001098
:1020F0006125001061250010612500106125001088
:102100006125001061250010612500106125001077
:102110006125001061250010612500106125001067
:0C212000612500106125001061250010F1
:10212C000348044B834202D0034B03B1184770475A
:10213C00009002200090022000000000064B07498E
:10214C00C91A891048BF0131491003D0044B0BB197
:10215C0001481847704700BF0090022000900220F1
:10216C000000000010B5064C237843B9FFF7D8FFE8
:10217C00044B13B10448AFF300800123237010BD4E
:10218C0000900220000000005C26001008B5054BF2
:10219C001BB105490548AFF30080BDE80840FFF7C7
:1021AC00CDBF00BF00000000049002205C26001090
:1021BC00012070477047000007B53E4800F0C6FA92
:1021CC00642000F05FFA00F061FA0F2000F09EFA34
:1021DC00022000F0A3FA012000F0B4FA052000F070
:1021EC0069FA00F08BFA012000F070FA002301224A
:1021FC000F200DF107018DF8073000F04FFA9DF814
:10220C00073013B9562000F05DFA012210200DF1B1
:10221C00070100F043FA9DF80700002848D000F0B1
:10222C0085FA012000F04AFAB4220321052000F0BF
:10223C0039FA4FF4FA61012000F02CFA062000F074
:10224C0061FA072000F05EFA03224A231146104679
:10225C0000F04CFA4FF4FA71012000F007FA00225A
:10226C000120114600F066FA00F066F8C42000F078
:10227C00B1F911490220114A00F096F8202000F023
:10228C0039FA4FF480614FF4803000F057FA60B99E
:10229C000B4B596800F022FA292000F033FA2A205F
:1022AC0000F030FA202000F001FA00F013FAFCE7FD
:1022BC00A920B4E700E00460BD210010C12100108A
:1022CC0000300020FEE7FEE7FEE7000010F0040FF0
:1022DC0018BF11468B6982B00193164BDA6ADA6A21
:1022EC00DA6A500025D59A6AD2B242B19A6A9A6AD1
:1022FC00910748BF9B6A0F4B9A6A9A6A9B6A0D4B6F
:10230C009A6A12F47F4F08D09A6A9A6A920548BF6B
:10231C009A6A9A6A9A6A9A6A9B6A064B9A6AB2F5A0
:10232C00803F06D39A6A9A6A9A6A9A6A9A6A9A6AF1
:10233C009B6AFEE700ED00E0034B044A1A60044B75
:10234C00044A1A60704700BFE8000020D122001038
:10235C00EC000020D32200104FF08043D3F8800112
:10236C0010F001000AD0D3F88000D3F8E821044B18
:10237C00801AD3F804319BB25843800A704700BFCF
:10238C0000F00460042808B50BD8032804D1012000
:10239C0000F0C0F9002008BD04280CBF022000206A
:1023AC00F6E71020F7E70000F0B5414B85B0187048
:1023BC00404B07461960404B02201A600DF1070193
:1023CC00012200F06BF99DF80740C4F34114022C74
:1023DC0017D101224FF45041384800F0A3F922469E
:1023EC004FF44831354800F09DF93846FFF7CAFFE5
:1023FC0009230B220321012005B0BDE8F04000F0B9
:10240C0071B9032CF1D10124062202A93A2000F063
:10241C0045F99DF808002A4E284D00F01F01224670
:10242C0004FA01F11F288CBF3046284600F07AF9D7
:10243C009DF80900022200F01F0104FA01F11F2887
:10244C008CBF3046284600F06DF99DF80A002246F4
:10245C0000F01F0104FA01F11F288CBF30462846FA
:10246C0000F060F99DF80B00224600F01F0104FA01
:10247C0001F11F288CBF3046284600F053F99DF817
:10248C000C00022200F01F0104FA01F11F288CBF7E
:10249C003046284600F046F99DF80D00022200F067
:1024AC001F0104FA01F11F288CBF304628469AE719
:1024BC001C900220249002202090022000B0046086
:1024CC0080B00460244880F30888244880F30A888C
:1024DC0023488047002103E0224B5B5843500431D2
:1024EC002148224B42189A42F6D3002103E0204B9C
:1024FC005B58435004311F481F4B42189A42F6D385
:10250C00002103E01D4B5B58435004311C481D4B0C
:10251C0042189A42F6D31C4A02E00023136004329C
:10252C001A4B9A42F9D300F06FF8FFF745FEFEE71D
:10253C005FEA0E00EFF30881EFF30982144B984722
:10254C00FEE75FEA0E00EFF30881EFF30982114B0F
:10255C009847FEE7FEE70000001003200000032070
:10256C00A525001068270010003000202C39012010
:10257C00943001100012022030190220C4370110CF
:10258C00009002200090022000900220289002204F
:10259C00D5220010D92200100B4A0023114610B589
:1025AC000A4CE0580433B3F5967F41F8040BF8D18C
:1025BC00074B9A605A6942F010025A615A6942F408
:1025CC0080725A6110BD00BF001002200020001064
:1025DC0000ED00E0B0F5807F10B5044610D8094836
:1025EC0000F04CF814F03F0018BF0120012300EB61
:1025FC00941003FA00F0013800F03CF8002010BDF4
:10260C001020FCE7FFFF0F0070B50D4D00260D4CA0
:10261C00641BA410A64209D10B4D00260B4C00F0F4
:10262C0017F8641BA410A64205D170BD55F8043BE5
:10263C0001369847EEE755F8043B01369847F2E728
:10264C00602700106027001060270010642700101E
:10265C00F8B500BFF8BC08BC9E467047F8B500BF83
:10266C00F8BC08BC9E467047000000005FF800F004
:10267C00795C00005FF800F079AE00005FF800F0C4
:10268C0051A800005FF800F0714700005FF800F0FF
:10269C006DA800005FF800F0295D00005FF800F005
:1026AC000D8700005FF800F0655900005FF800F03E
:1026BC00D17A00005FF800F019AC00005FF800F070
:1026CC00B1AB00005FF800F059AE00005FF800F00D
:1026DC00215C00005FF800F0011202205FF800F0AE
:1026EC00B9C300005FF800F08DAE00005FF800F099
:1026FC00955900005FF800F0857A00005FF800F053
:10270C00B1AA00005FF800F07D7900005FF800F0DE
:10271C00E9AB00005FF800F025AE00005FF800F0B8
:10272C00A9AD00005FF800F09D9800005FF800F084
:10273C0069AE00005FF800F011C300005FF800F014
:10274C0079C100005FF800F035AC00005FF800F0D4
:04275C0031F8000050
:0427600099210010AB
:0427640071210010CF
:1027680000100220ED7A0020257B0020357B002018
:102778000000000000000000000000000000000051
:102788000000000000000000000000001905010022
:1027980000000000000000009D050100A9050100DF
:1027A800457B0020457B0020E9770020457B002001
:1027B800457B0020457B0020457B0020457B002091
:1027C800457B0020457B0020457B0020457B002081
:1027D800457B0020457B0020457B0020457B002071
:1027E800457B0020457B0020D9440020457B002004
:1027F800457B0020457B0020495C002011420020D9
:10280800457B0020457B0020457B0020457B002040
:1028180055510020457B0020457B00209D46002027
:1028280002B4714649084900095649008E4402BC61
:102838007047C04602B4714649084900095C49001E
:102848008E4402BC7047C04603B471464908400034
:102858004900095E49008E4403BC704700224308C2
:102868008B4274D303098B425FD3030A8B4244D350
:10287800030B8B4228D3030C8B420DD3FF22090292
:1028880012BA030C8B4202D31212090265D0030B51
:102898008B4219D300E0090AC30B8B4201D3CB0347
:1028A800C01A5241830B8B4201D38B03C01A524189
:1028B800430B8B4201D34B03C01A5241030B8B428B
:1028C80001D30B03C01A5241C30A8B4201D3CB0276
:1028D800C01A5241830A8B4201D38B02C01A52415B
:1028E800430A8B4201D34B02C01A5241030A8B425E
:1028F80001D30B02C01A5241CDD2C3098B4201D376
:10290800CB01C01A524183098B4201D38B01C01AF3
:10291800524143098B4201D34B01C01A524103096A
:102928008B4201D30B01C01A5241C3088B4201D319
:10293800CB00C01A524183088B4201D38B00C01AC6
:10294800524143088B4201D34B00C01A5241411AED
:1029580000D20146524110467047FFE701B50020FA
:1029680000F0F0F802BDC0460029F7D076E77047BE
:1029780003460B437FD4002243088B4274D30309D8
:102988008B425FD3030A8B4244D3030B8B4228D379
:10299800030C8B420DD3FF22090212BA030C8B429F
:1029A80002D31212090265D0030B8B4219D300E03F
:1029B800090AC30B8B4201D3CB03C01A5241830BC4
:1029C8008B4201D38B03C01A5241430B8B4201D374
:1029D8004B03C01A5241030B8B4201D30B03C01A9D
:1029E8005241C30A8B4201D3CB02C01A5241830A17
:1029F8008B4201D38B02C01A5241430A8B4201D346
:102A08004B02C01A5241030A8B4201D30B02C01A6F
:102A18005241CDD2C3098B4201D3CB01C01A5241D6
:102A280083098B4201D38B01C01A524143098B425F
:102A380001D34B01C01A524103098B4201D30B0148
:102A4800C01A5241C3088B4201D3CB00C01A52416D
:102A580083088B4201D38B00C01A524143088B4232
:102A680001D34B00C01A5241411A00D201465241CB
:102A7800104670475DE0CA0F00D04942031000D3EA
:102A88004042534000229C4603098B422DD3030A3F
:102A98008B4212D3FC22890112BA030A8B420CD34F
:102AA800890192118B4208D3890192118B4204D378
:102AB80089013AD0921100E08909C3098B4201D3F8
:102AC800CB01C01A524183098B4201D38B01C01A32
:102AD800524143098B4201D34B01C01A52410309A9
:102AE8008B4201D30B01C01A5241C3088B4201D358
:102AF800CB00C01A524183088B4201D38B00C01A05
:102B08005241D9D243088B4201D34B00C01A5241DB
:102B1800411A00D20146634652415B10104601D368
:102B28004042002B00D54942704763465B1000D3F2
:102B3800404201B5002000F005F802BD0029F8D098
:102B480016E770477047C0468446100062468C46B8
:102B58001900634600E0C0461FB506F04DFD002889
:102B680001D40021C8421FBD10B506F091FC4042B7
:102B7800013010BD10B506F03FFD002801DB002034
:102B880010BD012010BDC04610B506F035FD002867
:102B980001DD002010BD012010BDC04610B506F0B3
:102BA800BBFC002801DC002010BD012010BDC04680
:102BB80010B506F0B1FC002801DA002010BD012094
:102BC80010BDC046844608006146FFE71FB506F001
:102BD800B7FA002801D40021C8421FBD10B506F07D
:102BE8003DFA4042013010BD10B506F0A9FA0028A0
:102BF80001DB002010BD012010BDC04610B506F055
:102C08009FFA002801DD002010BD012010BDC0463C
:102C180010B506F04BFA002801DC002010BD012099
:102C280010BDC04610B506F041FA002801DA0020B0
:102C380010BD012010BDC046002B15D1002A13D1AC
:102C4800002906DB01DC002806D00020C04341082B
:102C580002E080210906002007B4024801A14018BB
:102C6800029003BDE1FEFFFF03B4684601B5029878
:102C780006F0C4F8019B9E4602B00CBC7047C046E3
:102C8800002B11D1002A0FD1002900D1002802D031
:102C98000021C943080007B4024802A14018029065
:102CA80003BDC046A1FEFFFF03B4684601B5029804
:102CB80005F0D8FF019B9E4602B00CBC7047C04689
:102CC8001C2101231B04984201D3000C10391B0A54
:102CD800984201D3000A08391B09984201D3000918
:102CE800043902A2105C40187047C046040302026F
:102CF80001010101000000000000000010B50029DA
:102D080003D1FFF7DDFF203002E00800FFF7D8FF0E
:102D180010BDC04602780B78002A03D0013001317B
:102D28009A42F7D0D01A70470023C25C0133002AB8
:102D3800FBD1581E704700000448054B10B583426C
:102D480003D0044B002B00D0984710BD2C2901203C
:102D58002C2901200000000006480749091A8B1099
:102D6800C90FC91810B5491003D0044B002B00D067
:102D7800984710BD2C2901202C29012000000000B3
:102D880010B5074C2378002B09D1FFF7D5FF054B69
:102D9800002B02D0044800E000BF0123237010BDBF
:102DA8002C3901200000000060070120054B10B5F8
:102DB800002B03D00449054800E000BFFFF7CCFF13
:102DC80010BDC04600000000303901206007012016
:102DD80010B50EF041F810BD014B024A1A60704759
:102DE800280B002071360020054B01205A888A42A2
:102DF80004D09888401A4342584140007047C04662
:102E08004C390120044B9A888A4202D1009A1278E0
:102E18001A7200207047C0464C39012010B51C00BA
:102E28000D4B5A888A420BD1002C07D00B4B1B68DC
:102E38009847031C642800D964232370012010BD1F
:102E48009A8800208A42FAD1844202D01B7A6070A4
:102E580023700220F3E7C0464C390120483901208D
:102E6800030037B51020002B0CD0174A1749136000
:102E78000022174B100004F0F7FA164D288000289E
:102E880001D101203EBD00248923220020001249DF
:102E9800019400945B0004F071FB6880A042F0D0BC
:102EA8000DF09AF9A880A042EBD02300220002215D
:102EB8000A480DF0D9FDE880A042E2D004F02AFBD0
:102EC800012320002B72DDE7483901200F1800008C
:102ED800982601204C390120192A000008290000F1
:102EE800034B0A209B888B4200D108387047C046A4
:102EF8006039012070B5049C002C05D0234DAB88A7
:102F08008B4203D12378AB71002070BDEB68002B96
:102F1800FAD000211E4B200019700DF055FE1D4BF4
:102F2800A278188001209A70E278617ADA702279A2
:102F380001401A7162795A71A2799A71E279DA714B
:102F4800227A1A725A7A82430A435A72627A0221A0
:102F5800C240024082405E7A8E4332435A72627A9D
:102F68000426CA4002408A40587AB04302430820E7
:102F78005A72627A024011435A7A023082431143EC
:102F88001800EA6859729047BEE7C04660390120C8
:102F98005F3901205639012070B5144B144E0400D6
:102FA8009B6830009847002188421CD1737A1A0721
:102FB800580710439A070243DB071343200032885F
:102FC800DD0F0DF009FF0A21B378A370F378E370E1
:102FD8003379237173796371B379A371F379E371E9
:102FE800337A65722372080070BDC04660390120CB
:102FF8005639012010B51800064B9A888A4205D127
:103008009B79037000234370022010BDFFF7C4FFB3
:10301800FBE7C04660390120030073B51020002B80
:1030280012D01A68002A0FD0154D0126AA60002276
:103038005B681000EB601349134BAE7104F014FA8F
:103048002880002801D1012076BD00248D2322008C
:1030580020000E49019400945B0004F08FFA688008
:10306800A042F0D00DF0B8F8A880A042EBD004F050
:1030780051FA074B20005A7A16435E72E4E7C046BD
:103088006039012005180000A42601202B2A000021
:1030980056390120034B1888401A43425841C00052
:1030A8007047C04670390120074A0020128810B5C1
:1030B8008A4207D1834204D008221800034908F045
:1030C80006FC082010BDC046703901207239012065
:1030D800002273B5364B1000364904F0C5F90028B4
:1030E80001D1012076BD002481232200200032492D
:1030F800019400945B0004F041FAA042F1D02F4BF8
:10310800220018800D2301932D4B200000932D4998
:10311800022304F033FAA042E3D00E262A4B220001
:103128000093200002232949019604F027FAA042BF
:10313800D7D01225264B22002649009320000223CF
:10314800019504F01BFA244B220024490093200027
:103158000223019504F012FA214B22002149009321
:1031680020000223019504F009FA1F4B22001F4991
:10317800009320000223019504F000FA1C4B220062
:103188001C49009320000223019604F0F7F9072355
:103198000193194B2200194900932000022304F0DF
:1031A800EDF904F0B7F90DF0CFFB20009AE7C0461F
:1031B800101F01200A180000232A0000703901207E
:1031C800801F0120242A0000721F0120252A0000E8
:1031D800601F0120262A00004E1F0120272A000018
:1031E8003C1F0120282A00002A1F0120292A00004C
:1031F8001C1F01202A2A0000B0260120502A0000A6
:10320800034B9888401A4342584180B27047C046E1
:103218009C39012000207047044A002092888A4285
:1032280003D1834200D01870012070479C390120D7
:10323800F7B514000D1C202900D920251F4FEDB229
:1032480001002A00380008F042FB0022C0211C4E71
:10325800100034701B4B240A4901747004F004F9FF
:10326800002801D10120FEBD0022A8210223100060
:1032780001950097890104F081F90028F2D0022312
:103288000022114D1149288010000193009604F086
:1032980075F90028E6D000248123688022002000E8
:1032A8000B49019400945B0004F068F9A042D9D05E
:1032B800A88004F02FF92000D5E7C0467C3901200A
:1032C8007A390120901F01209C390120012A000031
:1032D800A62A0000034B5888401A43425841400030
:1032E8007047C046A4390120044B5B888B4203D148
:1032F800009A034B12781A7000207047A4390120F5
:10330800A2390120064A51880022814206D19342FF
:1033180003D004495A7009781970022210007047C6
:10332800A4390120A239012037B500220F4B100023
:103338000F4904F099F8002801D101203EBD00246E
:103348008823220020000B49019400945B0004F0BC
:1033580015F9A042F1D0084D28800CF03DFFA0429D
:10336800EBD0688004F0D6F82000E7E79C1F012026
:1033780001180000052A0000A4390120044B10B5EB
:103388001C68002C03D0034B54221968A04710BDB9
:10339800AC390120B03901200A4B02201B685A8938
:1033A8008A420ED05A8B8A420BD0DA8A8A4208D0D7
:1033B800DA8904308A4204D01B8A03308B4200D059
:1033C80007387047B039012070B5364D1C0004AB82
:1033D8001A882B685889884207D102F0E7FB002336
:1033E800207063700221080070BD588B884202D19A
:1033F80002F0C4FFF3E7D88A884202D102F038FC11
:10340800EDE7D889884216D1211EECD00021052A83
:10341800E9D91A8D20000DF0DFFC2B6805211A0070
:103428002A321278A2701A002B3212782C33E270EA
:103438001B782371D7E7188A884226D1211ED2D05B
:103448000021082ACFD9DA8D20000DF0C5FC2B68A1
:1034580009211A0030321278A2701A00313212781B
:10346800E2701A003232127822711A00333212785E
:1034780062711A0034321278A2711A003532127849
:103488003633E2711B782372ADE7588A8842A9D196
:10349800211EA8D00021012AA5D920001A8F0DF0DD
:1034A8009BFC9FE7B0390120F0B54A4E8FB014ABB2
:1034B80020CB30681A8843898B4205D1287802F0DE
:1034C8007BFB00200FB0F0BD438B8B4203D12878E3
:1034D80002F05AFFF5E7C38A8B4203D1287802F03D
:1034E800CDFBEEE7838A8B4207D1002DE9D0002A75
:1034F800E7D0290002F0F4FBE3E7038B8B4207D106
:10350800002DDED0002ADCD0290002F045FFD8E7E4
:10351800038A8B42D5D1002DD3D0002AD1D005AC57
:1035280024220021200007F06FFA002128000DF066
:103538004BFB0027284B2762C018AB7860612361DA
:10354800EB782000E3602B79A3606B796360AB793B
:10355800059307F04FFC009001913C2133681E8DC4
:103568003B0071430A0000980199801A9941029022
:10357800039102A807F062FA230046C846C346C86A
:1035880046C346C846C3236A012B03D1A3682762F2
:10359800013BA3600F4E6269104B3068D2180021BE
:1035A80092B22E300DF018FC336821691A003032BF
:1035B8001170E16807205170A16891706168D1703D
:1035C80005991171E9795171297A91711B689847A8
:1035D80077E7C046B039012094F8FFFF6C07000078
:1035E800F0B5050085B00120002D2CD04C4B1D6096
:1035F80000232B772B002A3318704A4B19604A4B4B
:103608002B602B003A331978002900D1187002AECC
:1036180006220021300007F0F7F90022434B100082
:10362800434903F021FF3E4F00243B682200D88025
:10363800A22320003F4901940094DB0003F09EFF81
:10364800A04202D1012005B0F0BD28810CF0C4FDD4
:103658000028F7D03B686881198C1A6A31800F21DD
:10366800120CB2705A1D0633D27FDB7F0A401B0151
:103678001343F37001235B42B380073301932200A5
:1036880020002D4B2D49009603F078FF0028D9D053
:10369800A881220020002A4B2A490194009403F0B3
:1036A8006DFF0028CED0E88122002000264B274954
:1036B8000194009403F062FF0028C3D028822200FE
:1036C80020001F4B22490194009403F057FF002863
:1036D800B8D0A5236882220020001E4901940094D6
:1036E800DB0003F04BFF0028ACD0A8820CF074FD7F
:1036F8000028A7D0A523E8822200200016490194BB
:103708000094DB0003F03AFF00289BD028830CF0DC
:1037180063FD002896D0688303F0FCFE002092E742
:10372800B0390120AC3901201D3C0020B826012009
:103738001F180000A72A000002040000A82A0000A1
:1037480002050000A92A00000A050000AA2A0000B4
:10375800AB2A0000522A0000AC2A000070B5040011
:103768000D0002F023FA002803D02900200002F0FF
:103778002BFA70BD00207047034B9888401A4342CB
:10378800584140007047C046B439012010B502AB1B
:1037980001CB1A88054B5B888B4205D1002803D0E2
:1037A800034B11001B689847002010BDB439012055
:1037B800BC390120030037B51020002B16D0154A5C
:1037C800154913600022154B100003F04DFE00242C
:1037D8008223220020001249019400945B0003F028
:1037E800CDFE104D6880A04201D101203EBD882346
:1037F800220020000C49019400945B0003F0BEFEF7
:10380800A8800028F1D00CF0E7FC03F083FE20002C
:10381800ECE7C046BC39012010FD0000C426012099
:1038280011FD0000B439012012FD000010B50C0094
:103838001300044A918822000CF08EFF431E984121
:10384800C0B210BDB4390120034BD888401A434296
:10385800584140007047C046C439012010B5054A98
:103868000020D4888C4203D1127A58701A70023022
:1038780010BDC046C439012010B502AA01CA0B0008
:103888001188094AD4889C4203D103781372002016
:1038980010BD92889A42FAD10028F8D0034B1B68D1
:1038A800002BF4D09847F2E7C4390120C039012031
:1038B80037B50022184B194918601000184B03F04F
:1038C800D3FD184D2880002801D101203EBD0024D9
:1038D8008823220020001449019400945B0003F01F
:1038E8004DFE6880A042F0D00CF076FCE880A04243
:1038F800EBD08223220020000C49019400945B0045
:1039080003F03CFEA880A042DFD003F003FE0123B1
:1039180020002B72DAE7C046C0390120F0FF000012
:10392800D0260120C4390120F1FF0000F2FF000079
:1039380010B50C001300044A518822000CF00CFF4B
:10394800431E9841C0B210BDC439012010B500F023
:10395800B5F90CF0A9FC10BD10B501F013FD041E5B
:1039680003D000F097F90DF09FF9200010BD00007A
:1039780007B501A80CF078FB01980DF0CDF8019B74
:103988001B0401D503F014FB019B5B0402D502481C
:103998000CF02AFE07BDC046CC8000001FB52820C9
:1039A8000CF0E2FE0A200CF0DFFE0B200CF0DCFE2F
:1039B8000C200CF0D9FE0D200CF0D6FE0E200CF0D9
:1039C800D3FE0F200CF0D0FE10200CF0CDFE3520D9
:1039D8000CF0CAFE11200CF0C7FE12200CF0C4FE39
:1039E8000022110010000CF01FFD0DF0B5F90CF0CD
:1039F800FBFF00F07DFA00F0B7FDFFF7EDF91721A6
:103A080000200CF0C9FF8021C023C520134A0904F7
:103A18005B00D150800013581B021B0A1350116021
:103A280002200F490F4A00F0FFFF032101A800F010
:103A380043F8002809D1062102A800F04AF8002816
:103A480003D1062102A800F051F801F0D1FC0CF0D6
:103A5800DBFA0CF019FD05B000BDC04600E100E03E
:103A6800F9410020ED41002000B58BB0082200216B
:103A780008A806F0C9FF0C4B0193012302930B4BD6
:103A88000393442304930A4B05938023DB00069396
:103A9800182307930DF030F9002101AA05480CF00E
:103AA800A3FC0CF079FEFEE7A81F0120D03D012001
:103AB800D03901203D420020030010B51020002B12
:103AC80006D0022904D90322190021300CF0ACFADF
:103AD80010BD030010B51020002B06D0052904D90D
:103AE8000622190007380CF09FFA10BD030010B524
:103AF8001020002B06D0052904D9062219002430ED
:103B08000CF092FA10BD000010B5012003F0E6FB9E
:103B18000CF09AFA0CF030FD002802D10122014B7A
:103B28001A7010BD143E012030B5102489B0002849
:103B380061D08021314B08221860490130480CF0CF
:103B48001BFB80210622C9002D480CF015FB8021A3
:103B5800022249012A480CF02FFD80210222C900C7
:103B680027480CF029FD2C200CF0FEFD041E42D144
:103B7800E1235B020193234B234801A902930CF034
:103B880013FD041E37D117200CF0EEFD041E32D1B0
:103B980001211D480CF0E8FE1C4B03A903931C4BA4
:103BA8001C484B60FA239B008B6003230B741A4B51
:103BB800C425CB600CF0F0FC1221040000200CF0AE
:103BC800EBFE8020C022154BC00252009850AD0079
:103BD8005959134A1140C02212040A435A51186015
:103BE80007210C480CF0A8FA01210A480CF04CFBFC
:103BF80008480CF0D1FB200009B030BD183E012068
:103C080080B00460213001010004006004040060F9
:103C18001C3E0120C08100500002490000E100E084
:103C2800FFFF00FF10B50A00010002480CF02CFD50
:103C380010BDC0460004006013B513480CF0A4FE84
:103C48006B461148591D0CF0BFFA6B460E4859795E
:103C58000CF0FAFC6B465B799B0614D06B460A485D
:103C6800991D0CF019FE6B46084CD988084B2000AA
:103C78001B6898476B4600212000DA8806F0C4FECE
:103C880001480CF089FB13BDC08100501C3E012087
:103C9800183E0120802110B5074C00222000490160
:103CA8000CF0AAFA80210022C90020000CF0A4FA26
:103CB8002C200CF071F910BD80B0046010B5024BD7
:103CC8001868FFF731FF10BD183E0120F8B50E0047
:103CD80015000024431C04D0013801280FD9012401
:103CE80064422000F8BD0E4B315D1868002809D1E8
:103CF8000C4B18680CF080FB0028F0D10134AC4262
:103D0800F1DBEEE7084A07681388F95401339BB2E0
:103D1800138081889942F1D800231380EEE7C046CA
:103D28001C40012020400120244001200120704730
:103D38000120404270470020704780239B010020EB
:103D48004B6070470020704737B5027D0400437D03
:103D5800002A0AD0EFF3108272B60021017541687B
:103D68000160416A016282F31088002B08D0EFF3EA
:103D7800108272B600216175E17DA17582F3108809
:103D8800A27D002A18D1EFF3108172B6E36A002BE6
:103D980001D0A26A9A62164A1068A04201D1A06AAC
:103DA8001060144A1068A04200D1136081F3108893
:103DB8000023E362A36237BD022AFCD1002B0AD09C
:103DC8002569FA2120688900C003FEF747FD4019DC
:103DD800E560A060EFE7227E012A06D1064801A926
:103DE80001930CF021FF019DEBE70123A375E2E7A6
:103DF8002C40012028400120003005600023F0B548
:103E080085B002936B469C1D210036480CF014F9CE
:103E1800082123880B4209D032480DF005F86420A8
:103E28000CF0DAFA8022304B12065A608026032101
:103E38002C4802AA0CF0D8F92C4D36062C68002C18
:103E480014D12200200001262968029D002933D1BF
:103E5800002809D0954207D0224803310CF024FEEF
:103E68008022214B12065A6005B0F0BDA38AA76ACA
:103E7800002B05D02000FFF767FF1B4B5E600FE0AB
:103E8800A37D022B0CD103A916480CF0CDFEA26825
:103E9800E168039B8A4205D2934201D38B4205D342
:103EA8003C00CCE78B4201D39342F9D3E369002B62
:103EB800E0D0206A9847DDE78B7D022B0DD18B6817
:103EC80000280CD0CC68954205D9A34201D29A4269
:103ED80003D91A0001E0A342F9D2896AB6E71A00A9
:103EE8003000FAE700300560FCE100E02C400120DA
:103EF80070B5194C05200CF037FC002120000CF09F
:103F080023FB8020C023C725C021144A00065B007C
:103F1800D050AD00535909061B021B0A0B435351DD
:103F280010601F2100200CF037FD8021200089003F
:103F38000BF0D2FF082120000CF0DEFCFF2120004E
:103F48000CF0F2FB20000CF037FF0020044B186047
:103F5800044B186070BDC0460030056000E100E009
:103F68002C40012028400120030030B5002809D04A
:103F7800012907D8EFF3108472B6807D002803D09A
:103F880084F31088102030BD0125DA61094A1976BA
:103F980011689D759862002901D1D862136006499D
:103FA8000A68002A01D0DA6293620B6084F31088F1
:103FB800E9E7C0462C4001202840012010B5040044
:103FC8001020002C12D0A37D002B0FD061606262FC
:103FD800211807480CF028FE0223E37502238022EB
:103FE8000020FF33A382034B12065A6010BDC0465F
:103FF80000300560FCE100E003001020002B0AD02F
:104008009A7D002A07D00122DA755A75802200208D
:10401800014B12065A607047FCE100E003001020D3
:10402800002B0AD09A7D002A07D0012200205A7559
:104038008022D875014B12065A607047FCE100E0F7
:10404800F7B505000C001020002963D0E123DB013F
:10405800ED1848492800FEF701FCE1210600090196
:104068002800FEF7FBFB1821FEF77EFC28002171D3
:104078003C21FEF7F3FB3C21FEF776FC280061713A
:104088003C21FEF771FC01273B4BA17123800721DE
:10409800A770301DFEF768FCE171C821258849002A
:1040A8002800FEF761FC8BB20093009A3B00002ABF
:1040B8000BD064212800FEF757FC002389B29942EF
:1040C80003D003332B405A4253412C4A5B009B5A7E
:1040D8000192B3421FD964212800FEF745FC284B02
:1040E80000229C4689B263469F5C0023012A0BD1BB
:1040F80000980133002807D00023994204D00333E5
:104108002B40180043424341FB18B3421AD9002000
:10411800731CE370FEBD009A3B00002A0BD064219B
:104128002800FEF721FC002389B2994203D003330B
:104138002B405A425341019A5B00D35A0135F61A73
:104148002580AAE70023012A0BD100980133002813
:1041580007D00023994204D003332B401800434270
:104168004341FB18F61AA37801320133D2B2A37087
:10417800B9E7C04680510100B20700008A22012039
:104188007E220120F0B585B0060001911020002E96
:104198003CD000293AD0C821348849002000FEF7D5
:1041A800E3FB20008BB26421B7780293FEF7DCFBB7
:1041B8008BB2032121409C464842484100252A4AA7
:1041C8000390BA18012F23D80327013C631C274A00
:1041D8009BB293422ED8F3780721013BED18ADB27C
:1041E800281DFEF7ABFCE12332791B015343F17123
:1041F800B2791F49002052189B183C2271794A4312
:104208009B181C4A6A439B18019A136005B0F0BDBD
:10421800029901231078002905D06346591E8B4165
:1042280003995B420B404019C018013F85B2FFB2A9
:10423800013AC7E70422104B01216343D3410F4AD7
:10424800934209D920006331FEF778FC002903D096
:10425800210039404B425941094B4900CB5A013C96
:10426800ED18ADB2B2E7C0467C220120B2070000CB
:10427800808FFFFF80510100295C8FC20AD7A300FD
:104288008A220120F7B50100102000291ED000263F
:1042980000270F4C0822200007F019FB0D4D2000C5
:1042A8002900FFF76FFF6846009601970CF03CF86D
:1042B80000980199084B094A186059600020084B7A
:1042C8001E605F602B681360064A1360FEBDC0461F
:1042D8005040012060400120484001205C400120FE
:1042E8004040012058400120F7B50BF035FF204A27
:1042F8001688002E02D083195B109EB2108000230E
:1043080000226846009201930CF00EF8009801997B
:10431800184F3C687D688D4223D801D1844220D84B
:1043280002000B00121BAB4138607960300000219D
:1043380004F06AFC8C06820922430F4C8B09206822
:10434800616880185941206061600C49097800292A
:1043580006D00B4C2068616812184B4122606360DC
:10436800F7BD0122FF23524212184B41DAE7C0463B
:104378003A400120484001204040012038400120B7
:1043880030400120F0B587B00290FFF7ADFF5A4BDF
:104398005A4A186859680023FEF772FC584B0822DD
:1043A8001E68584B3618584904A81E6007F08FFA43
:1043B800564B1B68B34200D38AE004AA9579ED1ADC
:1043C800AD19ADB23B2D00D892E03C212800FEF794
:1043D80045FA04AB5C793C210419E4B25C7128000D
:1043E800FEF7C2FA04AB99713B2C6AD93C21200034
:1043F800FEF734FA04AB1D793C212D18EDB21D717E
:104408002000FEF7B1FA04AB5971172D59D91821BC
:104418002800FEF723FA04ABDB79C0B2C318DBB27D
:10442800039304ABDB781821C018C4B204AB28008E
:10443800DC70FEF799FA04AB1971C8219B78490022
:104448000093009A324BD35C019304AB1D8828007B
:10445800FEF78AFA8FB20123002F0BD064212800BF
:10446800FEF782FA002389B2994203D003332B4026
:104478005A425341019AD3189C421CDD0123002F54
:104488000BD064212800FEF76FFA002389B2994205
:1044980003D003332B405A425341019A2000D118CC
:1044A800FEF74CFB04ABD970009B0133DBB20C2B3D
:1044B80018D804AA937007210398FEF755FA04AB9D
:1044C800D971124B0822104804A91E6007F0FFF9A1
:1044D800029B002B04D00822180004A907F0F7F962
:1044E80007B0F0BD012304AAED1893701580E2E728
:1044F80004AB9D71E5E7C046404001200024F4006C
:104508006040012058400120504001205C400120BB
:104518007D22012070B505001020002D15D0002443
:104528000A4B0B4E1C600B4B08221C600A4B2100E7
:104538001C600A4B30001C7006F066FA3000FFF76A
:1045480021FF2800FFF79EFE200070BD5C4001207F
:10455800504001205840012060400120384001208F
:10456800FEE7FEE7FEE7FEE7034B044A1A60044B4A
:10457800044A1A607047C0462C0B0020014E0020E8
:10458800300B0020034E002013B5A0241300044A6A
:10459800127800920A000100E0050CF015F916BD2A
:1045A800DC26012070B5012400290DD0002A0BD08B
:1045B800802583186D01AB4206DC044BC01807F058
:1045C80086F9034B1C700024200070BD2C290120A3
:1045D80067400120F0B504001600030B85B09BB2BC
:1045E8000393531E1B181B0B9BB2039F019102934D
:1045F800029A03983B03A1B29BB2B5B2824204D09F
:10460800802252019A18521A95B21D4A1288BA424B
:1046180018D11C4A1278002A14D0C91A1A4B89B228
:104628002A000198C91807F052F9019B01375B1954
:104638000193029BBFB26419761BBB42D8D80AD03B
:10464800002006E02A0020000199FFF79DFF0028BE
:10465800EBD005B0F0BD0A4B029A1B88934209D1F2
:10466800084B1B78002B05D032000749019807F04A
:104678002EF9E5E7320020000199FFF785FFE8E70A
:1046880064400120664001202C290120124B37B5D7
:104698001B78181E1FD00020104C237883421AD094
:1046A800A0200F4B01211D88C0052A000D4B0CF0DE
:1046B800DBF800280FD10C4BA02001930B4B0C4AC0
:1046C8001B78290300938023C0055B010BF0D4FEFF
:1046D800002800D120703EBD6640012067400120BF
:1046E80064400120204E0000B80B0000DC260120A9
:1046F8002C290120F0B58BB0039209938318634AE3
:104708000593013B624D0893060B1B0B12889BB265
:10471800B7B2069304002B780491BA4207D0002B55
:1047280005D0FFF7B3FF002800D098E028703D03BC
:10473800A3B2ADB25C1B0793554BA4B21B78002BF8
:104748000FD1002C0BD0B0B2220052490003FFF762
:104758001BFF002800D082E001224F4B1A704B4B00
:104768001F80069BBB422BD16B4620009A89049977
:10477800FFF718FF002872D1454B1B78002B16D184
:104788006B46198C069B45481B039BB25A1A121894
:1047980092B2002A0BD0C91A414B89B2C9180598A0
:1047A800FFF7F2FE00285AD101223B4B1A70012272
:1047B800374B1A70099B002B50D0FFF767FF4EE06C
:1047C800002C19D0079B2000ED1A80235B01ED18FF
:1047D800ADB22A000499FFF7E5FE00283FD1012277
:1047E8002B4B1A70FFF752FF002838D1049B5B1936
:1047F8000493039B5B1B0393244B80271D88039C16
:1048080001352D032E007F01BC4210DBA020320BA6
:104818000121244B92B2C0050CF026F800281ED1C5
:10482800214BE41880235B01F618FF2CECDC039B7A
:10483800A7B23E00BB420FD0A0201C4A290001921B
:104848001B4A1B1B1278C0050092049A0BF014FE39
:10485800002804D10E4A1070002F02D100200BB09E
:10486800F0BD0A4B069A00201A80039B3A00991B58
:10487800049B5918FFF796FE0028F0D180220549BD
:104888005201D21B92B2711889E7C04664400120D8
:10489800664001202C29012067400120FF0F0000FD
:1048A8002D290120204E000000F0FFFFB80B00006A
:1048B800DC26012037B56B460020D91C0BF0ECFC38
:1048C8006B460020D9780CF057FA6B46DB78002B42
:1048D80013D0022001A90BF087FB019D002D0CD0FD
:1048E80000200CF0C1F9041E26D1280000F082F93E
:1048F800002803D020000BF01FFD37BD124C280004
:10490800210000F082F92168022815D10F4B1B689D
:10491800002B0ED00E489847040002200CF0A4F992
:1049280000280DD1210005300BF0B6FE02200BF057
:1049380003FD00200BF000FD01200BF04DFDC8E742
:1049480001200BF049FDE8E7684001206C42012096
:104958006C40012010B5082004F0F6FF041E07D0B3
:104968000C2004F0F1FF002805D1200004F0F6FF28
:104978000024200010BD0023606020608360F8E7F9
:10498800F8B505000F0016000120002D09D00029F8
:1049980007D0002A05D00B3004F0D6FF041E01D141
:1049A8000220F8BD00238360300004F0CDFF2060B2
:1049B8000028F5D03200390006F089FF2B68A68060
:1049C8009A68002A00D19C606B6800209C606C602B
:1049D800E7E770B506000800002E04D033689D682C
:1049E800002D03D173600024200070BDAB881C1C0F
:1049F800934200D9141CA4B2002803D022002968CD
:104A080006F065FF286804F0A9FFAA683368280043
:104A18009A6004F0A3FFE7E7002804D003689B68C6
:104A2800181E00D098887047084B10B51870084BAE
:104A380001201960074B00211A600BF02DFE052399
:104A48000A22032100200BF09FFC10BD70420120B8
:104A5800784201207442012013B56B46FE209C1D4C
:104A680002222100C002FFF7B5FD030000208342A7
:104A780005D1034B2088C01843425841C0B216BD27
:104A8800A6A5FFFF020010B500280FD00121094B91
:104A980009481C79944208D0DC880230013120187A
:104AA80004330729F5D10120404210BDFE20C00281
:104AB800FBE7C0468E22012002F00700F0B587B060
:104AC8001E000CAB1B780500039304AB9F1D134B12
:104AD800019102923B80FFF7D5FF04000120631C7F
:104AE80019D0019BAD001A190D4BB11C5B195B88DD
:104AF800891802331B1999420DD8901C00233200E3
:104B08000299FFF7F7FD002805D10222390020009D
:104B1800039BFFF7EFFD07B0F0BDC0465A5A0000EF
:104B28008E220120F0B587B01D000CAB03900E005B
:104B3800140010201F78002A13D0002D11D0FFF781
:104B48008BFF00280FD10E2202ABD2180B4B0100AD
:104B5800138002230090FFF7B1FF0127002802D03D
:104B6800380007B0F0BD2B002200310003980097F1
:104B7800FFF7A4FF431E9841C0B2F2E75A5A00005B
:104B8800F7B51E0005000C0017001023002A2BD0D3
:104B9800002E29D0FFF760FF0123002824D0280029
:104BA800FFF770FF0123421C1ED0104BAD005B19AC
:104BB8005A882418B11C023209191218012391428B
:104BC80012D86B469D1D02222900FFF703FD031E24
:104BD8000AD1074A29882233914205D13200390087
:104BE800A01CFFF7F7FC03001800FEBD8E22012071
:104BF8005A5A000002000120002A05D01378507884
:104C0800181A43425841C0B2704770B504000D00ED
:104C18000120002C17D0002915D02000FFF7EAFF4B
:104C280003000320002B0ED12178E268914201D2C3
:104C38004B1CDBB222692370514363682800591862
:104C480006F045FE022070BD0022F0B50500214B9C
:104C580085B01A60204B01AC1F5C0E0020000021BB
:104C68000B3205F0D1FE1D4BA77023801C4F257118
:104C7800022D12D002232A009A4320D0B3B2002278
:104C88001B0A072120006671A3710BF065FBE07118
:104C9800000A2072092238880CE000226671092176
:104CA8002000360AA6710BF057FB0B226072000A2F
:104CB800A07238882100FEF7B9FD05B0F0BD0521C6
:104CC80020000BF049FB6071000AA07107223888A8
:104CD800F0E7C04684420120AA2201200304000014
:104CE80090420120F0B5C7B000210F2202A805F0BC
:104CF8008BFEFFF7CBFC011E05D00220FFF7A4FFB7
:104D0800012047B0F0BD012605000400474B484F7D
:104D180002AA13803B68764201933B68280240420E
:104D28001A0A954214D3019A1518002D1BD09C22FB
:104D380052029818401B2A0006A9FFF74BFC0028CE
:104D480010D13200290006A80BF00EFF04000AE07B
:104D58009C2380225B02181A520006A9FFF73AFC2E
:104D6800002851D00024334D01222B68A34255D08E
:104D780009210D2602A802711A0A437182711A0CC0
:104D88001B0E0372230A8372230CC372230E418005
:104D9800C271447203730022310002A80BF0DCFADE
:104DA80002AB985502AA731C000AD054224BB21CBD
:104DB800188802A9FEF73AFD0028A2D12B68A34261
:104DC8009FD11E4B012206931D4B1C2107939C2348
:104DD8005B0208933B680D90099380239B010B931A
:104DE8008C2352425B0206A80C930A940BF0BCFE7B
:104DF8000D9080200123202206A94001FFF77AFCAC
:104E0800431E9841C0B27CE780213200490006A8C1
:104E18000BF0AAFE0135060004007EE702AB5A80BB
:104E2800002302AA05261371B5E7C0460305000052
:104E38008C42012088420120904201204B2A021115
:104E480078676A477FB501AC06000D00092200218A
:104E5800200005F0D9FD134B23800323A370002EF7
:104E680001D1023B23712B0A002207212000A371E4
:104E780065710BF071FA0C4BE071000A2072210089
:104E880009221888FEF7D2FC041E09D1002E04D08E
:104E980028000BF071FA0BF037F8200004B070BD51
:104EA8000124FAE70306000090420120F0B58BB018
:104EB80001930B7806000C00012B00D0C8E00028F5
:104EC80000D1C5E0784F388048780138052800D9E6
:104ED800BEE0FDF7AFFC033A579DE1510822734944
:104EE80005A806F0F4FC05A930000BF07DFF12229E
:104EF800002105A805F088FD0021062203A805F079
:104F080083FD042302AAFF339381F73B9373684B15
:104F180003A80693012353750BF02EF8162002AB55
:104F2800C018062203A906F0D2FC0022102105A809
:104F38000BF012FA122202AB9883388805A9FEF703
:104F480075FC002818D00BB0F0BD05AD0722002174
:104F5800280005F059FD574B00222B80012305211D
:104F68002800AB700BF0F8F96871000AA8710722E5
:104F780029003888FEF75AFC019B002B00D08EE0F0
:104F88000020E0E705AD0B220021280005F03CFDDC
:104F98000023494A49491360494A30001380494A65
:104FA8001360A37A627A1B021343E27A12041A434B
:104FB800237B1B0613430B60A37B627B1B021343FB
:104FC800E27B414912041A43237C1B0613430B60FE
:104FD8003E4B2B800523AB70043B2B710BF0CCFCB4
:104FE800031CC42800D9C423093B9BB26B711B0A5C
:104FF8000022AB71F0230921EA7128002B720BF013
:10500800ABF96872000AA8720B222900388896E763
:10501800CD788B782D021D434B790A791B021343F7
:10502800C42D15D8264E032031888B420ED1631922
:105038005B79291D675C1B02FF1800222000BFB2A4
:105048000BF08AF9874205D001203188FFF7FCFD73
:10505800012078E79C231B4F023D38685B02ADB204
:10506800A11DC0182A000023FFF744FB011E01D030
:105078000220EBE73388104A013333801368EB18BA
:1050880013603A6852193A60F0221202934200D231
:1050980072E7FFF7D9FD6FE7FFF724FE51E7607865
:1050A800019B98476CE7C04690420120401E0120B2
:1050B8000402110103020000844201208C420120F5
:1050C800804201207C420120884201200303000025
:1050D8004220704713B501F0CBFD04000822684652
:1050E800034906F0F4FB694620000BF07DFE13BD72
:1050F800481E012030B5114D85B02B00288D3A335C
:10510800013080B228851978FDF718FD0C1E13D1DF
:105118006B4659700BF088F86B466A4658802B8DA1
:10512800694628009380D4801472FEF717FB002884
:1051380002D1684600F074FC05B030BD0C43012074
:10514800030010B51A88094802809A788270DA78C4
:10515800C2701A7902715A7942719A798271DB792F
:10516800C371FFF78FF8002010BDC046D44201205C
:1051780070B504000A4D2800FFF704F900202B88B9
:105188002380AB78A370EB78E3702B7923716B796C
:105198006371AB79A371EB792072E37170BDC0467E
:1051A800D442012070B5040000784D1E01380E006D
:1051B80088B0ADB203280CD8FDF73CFB0229445E49
:1051C8001822002102A8023E05F01EFC0122162E1C
:1051D80005D908B070BDA35C1F2B03D9013293B267
:1051E800AB42F8D3D3B2012BF3D0611C02A806F06E
:1051F8006EFB0123002100930520163302AAFFF756
:1052080091FC0028E5D102A801F060FFE1E718222F
:10521800002102A805F0F8FB002DDAD11723290098
:10522800052002AAFFF7ACFC0028D2D101F020FD2E
:10523800040002A8FDF778FD82B2200002A9FEF75B
:1052480077FBC6E7022DC4D16378621CA4781249A3
:1052580024021C432300203B9BB28B42B9D8012374
:105268000021009306202B00FFF75CFC0028B0D13A
:10527800200001F047FFACE7002DAAD10223290046
:10528800062002AAFFF77CFC0028A2D101F0F0FC5E
:10529800022202A9D3E7C046E03F000010B501286A
:1052A80002D0062803D010BD054B1870FBE7FA2181
:1052B80001204900FFF7C6FD0022014B1A70F2E7F2
:1052C800C842012030B51C0085B0EFF305836D4658
:1052D80002925A4253412870054869700022694673
:1052E8005B42006801940AF01FFF05B030BDC0465C
:1052F800AC440120074B0A0010B501001868FFF7FD
:105308003FFB011E04D1030002000220FFF7DAFF71
:1053180010BDC046C442012010B513000A000100A8
:105328000020FFF7CFFF10BD10B513000A000100E1
:105338000120FFF7C7FF10BD70B5114D86B06E7F15
:10534800002E1AD12B7F002B17D0694601F061F986
:10535800002812D0009801F0B3F801F051F902AC1E
:10536800608066702B8D21002800A380FEF7F6F977
:10537800002802D1200000F053FB06B070BDC046E3
:105388000C430120064B10B51878002806D1054BB0
:105398001B78002B01D101F007FE10BD0020FCE7AF
:1053A800C9420120C842012037B580240025A40243
:1053B8006A4621000C48009501950BF07DF8210004
:1053C80009480AF0B9FD009B234209D001AA21002F
:1053D80005480BF099FB019A044BAA4201D01D70B5
:1053E80037BD01221A70FBE780B00460C942012072
:1053F800F0B5BDB00BAF3A00D44B002613CB13C2A7
:1054080013CB13C23A00102105200BF015FCD04B2A
:1054180005931860FFF79EFACE4BCF4D04931860A2
:10542800CE4B07962B80CE4B6B80CE4BAB80CE4BB2
:10543800EB80FEF769FB2800FFF76CF80A23CB4CDA
:1054480031002387063B180007AA2685FFF798FB3B
:10545800B04200D0C7E039000798FEF7F1FD3B885D
:10546800BA79E3857B882386BB8863862300343337
:105478001A702300802235331A7023007F323633A6
:105488001A7000F059FA01F063FDB94801F0E4FB25
:1054980018220021380005F0B7FA17233A00002136
:1054A8000520FFF76DFB002802D1380001F00EFE41
:1054B80007AD02232A0000210620FFF761FB002820
:1054C80002D1288801F01EFE01F02CFEFDF700FE37
:1054D800A848FDF7C5FCA848FEF7EAF9A748FEF773
:1054E80069F9A748A74B0360A74B4360FDF794FDF4
:1054F80000232000A5492362FEF772F8041E00D09D
:1055080016E2A348FEF710FB1621A248FEF78AFB15
:1055180001F03AFE0121A04AA048FEF725FD21002E
:105528009F4AA048FEF720FD8021022289029E485A
:105538000AF062FE8021022289029B480BF03CF8A7
:10554800162120000BF028FA802104230222890268
:1055580095480BF069F8012102200AF0D5FF802157
:105568000122890290480BF01FFC80220723920237
:1055780001210E200BF078F880218B4889020AF06F
:10558800DBFC8021884889020AF0AEFF8020C02217
:10559800C524864BC00352009850A4001959844A68
:1055A8001140C02212040A431A51186001230598B9
:1055B80007AC0022210000685B420AF0E5FC051EEA
:1055C800F4D12678012E30D0022E00D198E1002E99
:1055D800ECD16378012B1DD0022BE7D1634B9E8061
:1055E80001F0D2FDE2E72B88AA79E3856B8807A949
:1055F8002386AB8828006386230034331A70FEF7AD
:10560800C1FD0123009303333100180007AAFFF7F7
:1056180089FA2EE701F02CFBFA213200534B89005E
:1056280098806048FEF7CAFCC0E76378A468062B38
:1056380014D8032B59D85A1E022AB7D8022B26D0C1
:10564800032B4DD0494B1B7F002BAFD0534C200070
:10565800FEF7D2FC2A0020005649E3E7072BA5D124
:105668002300E28D06902E339B793A80228E06A97C
:105678007A80628E3800BA80BB71FEF783FD0423FE
:1056880029001800009606AAFFF74CFA8EE72300B7
:105698003A331B78002B89D02F4B18000393FEF761
:1056A80071FE039B03999A79230009882E33E185BB
:1056B80003990398498821860399898861869A7194
:1056C8003900FEF75FFD04233A0029001800009610
:1056D800FFF728FA00F032FA2A0030483549A1E7E6
:1056E80020852E48FEF788FC60E722003C321078BF
:1056F8000138052B79D0013A1678062B00D1BCE089
:10570800052800D9F8E0FDF795F8030D1757686CE0
:10571800200000F0ADFB222800D0EBE00623320089
:10572800190074E0200000213E300BF04DFA010012
:10573800200000F0C9FBEEE7200000213E300BF00E
:1057480043FA0100200000F0F6FBE4E7501E0120B8
:10575800AC440120C4420120D4420120E7070000E4
:105768000919000010230000090400000C4301205F
:10577800B95B002071590020455A0020955B002034
:10578800CC420120115A0020E1590020C95B0020B9
:10579800D95B0020B11F012095590020DC4201206F
:1057A800755900209442012080B0046000E100E0B7
:1057B800FFFF00FF60EA000025003E3500212800B9
:1057C8000BF002FA0221039028000BF0FDF903996F
:1057D8000200200000F0E6FB9DE7200000F01BFC23
:1057E80099E7200000F02FFC95E73D80052851D867
:1057F800FDF720F803111C27393E3900200000F07E
:105808003DFC042846D005213A88130AD2B220006C
:1058180000F03CFA3EE0200000213E300BF0D4F9C5
:105828003A000100200000F03AFCEAE720000021DD
:105838003E300BF0C9F93A000100200000F058FC96
:10584800DFE725003E35002128000BF0BDF90221D5
:10585800060028000BF0B8F93B00020031002000D8
:1058680000F06FFCCDE73900200000F095FCC8E798
:105878003900200000F0A7FCC3E705280AD8FCF788
:10588800D9FF030C16203135200000F0B6FC04289F
:1058980000D040E70023637788E6200000213E30EF
:1058A8000BF092F90100200000F0B9FCEFE72000AE
:1058B80000213E300BF088F90100200000F0DEFCEA
:1058C800E5E725003E35002128000BF07DF902218F
:1058D800039028000BF078F903990200200000F0EB
:1058E800FCFCD4E7200000F02BFDD0E7200000F0FE
:1058F80034FDCCE70028CDD101233200062186E70C
:10590800EFF3108572B6049B1868FFF785F8049BBF
:105918000200040039001868FFF75BF885F3108867
:1059280001F0A6F922003900024BFFF7BFFA3DE665
:105938003DB0F0BD3D5B0020C823F7B5234D0021E5
:105948002A000120DB00FFF71BF9214C011E2BD098
:105958000027C8223900D2002800278005F054F813
:105968001C4E6422FF21300005F04EF8C823390090
:105978002A0001200097DB00FFF7D4F80100B842A5
:1059880021D10223009022001800FFF7CBF8011E56
:1059980019D101233200009303206333FFF7C2F8C3
:1059A800431E9841C0B20DE0022322001800FFF701
:1059B800E7F8011ECCD164230320064AFFF7E0F87C
:1059C8000028C5D1FEBD0120FCE7C04618450120CE
:1059D800B0440120B2440120014B18887047C046EA
:1059E800B04401200B4A03001288080010B5222198
:1059F8009A420CD9084AD25C084B1201D45C002C9C
:105A080005D0991802310E2205F061FF0021080027
:105A180010BDC046B0440120B24401201845012001
:105A28001C4BF0B5010000241E0085B01A780392C3
:105A3800002A08D00134A4B21033642CF6D1012511
:105A4800280005B0F0BD01272501775576190E22EB
:105A5800B01C05F03CFF039BA9B200933200102351
:105A68003800FFF75FF8051EE9D10B4E0B4A318865
:105A78003B00545403208A180095FFF753F83388E5
:105A88003200013333800223290018000097FFF702
:105A980049F8D5E718450120B0440120B244012057
:105AA800F0B5234F04003B88222085B0A3420FD9CC
:105AB8000023204E204A315D213809018B548A1871
:105AC800009389B21033FFF72DF8051E02D001208C
:105AD80005B0F0BD3B88013B9BB21A1B92B23B80DC
:105AE8000292002A18D0A21903920200A34242414E
:105AF800D2B2531E9A41029B5242611C1A4071183D
:105B0800039804F06FFF21000320029B039A00957D
:105B1800FFF708F80028DAD101230093DB181800F2
:105B28003A000021FEF7FEFF431E9841C0B2CFE7BE
:105B3800B0440120B244012018450120F7B50026E1
:105B4800C822174F174D3100D20038002E8004F0BC
:105B58005BFF154C6422FF21200004F055FFC82389
:105B680031003A0001200096DB00FEF7DBFF010060
:105B7800B04201D00120FEBD022300902A00180087
:105B8800FEF7D0FF011EF5D1012322000093032068
:105B98006333FEF7C7FF431E9841C0B2EBE7C04628
:105BA80018450120B0440120B2440120014B187867
:105BB8007047C046DD2601200122024B10401870B4
:105BC8007047C046DD260120F0B50D0085B00E22D5
:105BD80000210700684604F017FF022168466A881A
:105BE8006E780BF0F9F804216846AA880BF0F4F8EF
:105BF800AB790624002B04D06A4693712023013424
:105C08001E43EB79002B05D069460B554023621CD7
:105C18001E43D4B22B7A002B05D069460B5580233E
:105C2800621C1E43D4B23B6A1B0408D5F30706D591
:105C3800210068466A890BF0CFF80234E4B23B6A67
:105C4800DB0306D5B30704D521006846AA890BF003
:105C5800C3F86B461C705E706A4623003989B888A1
:105C68000AF07AFD431E9841C0B205B0F0BD0000AD
:105C7800014B18787047C046DE2601200322024BEC
:105C8800104018707047C046DE260120F0B5170096
:105C98001E0091B002AB019103AD04001522002152
:105CA800581D04F0B1FE0120AF70EE70002C12D028
:105CB8000A4B187800280ED0019B09AA13700023FC
:105CC80053706B885380A18A0423A0880AF084FD4E
:105CD800431E9841C0B211B0F0BDC046DE26012077
:105CE800F7B504003B340191050016000021172286
:105CF800200004F089FE019B1F782770012E0FD920
:105D08005B786370022E0BD01422162E01D8023E47
:105D1800F2B228000199A27502313D3005F0D7FD95
:105D28006B7F002B0BD0032F27D162783B00002A12
:105D38000DD1A27D0633002A09D1012307E0781E80
:105D4800032838D8FCF776FD1A1A021A072300220E
:105D580006216A7728003A00FFF798FF0DE0A37D37
:105D6800002B2AD1012304206B772B68012F03D045
:105D78000520042F00D006209847F7BD6078062834
:105D88001DD8FCF74DFD04EC060613ECEC000323CC
:105D9800DDE7A27D0523032AD9D1A378022B10D0F1
:105DA8005A425341DB00DDD00823D0E70523A27D0A
:105DB8009A42CCD1F1E70223C9E70523C7E70423B8
:105DC800C5E70923C3E7F7B50D0007001600FFF77D
:105DD80003FE2C880190019B9C4201D3222009E0FC
:105DE80031002000FFF7FEFD002804D1B388BB4234
:105DF80001D82C80FEBD0134A4B2ECE7F7B50D0044
:105E080007001600FFF7E8FD2C880190019B9C42D3
:105E180001D3222009E031002000FFF7E3FD00282C
:105E280004D1B388BB4201D32C80FEBD0134A4B297
:105E3800ECE7F7B515000F001E000090FFF7CCFD4A
:105E48002C880190019B9C4201D322200CE0310058
:105E58002000FFF7C7FD002807D1B388009A9342B6
:105E680003D3BB4201D82C80FEBD0134A4B2E9E7BC
:105E78007FB5051E02D1002004B070BDFFF7ACFD50
:105E880000240600A04201D12220F5E76B7F002BF9
:105E980016D069462000FFF7A5FD00280DD16946F8
:105EA8002800FDF75BFC00280CD10134A4B20130B6
:105EB8000AF062FAA642E9D1DDE7002CDBD1E3E77C
:105EC8000420D9E70120D7E7F0B505000F0010201E
:105ED80087B0002D07D0FFF77FFD002306001C00C8
:105EE800984211D1222007B0F0BD280002A9FDF781
:105EF80035FC00281DD101300AF03EFA6B46DB88DC
:105F080001340133A4B29BB26A46D3809E420AD9B7
:105F18006B7F002B0BD06B46380002AA991DFFF748
:105F280052FF0028E1D00020002CDCD1DAE7042061
:105F3800D9E70120D7E7F0B505000F00102087B09A
:105F4800002D07D0FFF748FD002306001C009842EB
:105F580011D1222007B0F0BD280002A9FDF7FEFBF1
:105F680000281DD101300AF007FA6B46DB8801349E
:105F78000133A4B29BB26A46D3809E420AD96B7F92
:105F8800002B0BD06B46380002AA991DFFF736FF8D
:105F98000028E1D00020002CDCD1DAE70420D9E782
:105FA8000120D7E7F0B589B005001700102001914E
:105FB800002D07D0FFF710FD002306001C009842B3
:105FC80011D1222009B0F0BD280004A9FDF7C6FBB5
:105FD80000281ED101300AF0CFF902ABDB8801346A
:105FE8000133A4B29BB202AAD3809E420BD96B7F25
:105FF800002B0CD002AA3900019804AB0632FFF737
:1060080018FF0028E0D00020002CDBD1D9E70420BD
:10601800D8E70120D6E71FB504001020002C10D0C7
:10602800637F0C38002B0CD069460020FFF7DAFCA0
:10603800002806D169462000FDF790FB431E9841D1
:10604800C0B204B010BD1FB504001020002C13D03E
:10605800637F0C38002B0FD0FFF7BEFC0138694670
:1060680080B2FFF7BFFC002806D169462000FDF783
:1060780075FB431E9841C0B204B010BD70B5002531
:1060880003000C0010200D80AB4207D05B7F0C385A
:10609800AB4203D0FFF7A0FC2080280070BDF0B50C
:1060A800002489B006001500102001911480A64232
:1060B8000AD0FFF791FC070002ABDC80A7420DD99C
:1060C800737F002B02D1042009B0F0BD02AB019808
:1060D80004AA991DFFF777FE002801D00020F3E7F6
:1060E8002B8801332B8002ABDC880134A4B2E3E7B0
:1060F800F0B5002489B00600150010200191148025
:10610800A6420AD0FFF768FC070002ABDC80A74272
:106118000DD9737F002B02D1042009B0F0BD02AB6A
:10612800019804AA991DFFF769FE002801D00020F4
:10613800F3E72B8801332B8002ABDC880134A4B24F
:10614800E3E7F0B5002489B006001D001020009197
:1061580001921C80A6420AD0FFF73EFC070002AB62
:10616800DC80A7420ED9737F002B02D1042009B02E
:10617800F0BD02AA0199009804AB0632FFF759FE58
:10618800002801D00020F2E72B8801332B8002ABD6
:10619800DC880134A4B2E2E71FB5030000200C003C
:1061A8001022088083420BD05B7F0C3A834207D0D1
:1061B8006946FFF717FC002801D10123238000223C
:1061C800100004B010BD1FB5002203000C00102001
:1061D8000A8093420FD05B7F0C3893420BD0FFF7B5
:1061E800FBFB0138694680B2FFF7FCFB002801D1B0
:1061F80001232380002004B010BD10B50400102036
:10620800002C0BD0FFF7E8FB03002220002B05D061
:10621800637F1E38002B01D0FFF790FC10BDF0B54E
:1062280089B0070001911020002F16D0FFF7D4FB8A
:1062380005002220002D10D0002402AB9E1D3480C2
:106248003388AB4205D3002063425C41644220405E
:1062580003E07B7F002B02D1042009B0F0BD3100A0
:10626800019804AAFFF7AFFD0028EDD13088FFF7A9
:1062780017FC0028E8D10134A4B2E1E7F0B589B0F1
:10628800070001911020002F16D0FFF7A5FB05008D
:106298002220002D10D0002402AB9E1D34803388AC
:1062A800AB4205D3002063425C416442204003E0D6
:1062B8007B7F002B02D1042009B0F0BD310001988A
:1062C80004AAFFF79BFD0028EDD13088FFF7E8FB13
:1062D8000028E8D10134A4B2E1E7F0B589B006009E
:1062E800170010200191002E16D0FFF775FB05004E
:1062F8002220002D10D0002402ABDC8002ABDB880A
:10630800AB4205D3002063425C416442204003E075
:10631800737F002B02D1042009B0F0BD02AA390016
:10632800019804AB0632FFF784FD0028EBD102ABDD
:10633800D888FFF7B5FB0028E5D10134A4B2DDE722
:10634800030010B51020002B06D05B7F0C38002B03
:1063580002D00020FFF7A4FB10BD030010B51020E9
:10636800002B09D05B7F0C38002B05D0FFF734FBDE
:10637800013880B2FFF794FB10BD0000014B18787C
:106388007047C046DF2601200322024B10401870D8
:106398007047C046DF260120F0B593B06B460E006B
:1063A80004000021581C1700152204F02DFB1622AA
:1063B800002106A804F028FB6B4635781D70012FD4
:1063C8000BD93A1C132F00D913226B46013A92B20B
:1063D800711C581C9A8205F07AFA6B46998A1A2D14
:1063E8003FD029D8012D2DD00021022D27D12300FF
:1063F8006A463A331B782800D376012103232E4AB4
:106408001278002A16D0002C14D02C4E0CAADE408C
:10641800137001231E4202D15570907002336846F2
:10642800C07E012902D1591CD054CBB2218BA0883F
:106438000AF0D2F913B0F0BD00211B2D28D002209C
:106448001C23DCE7002931D06B46597800292DD070
:1064580023003A3319702800236898472800002140
:10646800EEE7267F002E23D1200031000A222E30AD
:1064780004F0CAFA220026852A3213780136B3437B
:106488001370022023689847267700210120D7E758
:10649800237F002BF9D02200012321772A3211789B
:1064A80003200B43137023689847EEE70320C7E7E0
:1064B80000210420C4E7C046DF26012048922401B9
:1064C800F7B5011C041CFCF789FB002800D177E014
:1064D8004049201CFCF79CFB061E00D073E03E4997
:1064E800201CFCF781FB051E00D06FE0201C03F088
:1064F800F1F83A4A3A4B06000F00FCF73BFB00283C
:1065080023D106003749201CFCF782FB00282BD139
:106518003549201CFCF768FB002825D10021201CE8
:10652800F5B2FCF761FB00282AD080231B062F490F
:10653800E01802F04DFE6F1E2A49061CFFB2FCF758
:1065480053FB002817D16DB221E03000234A3900EF
:10655800274BFCF723FB2A00061ED3D001A90D7098
:10656800088812041043FEBD201C204902F064FC78
:106578000136041CC6E780231B063D00F418D4E747
:106588000021201CFCF744FB002808D175B2201C10
:1065980002F05EFF0F230205120D1D40DEE71349CE
:1065A800201C02F015FE2F000E49013D261CEDB2FD
:1065B800041CFCF719FB0028F1D17DB2341CE6E776
:1065C80000250C4ACAE700250B4AC7E735000B4AE5
:1065D800C4E7C046F9029550F90295D02D431CEB4B
:1065E800E2361A3F00E0FF4400E0FFC4000020410B
:1065F800E2361ABFFF070000FE070000020800008D
:1066080043B200011B03000D184382B080B202B0F0
:106618007047002337B50D0001A90400019304F069
:106628006FF828600198001B431E9841C0B23EBD18
:1066380007B500900191EFF305835A42534105488D
:106648005B4200226946006809F06EFD43425841EA
:10665800C0B20EBD8C50012013B501246442074816
:10666800230000226946006809F08EFC0028F6D154
:10667800009801990AF088FBF1E7C0468C50012088
:1066880030B591B001AA1100184B31CB31C131CBD3
:1066980031C1082140200AF0CFFA154B18600028B4
:1066A80002D1002011B030BD082200210EA804F04C
:1066B800ABF9104B012407930F4B00210993442396
:1066C8000A930E4B0E480B9380231B010C93202337
:1066D80007AA0D93089409F087FE0A4B1860002852
:1066E800DFD009480AF090F92000DBE7681E012096
:1066F8008C500120DB1F0120985801209850012060
:10670800F96E002090500120D16E0020F0B50121D3
:1067180091B06A4809F050FE002800D1BDE06848F1
:106728000AF01AFA002800D1B7E066480AF074FAAD
:10673800002800D1B1E00121634809F065FF002875
:1067480000D1AAE0042300930C3319005F4A604883
:106758000AF0FAFA002800D19FE006215D4809F006
:106768009BFC002800D198E002215B480AF014FB4A
:10677800002800D191E08026584B594A76005A608B
:10678800584A28251A629A1CD687574A1E81DA6306
:106798001A005C321680554A9E849A65544B554AB5
:1067A80004A85A60544A1D811A629A1CD587534A14
:1067B8009D84DA631A005C321580514A9A6502009A
:1067C800504B0393504B92CB92C21B68136009F055
:1067D80033FF002861D04D4B4D4A1E82DA609A1C67
:1067E800D6874C4A08A8DA634B4B4C4A1D82DA60BC
:1067F8009A1CD5874A4ADA631A0070321580494ACA
:10680800DA661A00A0321580474A9C331A60474B53
:10681800474A1E82DA609A1CD687464ADA63464B94
:10682800464A1D82DA609A1CD587454ADA631A00FF
:1068380070321580434ADA661A00A0321580424A3F
:106848009C331A600200039B5B1932CB32C232CBF5
:1068580032C212CB12C209F057FC00281DD03B48A7
:106868003B4B022283603B4B3100868183628685E5
:1068780009F0F2FD002810D03748384B310003608A
:10688800374B02228680036186820AF08DF9002840
:1068980003D0FFF7F5FE041E03D10024200011B039
:1068A800F0BD0AF049FAFA2040000AF0A5F82D498F
:1068B8002D4809F079FD09F047FBEFE7A0710120A9
:1068C800B8700120906F0120206B0120006B01201F
:1068D800106B0120D06A0120706A0120006A012033
:1068E800006601200067012000680120006901207E
:1068F80090650120F06401201865012040650120A1
:1069080068650120681E0120801E01209064012016
:10691800886201208C630120C86101201861012070
:1069280044610120706101209C610120B860012050
:10693800B05E0120B45F0120F05D01203C5D0120C4
:10694800685D0120945D0120C05D0120FC5C012090
:10695800FC5A0120FC5B0120DC5A0120DC58012094
:10696800DC590120B80B0000AC0D000013B50C0079
:1069780027282ED8002800D113BD01382628FBD897
:10698800FBF762FF50005F0085008F009C00A300AA
:10699800B1006A007D00B900FAFFFAFFFAFFFAFFBA
:1069A800FAFFFAFFFAFFFAFFFAFFFAFFFAFFFAFF17
:1069B800FAFFFAFFFAFFFAFFFAFFFAFFFAFFFAFF07
:1069C800FAFFC500C800D500E000FAFFE300E900BF
:1069D800EF0040382328CFD8FBF736FFCD00CEFF95
:1069E800CEFFD300D600D900DC00DF00E200E500CE
:1069F800E800EB00CEFFEE00CEFFCEFFCEFFCEFFCD
:106A0800CEFFCEFFCEFFCEFFCEFFCEFFCEFFF100F2
:106A1800CEFFCEFFCEFFCEFFCEFFCEFFCEFFCEFF06
:106A2800F400F700E3788978694A1B020B43138066
:106A3800684B1B68002B9FD000220120110098474B
:106A48009AE70021624B1980624B1B688B4200D188
:106A580092E70A000220F2E7CA785F48497809F00D
:106A68005BFB5E4B5A4C00935D4B69462088019353
:106A78000AF0BAF9C821208809F0A6FF7CE74B780C
:106A880089785848090219430AF0DEF874E708794A
:106A9800CB784A78497909020143534809F004FD43
:106AA8006AE70B7949795148090219430AF0CCF889
:106AB80008224F48211D0AF017F95DE70B89CA889B
:106AC8004C4889880AF060F856E70B7ACA791B02A5
:106AD80013432279C97812020A43A178607809021F
:106AE80001434548EEE788784B790A79C978090265
:106AF80001434248D2E7CA788B7812021A430B78CE
:106B080049783F48090219430AF00EF934E7098821
:106B18003C48B9E7881C002109F046FA62782378D6
:106B28000100120238481A4309F0A6FA24E7881C23
:106B3800002109F039FA62782378120201001A4319
:106B48003248F1E7098832489EE70B78497831489E
:106B58000902194398E78A782F48097809F0DCFA7E
:106B68000AE7CA7A8B7A12021A430B7849782B48BB
:106B780009021943C8E7E278217852422848D2B27C
:106B8800ECE7217827487FE7217827487CE72178B8
:106B9800264879E72178264876E72178254873E75B
:106BA8002178254870E7217824486DE72178244822
:106BB8006AE72178234867E72178234864E7217842
:106BC800224861E7217822485EE7217821485BE77F
:106BD8003C7301203873012007A00000060009005B
:106BE8006300580208A0000009A000000AA00000E5
:106BF8000BA000000CA000000DA000000EA00000DB
:106C08000FA0000010A0000011A0000012A00000BA
:106C180013A0000014A0000015A0000016A000009A
:106C280021A0000022A0000023A0000024A0000052
:106C380025A0000026A0000027A0000028A0000032
:106C480029A000002AA000002BA000002CA0000012
:106C580033A0000034A0000010B5040002480AF078
:106C68001BF8024B1C6010BD0D7200203873012008
:106C7800014B18887047C0463C73012010B5FDF7DA
:106C8800CDF943425841C0B210BD10B5FDF7B4F973
:106C980043425841C0B210BD10B5FDF78FF94342C9
:106CA8005841C0B210BD0A0010B50021FDF75CF9CB
:106CB80043425841C0B210BDF0B587B00600150078
:106CC8000093EFF3058303AC5A425341218000211E
:106CD8005B420193A0706160E5708D421CD0242D49
:106CE8002CD8204F386809F09FFD011E60600CD138
:106CF8001D4F386809F098FD6060002805D11B48D1
:106D080009F072FC002007B0F0BD3B686068A36022
:106D18002A00009904F0DBFD3100154809F094FFC2
:106D2800144821000022019B006809F0FDF90100C8
:106D380001200029E7D0104889B20FE0802D0BD838
:106D4800094F386809F070FD6060002801D10B48D0
:106D5800D6E73B68A360DBE72900094809F074FF20
:106D6800D0E7C046508801204C880120046000000C
:106D780007600000747901200860000005600000C9
:106D8800066000001FB501230E48002200685B4220
:106D980001A909F0F9F800280FD101A809F0F4FCBD
:106DA80002990029EFD00398002802D009F0CCFE00
:106DB800E9E7054809F018FCE5E781B2034809F05E
:106DC80043FFE0E7747901200260000003600000DF
:106DD8008021F0B54748C90099B01023464A00F011
:106DE80015FB464C03AD2B00220043CA43C343CADC
:106DF80043C31A00230011001833C1CBC1C1C1CB52
:106E0800C1C12421102009F057FE3D4B186000280D
:106E18000FD1C020C00109F0E7FB2A000C21402057
:106E280009F00AFF374B1860002814D1002019B068
:106E3800F0BD23000FAA1100303351CB51C151CB03
:106E480051C18021082009F037FE2F4B1860002817
:106E5800E3D12E48DFE70822002116A803F0D4FD6D
:106E68002B4B01240F932B4B002111934423129396
:106E7800294B2A48139380231B01149320230FAA1C
:106E88001593109409F0B0FA254B1860002803D127
:106E9800244809F0A9FBC9E7802009F065FA2248CF
:106EA80009F01AF980235B002822102120000093A2
:106EB800F83B09F0D1FBB4211C48490009F0CCFE8D
:106EC800CC211B48090109F0CFFA302202211948C8
:106ED80009F01AFA09F060FE174809F035F9174861
:106EE80009F08AFB164809F0EFF9164809F0E4FBA7
:106EF80020009CE734890120B4880120B01E0120BD
:106F080050880120747901204C880120016000001C
:106F1800F71F01208081012080790120257600203B
:106F2800787901200960000059750020F89901203E
:106F3800388D0120548801204775002039750020BC
:106F48002B7500201D75002010B509F065F810BDDF
:106F580010B500F05FF90221002009F01DFDC021E5
:106F68000422C0200E4B49005A50800019580D4C7D
:106F7800214019501A60072303210F2009F004FA51
:106F880000F01AF8FFF7C2FB002801D1012010BD5C
:106F9800FFF71EFF0028F9D000F024FB0020F6E7D9
:106FA80000E100E0FFFF00FF10B509F045FD10BD4E
:106FB80010B509F061FB10BD70B501246442E517F6
:106FC800294809F089FB294809F07EFA284809F080
:106FD80013FE284808F0A0FF274809F015FF2748A6
:106FE80009F0AAFC264809F057FD264809F0ACF933
:106FF800254808F0B9FF254809F066FC244809F03F
:1070080063FB244809F008FD234809F01DF92348CB
:1070180009F02AF9224809F0C7F8224809F064FB68
:10702800214809F049FC214809F0F6F9204809F0FF
:1070380053FC204809F080FA1F4809F06DFC1F48EE
:1070480009F042F81E4809F057F91E4809F03CFEBD
:107058001D4809F0F9FE2900200009F07DFC2900EF
:10706800200009F031FD70BDD3BC0200B3BC0200A2
:10707800BBBC0200CBBC0200C3BC0200B955010076
:107088006956010061270200012702001527020046
:10709800710B02005D240200312602009D250200CA
:1070A8008D260200F9250200C52602007D27020070
:1070B800752702007D0B0200D9E9030001E80300EF
:1070C8003DE70300C5EA03009DEA030070B51023FD
:1070D800041E13D0FBF728FE102317280ED8084DDE
:1070E80018220021280003F08FFC2000FBF71CFE6B
:1070F80021000200280004F0EAFB0023180070BDFC
:10710800E226012002000549203A92B2030010202D
:107118008A4202D80020024A13807047E03F0000EC
:10712800E02601201FB50622154902AC684604F086
:10713800CEFB06220021200003F066FC0621200079
:10714800FCF7C7FC00221300A15C01325B189BB25C
:10715800062AF9D1002B03D02100684604F0B7FBBA
:10716800684609F011F8074C2000FBF7DDFDD02236
:10717800C1B212012000FCF75BF8FCF7D5F81FBD7F
:107188004C200120E226012030B50B258FB02A00C3
:10719800002104A803F038FC1B4B03AC1B8821001A
:1071A8002380638007230020637309F0B5F92A0060
:1071B8006846164904F08BFB69462A00002009F04E
:1071C8001BFE134C2000FBF7AFFD6B4601306A46EF
:1071D8001877092320005377FBF7A6FD02001E202D
:1071E8002100684404F073FB2000FBF79DFD02308A
:1071F800C2B207A9002009F077FB0121002009F09D
:1072080043FC0FB030BDC046E0260120F81E012027
:10721800E226012010B509F05FFD08F035FF09F0FE
:107228001BF8041E0DD109F027FB074809F034F9B3
:10723800022009F0D9FC042008F0AEFF0B2009F069
:10724800E3FA200010BDC04620F501001648854627
:1072580016488047002103E0154B5B584350043122
:107268001448154B42189A42F6D3144A02E00023F8
:1072780013600432124B9A42F9D304F0F7FAFCF780
:10728800F3FBFEE77046EFF30881EFF309820D4B3D
:107298009847FEE77046EFF30881EFF309820A4B3F
:1072A8009847FEE7FEE70000001002206D7B0020F3
:1072B80098260120982601202C2901202C3901200C
:1072C800F89C0120054E0020074E0020014B024A81
:1072D800936070470030002000ED00E0012310B5F6
:1072E800984206D8044A10641366C82009F074F856
:1072F8000023180010BDC04600D4046000220B4BC8
:1073080030B51C880A4B1B681100944205DC5B6889
:10731800002B00D12100080030BD1D88854202D80D
:107328005D888542F3D201320833EDE7609B012086
:10733800649B012070B5050008000C00FFF7DEFF14
:10734800084A0300128800209A420AD0064ADB0045
:107358001068C3185B681B68181E02D0210028003B
:10736800984770BD609B0120649B0120F0B585B0F3
:10737800039306000AAB080002921F880D00FFF76E
:10738800BDFF0B4A0300128800209A420DD0094A1B
:10739800DB001068C3185B685C68201E05D0009786
:1073A800039B029A29003000A04705B0F0BDC046F3
:1073B800609B0120649B0120F0B587B004930CAB5F
:1073C800039204CB0600080005921F880D00FFF702
:1073D80095FF0C4A0300128800209A420FD00A4AEF
:1073E800DB001068C3185B689C68201E07D0059BEB
:1073F80001970093039A049B29003000A04707B027
:10740800F0BDC046609B0120649B012073B50C0051
:10741800002A05D0002803D0002901D0002B03D171
:107428000D4809F0E1F873BD0C490A600C490B805E
:1074380000210D0099420AD30023210000951A006B
:1074480009F032F92100074809F0FEFBEBE7CE000E
:107458000131B550C9B2EDE797520000649B012095
:10746800609B012098520000F7B516000024019394
:10747800214F224B009119883B68A14207D80CD1B3
:1074880089B21F4809F0E0FB00252800FEBDE20094
:107498009A5A002A01D00134EFE7002820D0002EA4
:1074A80003D1184809F0A0F8EEE7A02130008901BF
:1074B80008F022FD102205003100134809F014FCE1
:1074C800002DE2D03B68E2009B1800225A80019A06
:1074D8001D805A602900A2B20C4809F025FCD4E7A7
:1074E800A0210098890108F037FD00990500084897
:1074F80009F0AAFBE4E7C046649B0120609B0120D9
:10750800995200009A5200009B5200009D520000C0
:107518009C52000070B5154D154B2E681988300027
:107528000023994206D80ED1124889B209F08CFB83
:10753800002070BD4488002C02D10488002C02D1A0
:1075480001330830EDE7DC0009F016FB2B6836192B
:107558001B1970805E8809F0CFF8310002000648D8
:1075680009F0E2FB2B681B195888E2E7649B0120AD
:10757800609B0120A3520000A4520000F8B51E0031
:1075880006AB150004CB0F001B88002817D0002D70
:1075980005D1104809F028F82C002000F8BD31006A
:1075A800280009F0E1FB1022040029000A4809F02C
:1075B8009BFB32002100094809F0B6FBEDE73100DA
:1075C800380009F039FC39000400054809F03CFB93
:1075D800EFE7C046A5520000A6520000A8520000DE
:1075E800A752000010B5114809F016FA104808F023
:1075F8002BFE104808F038FE0F4808F0D5FD0F485C
:1076080009F072F800F08EF800F03EF900F00CFA7C
:1076180000F0A4F900F0E6F900F002FB00F07CF9B4
:1076280000F03AF900F028FD10BDC046DD7F0020CB
:107638001180002069800020C1800020F580002092
:10764800012370B50370EFF3108572B60C4C2378E4
:10765800002B0FD00B4B64201A680B4B1B689A4207
:1076680004D90533934208D39620400008F0B4FEAD
:107678000023237085F3108870BD08F0A5FFF7E795
:107688005B09002080000040E8010040F8B50126B1
:1076980000251D4B06701B78AB4210D1EFF3108408
:1076A80072B609F039F8194F051E0AD03B78002B3D
:1076B80003D1174809F080FA3E7084F31088280037
:1076C800F8BD144B19683A78D2B2002AF5D00523D0
