:020000041000EA
:100000004B2A110200000000A4030000EEC3A6E981
:100010007EEEE78880B500F087F90020002100F02F
:100020000DF8292000F00FF8202000F011F800F062
:1000300033F900F013F800F025F980BD4CF2B93C1B
:10004000C0F2000C604747F67D1CC0F2000C604710
:1000500047F6D12CC0F2000C6047000080B54FF08D
:10006000A040012100F075F900060BD1032000F03B
:1000700075F9000606D1012000F075F9000604BFED
:10008000002080BD00F074F94FF47A7000F075F92B
:10009000012080BD2DE9F04381B019B343F2B83897
:1000A0000F4606464FF0FF344FF00009C2F2000839
:1000B0003D46B7F5807F28BF4FF480754FF0A040D4
:1000C000314642462B46CDF8009000F05BF960B90E
:1000D00040462946224600F05AF904467F1B2E442A
:1000E000E6D103E04FF0FF3400E00124204601B0E8
:1000F000BDE8F08310B582B004464FF0000C4FF01D
:10010000A0404FF4805122462023CDF800C000F0DB
:1001100039F9000622D120461C214FF0FF3200F0B1
:1001200036F9E169814219D1E078112816D1A07819
:10013000022813D1E168B1F5002F0FD8606846F2AC
:100140007872C4F26A72904208D1A068FFF7A2FFE9
:100150002169401A18BF012002B010BD012002B071
:1001600010BD00002DE9F0410C4605460E184FF079
:100170000008B4F5803F07D3A8B228B94FF4803700
:100180000321102021E000BFB4F5004F08D328461A
:100190006FF3DF3020B94FF4004702210F2014E045
:1001A00029466FF31F31200BB1FA81F1B8EB143FF0
:1001B00018BF0120490901404FF008004FF4807733
:1001C00018BF0C2018BF4FF4805725FA00F082B2F8
:1001D0004FF0A04047F2305300F0DEF800060BD19C
:1001E0003D44B542A4EB070424BF0020BDE8F081E4
:1001F000B4F5803FC0D2C7E700F0BAF84FF47A7088
:1002000000F0BBF80120BDE8F08100002DE9F047C7
:1002100082B04FF000098AB343F2B83814460E4654
:100220000746C2F2000840F6B83A00BF2546B4F5CA
:10023000807F28BF4FF480754FF0A040394642467A
:100240002B46CDF8009000F09DF890B94FF0A040FB
:10025000314642462B46CDF80090CDF804A000F080
:10026000A0F848B92F44641B2E44DFD14FF0000999
:1002700004E04FF0010901E04FF00109484602B0E7
:10028000BDE8F08780B542F20400C1F200000068CA
:1002900000F08CF880BD0000B0B588B06846FFF76C
:1002A00029FF08B101243CE0DDE90501FFF75AFF11
:1002B00038B100F05DF84FF47A7000F05EF8012478
:1002C0002FE0DDE902020599FFF7A0FF38B100F049
:1002D0004FF84FF47A7000F050F8012421E00399B0
:1002E0000598FFF7D7FE0499884213D14FF0A0403C
:1002F0000021102247F23053002400F04DF805464B
:1003000000F036F828060CD04FF47A7000F035F87B
:10031000012406E000F02CF84FF47A7000F02DF87C
:100320000124204608B0B0BDEC20C6F205000168EB
:100330007F2221F002010160016821F004010160C7
:100340006FF0030143180431342943F8D82CF9D154
:10035000704748F6F57CC0F2000C604747F2613CFC
:10036000C0F2000C604747F21D3CC0F2000C604731
:1003700047F6717CC0F2000C604744F2717CC0F219
:10038000000C604748F69D2CC0F2000C604744F218
:10039000C17CC0F2000C604748F6A10CC0F2000C12
:1003A000604749F2D90CC0F2000C604744F62D0CAE
:1003B000C0F2000C604700000000000000000000D8
:1003C000000000000000000000000000000000002D
:1003D000000000000000000000000000000000001D
:1003E000000000000000000000000000000000000D
:1003F00000000000000000000000000000000000FD
:020000041000EA
:102000000000012055210010692100107B210010E3
:102010008D2100108F210010912100100000000080
:10202000000000000000000000000000D1020000DD
:1020300095210010000000007503000081030000DE
:102040009B2100109D2100109F210010A121001054
:10205000A3210010A5210010A7210010A921001024
:10206000AB210010814D0010AF210010B1210010F4
:10207000B3210010B5210010B7210010B9210010C4
:10208000BB210010BD210010BF210010C121001094
:10209000C3210010C5210010C7210010C921001064
:1020A000CB210010CD210010CF210010D121001034
:1020B000D3210010D521001001320020D9210010B9
:1020C000DB210010DD210010DF210010E1210010D4
:1020D000E3210010E5210010E7210010E9210010A4
:1020E000EB210010ED210010EF210010F121001074
:1020F000F3210010F5210010F7210010F921001044
:1021000089320020FD210010FF2100100122001063
:1021100003220010052200100722001009220010DF
:102120000B2200100D2200100F22001000000000F2
:10213000000000000000000000000000000000009F
:10214000DFF80CD000F070F800480047694F00102D
:10215000000001202E4880F308882E4880F30A886A
:102160002D4880472D4800475FEA0E00EFF30881B5
:10217000EFF309822A4B9847FEE75FEA0E00EFF380
:102180000881EFF30982274B9847FEE7FEE7FEE759
:10219000FEE7FEE7FEE7FEE7FEE7FEE7FEE7FEE717
:1021A000FEE7FEE7FEE7FEE7FEE7FEE7FEE7FEE707
:1021B000FEE7FEE7FEE7FEE7FEE7FEE7FEE7FEE7F7
:1021C000FEE7FEE7FEE7FEE7FEE7FEE7FEE7FEE7E7
:1021D000FEE7FEE7FEE7FEE7FEE7FEE7FEE7FEE7D7
:1021E000FEE7FEE7FEE7FEE7FEE7FEE7FEE7FEE7C7
:1021F000FEE7FEE7FEE7FEE7FEE7FEE7FEE7FEE7B7
:10220000FEE7FEE7FEE7FEE7FEE7FEE7FEE7FEE7A6
:102210000000012000F000204D220010412100109C
:1022200061390010D5350010064C074D06E0E06816
:1022300040F0010394E8070098471034AC42F6D30D
:10224000FFF782FF38230010682300102DE9F047C4
:1022500042F2000C43F2000E0020C1F2000CC2F268
:10226000000E00BF5CF800100CEB00024EF80010EE
:1022700051689468D56816695769D2F81880D2F801
:102280001C90D2F820A00EEB000359609C60DD602A
:102290001E615F61C3F81880C3F81C90C3F820A0CA
:1022A000516A946AD56A166B576BD2F83880D2F8A7
:1022B0003C90D2F840A059629C62DD621E635F636D
:1022C000C3F83880C3F83C90C3F840A0516C946CBC
:1022D000D56C166D576DD2F85880D2F85C90126E9E
:1022E000643003F1440AB0F5967F8AE8F2031A6677
:1022F000B8D14EF61450CEF2000040F80CEC416F0D
:1023000041F470014167016841F01001016001680A
:1023100041F480710160BDE8F08702E008C8121F37
:1023200008C1002AFAD170477047002001E001C1BE
:10233000121F002AFBD17047A86100100032002054
:10234000D00000001A230010786200100060002006
:102350005C0000001A230010D46200105C600020B2
:10236000E40000002A230010D2B201E000F8012BA3
:10237000491EFBD270470022F6E710B513460A4605
:1023800004461946FFF7F0FF204610BD2DE9F05F27
:102390000546002092469B468846064681464024D4
:1023A0001BE0284641464746224600F02FF8534698
:1023B0005A46C01A914110D311461846224600F0E1
:1023C00016F82D1A67EB01084F462246012000211E
:1023D00000F00DF817EB00094E41201EA4F1010496
:1023E000DFDC484631462A464346BDE8F09F202AB6
:1023F00004DB203A00FA02F1002070479140C2F15C
:10240000200320FA03F3194390407047202A04DB8D
:10241000203A21FA02F00021704721FA02F3D0405D
:10242000C2F1200291400843194670472DE9F04F50
:1024300089B0054690F900000C46B0F1FF3FC0B2EC
:1024400008DC9F2806D82846214609B0BDE8F04F91
:1024500001F052B8A14609F8010B2F4617F8010BFD
:102460001D2800F2AB82DFE810F01E002E003F00B6
:102470008D009B00B0005402A902B002CA02D30230
:10248000A902A902A902A902A902DC0202031503FA
:102490002E033C034C035903A902A902A902A90275
:1024A000A902A90263033A78A11CFD2A4FF000009B
:1024B00000F31B84042A00F04285F02A40F04B858B
:1024C000112000F046BD3878012800F21884A87861
:1024D000012121EA00024BF23000C6F20400503024
:1024E000802103F039F891E23878012800F2148451
:1024F0004BF2300546F29C00C6F20405C2F2000021
:102500000126A5F13004067120460421032203F0C0
:1025100028F820460221032203F023F850352846EC
:102520001021032203F01DF820460421012203F0AC
:1025300013F820460221012203F00EF8284610214C
:10254000012203F009F820460421002203F00EF8CE
:1025500020460221002203F009F828461021022219
:1025600003F004F820460421012203F004F8204679
:102570000221012202F0FFFF28461021012202F071
:10258000FAFFCAE346F29C00C2F2000000210126D5
:10259000017189F8001006F1011009B0BDE8F08F53
:1025A000687846F29C01C2F200010874688801262E
:1025B0008882A888C0F20506C882002089F8000039
:1025C00006F1011009B0BDE8F08F46F29C01C2F29D
:1025D00000010879012840F0A9834FF0000881F834
:1025E0000080AB78E21C002B05F1030500F0BA84F3
:1025F0000020049203904FF0000E00200021984626
:1026000005910193AB461BF8016BB1071AD4BEF1DB
:10261000000F5FD046F29C00C2F20000AA46858AF5
:102620000E2007A901F020FA002D44D0022842D143
:1026300046F29C00C2F200000078013D0028EFD075
:1026400000F02DBDBEF1000F32D046F29C00C2F268
:102650000000AA46858A06F01100012814D1013530
:10266000CDF808E0304607A901F0FEF902285DD157
:10267000013D00F0148546F29C00C2F20000007893
:102680000028EFD000F00BBD0E2007A901F0ECF9F7
:10269000002D4FF0000E4BD0022849D146F29C008D
:1026A000C2F200000078013D0028EDD000F0AABD84
:1026B0004FF0000E4CE0012840F042860798049944
:1026C00055460880BDF81E0088709DF81F00C87030
:1026D000081D0490D5F8010046F29C0BB10605F1E7
:1026E0000505C2F2000B079010D4AA46BBF814509F
:1026F000304607A901F0B8F975B102280CD19BF852
:102700000000013D0028F3D000F077BDCBF81800A1
:102710004FF0000E0120E8E04FF0000E012840F0DD
:1027200012860120012155460391DEE0DDF808E024
:10273000012840F014860798049955460880BDF892
:102740001E0088709DF81F00C8700431012004919C
:10275000F1061CD446F29C01C2F20001B1F814A0AB
:10276000F10739D17546304607A901F07DF9BAF174
:10277000000F4FD002284DD146F29C00C2F200005B
:102780000078AAF1010A0028EDD000F09ABD46F2C7
:102790009C00C2F20000D5F801A0B0F816B0F00716
:1027A00005F105050095CDF808E04BD046F29C00F8
:1027B000C2F20000858A3046002101F055F9E5B3E8
:1027C00002283AD146F29C00C2F200000078013D96
:1027D0000028F0D000F078BDBEF1000F02D000213B
:1027E00003917DE03046002101F03EF9BAF1000F7F
:1027F0006ED002286CD146F29C00C2F20000007834
:10280000AAF1010A4FF0000E00284FF00200E9D0B3
:1028100000F0A5BD0128AE4640F0A1850798049DB3
:102820002880BDF81E00291DA8709DF81F00E870C3
:10283000002003900120049152E0DDF808E0012817
:1028400040F0888546F29C03C2F200039D8A304620
:1028500007A901F009F955B1022808D146F29C00F8
:10286000C2F200000078013D0028F0D019E00128F4
:1028700018D1DDF808E0009DBBF1000F4FF001001A
:1028800042D046F29C03C2F2000307999A691140B4
:1028900051450ED01878ABF1010B0028D6D001209D
:1028A00004E0022046F29C03C2F20003DDF808E0D7
:1028B000009D07999A691140514518BF40F01000DA
:1028C000012840F0368500209B46039001200CE053
:1028D000012840F042850020039001204FF0010EB6
:1028E0005D4646F29C0BC2F2000B9BF800100029DB
:1028F000059901F10101059140F01B85B8F101082E
:102900007FF480AE00F017BD46F29C03C2F20003D4
:10291000CFE746F29C0BC2F2000B9BF804000128A3
:1029200040F01E8200228BF80020698804F1040A1E
:10293000002900F019832E79B00700F117830020D9
:102940000DF12008CDF810A00590029157F8040F62
:10295000BBF814A00139039108903046414601F0BC
:1029600083F8BAF1000F08D0022806D19BF80000C6
:10297000AAF1010A0028F0D08EE3DDF810A00128AA
:1029800040F0DC8403990598002900F101000590CE
:10299000DCD1BBF81400461C0E20002101F064F8C5
:1029A000022840F0D384013E00F0CF849BF8000061
:1029B00000284FF00200EFD000F0C8BCFF202070CC
:1029C0004FF0011009B0BDE8F08F46F29C00C2F252
:1029D0000000007901260128C0F2050640F0C681FA
:1029E000D5F8020006A906900020002401F03CF86A
:1029F00089F8004006F1011009B0BDE8F08FB5F884
:102A00000100162100FB01F0401EFDD1002077E1FE
:102A10000020A4F80100022606F1011009B0BDE86B
:102A2000F08FAF786E78D5F803504BF2300417F082
:102A3000010AC6F2040400F0C780F0074FF004005A
:102A40000CBF44F81C0C44F8200C17F0020B40F0AB
:102A5000BF8017F0800800F0C780F20904F1500031
:102A6000102102F079FD002D40F0C18056E3D5F829
:102A70000100002800F0828144F60001C0F2E81154
:102A80008842C0F08E8146F29C01C2F20001012012
:102A900048719FE26C78A91C002C08BF4FF4807429
:102AA000204602F03FF94FF4604101EB4431002031
:102AB00089F800003FFA81F000F1011606F10110DB
:102AC00009B0BDE8F08F387846F29C0200F00301AF
:102AD0000131C2F200021177C0F38000507700206C
:102AE0001DE0FF2089F800003978002900F04881B6
:102AF000481EAA1C032801F0030080F06B8102230A
:102B00009FE13878FF214FF0011202EB004689F86F
:102B1000001006F1011009B0BDE8F08FFF2089F820
:102B200000004FF0011606F1011009B0BDE8F08F6A
:102B3000002089F800003E78002E00F0288144F241
:102B4000040A023504F1020B4FF00109C6F2000A33
:102B5000012703E038192544471C76B315F8010B0B
:102B60004FF4807210F03F0101F107014FEAD104E8
:102B700008BF0824DAF8001010F0800818BF4FF4DE
:102B8000007221F440711144CAF8001029465A46D7
:102B900000F006FF012E06D1DAF80000012161F3F2
:102BA0000920CAF80000B8F1000FA6F10106D1D043
:102BB0000137A344A144002ED0D149EA074606F1CB
:102BC000011009B0BDE8F08F17F0020B3FF441AFE0
:102BD000B0074FF0020054BF44F81C0C44F8200C1E
:102BE00017F080087FF439AF002D00F0978207F0CE
:102BF000200007F00405B0FA80F04309B5FA85F02B
:102C000041F2040E4709CEF2000EF00906F0FC0274
:102C1000DEF8001005907008B2FA82FC04904FEACA
:102C20005C10074306F0E000B0FA80F04009BAF10A
:102C3000000F43EA000300F03581002A18BF01228B
:102C4000002D18BF0125BBF1000F00F0A78103B3D1
:102C500002EA0507DDE9043204E0DEF800008842FC
:102C600040F05C822068C0F38000B042F5D120685B
:102C7000C0F34000181A18BF01203843EDD1B8F155
:102C8000000F00F04B82E06DC0F300108242E4D1EF
:102C900044E22068C0F38000B04208BF2068DEF83C
:102CA0000000884240F03A822068C0F38000B042C1
:102CB00008BF2068DEF80000884240F02F822068BC
:102CC000C0F38000B04208BF2068DEF800008842F0
:102CD00040F024822068C0F38000B04208BF206822
:102CE000DEF800008842D4D018E2FE2A00F03081DD
:102CF000FF2A40F030814020608002202BE1FF203D
:102D000089F800000120C0F20500A0F5403606F168
:102D1000011009B0BDE8F08F002689F800604FF07F
:102D2000011606F1011009B0BDE8F08FA878E91C82
:102D3000002800F0578210F00303A0F1010C00F00E
:102D40001182EE7805F10802F106114658BF291DDF
:102D5000B60758BF1146012B40F0A581604601E23D
:102D60000020A4F80100E070032092E2FF2089F81F
:102D7000000006F1011009B0BDE8F08FFF202FE13F
:102D80004FF0011606F1011009B0BDE8F08F0127E0
:102D90004FF0010949EA074606F1011009B0BDE804
:102DA000F08F40F6FF01C0F23D010144B1FBF0F0AD
:102DB00046F29C020021C2F2000202285171C0F0CA
:102DC00008814AF6AB210130CAF6AA21A0FB010115
:102DD0004808FFE0431A0121177817F03F0707F171
:102DE00007074FEAD70708BF08273A4412F8016FD0
:102DF000394416F03F0707F107074FEAD70708BF26
:102E000008273A4412F8016F394416F03F0707F1DA
:102E100007074FEAD70708BF08273A4412F8016F9F
:102E2000394416F03F0707F107074FEAD70708BFF5
:102E3000082739443A440132043301F10401CBD16B
:102E40004B1C40B3117811F03F0101F107014FEA2B
:102E5000D10708BF0827012803EB07011BD03A441C
:102E60000132137813F03F0303F107034FEAD30352
:102E700008BF08231944022801F101010BD0D01822
:102E8000407810F03F0000F107004FEAD00008BF83
:102E900008200844411C0804461C06F1011009B032
:102EA000BDE8F08FBBF1000F00F0A6803BB177B317
:102EB000B8F1000F00F01082DDE904321CE0206858
:102EC000DEF80000884240F029812068DEF800002A
:102ED000884240F023812068DEF80000884240F0FC
:102EE0001D812068DEF800008842E8D016E1DEF897
:102EF0000000884240F012812068C0F34000834205
:102F0000F5D1E06DC0F300108242F0D106E12068F7
:102F1000DEF80000884240F001812068DEF8000001
:102F2000884240F0FB802068DEF80000884240F0D4
:102F3000F5802068DEF800008842E8D0EEE030201E
:102F4000888042F63260C2F630600860062002E0F7
:102F500008200870012089F8000000F1021009B073
:102F6000BDE8F08F0020BAE200208CE1F00700F00D
:102F70005081BBF8147088463046002100F074FD83
:102F8000002F00F04381022840F040819BF80000B0
:102F9000013F0028F0D00220002274E107EA03007C
:102FA000012840F08F80059A04E0DEF80000884296
:102FB00040F0B4802068C0F38000B042F5D1B8F191
:102FC000000F00F0AB80E06DC0F300108242ECD146
:102FD000A4E0012046F29C01C2F2000188600020BA
:102FE00089F800000120C0F20500A0F5803606F146
:102FF000011009B0BDE8F08F67B3E3B3059AB8F1EB
:10300000000F00F08B80E06DC0F30010824200F0F2
:103010008580DEF80000884240F08080E06DC0F3DB
:10302000001082427AD0DEF80000884276D1E06D4E
:10303000C0F30010824271D0DEF8000088426DD1EA
:10304000E06DC0F30010824268D0DEF800008842D4
:10305000D9D063E0DEF8000088425FD1DEF80000DE
:1030600088425BD1DEF80000884257D1DEF80000CC
:103070008842EFD052E0DEF8000088424ED1DEF800
:10308000000088424AD1DEF80000884246D1DEF8CE
:1030900000008842EFD041E0DDE904A2F2E04FF009
:1030A000010E02205BE10A4612F8016B4D1DF1068C
:1030B00048BF2A46B107114658BF2946022B45D1C1
:1030C00002384FE0B8F1000F14D02068DEF800009D
:1030D000884223D12068DEF8000088421ED1206893
:1030E000DEF80000884219D12068DEF8000088422E
:1030F000EBD013E02068DEF8000088420ED1206893
:10310000DEF80000884209D12068DEF8000088421D
:1031100004D12068DEF800008842EBD02068C0F3BC
:1031200080002168E26D01F00201084402F0100104
:1031300040EAC10089F800000120C0F2050000F556
:10314000803606F1011009B0BDE8F08F0A4612F88A
:10315000013B0531DE0648BF0A469B0758BF0A46B9
:1031600003381146BCF1030F3CD30A784D1D02F021
:10317000020312F010024FF005022E4604BF012296
:103180004E1C002B08BF0522895C08BF2E46751D0A
:1031900001F0020211F010014FF005012B4604BFAF
:1031A0000121731C002A08BF0521715C08BF2B4652
:1031B0005D1D01F0020211F010014FF005012E46D5
:1031C00004BF01215E1C002A04BF05212E465A5C63
:1031D000731DD106194658BF711C920758BF194676
:1031E0000438C2D10020A4F80100C81B0004861CCA
:1031F00006F1011009B0BDE8F08F4FF0000E02207B
:10320000D346ACE04FF0000E0220A8E00128414672
:1032100060D100200DF120080A4605900291F007C8
:10322000304618BF0E20BBF81470013A0492002AF1
:1032300008BF06463046414600F016FC3FB1022862
:1032400005D19BF80000013F0028F3D019E00128C8
:1032500074D1BDF8221008988AF80210AAF800006C
:103260009DF823000AF104018AF8030005988A46B4
:1032700001300590049A0120002AD0D1029A8A4692
:1032800001E0059A0220110A6270A170E070AAEBB9
:103290000900297989070DD4E978AA78890641EAD5
:1032A000824101F5802141EA000606F1011009B0D2
:1032B000BDE8F08F40F4802606F1011009B0BDE8AA
:1032C000F08F0220AE464AE0DDF800B0DDF808E0FD
:1032D000022044E00022D6E7049A2068C0F34000B0
:1032E00082423FF41BAFDEF8000088427FF416AF45
:1032F0002068C0F3400082423FF410AFDEF80000C7
:1033000088427FF40BAF2068C0F3400082423FF454
:1033100005AFDEF8000088427FF400AF2068C0F3FC
:10332000400082423FF4FAAEDEF800008842D4D07A
:10333000F4E6AB4613E0DDF8048092E0059AA2E7DC
:103340004FF0010E0BE0D34609E00220029ADDF8AF
:1033500010A098E7DDF800B001E04FF0000EB8F1E2
:10336000000F77D018F00302A8F1010C2CD00BF15C
:1033700005031BF8016BF50648BF9B46B60758BF0F
:103380009B46012A01D1E0461EE05B4613F8016B23
:103390000BF10505F10648BF2B46B1079B4658BF08
:1033A000AB46022A02D1A8F102080DE0594611F8F5
:1033B000012B0BF10503D60648BF1946920758BFEB
:1033C0001946A8F103088B46BCF1030F42D39BF8C2
:1033D00000100BF1050601F0020211F010014FF090
:1033E0000501334604BF01210BF10103002A08BF88
:1033F00005211BF8011008BF33465D1D01F00202D4
:1034000011F010014FF005012E4604BF01215E1C92
:10341000002A08BF0521595C08BF2E46751D01F022
:10342000020211F010014FF005012B4604BF0121EB
:10343000731C002A04BF05212B465A1D715C93465C
:10344000CE0658BF03F1010B890758BF9346B8F168
:103450000408BCD15D46DDF8148046F29C0BC2F234
:10346000000B01283AD1AA46BEF1000F10D0BBF8DC
:10347000146007AD0E20294600F0F6FAE6B10228E6
:103480001AD19BF80000013E0028F3D0022024E06E
:10349000039808B3BBF81400451C0E20002100F06F
:1034A000E3FA022819D1013DF0D09BF80000002872
:1034B0004FF00200F1D010E0012855460ED10798D8
:1034C00004990880BDF81E0088709DF81F00C87020
:1034D000043101200A4602E001205546049AE91B06
:1034E000A2EB090284F8018042EA0146A07006F1CD
:1034F000011009B0BDE8F08F02784FF001100A709A
:1035000070470000B0B546F29C00C2F200000322F2
:103510000021826064224BF2000581800174C0E9C1
:1035200005210121C6F204058183284604210322D6
:1035300002F017F828460221032202F012F805F1E2
:10354000800420461021032202F00BF828460421B3
:10355000012202F001F828460221012201F0FCFFBD
:1035600020461021012201F0F7FF28460421002205
:1035700001F0FCFF28460221002201F0F7FF20465F
:103580001021022201F0F2FF28460421012201F05D
:10359000F2FF28460221012201F0EDFF2046102112
:1035A000012201F0E8FF20468021012201F0E3FF23
:1035B00020468021012201F0CFFF20464021012238
:1035C00001F0D9FF204640210122BDE8B04001F0C2
:1035D000C3BF000082B04EF6285715460C4606467B
:1035E000CEF2000701F068FC45F61B50EFF30881AE
:1035F000C1F2000002F078F8300746F2601046F29F
:103600007F11C1F20000C1F2000158BF084602F06C
:10361000B3FA16F0040046F27111A9A0C1F200013C
:103620000CBF08462C4602F0A7FAA9A002F0A4FAA3
:103630002168ABA002F058F86168ADA002F054F820
:10364000A168AFA002F050F8E168B1A002F04CF818
:103650002169B3A002F048F86169B5A002F044F80E
:10366000A169B7A002F040F8E169B9A002F03CF806
:10367000A06901907868800707D47868B0F1FF3FAF
:103680000DDD7868400014D4ADE046F23410C1F28C
:10369000000002F071FA7868B0F1FF3FF1DC46F209
:1036A0004D10C1F2000002F067FA7868400040F166
:1036B0009A8046F22010C1F2000002F05DFA3868EC
:1036C000000632D046F20210C1F2000002F054FAB5
:1036D0003868C00706D0019945F69940C1F200004C
:1036E00002F002F83868800710D5019945F62640A7
:1036F000C1F2000001F0F8FF3868000606D5F9684D
:1037000045F60E50C1F2000001F0EEFF38680007E8
:103710006DD43868C00674D43868800605D545F67F
:103720002570C1F2000002F027FA386810F47F4FCC
:1037300034D046F24210C1F2000002F01DFA38689F
:10374000C00505D545F64F60C1F2000002F014FA3D
:103750003868800510D5019945F6EF30C1F20000B8
:1037600001F0C2FF3868000406D5396945F60E50ED
:10377000C1F2000001F0B8FF386840054CD4386849
:10378000000552D43868C00458D43868800405D580
:1037900045F67870C1F2000002F0EEF93868B0F535
:1037A000803F20D346F21310C1F2000002F0E4F98A
:1037B0003868C0034CD43868800352D4386840035A
:1037C00058D4386800035ED43868C00264D43868BE
:1037D000C0016AD43868800105D545F6AA50C1F207
:1037E000000002F0C9F901F029FB00BFFEE745F631
:1037F000C470C1F2000002F0BFF93868C0067FF55E
:103800008BAF46F21900C1F2000002F0B5F938683A
:1038100080063FF584AF88E745F6E550C1F2000029
:1038200002F0AAF938680005ACD546F26C00C1F286
:10383000000002F0A1F93868C004A6D546F2B8002D
:10384000C1F2000002F098F938688004A0D4A5E71E
:1038500045F67150C1F2000002F08EF9386880031D
:10386000ACD545F6E860C1F2000002F085F9386891
:103870004003A6D545F64350C1F2000002F07CF9A2
:1038800038680003A0D545F67C60C1F2000002F064
:1038900073F93868C0029AD545F6BC60C1F20000E1
:1038A00002F06AF93868C00194D545F61C60C1F28F
:1038B000000002F061F9386880018ED493E700BF00
:1038C0005573696E67207533325073702E00000097
:1038D000537461636B206672616D653A000000008D
:1038E000523020203A203078253038580A00000025
:1038F000523120203A203078253038580A00000014
:10390000523220203A203078253038580A00000002
:10391000523320203A203078253038580A000000F1
:10392000523132203A203078253038580A000000D1
:103930004C5220203A203078253038580A000000B8
:10394000504320203A203078253038580A000000B3
:10395000785053523A203078253038580A00000009
:1039600014460D46064601F0A7FA05A031462A4640
:10397000234601F0B9FE01F061FA00BFFEE700BF87
:103980004E4D495F48616E646C65723A202530384F
:10399000582C20253038582C20253038580A000063
:1039A000F0B510F03F0C08BF4FF0400C00064BF292
:1039B0001000C6F2040028D446F2A0024FF0020E16
:1039C0000423C2F2000203E0BCEB070C08BFF0BD09
:1039D00011F8014BACF10105002600BFE7070CBF51
:1039E000C0F804E0C0F800E0436057687F1EFDD1D6
:1039F000036057687F1EFDD1B54206F10107E3D091
:103A00006408072E3E46E9D1DEE746F2A0034FF0F8
:103A1000040EC2F2000308E0C1F1080425FA04F420
:103A200002F8014BBCEB010C1CD0ACF101060024E8
:103A3000002500BFC0F804E05968491EFDD1016AA5
:103A4000C0F800E001F002015F6889017F1EFDD12E
:103A500041EA5505A64204F10101DDD0072C0C46D0
:103A6000E8D1D9E7F0BD00002DE9F04F46F2A00AF9
:103A7000C2F2000A9AF801704BF2140B8446C6F2A7
:103A8000040B022044F2040E4BF8040C0420002F17
:103A9000C6F2000ECBF8000000F0C4805FEACC74E0
:103AA0004BF8040C4FF002000CBFCBF800004BF8B1
:103AB000040C04200224CBF800004BF8040C1CF08A
:103AC00002090CBFCBF800404BF8044C04244FEA29
:103AD0005C00CBF800404BF8044C5FEA4C74604447
:103AE0004FEA9C044FF0020554BFCBF800504BF84E
:103AF000045C20445FEA0C744FEADC044FF00405D8
:103B00002044CBF800504BF8045C4FF0020554BF42
:103B1000CBF800504BF8045CC0074FF004054FF0A1
:103B20000200CBF800504BF8045C0CBFCBF800004F
:103B30004BF8040C04260220CBF800604BF8046C10
:103B4000CBF80000CBF800604BF8046C4BF8040C89
:103B5000CBF800604BF8046CDEF8004060F30924F9
:103B6000CEF800409AF81880CBF80060B8F1000F4A
:103B70002CD0A8F1010718F00304404610D004250A
:103B8000012C38464BF8045CCBF8005008D0022CCE
:103B90004BF8045CCBF8005040F0BB85A8F1020064
:103BA000032F13D3042400BF04384BF8044CCBF884
:103BB00000404BF8044CCBF800404BF8044CCBF8D9
:103BC00000404BF8044CCBF80040EDD1DBF81C0072
:103BD000C0F340004BF8046CCBF80060DBF81C40ED
:103BE0004BF8046CCBF80060DBF81C5004F00204C6
:103BF000204405F0020440EA44004BF8046C042819
:103C000018BF022840F043849AF81910B9F1000F48
:103C100018BF002940F06084B8F1000F40F0E5843F
:103C200000F030BEDAF80420521EFDD14BF8040C2F
:103C3000DAF80400401EFDD14FEA9C055FEACC7023
:103C40004FF002000CBFCBF800004BF8040C04202E
:103C5000CBF80000DAF80420521EFDD14BF8040C1A
:103C6000DAF80400401EFDD102221CF002040CBF51
:103C7000CBF800204BF8042C0422CBF80020DAF813
:103C800004305B1EFDD14BF8042CDAF80420521EE0
:103C9000FDD14FEA5C005FEA4C724FF0020254BF64
:103CA000CBF800204BF8042C0422CBF80020DAF8E3
:103CB00004305B1EFDD14BF8042CDAF80420521EB0
:103CC000FDD160445FEA0C724FF0020254BFCBF8A2
:103CD00000204BF8042C0422CBF80020DAF8043042
:103CE0005B1EFDD14BF8042C28444FEADC05DAF8C2
:103CF0000420521EFDD12844C0074FF002000CBF23
:103D0000CBF800004BF8040C0420CBF80000DAF8E4
:103D10000420521EFDD14BF8040CDAF804200223D3
:103D2000521EFDD1CBF80030CBF80000DAF80420A9
:103D3000521EFDD14BF8040CDAF80420521EFDD1BE
:103D40004BF8043CCBF80000DAF80420521EFDD1F9
:103D50004BF8040CDAF80420521EFDD1DEF80020E6
:103D600063F30922CEF800209AF81850CBF800002F
:103D7000DAF80420521EFDD17DB100BF4BF8040CCF
:103D8000DAF80420521EFDD1CBF80000DAF8042046
:103D9000013D521EFDD1002DF0D1DBF81C20C2F3F5
:103DA00040024BF8040CDAF804305B1EFDD1CBF86E
:103DB0000000DAF804305B1EFDD1DBF81C304BF854
:103DC000040CDAF804506D1EFDD1CBF8000003F0AE
:103DD0000203DAF804501A446D1EFDD1DBF81C30E2
:103DE0004BF8040C03F00200DAF8045042EA4000F9
:103DF0006D1EFDD1042818BF022840F01084002C4D
:103E000000F092819AF81910002900F08D810421A8
:103E1000CBF80010DAF80420521EFDD14BF8041C38
:103E2000DAF80420521EFDD1CBF80010DAF8042095
:103E3000521EFDD14BF8041CDAF80420521EFDD1AD
:103E4000CBF80010DAF80420521EFDD14BF8041C08
:103E5000DAF80420521EFDD1CBF80010DAF8042065
:103E6000521EFDD14BF8041CDAF80420521EFDD17D
:103E7000CBF80010DAF80420521EFDD14BF8041CD8
:103E8000DAF80420521EFDD1CBF80010DAF8042035
:103E9000521EFDD14BF8041CDAF80420521EFDD14D
:103EA000CBF80010DAF80420521EFDD14BF8041CA8
:103EB000DAF80420521EFDD1CBF80010DAF8042005
:103EC000521EFDD14BF8041CDAF80420521EFDD11D
:103ED000CBF80010DAF80420521EFDD14BF8041C78
:103EE000DAF80420521EFDD1CBF80010DAF80420D5
:103EF000521EFDD14BF8041CDAF80420521EFDD1ED
:103F0000CBF80010DAF80420521EFDD14BF8041C47
:103F1000DAF80420521EFDD1CBF80010DAF80420A4
:103F2000521EFDD14BF8041CDAF80420521EFDD1BC
:103F3000CBF80010DAF80420521EFDD14BF8041C17
:103F4000DAF80420521EFDD1CBF80010DAF8042074
:103F5000521EFDD14BF8041CDAF80420521EFDD18C
:103F6000CBF80010DAF80420521EFDD14BF8041CE7
:103F7000DAF80420521EFDD1CBF80010DAF8042044
:103F8000521EFDD14BF8041CDAF80420521EFDD15C
:103F9000CBF80010DAF80420521EFDD14BF8041CB7
:103FA000DAF80420521EFDD1CBF80010DAF8042014
:103FB000521EFDD14BF8041CDAF80420521EFDD12C
:103FC000CBF80010DAF80420521EFDD14BF8041C87
:103FD000DAF80420521EFDD1CBF80010DAF80420E4
:103FE000521EFDD14BF8041CDAF80420521EFDD1FC
:103FF000CBF80010DAF80420521EFDD14BF8041C57
:10400000DAF80420521EFDD1CBF80010DAF80420B3
:10401000521EFDD14BF8041CDAF80420521EFDD1CB
:10402000CBF80010DAF80420521EFDD14BF8041C26
:10403000DAF80420521EFDD1CBF80010DAF8042083
:10404000521EFDD14BF8041CDAF80420521EFDD19B
:10405000CBF80010DAF80420521EFDD14BF8041CF6
:10406000DAF80420521EFDD1CBF80010DAF8042053
:10407000521EFDD14BF8041CDAF80420521EFDD16B
:10408000CBF80010DAF80420521EFDD14BF8041CC6
:10409000DAF80420521EFDD1CBF80010DAF8042023
:1040A000521EFDD14BF8041CDAF80420521EFDD13B
:1040B000CBF80010DAF80420521EFDD14BF8041C96
:1040C000DAF80420521EFDD1CBF80010DAF80420F3
:1040D000521EFDD14BF8041CDAF80420521EFDD10B
:1040E000CBF80010DAF80420521EFDD14BF8041C66
:1040F000DAF80420521EFDD1CBF80010DAF80420C3
:10410000521EFDD14BF8041CDAF80420521EFDD1DA
:10411000CBF80010DAF80420521EFDD14BF8041C35
:10412000DAF80410491EFDD19AF8181071B104276D
:10413000CBF80070DAF80420521EFDD14BF8047C55
:10414000DAF80420521EFDD10139F1D1DEF8001059
:10415000012262F30921002CCEF8001040F0DC852A
:104160009AF81910002900F0D7850221CBF8001029
:104170000421CBF80010DAF80420521EFDD14BF8D0
:10418000041CDAF80420521EFDD1CBF80010DAF836
:104190000420521EFDD14BF8041CDAF80420521EF4
:1041A000FDD1CBF80010DAF80420521EFDD14BF8F7
:1041B000041CDAF80420521EFDD1CBF80010DAF806
:1041C0000420521EFDD14BF8041CDAF80420521EC4
:1041D000FDD1CBF80010DAF80420521EFDD14BF8C7
:1041E000041CDAF80420521EFDD1CBF80010DAF8D6
:1041F0000420521EFDD14BF8041CDAF80420521E94
:10420000FDD1CBF80010DAF80420521EFDD14BF896
:10421000041CDAF80420521EFDD1CBF80010DAF8A5
:104220000420521EFDD14BF8041CDAF80420521E63
:10423000FDD1CBF80010DAF80420521EFDD14BF866
:10424000041CDAF80420521EFDD1CBF80010DAF875
:104250000420521EFDD14BF8041CDAF80420521E33
:10426000FDD1CBF80010DAF80420521EFDD14BF836
:10427000041CDAF80420521EFDD1CBF80010DAF845
:104280000420521EFDD14BF8041CDAF80420521E03
:10429000FDD1CBF80010DAF80420521EFDD14BF806
:1042A000041CDAF80420521EFDD1CBF80010DAF815
:1042B0000420521EFDD14BF8041CDAF80420521ED3
:1042C000FDD1CBF80010DAF80420521EFDD14BF8D6
:1042D000041CDAF80420521EFDD1CBF80010DAF8E5
:1042E0000420521EFDD14BF8041CDAF80420521EA3
:1042F000FDD1CBF80010DAF80420521EFDD14BF8A6
:10430000041CDAF80420521EFDD1CBF80010DAF8B4
:104310000420521EFDD14BF8041CDAF80420521E72
:10432000FDD1CBF80010DAF80420521EFDD14BF875
:10433000041CDAF80420521EFDD1CBF80010DAF884
:104340000420521EFDD14BF8041CDAF80420521E42
:10435000FDD1CBF80010DAF80420521EFDD14BF845
:10436000041CDAF80420521EFDD1CBF80010DAF854
:104370000420521EFDD14BF8041CDAF80420521E12
:10438000FDD1CBF80010DAF80420521EFDD14BF815
:10439000041CDAF80420521EFDD1CBF80010DAF824
:1043A0000420521EFDD14BF8041CDAF80420521EE2
:1043B000FDD1CBF80010DAF80420521EFDD14BF8E5
:1043C000041CDAF80420521EFDD1CBF80010DAF8F4
:1043D0000420521EFDD14BF8041CDAF80420521EB2
:1043E000FDD1CBF80010DAF80420521EFDD14BF8B5
:1043F000041CDAF80420521EFDD1CBF80010DAF8C4
:104400000420521EFDD14BF8041CDAF80420521E81
:10441000FDD1CBF80010DAF80420521EFDD14BF884
:10442000041CDAF80420521EFDD1CBF80010DAF893
:104430000420521EFDD14BF8041CDAF80420521E51
:10444000FDD1CBF80010DAF80420521EFDD14BF854
:10445000041CDAF80420521EFDD1CBF80010DAF863
:104460000420521EFDD14BF8041CDAF80420521E21
:10447000FDD1CBF80010DAF80420521EFDD14BF824
:10448000041CDAF80410491EFDD100F045BC0128D7
:1044900040F01A81B9F1000F40F04781B8F1000FE8
:1044A00000F04A83A8F1010518F00304404600F02B
:1044B0002E830426012C2846CBF800604BF8046CB0
:1044C00000F02583022CCBF800604BF8046C40F020
:1044D0001783A8F102001AE30422CBF800204BF85E
:1044E000042CCBF800204BF8042CCBF800204BF820
:1044F000042CCBF800204BF8042CCBF800204BF810
:10450000042CCBF800204BF8042CCBF800204BF8FF
:10451000042CCBF800204BF8042CCBF800204BF8EF
:10452000042CCBF800204BF8042CCBF800204BF8DF
:10453000042CCBF800204BF8042CCBF800204BF8CF
:10454000042CCBF800204BF8042CCBF800204BF8BF
:10455000042CCBF800204BF8042CCBF800204BF8AF
:10456000042CCBF800204BF8042CCBF800204BF89F
:10457000042CCBF800204BF8042CCBF800204BF88F
:10458000042CCBF800204BF8042CCBF800204BF87F
:10459000042CCBF800204BF8042CCBF800204BF86F
:1045A000042CCBF800204BF8042CCBF800204BF85F
:1045B000042CCBF800204BF8042CCBF800204BF84F
:1045C000042CCBF800204BF8042CCBF800204BF83F
:1045D000042CCBF800204BF8042CCBF800204BF82F
:1045E000042CB8F1000F00F04D81A8F1010718F07C
:1045F0000306424600F031810425012E3A46CBF8ED
:1046000000504BF8045C00F02881022ECBF80050DB
:104610004BF8045C40F01A81A8F102021DE1012868
:1046200040F06380002C40F0D2819AF8180078B1F5
:10463000042400BFCBF80040DAF80420521EFDD15C
:104640004BF8044CDAF80420521EFDD10138F1D1A8
:10465000DEF80000012262F30920CEF800000968AC
:1046600000206FF01F060225042400BFCA070CBFFC
:10467000CBF800504BF8045CCBF80040DAF804208B
:10468000521EFDD14BF8044CDAF80420521EFDD125
:10469000084401364FEA5101E8D3C0074FF0020049
:1046A0000CBFCBF800004BF8040C0420CBF8000042
:1046B000DAF80410491EFDD14BF8040CDAF80400B6
:1046C000401EFDD10120D2E108F1210111F00302C9
:1046D00000F0F6810421012ACBF800104BF8041CED
:1046E00040F06B8108F12001EAE19AF818100427E4
:1046F000213100BFCBF80070DAF80420521EFDD142
:104700004BF8047CDAF80420521EFDD10139F1D1B6
:10471000EAE104224BF8042CA8F10300CBF80020B6
:10472000032FBFF43FAAFFF751BA0420CBF80000D3
:10473000DBF81C40002664086FF01F0500274BF8CB
:10474000040C00BFCBF80000DBF81C2004F00104CF
:104750003F0A4BF8040CC2F34002CBF80000264499
:1047600047EA0464DBF81C704BF8040CC7F34007FD
:104770001644CBF8000044EA4262F419DBF81C60EE
:104780004BF8040CC6F34006CBF8000042EA8762FF
:10479000DBF81C704BF8040CC7F34007CBF80000A3
:1047A000344442EAC662DBF81C604BF8040CC6F3E2
:1047B0004006CBF800003C4442EA0772DBF81C706C
:1047C0004BF8040CC7F34007CBF80000344442EA2E
:1047D0004672DBF81C604BF8040CC6F340033C4403
:1047E00042EA8772CBF80000E618DBF81C4042EA88
:1047F000C377640808354BF8040CA3D184EA06009B
:10480000C0074FF0080008BF0120002918BF0F6043
:10481000B8F1000F00F03682A8F1010518F003048A
:10482000414600F01A820426012C2946CBF800608C
:104830004BF8046C00F01182022CCBF800604BF8AE
:10484000046C40F00382A8F1020106E20422CBF8D6
:1048500000204BF8042CA8F10302032F12D30427E5
:10486000043ACBF800704BF8047CCBF800704BF89E
:10487000047CCBF800704BF8047CCBF800704BF84C
:10488000047CEDD1DEF80020012363F30922B9F1A5
:10489000000FCEF8002040F03F82002900F03C825B
:1048A0000221CBF800100421CBF800104BF8041CB7
:1048B000CBF800104BF8041CCBF800104BF8041C8C
:1048C000CBF800104BF8041CCBF800104BF8041C7C
:1048D000CBF800104BF8041CCBF800104BF8041C6C
:1048E000CBF800104BF8041CCBF800104BF8041C5C
:1048F000CBF800104BF8041CCBF800104BF8041C4C
:10490000CBF800104BF8041CCBF800104BF8041C3B
:10491000CBF800104BF8041CCBF800104BF8041C2B
:10492000CBF800104BF8041CCBF800104BF8041C1B
:10493000CBF800104BF8041CCBF800104BF8041C0B
:10494000CBF800104BF8041CCBF800104BF8041CFB
:10495000CBF800104BF8041CCBF800104BF8041CEB
:10496000CBF800104BF8041CCBF800104BF8041CDB
:10497000CBF800104BF8041CCBF800104BF8041CCB
:10498000CBF800104BF8041CCBF800104BF8041CBB
:10499000CBF800104BF8041CCBF800104BF8041CAB
:1049A000CBF800104BF8041CCBF800104BF8041C9B
:1049B00002214BF8041CBDE8F08F022ACBF800104E
:1049C0004BF8041C40F0758008F11F0178E00420CA
:1049D000CBF80000DAF80420521EFDD10025DBF8E8
:1049E0001C204BF8040C5708DAF804206FF01F065F
:1049F000521EFDD1002400BFCBF80000DAF80430CD
:104A00005B1EFDD107F00102DBF81C304BF8040CF3
:104A1000DAF8047064087F1EFDD144EAC2741544BC
:104A200001364FEA5307E7D387EA0500C0074FF086
:104A3000080008BF0120002918BF0C609AF8181060
:104A400071B10424CBF80040DAF80420521EFDD1E5
:104A50004BF8044CDAF80420521EFDD10139F1D193
:104A6000DEF80010012262F30921CEF800105FEA9F
:104A70000C6106D541F20401CEF200010968CAF8C2
:104A800008109AF80C10002900F046810222042731
:104A9000CBF80020CBF80070DAF80420521EFDD1CC
:104AA0004BF8047CDAF80420521EFDD10139F1D113
:104AB00032E10421CBF800104BF8041C08F11E0170
:104AC000042200BF0439CBF800204BF8042CCBF8AB
:104AD00000204BF8042CCBF800204BF8042CCBF82A
:104AE00000204BF8042CEDD1DEF80010012262F317
:104AF0000921CEF8001002214BF8041CBDE8F08F0C
:104B00000420CBF800004BF8040CA8F10300032D9F
:104B100012D304240438CBF800404BF8044CCBF8F3
:104B200000404BF8044CCBF800404BF8044CCBF859
:104B300000404BF8044CEDD1DEF80000012262F396
:104B40000920CEF80000086800266FF01F0102253A
:104B5000042400BFC2070CBFCBF800504BF8045C24
:104B6000871982074FEA5006CBF800404BF8044CF7
:104B700054BFCBF800504BF8045C374442074FEA6F
:104B80009006CBF800404BF8044C54BFCBF80050D3
:104B90004BF8045C374402074FEAD006CBF80040DC
:104BA0004BF8044C54BFCBF800504BF8045C37442E
:104BB000C2064FEA1016CBF800404BF8044C54BF25
:104BC000CBF800504BF8045C374482064FEA50168D
:104BD000CBF800404BF8044C54BFCBF800504BF8D6
:104BE000045C374442064FEA9016CBF800404BF87D
:104BF000044C54BFCBF800504BF8045C3744020619
:104C00004FEAD016CBF800404BF8044C54BFCBF819
:104C100000504BF8045C3E4408314FEA1020CBF8BA
:104C200000404BF8044C95D1F0074FF002000CBF48
:104C3000CBF800004BF8040C0420CBF800004BF834
:104C4000040C01205FEA0C6126D42CE00421CBF88F
:104C500000104BF8041CA8F10301032D12D3042407
:104C60000439CBF800404BF8044CCBF800404BF82B
:104C7000044CCBF800404BF8044CCBF800404BF808
:104C8000044CEDD1DEF80010012262F30921CEF8C8
:104C900000105FEA0C6106D541F20401CEF200017A
:104CA0000968CAF808109AF80C70AFB30221CBF863
:104CB000001017F00306A7F101010FD00425012E03
:104CC0000A46CBF800504BF8045C0FD0022ECBF80C
:104CD00000504BF8045C03D1BA1E07E03A4605E0E9
:104CE0000422CBF800204BF8042CFA1E032913D31E
:104CF000042100BF043ACBF800104BF8041CCBF899
:104D000000104BF8041CCBF800104BF8041CCBF837
:104D100000104BF8041CEDD102214BF8041CBDE837
:104D2000F08F000070B5002808BF70BD4BF2100373
:104D300046F2A00400224FF0020CC6F204034FF02A
:104D4000040EC2F200040025002A04BF11F8015B22
:104D50000822EE070CBFC3F804C0C3F800C0C3F8B4
:104D600004E06668761EFDD1C3F800E0666801388D
:104D7000761EFDD16D080028A2F10102E4D170BDBC
:104D800080B582B00DF106014FF0C04000F0F8FB95
:104D9000BDF806104FF0C04000F0F7FBBDF806006C
:104DA00001050BD401060BD401070BD441075ABFF0
:104DB0004FF4007101EA0020802004E0082002E0A6
:104DC000202000E0402046F23C11C2F200010968B8
:104DD000002918BF884702B080BD000010B5DDF87B
:104DE00008C0B2F1C04F0BD040F6000EC6F2000E64
:104DF000724505D040F2004EC6F2000E72451BD13E
:104E00004BF2800440F0800EC6F20404A64513D194
:104E100046F25C0EC2F2000EBCF1000FCEF804C0E8
:104E20001CBF0024CEF80040CEE90220CEE90413D6
:104E3000BDE8104000F040B8102010BD10B546F29B
:104E40005C04C2F200046068B8B1218862889142B3
:104E500008BF10BD89B20268A068515C00F09AFBDF
:104E60002088411C60688AB283889A4228BF00214A
:104E70008AB2638821809A42ECD110BD70B50D468C
:104E8000014645F6E530C1F20000144600F02CFC66
:104E90004CB16E1E06A500BF16F8011F284600F093
:104EA00023FC013CF8D10A20BDE8704000F05EBE52
:104EB0002025303258000000B0B582B046F25C05C3
:104EC000C2F20005A868B0F1C04F0AD040F200411C
:104ED000C6F20001884219BF0C242D2008242C2082
:104EE00001E004242B2000F05AFBD5E903012246FF
:104EF00000F05AFB08B102B0B0BDD5E903010222AF
:104F000000F034FB0028F6D16969A868009143F2EB
:104F10002101C0F201110191694600F04AFB02B083
:104F2000B0BD000010B582B046F25C01C2F20001D3
:104F30004A68044662B110684B88C454581C83B256
:104F40009288934228BF00204880204602B010BDBE
:104F500088680DF1070101228DF8074000F02EFB53
:104F6000204602B010BD000082B04BF20004C6F231
:104F7000040404F5405000F026FB642000F028FBF8
:104F8000022000F02AFB0020002500F02BFB00206F
:104F900000F02DFB002000F02FFB0DF107010F208A
:104FA00001228DF8075000F02CFB9DF80700002827
:104FB00004BF562000F02AFB0DF10701102001224A
:104FC00000F01FFB9DF80700002808BFA92000F093
:104FD00022FB002000F024FB03200321642200F0C8
:104FE00024FB022040F6C41100F024FB0120002124
:104FF000002200F024FB40F200422046C6F20002EC
:105000004FF000414FF461230095FFF7E7FE05A044
:1050100011A114A200F068FB00F030F8FEF772FA5C
:10502000FEE700BF5B257320542025735D55534276
:105030002044657669636520636D736973206578C4
:10504000616D706C6520737461727420746F207769
:105050006F726B2E0A0000004A756E2032362032C5
:105060003032340031383A35353A33300000000000
:10507000012898BF00F05AB87047000070B50020B2
:105080004FF4FA6100F0E0FA012000F0E2FA4EF28B
:1050900000144EF21E45CEF200044FF08040CEF2D6
:1050A00000056026C4F880012E70206001201E21BA
:1050B00000F0D4FA4FF48030C4F88401AE7460601C
:1050C00000F0D1FA0120302100F0C8FA46F22400A5
:1050D00045F27101C2F20000C1F20001416045F2E7
:1050E000FD41C1F20001C1604161C1614162C16223
:1050F000416300F0BDFA00F0D5F900F0B9F900F015
:10510000BCFA0F2000F064FABDE8704000F0BABAB3
:1051100080B582B00B4601464FF0050C03204022BB
:10512000CDF800C000F0B3FA02B080BD70B588B011
:1051300000F0B2FA400744BF002000F0B2FA68461F
:1051400002AA082100F0B2FA08B108B070BD9DF8BB
:105150000000C0F34110411E0229F6D3032815D0E8
:105160009DF801000C2800F29280DFE800F00807AB
:10517000901490171F07424448070700E5E70020F6
:10518000ADF80D000DF10D00022193E0002000F0BC
:1051900092FA08B070BD9DF8040079E09DF8020015
:1051A00000F07F0000F07DFA08B070BD9DF803C0EC
:1051B000ACF10103212B00F2668000210020DFE822
:1051C00003F011262D74745B626262626262626235
:1051D00062626262626262626262626262626262AF
:1051E0006262626B46F27401C2F2000188698988CA
:1051F0005BE0012004E000F03BF908B070BD002046
:105200008DF80D000DF10D000121032253E046F24F
:105210007401C2F20001C869098946E09DF80200E4
:1052200005284CD8DFE800F04E55036ACF0346F25C
:10523000BC0040F21E31C2F20000C0F24801016021
:105240005421C0F2330141603221C0F22D0181604E
:105250004321C0F24D01C1605321C0F249010161F7
:105260005321C0F22D0141614421C0F2410181610D
:10527000502181831E2118E046F27401C2F2000120
:10528000486A098A11E075A0614600F02DFA0020F5
:1052900000F011FA08B070BD46F27400C2F20000CE
:1052A00001784069002918BF2021BDF806209142ED
:1052B00088BF11460A2200F003FA08B070BD002131
:1052C0000020F2E746F27401C2F20001086A8989FF
:1052D000EBE746F2BC0040F20E31C2F20000C0F231
:1052E000480101606F21C0F26C0141607421C0F27D
:1052F000650181606B2181810E21D6E70DF11A01D4
:105300000920062200F07DF99DF81F1046F2951243
:105310000809C1F2000201F00F019DF81A30515C3A
:105320004FEA131C8DF80E1003F00F019DF81B407F
:10533000515C12F80C308DF80F108DF810302109E7
:1053400004F00F039DF81C50515CD35C8DF81110D4
:105350008DF81230290905F00F039DF81D60105CCF
:10536000515CD35C9DF81EE08DF80D008DF8131094
:105370008DF81430C6F3011106F00F03515CD35CB5
:105380008DF815108DF81630CEF301110EF00F06C2
:10539000515C0DF10D0C925D0CF102038DF81710AC
:1053A00000218DF818208DF8191013F8012C4AB33C
:1053B0001A7852B35A785AB39A780431002A03F112
:1053C0000403F2D126E046F2BC0040F21831C2F2EA
:1053D0000000C0F2480101605421C0F23301416075
:1053E0003221C0F24C0181606921C0F26E01C160BE
:1053F0006B21C0F22D0101614F21C0F242014161D8
:10540000182152E741F0010104E041F0020101E0FE
:1054100041F00301C9B2022246F2BC0E02EB410187
:10542000C2F2000E03238EF80130ACF101034FF0FD
:10543000000C8EF80010D4B20EF80400987844F0F6
:1054400001050232002803F101030EF805C0F2D174
:1054500046F2BC00C2F2000027E700BF554E4B4E9B
:105460004F575F44545F5245513A25640D0A00007E
:1054700080B58420832100F028F90320032100F067
:1054800024F9842000210022052300F023F90320C1
:10549000BDE8804000F023B90A4601468420052378
:1054A00000F018B910B545F6A63EC1F2000E45F65B
:1054B000CF3C46F274039EF80200C1F2000CC2F227
:1054C00000039CF80010188145F6E130C1F200009D
:1054D00045F69C3299800178C1F2000214789981D6
:1054E00046F204011C82C2F2000103F1140484E8B4
:1054F0000250C3E908020120187010BDB0B5A2B077
:10550000054600200C46219001A84021FCF733FFFE
:10551000002D08BF032C01D022B0B0BD0A2000F03E
:1055200025FB11AC21A92046FFF7F2FDBDF8842030
:1055300007A02146FFF7A2FC01AD20462946FCF753
:1055400075FF28464021FFF7A7FF22B0B0BD00BF7E
:10555000486964205263760049F2F97CC0F2000C7D
:10556000604749F2716CC0F2000C604749F69D0C2F
:10557000C0F2000C604749F2F16CC0F2000C6047C9
:105580004DF6A55CC0F2000C60474DF6ED2CC0F264
:10559000000C60474DF67D7CC0F2000C604747F67A
:1055A0007D1CC0F2000C604749F6210CC0F2000CD3
:1055B00060474DF6656CC0F2000C60474EF2CD1CA2
:1055C000C0F2000C60474FF6310CC0F2000C60478F
:1055D00044F2717CC0F2000C60474AF67D5CC0F278
:1055E000000C60474AF6A95CC0F2000C60474AF61E
:1055F000FD5CC0F2000C604745F6214CC0F2000C87
:10560000604748F20D7CC0F2000C60474AF6596CC6
:10561000C0F2000C60474AF6696CC0F2000C6047AB
:105620004AF6B13CC0F2000C604745F6651CC0F27A
:10563000000C604745F6295CC0F2000C60474CF254
:10564000113CC0F2000C604745F6A13CC0F2000CD2
:10565000604746F27D2CC0F2000C60474CF2C51C3E
:10566000C0F2000C60474CF2152CC0F2000C6047F1
:1056700046F2AD2CC0F2000C604746F2C52CC0F2D9
:10568000000C604746F2B92CC0F2000C60474EF2A5
:10569000595CC0F2000C60474EF2A13CC0F2000C15
:1056A00060474EF27D2CC0F2000C60474EF2A96CB0
:1056B000C0F2000C60474EF2ED6CC0F2000C604787
:1056C0004EF22D4CC0F2000C60474EF2914CC0F2ED
:1056D000000C60474EF2F55CC0F2000C60474EF2E1
:1056E000E17CC0F2000C60470FB4054B10B503A974
:1056F000044A029800F008F810BC5DF814FB0000A2
:10570000254F0010006000202DE9FF4F8DB00F469F
:105710000546002606E025280BD0DDE90F1290474C
:105720006D1C761C28780028F5D111B03046BDE8F4
:10573000F08F0024A246A1460122EC4900E0044378
:1057400015F8013F203B02FA03F00842F7D1287810
:105750002A2810D06FF02F022878A0F130010929F3
:1057600014D80AEB8A0102EB410144F0020400EB79
:10577000010A6D1CF0E701CF5FEA000A03D544F48B
:105780000054CAF1000A44F002046D1C28782E2847
:1057900017D115F8010F44F004042A280ED06FF039
:1057A0002F022878A0F1300109290AD809EB8901D4
:1057B00002EB410100EB01096D1CF2E757F8049B75
:1057C0006D1C28786C280FD006DC4C2817D0682870
:1057D0000DD06A2814D104E0742810D07A280FD193
:1057E0000DE044F400140AE044F4801401E044F4B1
:1057F00040146978814202D104F580146D1C6D1C3F
:105800002A786E2A1FD00CDC632A31D004DC002AEF
:105810008BD0582A11D1A3E0642A68D0692A0CD110
:1058200065E0732A2ED004DC6F2A73D0702A04D16D
:105830009BE0752A6FD0782A6ED01046DDE90F12F2
:105840009047761C50E1C4F30250022806D003288A
:1058500009D0042801CF09D0066045E101CFF11736
:10586000C0E9006140E101CF06803DE106703BE107
:1058700017F8040B8DF8000000208DF80100EB46AE
:10588000012003E057F804BB4FF0FF3061074FF0F1
:10589000000102D40DE008F10101884649450FDA04
:1058A0008045F8DB1BF808100029F4D108E008F166
:1058B000010188468142FADB1BF808100029F6D165
:1058C000DDE90F23AAEB08008146214600F036F9F6
:1058D000304400EB080604E0DDE90F121BF8010B71
:1058E0009047B8F10108F7D221464846F7E00A216F
:1058F000C4F302534FF0000B0891022B04D001CFE8
:10590000C117032B09D00AE0FF1D27F00707F7E8AE
:10591000020108E032E01FE020E000B2C117042BD2
:1059200001D140B2C117031E71F1000307DA4FF035
:10593000000CD0EB0C006CEB01012D2302E02305E1
:1059400004D52B238DF82430012303E0E30701D095
:105950002023F7E7984658E00A2110E010210EE0D6
:1059600010204FF0000B08900CE010214FF0000BBE
:1059700044F004044FF00809089103E008214FF0B7
:10598000000B0891C4F30253022B04D001CF002175
:10599000032B06D006E0FF1D27F00707F7E80201FA
:1059A00003E080B2042B00D1C0B24FF000082307FF
:1059B0002BD5702A07D0DDF820C08CF0100C5CEAE3
:1059C0000B0C05D00EE040238DF82430012308E0B5
:1059D00050EA010306D030238DF824308DF82520BD
:1059E00002239846DDF820C08CF0080C5CEA0B0C12
:1059F0000BD150EA010301D1630706D530238DF89E
:105A000024304FF00108A9F10109582A04D038A226
:105A10000B9208AA0A920BE03AA2F9E75B46089AB1
:105A2000FCF7B4FC0B9B9B5C0A9A521E0A92137003
:105A300050EA0102F2D10A98ADEB000000F1200B10
:105A4000600702D524F4803401E04FF00109D94504
:105A500002DDA9EB0B0000E0002000EB0B0141444C
:105A60000890AAEB010AE00306D4DDE90F232146E2
:105A7000504600F063F806444FF0000908E009A919
:105A800011F80900DDE90F12904709F10109761CB0
:105A9000C145F4DBE0030CD5DDE90F232146504678
:105AA00000F04CF8064404E0DDE90F123020904786
:105AB000761C0899481E08900029F5DC08E00A9831
:105AC0000A990078491C0A91DDE90F129047761C6B
:105AD000BBF10001ABF1010BF1DC21465046DDE9E1
:105AE0000F2300F019F806446D1C1BE6092801007D
:105AF0003031323334353637383961626364656644
:105B00000000000030313233343536373839414205
:105B100043444546000000002DE9F04104460025BD
:105B20001E461746880404D405E039462020B047B5
:105B30006D1C641EF9D52846BDE8F0812DE9F041C1
:105B4000044600251E469046C80301D5302700E0D4
:105B50002027880404D505E041463846B0476D1C2F
:105B6000641EF9D52846BDE8F08100000149FFF721
:105B7000D9B900000060002010B5044601E0FFF72D
:105B8000D1F914F8010B04490028F8D1BDE8104000
:105B90000A20FFF7C7B90000006000200A061001C4
:105BA00000000040010009022900010104803209BF
:105BB0000400000203000005092100010001222069
:105BC000000705030340000107058403400001129C
:105BD00001100100000040D9047586000101020394
:105BE00001040309045B25735D5B25645D3A005B7A
:105BF0005052454349534552525D206461746120BF
:105C0000627573206572726F7220686173206F63B2
:105C10006375727265642C205043203A20307825D9
:105C20003038780D0A005B4441434356494F4C5D80
:105C3000205468652070726F636573736F722061A2
:105C40007474656D707465642061206C6F6164208C
:105C50006F722073746F72652061742061206C6FA5
:105C6000636174696F6E207468617420646F65731A
:105C7000206E6F74207065726D6974207468652081
:105C80006F7065726174696F6E2C205043203A20EA
:105C90003078253038780D0A005B49414343564936
:105CA0004F4C5D5468652070726F636573736F72DB
:105CB00020617474656D7074656420616E20696E16
:105CC000737472756374696F6E206665746368209F
:105CD00066726F6D2061206C6F636174696F6E20F6
:105CE0007468617420646F6573206E6F74207065D2
:105CF000726D697420657865637574696F6E2C20A8
:105D00005043203A203078253038780D0A0041542D
:105D1000203A3078253038780D0A005B486172648B
:105D20004661756C745F48616E646C65725D437545
:105D30007272656E74206D73703A20307825303839
:105D4000580A005B494E5650435D616E20696E747F
:105D500065677269747920636865636B2065727228
:105D60006F7220686173206F636375727265640D72
:105D7000005B554E444546494E5354525D616E207A
:105D8000756E646566696E656420696E737472759C
:105D90006374696F6E206572726F72206861732020
:105DA0006F636375727265640D005B4449564259B6
:105DB0005A45524F5D616E20696E74656765722049
:105DC0006469766973696F6E206279207A65726F93
:105DD000206572726F7220686173206F63637572E1
:105DE0007265640D005B494D50524543495345521D
:105DF000525D496D70726563697365206461746199
:105E000020616363657373206572726F72206861CD
:105E100073206F636375727265640D005B554E414C
:105E20004C49474E45445D616E20756E616C6967F3
:105E30006E656420616363657373206572726F724F
:105E400020686173206F636375727265640D005B17
:105E5000494255534552525D696E7374727563744D
:105E6000696F6E20627573206572726F722068614F
:105E700073206F636375727265640D005B4E4F43F0
:105E8000505D6120636F70726F636573736F722012
:105E900064697361626C6564206F72206E6F742038
:105EA00070726573656E74206572726F72206861BE
:105EB00073206F636375727265640D005B53544B9E
:105EC0004F465D6120737461636B206F7665726607
:105ED0006C6F77206572726F7220686173206F63D8
:105EE0006375727265640D005B494E56535441549C
:105EF000455D20616E20455053522E54206F722014
:105F0000455053522E49542076616C696469747906
:105F1000206572726F7220686173206F636375729F
:105F20007265640D005B4D4C53504552525D4120EB
:105F30004D656D4D616E616765206661756C74209D
:105F40006F6363757272656420647572696E672031
:105F5000666C6F6174696E672D706F696E74206C0A
:105F6000617A7920737461746520707265736572EB
:105F7000766174696F6E0D005B4C53504552525DF3
:105F80004120627573206661756C74206F63637560
:105F90007272656420647572696E6720666C6F61E9
:105FA00074696E672D706F696E74206C617A7920E8
:105FB000737461746520707265736572766174695B
:105FC0006F6E0D005B4D554E53544B4552525D550F
:105FD0006E737461636B20666F7220616E206578EA
:105FE00063657074696F6E2072657475726E206877
:105FF000617320636175736564206F6E65206F72D5
:10600000206D6F7265206163636573732076696FBD
:106010006C6174696F6E730D005B4D53544B455248
:10602000525D537461636B696E6720666F722061A5
:106030006E20657863657074696F6E20656E74722A
:10604000792068617320636175736564206F6E6584
:10605000206F72206D6F72652061636365737320BA
:1060600076696F6C6174696F6E730D005B554E538A
:10607000544B4552525D556E737461636B20666F6D
:106080007220616E20657863657074696F6E20722E
:10609000657475726E2068617320636175736564E1
:1060A000206F6E65206F72206D6F72652042757370
:1060B0004661756C74730D005B53544B4552525DD1
:1060C000537461636B696E6720666F7220616E2026
:1060D000657863657074696F6E20656E747279207F
:1060E00068617320636175736564206F6E65206FEE
:1060F00072206D6F7265204275734661756C7473A2
:106100000D004D656D4D616E616765204661756C72
:10611000740D005573616765204661756C740D00E0
:10612000436F6E666967757261626C652046617562
:106130006C740D00566563746F72204661756C74E3
:106140000D00427573204661756C740D00446562E4
:106150007567204576656E74204661756C740D0018
:106160004F63637572656420696E207461736B2E72
:10617000005573696E67207533324D73702E004F72
:1061800063637572656420696E20696E74657272EE
:106190007570742E0030313233343536373839412A
:1061A000424344454600000070B582B00DF107003F
:1061B00001A90DF1060200F04BF8BDF8040047F606
:1061C0007F710840ADF804001FD046F22406002479
:1061D0000FA5C2F2000600BF35F8141001420ED020
:1061E00004F0070106EBC102526842B116F8311003
:1061F0000020072C88BF01209047BDF804000E2C1A
:1062000003D8013430FA04F1E6D102B070BD00BF0A
:10621000010002000400080010002000400080007F
:10622000000100020004000800100020004000806F
:1062300010B582B0002001AC0190204600F00DF8AE
:10624000019800F00FF8204600F011F802B010BDE0
:106250004EF6510CC0F2000C60474CF2692CC0F2B3
:10626000000C60474CF2BD0CC0F2000C60474CF2D1
:10627000852CC0F2000C6047000000000600FF09FA
:1062800001A101150025FF750895400901810295BE
:10629000400901910295400901B102C000000000CF
:1062A00000000000010000000000000002000000EB
:1062B00000000000030000000000000004000000D7
:1062C00000000000050000000000000006000000C3
:0462D00000000000CA
:040000051000215571
:00000001FF
