:020000041000EA
:100000004B2A110200000000A4030000EEC3A6E981
:100010007EEEE78880B500F087F90020002100F02F
:100020000DF8292000F00FF8202000F011F800F062
:1000300033F900F013F800F025F980BD4CF2B93C1B
:10004000C0F2000C604747F67D1CC0F2000C604710
:1000500047F6D12CC0F2000C6047000080B54FF08D
:10006000A040012100F075F900060BD1032000F03B
:1000700075F9000606D1012000F075F9000604BFED
:10008000002080BD00F074F94FF47A7000F075F92B
:10009000012080BD2DE9F04381B019B343F2B83897
:1000A0000F4606464FF0FF344FF00009C2F2000839
:1000B0003D46B7F5807F28BF4FF480754FF0A040D4
:1000C000314642462B46CDF8009000F05BF960B90E
:1000D00040462946224600F05AF904467F1B2E442A
:1000E000E6D103E04FF0FF3400E00124204601B0E8
:1000F000BDE8F08310B582B004464FF0000C4FF01D
:10010000A0404FF4805122462023CDF800C000F0DB
:1001100039F9000622D120461C214FF0FF3200F0B1
:1001200036F9E169814219D1E078112816D1A07819
:10013000022813D1E168B1F5002F0FD8606846F2AC
:100140007872C4F26A72904208D1A068FFF7A2FFE9
:100150002169401A18BF012002B010BD012002B071
:1001600010BD00002DE9F0410C4605460E184FF079
:100170000008B4F5803F07D3A8B228B94FF4803700
:100180000321102021E000BFB4F5004F08D328461A
:100190006FF3DF3020B94FF4004702210F2014E045
:1001A00029466FF31F31200BB1FA81F1B8EB143FF0
:1001B00018BF0120490901404FF008004FF4807733
:1001C00018BF0C2018BF4FF4805725FA00F082B2F8
:1001D0004FF0A04047F2305300F0DEF800060BD19C
:1001E0003D44B542A4EB070424BF0020BDE8F081E4
:1001F000B4F5803FC0D2C7E700F0BAF84FF47A7088
:1002000000F0BBF80120BDE8F08100002DE9F047C7
:1002100082B04FF000098AB343F2B83814460E4654
:100220000746C2F2000840F6B83A00BF2546B4F5CA
:10023000807F28BF4FF480754FF0A040394642467A
:100240002B46CDF8009000F09DF890B94FF0A040FB
:10025000314642462B46CDF80090CDF804A000F080
:10026000A0F848B92F44641B2E44DFD14FF0000999
:1002700004E04FF0010901E04FF00109484602B0E7
:10028000BDE8F08780B542F20400C1F200000068CA
:1002900000F08CF880BD0000B0B588B06846FFF76C
:1002A00029FF08B101243CE0DDE90501FFF75AFF11
:1002B00038B100F05DF84FF47A7000F05EF8012478
:1002C0002FE0DDE902020599FFF7A0FF38B100F049
:1002D0004FF84FF47A7000F050F8012421E00399B0
:1002E0000598FFF7D7FE0499884213D14FF0A0403C
:1002F0000021102247F23053002400F04DF805464B
:1003000000F036F828060CD04FF47A7000F035F87B
:10031000012406E000F02CF84FF47A7000F02DF87C
:100320000124204608B0B0BDEC20C6F205000168EB
:100330007F2221F002010160016821F004010160C7
:100340006FF0030143180431342943F8D82CF9D154
:10035000704748F6F57CC0F2000C604747F2613CFC
:10036000C0F2000C604747F21D3CC0F2000C604731
:1003700047F6717CC0F2000C604744F2717CC0F219
:10038000000C604748F69D2CC0F2000C604744F218
:10039000C17CC0F2000C604748F6A10CC0F2000C12
:1003A000604749F2D90CC0F2000C604744F62D0CAE
:1003B000C0F2000C604700000000000000000000D8
:1003C000000000000000000000000000000000002D
:1003D000000000000000000000000000000000001D
:1003E000000000000000000000000000000000000D
:1003F00000000000000000000000000000000000FD
:020000041000EA
:102000000010012055210010692100107B210010D3
:102010008D2100108F210010912100100000000080
:10202000000000000000000000000000D1020000DD
:1020300095210010000000007503000081030000DE
:102040009B2100109D2100109F210010A121001054
:10205000A3210010A5210010A7210010A921001024
:10206000AB210010AD210010AF210010B1210010F4
:10207000B3210010B5210010B7210010B9210010C4
:10208000BB210010BD210010BF210010C121001094
:102090007D330020C5210010C7210010F526001057
:1020A000CB210010CD210010CF210010D121001034
:1020B000D3210010D5210010D7210010D921001004
:1020C000DB210010DD210010DF210010E1210010D4
:1020D000E3210010E5210010E7210010E9210010A4
:1020E000EB210010ED210010EF210010F121001074
:1020F000F3210010F5210010F7210010F921001044
:10210000FB210010ED320020FF2100100122001001
:1021100003220010052200100722001009220010DF
:102120000B2200100D2200100F22001000000000F2
:10213000000000000000000000000000000000009F
:10214000DFF80CD000F070F800480047452B001075
:10215000001001202E4880F308882E4880F30A885A
:102160002D4880472D4800475FEA0E00EFF30881B5
:10217000EFF309822A4B9847FEE75FEA0E00EFF380
:102180000881EFF30982274B9847FEE7FEE7FEE759
:10219000FEE7FEE7FEE7FEE7FEE7FEE7FEE7FEE717
:1021A000FEE7FEE7FEE7FEE7FEE7FEE7FEE7FEE707
:1021B000FEE7FEE7FEE7FEE7FEE7FEE7FEE7FEE7F7
:1021C000FEE7FEE7FEE7FEE7FEE7FEE7FEE7FEE7E7
:1021D000FEE7FEE7FEE7FEE7FEE7FEE7FEE7FEE7D7
:1021E000FEE7FEE7FEE7FEE7FEE7FEE7FEE7FEE7C7
:1021F000FEE7FEE7FEE7FEE7FEE7FEE7FEE7FEE7B7
:10220000FEE7FEE7FEE7FEE7FEE7FEE7FEE7FEE7A6
:1022100000100120000001204D220010412100107B
:10222000B526001085230010064C074D06E0E06837
:1022300040F0010394E8070098471034AC42F6D30D
:10224000FFF782FFB4220010E422001042F20002E5
:1022500043F200010020C1F20002C2F2000100BFFF
:1022600052F8203041F8203001304B28F8D14EF69A
:102270001450CEF2000040F80C1C416F41F4700184
:102280004167016841F010010160016841F480710B
:102290000160704702E008C8121F08C1002AFAD185
:1022A00070477047002001E001C1121F002AFBD1D6
:1022B00070470000503A001000320020380900003A
:1022C0009422001088430010004800200400000001
:1022D000942200108C4300100448002024000000C9
:1022E000A42200102DE9F05F0546002092469B468F
:1022F00088460646814640241BE02846414647461C
:10230000224600F02FF853465A46C01A914110D386
:1023100011461846224600F016F82D1A67EB010800
:102320004F4622460120002100F00DF817EB00096E
:102330004E41201EA4F10104DFDC484631462A4606
:102340004346BDE8F09F202A04DB203A00FA02F160
:10235000002070479140C2F1200320FA03F3194393
:1023600090407047202A04DB203A21FA02F0002135
:10237000704721FA02F3D040C2F120029140084395
:102380001946704782B04EF6285715460C46064649
:10239000CEF2000700F070FA43F2D450EFF3088158
:1023A000C1F2000000F026FE300743F6192043F684
:1023B0003821C1F20000C1F2000158BF084601F007
:1023C00061F816F0040043F62A2192A0C1F2000140
:1023D0000CBF08462C4601F055F892A001F052F8C7
:1023E000216894A000F006FE616896A000F002FE4D
:1023F000A16898A000F0FEFDE1689AA000F0FAFD47
:1024000021699CA000F0F6FD61699EA000F0F2FD3C
:10241000A169A0A000F0EEFDE169A2A000F0EAFD34
:10242000A06901907868800705D543F6ED10C1F2E8
:10243000000001F027F87868B0F1FF3F05DC43F6B3
:102440000620C1F2000001F01DF87868400040F15C
:10245000DC8043F6D910C1F2000001F013F83868AF
:1024600000063ED043F6BB10C1F2000001F00AF8AE
:102470003868C00706D0019943F25250C1F20000FB
:1024800000F0B8FD3868800710D5019943F2DF40AD
:10249000C1F2000000F0AEFD3868000606D5F9680C
:1024A00043F2C750C1F2000000F0A4FD38680007F5
:1024B00005D543F67D00C1F2000000F0E3FF386867
:1024C000C00605D543F6D200C1F2000000F0DAFFE5
:1024D0003868800605D543F2DE70C1F2000000F0D6
:1024E000D1FF386810F47F4F46D043F6FB10C1F29D
:1024F000000000F0C7FF3868C00505D543F208703A
:10250000C1F2000000F0BEFF3868800510D50199C7
:1025100043F2A840C1F2000000F06CFD38680004EE
:1025200006D5396943F2C750C1F2000000F062FDE0
:102530003868400505D543F29E60C1F2000000F006
:10254000A1FF3868000505D543F62510C1F200004B
:1025500000F098FF3868C00405D543F67110C1F249
:10256000000000F08FFF3868800405D543F6310085
:10257000C1F2000000F086FF3868B0F5803F44D318
:1025800043F6CC10C1F2000000F07CFF3868C003B5
:1025900005D543F22A60C1F2000000F073FF3868ED
:1025A000800305D543F2A170C1F2000000F06AFF7C
:1025B0003868400305D543F2FC50C1F2000000F03A
:1025C00061FF3868000305D543F23570C1F20000A1
:1025D00000F058FF3868C00205D543F27570C1F2AB
:1025E000000000F04FFF3868C00105D543F2D56008
:1025F000C1F2000000F046FF3868800105D543F2C3
:102600006360C1F2000000F03DFF00F007F900BF79
:10261000FEE700BF5573696E6720753332507370E3
:102620002E000000537461636B206672616D653A21
:1026300000000000523020203A20307825303858F1
:102640000A000000523120203A20307825303858D6
:102650000A000000523220203A20307825303858C5
:102660000A000000523320203A20307825303858B4
:102670000A000000523132203A2030782530385894
:102680000A0000004C5220203A203078253038587B
:102690000A000000504320203A2030782530385876
:1026A0000A000000785053523A20307825303858CC
:1026B0000A00000014460D46064600F0DDF805A0AD
:1026C00031462A46234600F095FC00F0A7F800BFEB
:1026D000FEE700BF4E4D495F48616E646C65723A1B
:1026E00020253038582C20253038582C20253038DB
:1026F000580A000080B582B001A800F08FFB019855
:1027000000F091FB019902A000F074FC02B080BDC2
:10271000504D5520494E543A20253034580A000077
:10272000002848BF704700F01F01012202FA01F1A2
:102730004EF280224009CEF2000242F8201070478B
:10274000002848BF704700F01F01012202FA01F182
:102750004EF200124009CEF2000242F820107047FB
:102760004EF6145200F00F01CEF20002114400F1B7
:102770006042B0F1FF3FC8BF02F5644160200870BD
:102780007047000080B5B2F1C04F0BD040F6000C8E
:10279000C6F2000C624505D040F2004CC6F2000CB7
:1027A000624538D14BF2800E40F0800CC6F2040E28
:1027B000F44530D1DDF808C044F6080EC2F2000E30
:1027C000BCF1000FCEF800C00DD044F6160CC2F2DA
:1027D000000C4FF0000EACF800E044F6140CC2F20E
:1027E000000CACF800E044F6100CC2F2000CCCF87F
:1027F000002044F60C02C2F20002106044F61800F9
:10280000C2F20000016044F61C00C2F20000036046
:1028100000F032F880BD102080BD0000F0B581B01E
:1028200044F60804C2F20004206818B344F6160502
:1028300044F61406C2F20005C2F200062888318868
:10284000884217D044F61007C2F20007216882B20E
:1028500009683868895C00F0EBFA28882168013043
:1028600082B289888A4228BF002081B232882880BB
:102870009142EBD101B0F0BDF0B583B044F6100544
:10288000C2F200052868B0F1C04F0AD040F2004102
:10289000C6F20001884219BF0C242D2008242C20E8
:1028A00001E004242B2000F0C8FA44F60C0644F69C
:1028B0001807C2F20006C2F20007306839682246E3
:1028C00000F0C0FA08B103B0F0BD306839680222E8
:1028D00000F0BDFA0028F6D144F61C00C2F2000058
:1028E000006843F221010190C0F2011128680291B1
:1028F00001A900F0B1FA03B0F0BD000010B582B03C
:1029000044F60801C2F200010968044671B144F6B8
:102910001402C2F2000208681388C454581C83B21F
:1029200089888B4228BF002010800BE044F61000FD
:10293000C2F2000000680DF1070101228DF8074086
:1029400000F08FFA204602B010BD000080B5FFF7FE
:1029500093FF412000F090FD80BD000080B582B063
:102960004BF28000C6F2040001AA802100F07EFA3A
:102970009DF8040000065EBF002002B080BD532019
:1029800000F07AFD142000F076FA012002B080BD3C
:10299000B0B582B00DF1070102200122012500F03F
:1029A0006FFA9DF80700C0F34110032813D00228E6
:1029B0007DD14BF20004C6F2040420464FF450418E
:1029C000012200F044FA20464FF44831022200F080
:1029D0003EFA02B0B0BD0DF101013A20062200F02E
:1029E0004FFA9DF801104BF20000C6F2040000F10E
:1029F0008004202901F01F01204605FA01F13CBFA7
:102A00004BF20000C6F20400012200F020FA9DF80B
:102A10000210204620293CBF4BF20000C6F2040001
:102A200001F01F0105FA01F1022200F010FA9DF8F1
:102A30000310204620293CBF4BF20000C6F20400E0
:102A400001F01F0105FA01F1012200F000FA9DF8E2
:102A50000410204620293CBF4BF20000C6F20400BF
:102A600001F01F0105FA01F1012200F0F0F99DF8D3
:102A70000510204620293CBF4BF20000C6F204009E
:102A800001F01F0105FA01F1022200F0E0F99DF8C2
:102A90000600022220283CBF4BF20004C6F20404C8
:102AA00000F01F0005FA00F1204600F0D0F902B056
:102AB000B0BD00008020C4F20000D0F80011C907AA
:102AC00004BF002070474FF20412C6F204020168EE
:102AD000D0F868011268081A92B202FB00F0800A6E
:102AE0007047000010B5044644F60400C2F200002E
:102AF000047044F62400C2F20000016044F6200095
:102B0000C2F200000260FFF743FF204600F008F821
:102B1000012003210B22092300F0B7F910BD0000AA
:102B2000042884BF1020704780B5011FB1FA81F1DD
:102B300049094900032808BF0121084600F0AAF905
:102B4000002080BD4EF20000C6F2040000F0A7F99C
:102B5000642000F0A9F900F0D3F800F081F800F04B
:102B600025F800F0BDF800F0DFF800BF00F0A1F993
:102B7000FCE70000B0F5807F84BF1020704710B5DF
:102B800081090122830618BF02EB90114FF0FF303C
:102B90008840C4434FF6FF70C0F20F0000F08EF97A
:102BA000204600F090F9002010BD0000B0B582B0C2
:102BB000212000F08DF9012000210022002500F0E5
:102BC0008CF94BF28004C6F2040440F20042A4F1F6
:102BD0008000C6F200024FF000414FF461230095DF
:102BE000FFF7D0FD08A018A11AA200F003FA2046B2
:102BF0008021022200F076F920468021022200F096
:102C000026F902B0B0BD00BF5B25732054202573A8
:102C10005D53797374656D20736C65657020616EAA
:102C2000642077616B657570206578616D706C6587
:102C300020636F646520737461727420746F2077F1
:102C40006F726B2E0A0000004A756E2032362032F9
:102C50003032340031383A35363A30300000000036
:102C600080B582B000208DF807000DF107010F201C
:102C7000012200F005F99DF80700002804BF562046
:102C800000F035F90DF107011020012200F0F8F8ED
:102C90009DF80700002808BFA92000F02DF90020AA
:102CA00000F02FF903200321642200F02FF9022005
:102CB00040F6C41100F02FF9062000F0BEF80720FE
:102CC00000F0BBF80320032103223C2300F028F985
:102CD00000204FF47A7100F028F902B080BD0000A6
:102CE00080B542F65D1142F64D12C1F2000102209C
:102CF000C1F20002FFF7F6FE4420FFF73BFF80BD64
:102D000080B5022000F016F900F019F9032000F058
:102D10001BF9002000F01DF9002000F01FF9012030
:102D200000F021F980BD000080B500F03DF800F012
:102D300001F880BD10B50120142100F019F914200C
:102D4000FFF7EEFC1420FFF70BFD1420FFF7F8FC53
:102D50004BF28004C6F2040420468021022200F0D7
:102D6000C1F820468021022200F071F8204680211F
:102D70000022032300F001F92046802100F002F92F
:102D80002046802100F003F90120002100F004F921
:102D900020468021012200F004F9022003210922AB
:102DA0000B2300F072F810BD10B5042000F045F8B8
:102DB00042F20004C6F205042046002100F0F6F8B5
:102DC0000120312100F0D4F83120FFF7A9FC312097
:102DD000FFF7C6FC3120FFF7B3FC20464FF47C61BF
:102DE00000F0E9F820463F2100F0EAF820460121F2
:102DF00000F0EBF82046402100F0ECF820460021DE
:102E000040F6CC4200F0EBF8032003210D220B2307
:102E100000F03BF8204600F0E7F810BD4AF6213CF0
:102E2000C0F2000C60474AF6390CC0F2000C604753
:102E30004DF67D7CC0F2000C604747F67D1CC0F269
:102E4000000C604749F6210CC0F2000C604749F6BF
:102E50009D0CC0F2000C60474DF6656CC0F2000C92
:102E600060474EF2CD1CC0F2000C604749F2155C81
:102E7000C0F2000C604744F2817CC0F2000C604755
:102E800048F20D7CC0F2000C60474AF68D6CC0F22F
:102E9000000C60474AF6256CC0F2000C60474FF604
:102EA000310CC0F2000C604744F2717CC0F2000C9F
:102EB000604743F2012CC2F2000C60474AF6510C05
:102EC000C0F2000C60474AF6796CC0F2000C604713
:102ED00044F6390CC0F2000C60474CF2113CC0F2D1
:102EE000000C604749F2F16CC0F2000C60474AF6F2
:102EF000596CC0F2000C60474AF6696CC0F2000CD5
:102F000060474AF6B13CC0F2000C604745F6651CCC
:102F1000C0F2000C604745F6295CC0F2000C604727
:102F200045F6951CC0F2000C604745F6794CC0F29E
:102F3000000C60474AF67D5CC0F2000C60474AF620
:102F40006D0CC0F2000C60474AF6E93CC0F2000C80
:102F500060474AF6A95CC0F2000C60474AF6FD5C87
:102F6000C0F2000C604745F6214CC0F2000C6047EF
:102F70004CF2C51CC0F2000C604749F2717CC0F2F3
:102F8000000C604749F2093CC0F2000C604749F26E
:102F9000554CC0F2000C604749F61D1CC0F2000CF5
:102FA000604749F2754CC0F2000C60474BF64D7C0F
:102FB000C0F2000C60474BF63D4CC0F2000C60477D
:102FC0004BF6F13CC0F2000C60474BF6B94CC0F236
:102FD000000C60474BF6FD4CC0F2000C60474BF60E
:102FE000656CC0F2000C60474BF6C57CC0F2000C6B
:102FF000604700000FB4054B10B503A9044A0298BE
:1030000000F008F810BC5DF814FB0000FD2800106B
:10301000004800202DE9FF4F8DB00F4605460026E1
:1030200006E025280BD0DDE90F1290476D1C761CB9
:1030300028780028F5D111B03046BDE8F08F002483
:10304000A246A1460122EC4900E0044315F8013FE5
:10305000203B02FA03F00842F7D128782A2810D042
:103060006FF02F022878A0F13001092914D80AEB5B
:103070008A0102EB410144F0020400EB010A6D1CDD
:10308000F0E701CF5FEA000A03D544F40054CAF127
:10309000000A44F002046D1C28782E2817D115F878
:1030A000010F44F004042A280ED06FF02F02287874
:1030B000A0F1300109290AD809EB890102EB41018D
:1030C00000EB01096D1CF2E757F8049B6D1C287892
:1030D0006C280FD006DC4C2817D068280DD06A2841
:1030E00014D104E0742810D07A280FD10DE044F4F4
:1030F00000140AE044F4801401E044F440146978B8
:10310000814202D104F580146D1C6D1C2A786E2A50
:103110001FD00CDC632A31D004DC002A8BD0582A63
:1031200011D1A3E0642A68D0692A0CD165E0732A22
:103130002ED004DC6F2A73D0702A04D19BE0752A4C
:103140006FD0782A6ED01046DDE90F129047761CBA
:1031500050E1C4F30250022806D0032809D0042805
:1031600001CF09D0066045E101CFF117C0E9006148
:1031700040E101CF06803DE106703BE117F8040B0A
:103180008DF8000000208DF80100EB46012003E0DF
:1031900057F804BB4FF0FF3061074FF0000102D435
:1031A0000DE008F10101884649450FDA8045F8DB5A
:1031B0001BF808100029F4D108E008F10101884645
:1031C0008142FADB1BF808100029F6D1DDE90F2354
:1031D000AAEB08008146214600F036F9304400EBA6
:1031E000080604E0DDE90F121BF8010B9047B8F167
:1031F0000108F7D221464846F7E00A21C4F30253FA
:103200004FF0000B0891022B04D001CFC117032B04
:1032100009D00AE0FF1D27F00707F7E8020108E0E0
:1032200032E01FE020E000B2C117042B01D140B210
:10323000C117031E71F1000307DA4FF0000CD0EB49
:103240000C006CEB01012D2302E0230504D52B2398
:103250008DF82430012303E0E30701D02023F7E7B2
:10326000984658E00A2110E010210EE010204FF09F
:10327000000B08900CE010214FF0000B44F0040408
:103280004FF00809089103E008214FF0000B089166
:10329000C4F30253022B04D001CF0021032B06D02C
:1032A00006E0FF1D27F00707F7E8020103E080B200
:1032B000042B00D1C0B24FF0000823072BD5702A91
:1032C00007D0DDF820C08CF0100C5CEA0B0C05D0A8
:1032D0000EE040238DF82430012308E050EA01037A
:1032E00006D030238DF824308DF82520022398460F
:1032F000DDF820C08CF0080C5CEA0B0C0BD150EA16
:10330000010301D1630706D530238DF824304FF037
:103310000108A9F10109582A04D038A20B9208AA81
:103320000A920BE03AA2F9E75B46089AFEF7DAFF49
:103330000B9B9B5C0A9A521E0A92137050EA010280
:10334000F2D10A98ADEB000000F1200B600702D526
:1033500024F4803401E04FF00109D94502DDA9EBE6
:103360000B0000E0002000EB0B0141440890AAEBA9
:10337000010AE00306D4DDE90F232146504600F0A0
:1033800063F806444FF0000908E009A911F80900A4
:10339000DDE90F12904709F10109761CC145F4DB04
:1033A000E0030CD5DDE90F232146504600F04CF830
:1033B000064404E0DDE90F1230209047761C08999E
:1033C000481E08900029F5DC08E00A980A99007860
:1033D000491C0A91DDE90F129047761CBBF10001F0
:1033E000ABF1010BF1DC21465046DDE90F2300F083
:1033F00019F806446D1C1BE60928010030313233F0
:103400003435363738396162636465660000000020
:10341000303132333435363738394142434445460A
:10342000000000002DE9F041044600251E46174625
:10343000880404D405E039462020B0476D1C641E82
:10344000F9D52846BDE8F0812DE9F0410446002574
:103450001E469046C80301D5302700E02027880487
:1034600004D505E041463846B0476D1C641EF9D5C9
:103470002846BDE8F08100000149FFF73FBA00008F
:103480000048002010B5044601E0FFF737FA14F8B1
:10349000010B04490028F8D1BDE810400A20FFF7CD
:1034A0002DBA0000004800205B5052454349534567
:1034B00052525D206461746120627573206572727E
:1034C0006F7220686173206F636375727265642C1C
:1034D000205043203A203078253038780D0A005BA0
:1034E0004441434356494F4C5D20546865207072F7
:1034F0006F636573736F7220617474656D7074654A
:10350000642061206C6F6164206F722073746F722D
:10351000652061742061206C6F636174696F6E2037
:103520007468617420646F6573206E6F74207065B9
:10353000726D697420746865206F7065726174695A
:103540006F6E2C205043203A203078253038780D8B
:103550000A005B4941434356494F4C5D546865201E
:1035600070726F636573736F7220617474656D70D0
:1035700074656420616E20696E737472756374691A
:103580006F6E2066657463682066726F6D206120BF
:103590006C6F636174696F6E207468617420646F0E
:1035A0006573206E6F74207065726D697420657824
:1035B00065637574696F6E2C205043203A20307813
:1035C000253038780D0A004154203A3078253038BB
:1035D000780D0A005B486172644661756C745F48DF
:1035E000616E646C65725D43757272656E74206D98
:1035F00073703A203078253038580A005B494E56AF
:1036000050435D616E20696E7465677269747920DC
:10361000636865636B206572726F722068617320E6
:103620006F636375727265640D005B554E44454669
:10363000494E5354525D616E20756E646566696EC5
:10364000656420696E737472756374696F6E20654A
:1036500072726F7220686173206F63637572726536
:10366000640D005B44495642595A45524F5D616EA4
:1036700020696E7465676572206469766973696F25
:103680006E206279207A65726F206572726F722087
:10369000686173206F636375727265640D005B49C6
:1036A0004D5052454349534552525D496D707265C4
:1036B000636973652064617461206163636573731A
:1036C000206572726F7220686173206F6363757218
:1036D0007265640D005B554E414C49474E45445D53
:1036E000616E20756E616C69676E656420616363ED
:1036F000657373206572726F7220686173206F63E7
:103700006375727265640D005B49425553455252B0
:103710005D696E737472756374696F6E2062757320
:10372000206572726F7220686173206F63637572B7
:103730007265640D005B4E4F43505D6120636F7096
:10374000726F636573736F722064697361626C6515
:1037500064206F72206E6F742070726573656E7472
:10376000206572726F7220686173206F6363757277
:103770007265640D005B53544B4F465D612073745A
:1037800061636B206F766572666C6F77206572720D
:103790006F7220686173206F636375727265640D68
:1037A000005B494E5653544154455D20616E20459F
:1037B0005053522E54206F7220455053522E49546C
:1037C0002076616C6964697479206572726F722009
:1037D000686173206F636375727265640D005B4D81
:1037E0004C53504552525D41204D656D4D616E61A7
:1037F0006765206661756C74206F636375727265AE
:103800006420647572696E6720666C6F6174696E9E
:10381000672D706F696E74206C617A7920737461A2
:10382000746520707265736572766174696F6E0D70
:10383000005B4C53504552525D41206275732066C7
:1038400061756C74206F6363757272656420647552
:1038500072696E6720666C6F6174696E672D706F38
:10386000696E74206C617A7920737461746520705C
:103870007265736572766174696F6E0D005B4D558C
:103880004E53544B4552525D556E737461636B20B9
:10389000666F7220616E20657863657074696F6E03
:1038A0002072657475726E20686173206361757330
:1038B0006564206F6E65206F72206D6F7265206188
:1038C00063636573732076696F6C6174696F6E737F
:1038D0000D005B4D53544B4552525D537461636B05
:1038E000696E6720666F7220616E2065786365700F
:1038F00074696F6E20656E747279206861732063DD
:103900006175736564206F6E65206F72206D6F72D4
:1039100065206163636573732076696F6C61746998
:103920006F6E730D005B554E53544B4552525D55AF
:103930006E737461636B20666F7220616E206578B0
:1039400063657074696F6E2072657475726E20683D
:10395000617320636175736564206F6E65206F729B
:10396000206D6F7265204275734661756C74730DBE
:10397000005B53544B4552525D537461636B696EE7
:103980006720666F7220616E206578636570746968
:103990006F6E20656E747279206861732063617543
:1039A000736564206F6E65206F72206D6F72652085
:1039B0004275734661756C74730D004D656D4D6194
:1039C0006E616765204661756C740D0055736167A3
:1039D00065204661756C740D00436F6E666967758E
:1039E0007261626C65204661756C740D005665638A
:1039F000746F72204661756C740D004275732046B9
:103A000061756C740D004465627567204576656E5E
:103A100074204661756C740D004F63637572656444
:103A200020696E207461736B2E005573696E672078
:103A30007533324D73702E004F6363757265642069
:103A4000696E20696E746572727570742E00000064
:103A500070B584B044F60406C2F200063178002046
:103A600000290390029067D044F62400EFF31085FC
:103A7000C2F20000EFF3108172B6006810B1804707
:103A800000283ED03078811E03293ED203A800F0E2
:103A9000DBFB01A9002000F0DCFB0398012813D117
:103AA000019860B100F0DAFB044602A9012000F0A1
:103AB000D0FB40F6C510844232D3029880B3012077
:103AC0004FF4FA6100F0CFFB019828B102A9012060
:103AD00000F0BFFB029818B34FF0A04000F078F957
:103AE0004EF61050CEF20000016841F00401016072
:103AF0004FF0A04030BF00F077F9012000F0B8FB94
:103B00000EE085F3108804B070BD012808D14EF690
:103B10001050CEF20000016821F00401016030BFB6
:103B200044F62000C2F20000006818B13178022982
:103B300008BF804785F3108804B070BD10B582B00F
:103B400042F2000420A0C6F2050400F096FB0DF13D
:103B50000201204600F096FBBDF80210204600F05E
:103B600096FBBDF80200C00728D001A9204600F04E
:103B700093FBEFF3108072B600F093FB42F2093131
:103B8000C5F6ED01A0FB0112811A02EB51015F2283
:103B9000890901FB12004FF4203101EBC03044F6DB
:103BA000D351C1F26201019AA0FB010102EB911213
:103BB00020460021019200F079FB62B6642000F0FB
:103BC0007AFB02B010BD00BF5B735D0010B582B020
:103BD00010A000F052FB4BF28004C6F2040401AACC
:103BE0002046802100F06CFB0199204600F06DFB1F
:103BF00000F070FB642000F05EFB6A4620468021E6
:103C000000F06DFBDDE9002103A000F036FB02B0FF
:103C100010BD00BF5B675D00696F20696E743A205C
:103C2000253038582C20253038580A0070B541F21C
:103C30000001044640F48050C5F2000188421CBFD8
:103C4000012070BD40F200750226C0F2010500BFE0
:103C5000300604BF002070BD2046FF212A46013EE9
:103C600000F042FB002818BF70BDF1E7B0B50C466C
:103C70000546FFF7DBFF002818BFB0BD28462146E8
:103C800000F037FBB0BD00BFB0B50C460546FFF7EE
:103C9000CDFF002818BFB0BD2846214600F02EFBFE
:103CA000B0BD00BFB0B50C460546FFF7BFFF00280A
:103CB00018BFB0BD2846214600F025FBB0BD00BFAF
:103CC000B0B50C460546FFF7B1FF002818BFB0BDE0
:103CD0002846214600F01CFBB0BD00BFB0B50C4625
:103CE0000546FFF7A3FF002818BFB0BD28462146B0
:103CF00000F013FBB0BD00BF10B50446FFF796FF00
:103D0000002804BF204600F00DFB10BDB0B50C46E6
:103D10000546FFF78BFF002818BFB0BD2846214697
:103D200000F005FBB0BD00BF2DE9F04381B00D46AA
:103D3000044600F130406FF4805108424FF001001A
:103D400004D11DB12046FFF771FF10B101B0BDE8ED
:103D5000F0834B2140F21F72C0F280312046C0F246
:103D60000F0200F0C1FA0028F0D100274FF0100830
:103D700041F28739102600BFA068C00614D5B0B242
:103D8000216800230022042828BF0420DB00013220
:103D900021FA03F793B205F8017B9842A6F10106D8
:103DA000F4DC0027C4F8108001374F450CD80120FF
:103DB00000F081FA3004DFD1204641F2883100F072
:103DC000BBFA01B0BDE8F083032001B0BDE8F08389
:103DD00010B50446FFF72AFF002818BF10BD204683
:103DE000032100F0AEFA10BD10B50446FFF71EFF28
:103DF000002804BF204600F0A9FA10BDB0B582B07B
:103E0000044641F200020D4644F48051C5F200021E
:103E100000209142ADF8060007D10DF106012046C1
:103E2000FFF724FF20B102B0B0BD012002B0B0BD49
:103E3000BDF806004BF68371084005F01F0140EA0B
:103E400081000621ADF8060020464FF4E06200F044
:103E50004BFA0028E7D1BDF80600012140F20072BC
:103E60006060C0F200512046C0F2010200F03CFA4E
:103E70000028D8D1204643F6982100F05DFA02B020
:103E8000B0BD00BFF0B581B01C4615460E460746D2
:103E9000FFF7CCFE08B101B0F0BD384631462A46E6
:103EA000234600F058FA01B0F0BD00BFB0B50C4693
:103EB0000546FFF7BBFE002818BFB0BD28462146C7
:103EC00000F04EFAB0BD00BFF0B583B01C461546F9
:103ED0000E460746FFF7AAFE08B103B0F0BDDDE9C4
:103EE000080C3146009038462A462346CDF804C0D7
:103EF00000F03BFA03B0F0BDF0B581B01C461546AA
:103F00000E460746FFF792FE08B101B0F0BDDDF89E
:103F100018C0384631462A462346CDF800C000F086
:103F200029FA01B0F0BD00BF2DE9F0470C4641F27F
:103F30000001054640F48050C5F2000188424FF070
:103F400001063DD1EFF3108AEFF3108072B640F610
:103F5000A000C0F6C84068662020C0F2C800E8652E
:103F600005202866284603219846914600F007FA66
:103F70000746284606214FF4E06200F0B5F9A96D26
:103F8000032C41F00101A965AE6684BF1020BDE895
:103F9000F08740EA070660B213A151F8202016A16D
:103FA00051F8201009FA02F040F21772E86428462E
:103FB000C0F2020200F098F98AF31088064303D099
:103FC0003046BDE8F08700BF286FC007FCD1A86D60
:103FD000414620F00100A865284600F0ADF90646EC
:103FE0003046BDE8F08700BF080000000C0000006C
:103FF0000F000000100000008100000320000003FB
:1040000052000003D80000032DE9F04F81B016469E
:1040100041F20002824640F48050C5F20002904214
:1040200042D1002E4FF0010B1CBF1D46002B3DD08E
:1040300055FA81F08846B0F5807F4FF0010B35D8F6
:10404000EFF310800090EFF3108072B60A9F40F6F5
:10405000A000C0F6C840CAF8640040F24010C0F2A8
:10406000C800CAF85C000520CAF860005046062166
:104070004FF4E06200F038F9DAF85810814641F068
:104080000100032FCAF85800CAF868B012D0022FF6
:104090001AD01FBB40F21770CFF6FF70022100EB61
:1040A0000542C0F240311BE04FF0010B584601B011
:1040B000BDE8F08F40F21770CFF6FF7000EB0542BD
:1040C0003221C0F243310BE040F21770CFF6FF709F
:1040D000A22100EB0542C0F2423101E000210022A2
:1040E000042DAC4628BF4FF0040CBCF1010F0FDBD0
:1040F00000240020002700BF16F8013BE400013730
:10410000A340BCB21843A445A5F10105F4DC00E0CE
:104110000020CAF84C80CAF80400504600F0E4F8C9
:10412000290440EA090B2BD000274FF0020841F286
:10413000873900BFCAF81080DAF80800800714D465
:10414000A8B2002300210022042828BF042000BFB9
:1041500016F8014BDB0001329C4093B22143984298
:10416000A5F10105F4DCCAF804104F4506D0012082
:10417000013700F0A0F82804DCD101E04BF0030B7C
:10418000009880F31088BBF1000F8FD10B9D00BF0A
:10419000DAF87000C007FBD1DAF8580020F001000F
:1041A000CAF85800DAF8A400C0070AD041F28834EF
:1041B000013C0CD0012000F07EF8DAF8A400C00722
:1041C000F6D15046294600F0B7F883466EE74FF027
:1041D000030B6BE72DE9F04F83B04FF0010A52B1AA
:1041E0009CB244B10C9D0E4629469046074600F00D
:1041F000C6F8824618B1504603B0BDE8F08F04B34C
:10420000029700BFF0B2C0F5807B5C4538BFA34683
:104210001FFA8BF7A946009502980D9D314642463C
:104220003B460195FFF7F0FEBAF1000FE3D116FA15
:104230008BF618FA8BF8E41B4D46E3D14FF0000AD9
:10424000D9E74FF0000AD6E747F6692CC0F2000C18
:1042500060474CF23D3CC0F2000C604742F6B52C82
:10426000C1F2000C604745F6295CC0F2000C6047C3
:1042700047F21D3CC0F2000C604742F6F57CC1F2EB
:10428000000C60474BF6D55CC0F2000C60474BF663
:10429000D13CC0F2000C60474BF6A55CC0F2000CAC
:1042A000604744F2ED7CC0F2000C60474BF6656C51
:1042B000C0F2000C604744F2817CC0F2000C604701
:1042C00049F24D5CC0F2000C604749F2093CC0F273
:1042D000000C604749F2213CC0F2000C604749F2F3
:1042E000155CC0F2000C604748F6456CC0F2000C4B
:1042F000604748F6813CC0F2000C604749F2992CB7
:10430000C0F2000C604748F6754CC0F2000C6047E4
:1043100048F60D5CC0F2000C604748F6F57CC0F230
:10432000000C604748F63D1CC0F2000C604748F6A0
:10433000751CC0F2000C604749F2990CC0F2000CE9
:10434000604748F6790CC0F2000C604748F6A55C5F
:10435000C0F2000C604748F6A10CC0F2000C6047A8
:1043600048F6010CC0F2000C604749F2D90CC0F2CB
:10437000000C604748F69D2CC0F2000C604748F6E0
:0C438000C15CC0F2000C604700000000AF
:040000051000215571
:00000001FF
