:020000041000EA
:100000004B2A110200000000A4030000EEC3A6E981
:100010007EEEE78880B500F087F90020002100F02F
:100020000DF8292000F00FF8202000F011F800F062
:1000300033F900F013F800F025F980BD4CF2B93C1B
:10004000C0F2000C604747F67D1CC0F2000C604710
:1000500047F6D12CC0F2000C6047000080B54FF08D
:10006000A040012100F075F900060BD1032000F03B
:1000700075F9000606D1012000F075F9000604BFED
:10008000002080BD00F074F94FF47A7000F075F92B
:10009000012080BD2DE9F04381B019B343F2B83897
:1000A0000F4606464FF0FF344FF00009C2F2000839
:1000B0003D46B7F5807F28BF4FF480754FF0A040D4
:1000C000314642462B46CDF8009000F05BF960B90E
:1000D00040462946224600F05AF904467F1B2E442A
:1000E000E6D103E04FF0FF3400E00124204601B0E8
:1000F000BDE8F08310B582B004464FF0000C4FF01D
:10010000A0404FF4805122462023CDF800C000F0DB
:1001100039F9000622D120461C214FF0FF3200F0B1
:1001200036F9E169814219D1E078112816D1A07819
:10013000022813D1E168B1F5002F0FD8606846F2AC
:100140007872C4F26A72904208D1A068FFF7A2FFE9
:100150002169401A18BF012002B010BD012002B071
:1001600010BD00002DE9F0410C4605460E184FF079
:100170000008B4F5803F07D3A8B228B94FF4803700
:100180000321102021E000BFB4F5004F08D328461A
:100190006FF3DF3020B94FF4004702210F2014E045
:1001A00029466FF31F31200BB1FA81F1B8EB143FF0
:1001B00018BF0120490901404FF008004FF4807733
:1001C00018BF0C2018BF4FF4805725FA00F082B2F8
:1001D0004FF0A04047F2305300F0DEF800060BD19C
:1001E0003D44B542A4EB070424BF0020BDE8F081E4
:1001F000B4F5803FC0D2C7E700F0BAF84FF47A7088
:1002000000F0BBF80120BDE8F08100002DE9F047C7
:1002100082B04FF000098AB343F2B83814460E4654
:100220000746C2F2000840F6B83A00BF2546B4F5CA
:10023000807F28BF4FF480754FF0A040394642467A
:100240002B46CDF8009000F09DF890B94FF0A040FB
:10025000314642462B46CDF80090CDF804A000F080
:10026000A0F848B92F44641B2E44DFD14FF0000999
:1002700004E04FF0010901E04FF00109484602B0E7
:10028000BDE8F08780B542F20400C1F200000068CA
:1002900000F08CF880BD0000B0B588B06846FFF76C
:1002A00029FF08B101243CE0DDE90501FFF75AFF11
:1002B00038B100F05DF84FF47A7000F05EF8012478
:1002C0002FE0DDE902020599FFF7A0FF38B100F049
:1002D0004FF84FF47A7000F050F8012421E00399B0
:1002E0000598FFF7D7FE0499884213D14FF0A0403C
:1002F0000021102247F23053002400F04DF805464B
:1003000000F036F828060CD04FF47A7000F035F87B
:10031000012406E000F02CF84FF47A7000F02DF87C
:100320000124204608B0B0BDEC20C6F205000168EB
:100330007F2221F002010160016821F004010160C7
:100340006FF0030143180431342943F8D82CF9D154
:10035000704748F6F57CC0F2000C604747F2613CFC
:10036000C0F2000C604747F21D3CC0F2000C604731
:1003700047F6717CC0F2000C604744F2717CC0F219
:10038000000C604748F69D2CC0F2000C604744F218
:10039000C17CC0F2000C604748F6A10CC0F2000C12
:1003A000604749F2D90CC0F2000C604744F62D0CAE
:1003B000C0F2000C604700000000000000000000D8
:1003C000000000000000000000000000000000002D
:1003D000000000000000000000000000000000001D
:1003E000000000000000000000000000000000000D
:1003F00000000000000000000000000000000000FD
:020000041000EA
:102000000070022055210010692100107B21001072
:102010008D2100108F210010912100100000000080
:10202000000000000000000000000000D1020000DD
:1020300095210010000000007503000081030000DE
:102040009B2100109D2100109F210010A121001054
:10205000A3210010A5210010A7210010A921001024
:10206000AB210010AD210010AF210010B1210010F4
:10207000B3210010B5210010B7210010B9210010C4
:10208000BB210010BD210010BF210010C121001094
:10209000C3210010C5210010C7210010C921001064
:1020A000CB210010CD210010CF210010D121001034
:1020B000D3210010D5210010D7210010D921001004
:1020C000DB210010DD210010DF210010E1210010D4
:1020D000E3210010E5210010E7210010E9210010A4
:1020E000EB210010ED210010EF210010F121001074
:1020F000F3210010F5210010F7210010F921001044
:10210000FB210010FD210010FF2100100122001012
:1021100003220010052200100722001009220010DF
:102120000B2200100D2200100F22001000000000F2
:10213000000000000000000000000000000000009F
:10214000DFF80CD000F070F800480047C98001208B
:10215000007002202E4880F308882E4880F30A88F9
:102160002D4880472D4800475FEA0E00EFF30881B5
:10217000EFF309822A4B9847FEE75FEA0E00EFF380
:102180000881EFF30982274B9847FEE7FEE7FEE759
:10219000FEE7FEE7FEE7FEE7FEE7FEE7FEE7FEE717
:1021A000FEE7FEE7FEE7FEE7FEE7FEE7FEE7FEE707
:1021B000FEE7FEE7FEE7FEE7FEE7FEE7FEE7FEE7F7
:1021C000FEE7FEE7FEE7FEE7FEE7FEE7FEE7FEE7E7
:1021D000FEE7FEE7FEE7FEE7FEE7FEE7FEE7FEE7D7
:1021E000FEE7FEE7FEE7FEE7FEE7FEE7FEE7FEE7C7
:1021F000FEE7FEE7FEE7FEE7FEE7FEE7FEE7FEE7B7
:10220000FEE7FEE7FEE7FEE7FEE7FEE7FEE7FEE7A6
:1022100000700220006002204D22001041210010B9
:10222000D97C0120A9790120064C074D06E0E06821
:1022300040F0010394E8070098471034AC42F6D30D
:10224000FFF782FFB4220010F422001042F20002D5
:1022500047F200010020C1F20002C2F2010100BFFA
:1022600052F8203041F8203001304B28F8D14EF69A
:102270001450CEF2000040F80C1C416F41F4700184
:102280004167016841F010010160016841F480710B
:102290000160704702E008C8121F08C1002AFAD185
:1022A00070477047002001E001C1121F002AFBD1D6
:1022B00070470000F422001000300020F8560000A3
:1022C00094220010EC79001000720120B81D00006B
:1022D00094220010A497001000F0012004000000D8
:1022E00094220010A897001004F0012024000000A0
:1022F000A422001000700120B1310020B93100206B
:10230000C9310020000000000000000000000000B3
:1023100000000000000000000000000000000000BD
:102320001905010000000000000000009D050100EB
:10233000A9050100D9310020DB310020CD34002077
:10234000DF310020E1310020E3310020E5310020C1
:10235000E7310020E9310020EB310020ED31002091
:10236000EF310020F1310020F3310020F531002061
:10237000F7310020F9310020FB31002041330020EB
:10238000FF310020013200200332002005320020FE
:1023900011350020093200200B3200200D320020C0
:1023A0000F3200201132002013320020153200209D
:1023B000313500200348854600F006F80048004704
:1023C0007550002000700120064C0125064E05E0E6
:1023D000E36807CC2B430C3C98471034B442F7D346
:1023E000FFF7ECFF183100202831002002E008C878
:1023F000121F08C1002AFAD170477047002001E07F
:1024000001C1121F002AFBD170470000F88600208E
:10241000F8860020A07B00000831002070B51D4E1A
:102420003078002834D0EFF31085EFF3108072B6C7
:1024300019480068002802D08047002813D030785F
:10244000811E032912D201242046214604F088F877
:102450001248016804220A43026030BF002120466E
:1024600004F07EF80AE085F3108870BD012805D1DC
:102470000A48016804229143016030BF084800689F
:10248000002803D03178022900D1804785F31088D5
:1024900070BDC04664D500209001012010ED00E021
:1024A0008C01012019488047194800477046EFF316
:1024B0000881EFF30982174B9847FEE77046EFF368
:1024C0000881EFF30982144B9847FEE7FEE7FEE729
:1024D000FEE7FEE7FEE7FEE7FEE7FEE7FEE7FEE7D4
:1024E000FEE7FEE7FEE7FEE7FEE7FEE7FEE7FEE7C4
:1024F000FEE7FEE7FEE7FEE7FEE7FEE7FEE7FEE7B4
:10250000FEE7FEE7FEE7FEE7FEE7FEE735360020E2
:10251000C1300020D53400209933002030B50B465F
:10252000014600202022012409E00D46D5409D42AD
:1025300005D31D469540491B254695404019154633
:10254000521E002DF1DC30BDF0B51FB40646002050
:1025500082B005464024019100901BE0019922467B
:102560000F46304600F054F8049A059B801A9941B2
:1025700010D310461946224600F03AF8361A8F4119
:102580000197224601200021009F00F031F8381801
:102590004D4100902046641E0028DFDC019B00981E
:1025A0002946324607B0F0BD03460B439B0703D0D4
:1025B00009E008C9121F08C0042AFAD203E00B7808
:1025C0000370401C491C521EF9D27047D2B201E080
:1025D0000270401C491EFBD270470022F6E710B57E
:1025E00013460A4604461946FFF7F0FF204610BD81
:1025F00010B5202A04DB0146203A9140002010BD8E
:10260000914020239C1A0346E3401943904010BD9B
:1026100010B5202A04DB0846203AD040002110BD26
:102620000B46D340D0402024A21A914008431946BB
:1026300010BD000070B582B0114C204603F096FF2B
:1026400001AD2046294603F097FF2978204603F084
:1026500099FF2878800611D06D462046294603F060
:1026600097FF084802682988074E30469047298816
:102670003046FFF7B2FF204603F090FF02B070BD76
:10268000C08100507895002080C0002015460C467F
:10269000064600F039FAEFF308811D4804F0A6FC65
:1026A000300701D51C4800E01A4804F0F1FE042070
:1026B000064001D01AA000E0184804F0E9FE1CA072
:1026C00004F0E6FE002E00D02C4621681CA004F089
:1026D0008DFC61681EA004F089FCA16820A004F0B4
:1026E00085FCE16822A004F081FC216924A004F0AB
:1026F0007DFC616926A004F079FCA16928A004F0A2
:1027000075FCE1692AA004F071FC00F0D1F9FEE744
:10271000A6830020ED830020CE830020DF830020ED
:102720005573696E67207533325073702E00000048
:10273000537461636B206672616D653A000000003E
:10274000523020203A203078253038580A000000D6
:10275000523120203A203078253038580A000000C5
:10276000523220203A203078253038580A000000B4
:10277000523320203A203078253038580A000000A3
:10278000523132203A203078253038580A00000083
:102790004C5220203A203078253038580A0000006A
:1027A000504320203A203078253038580A00000065
:1027B000785053523A203078253038580A000000BB
:1027C00080B503F0F1FE80BD14460D46064600F0CC
:1027D0009BF904A031462A46234604F007FC00F08A
:1027E00067F9FEE74E4D495F48616E646C65723A69
:1027F00020253038582C20253038582C20253038CA
:10280000580A000010B582B001AC204603F0D2FE99
:10281000019803F0D5FE6078000601D501F0E8F9D3
:1028200002B010BDF0B583B0002501953C4C02AE5E
:102830002046314603F0CAFE30880821014007D007
:10284000204603F0C9FE642003F0CCFE03F0D2FD65
:10285000032101AA204603F0CBFE324F3C6804E07E
:10286000304603F063FD03F0C5FD002C22D0264660
:10287000A46A307D0028F3D1707D0028F0D1B07DAE
:102880000228F2D16946264803F0B8FEB168F26822
:102890000098914204D28842E7D3904204D3E4E7FF
:1028A000904201D38842E0D3F1690029D8D0306A40
:1028B0008847D5E73968002922D00026019A354695
:1028C000174803E02546896A00291BD08B7D022B1F
:1028D000F9D18B68F40708D0CC68954208D2A3429E
:1028E00004D2AB4202D32B4600E001261D46EAE7A4
:1028F000A3422C4600D31C46AB42E3D32C46E1E76F
:102900002E46074801998D4207D0F10705D00321D3
:102910002A4603F079FE03F06DFD03B0F0BDC0461A
:10292000003005606CD60020014802490160704704
:1029300008ED00E0003000200120C00709490860D0
:102940007047C04607480421016070470120800499
:10295000044908607047C0460120C005014908606D
:102960007047C04680E200E00120C00709490860C6
:102970007047C04607480421016070470120800469
:10298000044908607047C0460120C005014908603D
:102990007047C04600E100E00120C007014908601F
:1029A0007047C04600E200E0FF20000603490A68C5
:1029B0008243032080071018086070471CE400E081
:1029C000FF20000402490A6882430A607047C0463B
:1029D00000E400E0FF20000403490A68824303206A
:1029E000800510180860704710E400E0FF20000622
:1029F00002490A6882430A607047C04614E400E056
:102A000070B55D4D29685B4E30680024224603F0A6
:102A100001FE30682968224603F002FE534801682F
:102A20005348814201D02D2000E02C200322520780
:102A3000914200D12B2003F0F9FD70BD70B5032445
:102A400065071024AA4205D0104DAA4202D0484D75
:102A5000AA4219D1802505430D4EB54214D1049CDC
:102A6000264D2C60002C04D0264C00252580244CBB
:102A70002580404C20603D4802603F48016040484E
:102A8000036000F041F80446204670BD0008006075
:102A900080B004601B48008819490988081A41421F
:102AA0004141164802685042504108437047C046B1
:102AB000F0B581B0114C2068002805D0104D288851
:102AC000104E3188884201D101B0F0BD274F04E09B
:102AD000288081B232889142F6D080B2216809689C
:102AE000095C386803F0A8FD206881882888401CAC
:102AF00082B28A42ECD30020EAE7C04674D50020B7
:102B00007ED600207CD60020F0B583B0174D286813
:102B100003214907884205D01549884205D1082478
:102B20002C2004E004242B2001E00C242D2003F0B1
:102B300089FD104E3068104F3968224603F088FD39
:102B4000002801D003B0F0BD39683068022203F0DC
:102B500067FD0028F6D109480290094800680190F5
:102B6000286801A903F07AFD03B0F0BD7CD50020F0
:102B70000004006078D5002084D6002021300101B7
:102B800088D6002080B582B003F04AFB03F0FCF841
:102B90000F4803F071FC00F0E3FF00F02BFF01F0A1
:102BA000A9F900F0BDF901F05BF96A460948908087
:102BB000094800900948A02100F0F4FA01F030FB28
:102BC00003F092FB03F050FD03F054FD02B080BD12
:102BD0000572002044550000001122330107400116
:102BE000B0B503461020002B22D0012920D8EFF3E6
:102BF0001084EFF3108572B69D7D002D02D084F312
:102C00001088B0BD00209862DA61197601219975AB
:102C100025490A68002A02D10B600021D9622349A4
:102C20000A68002A01D09362DA620B6084F310888C
:102C3000B0BDC04610B51024002808D0817D002901
:102C400005D0012141750024C47503F0D3FB204653
:102C500010BD0000B0B5052003F0F4FC204D0024A9
:102C60002846214603F00CFDFFF766FEFFF79CFEA9
:102C7000FFF77AFE1F21204603F008FD01204102E4
:102C8000284603F009FD0821284603F00BFDFF212B
:102C9000284603F00DFD284603F010FD02480460AD
:102CA000024804602046B0BD6CD6002070D60020DB
:102CB00010B504461020002C11D0A37D002B0ED09F
:102CC0006262616021461031054803F097FC0220E2
:102CD000E075FF200230A08203F08CFB002010BDC5
:102CE0000030056080B501461020002908D08A7D9B
:102CF000002A05D001204875C87503F07BFB002031
:102D000080BD0000B0B590B019480AAC21462CC86F
:102D10002CC12CC82CC100F05DF840200C212246AB
:102D200003F0D2FC2A490860002819D0114801AAF2
:102D3000114638C838C138C838C138C838C10E48FB
:102D40000024214603F0C6FC0C490860002809D085
:102D5000802003F0C5FC0A4803F0C8FC012404E00D
:102D6000002402E0074803F0C7FC204610B0B0BDC5
:102D7000BC810020D4810020953A00203C870020AF
:102D8000E16D00200960000084B0104C104D04E09B
:102D9000621C81B2104603F0B5FC28680022D343C0
:102DA00001A903F0B5FC0028F2D101A803F0B6FC9C
:102DB00002990029F1D00398002802D003F0B4FC56
:102DC000EBE7204603F098FCE7E7C046026000000E
:102DD00074870020B0B58CB0144806AA114638C8D4
:102DE00038C138C838C11020242103F0A3FC104991
:102DF0000860002810D00F486A46114638C838C10C
:102E000038C838C10820802103F094FC0A490860C2
:102E1000002804D00CB0B0BD0320400302E0032022
:102E20004003401C03F068FC0CB0B0BD10820020D1
:102E30006CD50020F881002068D5002080B50A46B6
:102E40000021FFF7CDFE4142484180BD80B5FFF72C
:102E5000F1FE4142484180BD80B5FFF729FF414264
:102E6000484180BD80B5FFF73DFF4142484180BDEC
:102E7000F0B583B0029315460C46064600921AA0A0
:102E8000089F39463246234604F0B0F8132C28D860
:102E90007C4424796400A744092424240E241424A7
:102EA0001A24242424242424242424200298394667
:102EB00000F02AF915E030462946029A00F086F81B
:102EC0000FE030462946029A00F034F809E0304617
:102ED0002946029A00F0ACF803E03046394600F08B
:102EE000E9F8002003B0F0BD5B436C69656E745D6A
:102EF0005B25645D636F6E6E48616E646C653A203D
:102F000025642C206F70436F64653A2025642C2063
:102F1000657272436F64653A20253034580A0000A8
:102F200080B501F08FF9024803F00AFC80BDC0466D
:102F30007D3B0020B0B50546080411D41446002A94
:102F400018D0C8B2002815D120891049884212D063
:102F50000F4988420ED116A004F09AFA69480EE093
:102F600009481A2101F096F9002803D1064928469C
:102F700003F0ECFBB0BD07A004F08AFA02481A2265
:102F80002146FFF711FBB0BD50D60020F2FF000034
:102F9000F1FF000046696E642063686172616374CA
:102FA000657269737469633A203078464646320028
:102FB00046696E64206368617261637465726973E7
:102FC0007469633A2030784646463100B0B505460C
:102FD000080412D41446002A19D0C8B2002816D109
:102FE000A0880C49884212D10BA004F051FA08487D
:102FF00016222146FFF7D8FAB0BD0548162101F088
:1030000049F9002803D10249284603F0A5FBB0BDC9
:1030100038D60020F0FF000046696E6420736572A8
:10302000766963653A2030784646463000000000F5
:1030300070B582B00446080418D4002A2CD0C8B257
:10304000002829D150881A49884225D13E49108844
:103050000B88984220D3898888421DD80F481423B2
:1030600011461A46FFF7A0FA02B070BD0B4D1421AD
:10307000284601F00FF900280ED12D8801AE00205E
:1030800070700120307006A004F002FA022220467F
:103090002946334603F066FB02B070BD08D6002017
:1030A000456E61626C65206E6F746966792E0000F2
:1030B00002290000B0B582B004460BA003F096FFD1
:1030C00001A8562181700E4901800E4D1A21284613
:1030D00001F0E0F8002805D16988032201AB204601
:1030E00003F046FB02B0B0BD5B25645D424C452059
:1030F000636C69656E7420646F6E652E0A00000053
:10310000123400001CD6002070B50D46044600782D
:103110006178090208180C494988884213D10BA02C
:10312000294603F063FF032D0AD3AD1EA61C0DA490
:103130003178204603F05AFF6D1E761C002DF7D122
:103140000A2004F09DF970BD50D600205B424C452A
:103150005F4D41535445525F52585D5B25645D3A63
:1031600020000000253032582000000010B5002457
:1031700000F0DAFE002810D000F0CAFF00280CD0C2
:1031800003F0FCFA7D24A00003F0FEFA600104497C
:1031900003F000FB03F004FB0124204610BDC046F1
:1031A000AC0D000010B582B0144601910090684645
:1031B00003F0FCFA0120002103F0FEFAC6480622C3
:1031C0002146FFF7F1F902B010BDC0466A480088F9
:1031D000401A41424141C8007047C046F0B583B033
:1031E00043490025434B28462A4601F061FB00284D
:1031F00067D000950195812043003F4C2846214629
:103200002A4601F0E9FA002860D03C4908800D20E8
:1032100001903B480090611C00200223024601F00F
:10322000DBFA002857D00E26019636480090A11CE4
:103230000025022328462A4601F0CEFA00284FD066
:103240001227019730480090E11C0296022628467A
:103250002A46334601F0C0FA01972C480090211D00
:1032600028462A46334601F0B7FA019728480090CD
:10327000611D28462A46334601F0AEFA01972548DB
:103280000090A11D28462A46334601F0A5FA02986F
:10329000019021480090E11D28462A46334601F05E
:1032A0009BFA072001901D4800902D3428462146A6
:1032B0002A46334601F090FA01F0C0FA03F082FA90
:1032C00012E017A004F0E4F801250DE014A004F0CA
:1032D000DFF8012508E012A004F0DAF8012503E088
:1032E0000FA004F0D5F80125284603B0F0BDC04674
:1032F0000A180000FC820020232A000080D600204B
:103300007483002084830020388300204C830020B5
:10331000948300206083002028830020EC86002016
:1033200044657620696E666F2073657276696365A1
:1033300020696E6974206661696C7572652E000083
:1033400010B50D480088884214D10820002B10D0F9
:103350000A490A68496819711A700C0EDC710C0C64
:103360009C71090A5971110ED970110C9970110ACA
:10337000597010BD002010BD80D60020F80001203B
:10338000F0B593B0002800D183E0012900D880E097
:103390000546407800287ED002242246D2B2531936
:1033A0001B7A0A339A181B19DCB2401EF6D18C42E4
:1033B00073D1032974D30DA8C01D04900220089175
:1033C00004E00A36F0B20899884269D2295C099172
:1033D0002F1879780A91397A0C91461870190A21B8
:1033E00040560B90BC1C062220463B4903F0F0F9E6
:1033F0000028E6D10B98C0B205900796374E0A9880
:10340000707009983070B01C062206922146FFF7B2
:10341000CBF80C9A727205983072093730460A3030
:103420003946FFF7C1F82E4804F032F82D480999C3
:1034300003F0DCFD2C480A9903F0D8FDB178F2784E
:1034400033797079B479F779079E009001940297E7
:1034500026A003F0CBFD31A00B9903F0C7FD33A0EC
:103460000C9903F0C3FD0020014603F0A5F90DAC53
:10347000324821460CC80CC18CC88CC10088088019
:1034800004981549069AFFF78FF8204603F0A6F92D
:1034900097E72C4802E02A4800E002A003F0F8FF7A
:1034A00013B0F0BD5B7538506172616D6574657203
:1034B0007343757272656E744C656E677468202113
:1034C0003D2075333242756653697A655D206973B4
:1034D000204572726F72000091DA0020980101207D
:1034E0008086002047860020368600204164647272
:1034F0006573733A202020253032583A2025303227
:10350000583A20253032583A20253032583A202572
:103510003032583A20253032580A0000525353496D
:103520003A20202020202025640A00004461746194
:103530004C656E3A20202025640A00002882002075
:10354000AD86002094860020B0B5401E622800D9C8
:10355000C2E10C464D1C40007844808840008744FE
:10356000620080009200A800CC00D900E900FC00B5
:103570000A011901BB01BB01BB01BB01BB01BB01BE
:10358000BB01BB01BB01BB01BB01BB01BB01BB015B
:10359000BB01BB01BB01BB01BB01BB01BB013001D6
:1035A000350142014F01BB0154015C016201BB01C5
:1035B000BB01BB01BB01BB01BB01BB01BB016E0178
:1035C000BB01BB01BB01BB01BB01BB01BB01BB011B
:1035D000BB01BB01BB01BB01BB01BB01BB01730153
:1035E000BB01BB017B01800185018A018F01940130
:1035F00099019E01A301BB01A801BB01BB01BB0155
:10360000BB01BB01BB01BB01BB01BB01BB01BB01DA
:10361000AD01BB01BB01BB01BB01BB01BB01BB01D8
:10362000BB01B201B701A078E17809020918EB48A3
:1036300003F068F8A078E17809020918E84803F077
:10364000D5FCA11DE7A0062203F0C2F80146A07830
:10365000E27812021018002900D13EE1E349088007
:10366000B0BDE2782978DB4803F0BEF828786978A5
:1036700009020918E278D84803F0B8FC00200121BB
:1036800003F0B8F8B0BD2079617909020918E37830
:103690002A78CA4803F0B4F8207961790902091838
:1036A00028786A7812021218E378C54803F09EFC65
:1036B000B0BD2079617909020918B34803F022F8F6
:1036C000211DB248082203F0A1F82079617909028E
:1036D0000818A179E2791202511809040A18207A0F
:1036E000617A09020818A17AE37A1B0259180904C1
:1036F0000B18A7A003F07AFCB0BD2389E288A1884B
:103700009F4803F089F82389E288A1889D4803F047
:103710006DFCB0BD2878697809020918A878EA78A4
:1037200012021218A879EB791B021B18934803F0B8
:1037300073F8B0BDA078E17809020918637922799D
:103740008C4803F05DF8A078E178090209186379E4
:103750002279894803F04AFCB0BDE27829789B4879
:1037600003F042F82878697809020918E278984845
:1037700003F03CFCB0BD287869780902091891482B
:1037800002F0C0FF28786978090209188E4803F012
:103790002DFCB0BD2078617809020918A078E27884
:1037A00012021218644803F03DF82078617809028B
:1037B0000918A078E2781202121860A003F016FC33
:1037C000B0BD21885A4802F09DFFB0BDA01C002169
:1037D00003F02EF80146207862781202121853483E
:1037E00003F02CF8B0BDA01C002103F021F8014625
:1037F00020786278120212184B4803F01FF8B0BD0F
:103800002188484802F07EFFB0BD20786178090227
:103810000918434802F076FFB0BDA27821783F48EE
:1038200002F0E2FFB0BD2078617809020918A07AA1
:10383000E27A12021218384802F0F4FFB0BD2046B6
:103840001146FFF79DFDB0BD2178E0784042C2B23D
:10385000304802F0C9FFB0BD21782B4802F052FF7A
:10386000B0BD2178274802F04DFFB0BD2178244833
:1038700002F048FFB0BD2178204802F043FFB0BD00
:1038800021781D4802F03EFFB0BD2178194802F0B2
:1038900039FFB0BD2178164802F034FFB0BD217861
:1038A000124802F02FFFB0BD21780F4802F02AFF26
:1038B000B0BD21780B4802F025FFB0BD2178134838
:1038C00002F020FFB0BD2178114802F01BFFB0BD0F
:1038D0002178184802F016FFB0BD4549088002F073
:1038E000B3FFB0BD2BA000002AA0000029A000005B
:1038F00028A0000027A0000026A0000025A00000AE
:1039000024A0000023A0000022A000002CA00000A2
:1039100033A0000021A0000016A0000015A00000A8
:1039200014A0000013A0000012A0000011A00000CD
:1039300010A0000034A000000FA000005B4D534712
:103940005F424C455F4D54555F45584348414E4793
:1039500045445F494E445D2048616E646C65203D7E
:1039600020307825582C206D7475203D2025640A60
:10397000000000000EA00000748400200DA00000D4
:103980000CA00000C78500200AA000000BA00000CA
:103990005B4D53475F424C455F4C4C5F464541543D
:1039A0005255455F494E445D2048616E646C652008
:1039B0003D203078254C580A0000000009A0000086
:1039C0003C85002008A000000D85002007A0000015
:1039D000C384002005A000008E85002003A0000005
:1039E0005886002000112233445500009601012022
:1039F0009401012080B5024802F02CFF80BDC04632
:103A0000554200202F480088411A484248417047DB
:103A10002C480088884205D10120002B01D00021CC
:103A20001970704700207047F0B583B014460D46FA
:103A30000146202D00D320251F4F38462A46FEF789
:103A4000B3FD200A1D4E707034700320C1020020A7
:103A50001B4B024600F02CFF0124002828D00097C1
:103A600001951520450200200227294602463B46C3
:103A700000F0B2FE00281BD000960197691C0026BA
:103A8000304632463B4600F0A7FE002810D0009694
:103A90000196A6358120430030462946324600F083
:103AA0009BFE002804D00749088000F0C7FE34467A
:103AB000204603B0F0BDC04644D5002040D50020CC
:103AC0001083002074D6002000207047B0B582B06B
:103AD0000124A10219481A4A102300F047FFFFF7FA
:103AE00011F9002826D0200200900420102128225D
:103AF00008252B4602F0B4FE2D204101114802F0AA
:103B0000B5FE33208101104802F0B6FE0F48302286
:103B1000294602F0B7FE02F0BBFE0D4802F0BEFEE1
:103B20000C4802F0C1FE0C4802F0C4FE0B4802F043
:103B3000C7FE00E00024204602B0B0BD38F00020EF
:103B400088D5002098DA002038F400207C950020E9
:103B5000493B0020653B0020713B0020593B002081
:103B600010B502F063F900240221204602F08EFD18
:103B7000FEF7E8FEFEF724FFFEF7FCFE0F20032110
:103B80000422072302F0A2FE00F036F8FFF7EEFA57
:103B9000002807D0FFF79AFF002805D000F0CAFDE3
:103BA000204610BD03A000E009A003F071FC012035
:103BB00010BDC046626C655F636F6E74726F6C6C33
:103BC00065725F696E6974206572726F722E000093
:103BD000626C655F686F73745F696E69742065728B
:103BE000726F722E0000000080B502F075FE80BD7D
:103BF00080B502F077FE80BD10B52B4802F078FE4C
:103C00002A4802F07BFE2A4802F07EFE294802F094
:103C100081FE294802F084FE284802F087FE2848E9
:103C200002F08AFE274802F08DFE274802F090FE3F
:103C3000264802F093FE264802F096FE254802F040
:103C400099FE254802F09CFE244802F09FFE24487D
:103C500002F0A2FE234802F0A5FE234802F0A8FECF
:103C6000224802F0ABFE224802F0AEFE214802F0EC
:103C7000B1FE214802F0B4FE204802F0B7FE204811
:103C800002F0BAFE1F4802F0BDFE1F4802F0C0FE5F
:103C90000020C4432046214602F0C0FE20462146B3
:103CA00002F0C2FE10BDC046D3BC0200B3BC02008D
:103CB000BBBC0200CBBC0200C3BC0200B955010072
:103CC0006956010061270200012702001527020042
:103CD000710B02005D240200312602009D250200C6
:103CE0008D260200F9250200C52602007D2702006C
:103CF000752702007D0B0200D9E9030001E80300EB
:103D00003DE70300C5EA03009DEA030070B51446D1
:103D10000D4609A0114603F069F9002C08D00CA645
:103D20002978304603F062F9641E6D1C002CF7D12F
:103D30000A2003F0A5FB70BD5B424C455F534C412C
:103D400056455F52585D5B25645D3A2000000000D7
:103D500025303258200000003E480088401A414279
:103D6000414148007047C046F0B583B03B49086008
:103D7000394800240470194E194B2046314622461A
:103D800000F096FD0125002825D0009401944120E3
:103D90008700701C81B2204622463B4600F01CFD85
:103DA000002818D02A490880009401940C37B01CD0
:103DB00081B2204622463B4600F00EFD00280AD084
:103DC0001549088002F036FE002804D021490880F9
:103DD00000F034FD2546284603B0F0BDF0FF00009A
:103DE0001C8300201B480088884208D10220002B39
:103DF00004D00021597018490978197070470020C3
:103E00007047C04680B513460A460349098802F048
:103E100017FE80B280BDC04678D6002080B50B4624
:103E20000299002A0BD10A4A12889A4207D10B4AFA
:103E30001368002B0AD0039A9847002080BD0548DC
:103E40000088984202D1087803490870002080BD9C
:103E500076D600207AD6002090DA002070D5002097
:103E6000F0B58DB0022002F0F1FD1E4802F0F4FD25
:103E70001D4809A90A4638C838C2038813808078CB
:103E800090700024204602F0EDFD08A906208870FD
:103E9000812040000880032520462A4602F0E8FDE4
:103EA000124801AE31468CC88CC18CC88CC10078D8
:103EB0000870B01C0E491722FEF776FB1922204627
:103EC000314602F0DBFD204602F0DEFD0521102226
:103ED000284602F0DFFD0121204602F08BFC0DB0E8
:103EE000F0BDC046088300204082002050820020A0
:103EF000D086002080B505A017210022FFF794FD91
:103F0000FFF76CF90748FFF72FFF80BD48543332A5
:103F10004636373578355F424C455F4D55544952EA
:103F20004F4C4500194A0020F0B58FB05E48022181
:103F300002F0B6FD0024002800D1B1E05B4802F099
:103F4000B5FD002800D1ABE0594802F0B5FD0028CE
:103F500000D1A5E05748042102F0B4FD002800D1AB
:103F60009EE0082000905448544A20210B4602F05D
:103F7000AFFD002800D193E05148062102F0AEFDCC
:103F8000002800D18CE04F48022102F0ADFD00284E
:103F900000D185E00120040200204B494B4A131850
:103FA00059601C8109191C307028F8D1002048493B
:103FB000484A1318596028251D8128311C30702863
:103FC000F7D145480EC800680E900BA80EC00BA88C
:103FD00002F090FD00285ED00020404A404B1918A6
:103FE000CA600C8241218900521830306028F6D115
:103FF0000294BF20C4433B4E20463B4A1718CC22B4
:10400000BE50D023FD522C363030F6D1019200261E
:10401000364F37488019C7600A4602990182114617
:10402000BF183036602EF4D13249334E019A301920
:104030008150C5522C313034F9D1304903A80246A1
:1040400078C978C278C978C202F05AFD002824D015
:1040500000202B492B4A029C13189C819960091956
:1040600020304028F8D127480222214602F04EFD98
:10407000002814D000202449244A115013189C8091
:10408000091910302028F8D120480222214602F0D8
:1040900043FD044604E0002402E0002400E0002484
:1040A00020460FB0F0BDC04620A9002088AD0020FA
:1040B00050AC00204097002000B0002020B000202D
:1040C00030B20020A0AF002060B6002070AE00200B
:1040D00070BE002040B000206C82002068BC002030
:1040E00040AF0020C0BF002070B1002060BA0020A7
:1040F000E0AE002010BF0020B0B000207C82002085
:1041000060B20020FC96002060B4002000A90020CE
:10411000B0B590B018480AAA114638C838C138C896
:1041200038C14020082102F0CFFA14490860002865
:1041300016D0134801AA114638C838C138C838C14A
:1041400038C838C10F480024214602F0C3FA0E498E
:104150000860002809D00D4802F0E4FC012407E0C3
:104160000FA003F095F9002402E009A003F090F9F4
:10417000204610B0B0BDC046C0820020FCC1002067
:104180009C820020C54F0020C4C10020C16E0020C9
:104190006C6C635461736B4964204E554C4C000049
:1041A0006C6C635461736B4D7367517565756549CC
:1041B00064204E554C4C00000348044901600448FB
:1041C000044901607047C046300B0020756F002025
:1041D0002C0B0020A550002010B582B004460D48DD
:1041E000016800290BD00C4802880B689C548B880E
:1041F000511C8AB29A4200D30021018006E001A935
:104200000C7006480068012202F092FC204602B0C1
:1042100010BDC04674D500207CD600207CD500207F
:104220000148024901607047280B00203D4F0020E3
:1042300080B5FEF73DFC7D20800002F0D3F9FEF74B
:10424000EDF880BD0F4900208882086048608860D2
:10425000C86008610C49086048608860C8600861EF
:10426000486108830949086048608860C86008613F
:10427000486108830649086048608860C860086132
:104280007047C04638D6002050D600201CD60020EB
:1042900008D6002010B500290BD000231C461A4672
:1042A000C35CD218641CA3B28B42F9D35042504174
:1042B00010BD012010BD000082B00A4D0AA403E029
:1042C0000146204602F092FE28680022D343694648
:1042D00002F01EFA0028F3D10199009802F02EFC9A
:1042E000F2E7C046FCC100206C6C635F7461736BC5
:1042F00020676574206D7367206661696C65643A38
:1043000025750A0080B5FEF7FFFB02F01DFC80BD9D
:1043100010B50024FFF768FC002808D0FEF7BAFBB0
:10432000002804D0FEF76CFB02F014FC01242046A8
:1043300010BD000010B5094B196009490870094803
:10434000026001200024214602F00AF903210A221A
:104350000523204602F0BAFA10BDC04690010120A4
:1043600064D500208C0101208AB0094801AC2146A7
:104370002CC82CC12CC82CC12CC82CC102F0F0FBBD
:1043800004480021224602F0A5F902F0EFFBFEE707
:10439000D8820020913800200C460546FEF7B4FB79
:1043A00006A003F075F809A0294602F01FFE0CA034
:1043B000214602F01BFEFEF77BFBFEE76F732065D4
:1043C0007272206F6363757273000000636F6465BF
:1043D00020202020203A203078253038580A00004C
:1043E0006F626A6563745F69643A2030782530389B
:1043F000580A0000F0B583B01C4616460F460290DE
:1044000009891348089D2A4602F00CFAF888C0056D
:1044100013D402943C8A0E48401C2146324602F0D6
:1044200001FAA01B81B2A94200D80546AAB2786958
:1044300081190298FEF7B8F807E0398900950298CB
:104440003246234600F0E4FD0546A8B203B0F0BDB5
:1044500015510000F0B585B01D4616460F460121E6
:1044600001701478384602F087FB002800D16EE016
:10447000009701950746C8379D490546481C2146C7
:1044800002F040F9D8350295601E512800D9D9E0D4
:104490004000C046784480884000874451005D0059
:1044A0006F0095009A00A100A700AE00B400BB0009
:1044B000C000C700CC00D300D300D900DF00E60065
:1044C000EC00D300D300F300F90000010501D30094
:1044D0000C01D30013011A01D300D300D300D30081
:1044E000D300D300D300D300D300D300D300D30034
:1044F000D300D300D300D300D300D300D300D30024
:10450000D300D300D300D300D300D300D300D30013
:10451000D300D300D300D300D300D300D300D30003
:10452000D300D300D300D300D300D300D300D300F3
:10453000D300D300D300D300D300D300D3001E0197
:10454000029C20463146019A02F01CFBCBE06848F1
:1045500002F0D2F805B0F0BD3846314602F018FB43
:104560000028029C00D0BEE004A90098088038888A
:1045700048800A20042202F011FBB4E001213046F9
:1045800002F012FB7A889042014600D311463A8825
:10459000914202D2172900D339803A7854498B1CB2
:1045A000C1B2184602F020F90220B8713988009C87
:1045B000204602F0FFFA03A90C80388848800A20C0
:1045C000042202F0EBFA8DE03846314602F0F8FAA8
:1045D00088E0029C20463146019A02F0F7FA82E018
:1045E00038463146019A02F0F7FA7BE0029C2046F9
:1045F0003146019A02F0F6FA75E038463146019AE2
:1046000000F0ECFA6EE0029C20463146019A02F07E
:10461000EFFA68E03846314600F0D6FB62E0029CD3
:1046200020463146019A02F0E9FA5CE0384631460C
:1046300000F066FA56E0029C20463146019A02F0EC
:10464000E3FA50E006223846214602F0E3FA49E058
:1046500038463146019A02F0E3FA43E0029C2046D4
:104660003146019A02F0E2FA3DE038463146019ABD
:1046700000F042FC36E0029C20463146019A02F0EE
:10468000DBFA30E038463146019A00F0D1F929E0F2
:10469000029C20463146019A02F0D4FA23E03846C3
:1046A000314600F093F91DE0029C20463146019A04
:1046B00002F0CEFA17E0029C20463146019A02F041
:1046C000CDFA10E0029C20463146019A02F0CCFA65
:1046D00009E0384600F0D4FB04E038463146019A40
:1046E00000F0DDFB029C204602F0C4FA05B0F0BDEC
:1046F000145200000148024941607047BC0A002082
:104700006151002010B50C46C988C90503D521891F
:1047100000F066FC208210BD01480249016170472B
:1047200064090020355400200121017000487047C1
:10473000FFFF000080B5114802F01CF9104802F09C
:104740001FF9104802F022F90F4802F025F90F482E
:1047500002F028F901F01AFA01F04AF801F032F8F3
:1047600000F09CFC01F034F801F012F800F09CFC21
:10477000FFF7D2FFFFF7BEFF80BDC046B168002043
:104780007D690020E9680020D96900204569002082
:10479000B0B501468B4A1088002810D013888A4A89
:1047A0001468002204E00834521C9A42184608D2C9
:1047B00025888D42F7D865888D42F4D302E0002227
:1047C00000E01846D100804B1B6859184968002941
:1047D00000D01046B0BDC046F0B581B01C461746AB
:1047E0000D461549079B069A00280DD00D46002F4F
:1047F0001BD03846214602F043FA0646681C1022B8
:10480000394602F003F80AE028460F46214602F036
:104810003DFA0646B81C294601F074FF3D46E81CE7
:104820003146224601F0FEFF03E0284601F064FF16
:104830000026304601B0F0BDA5520000F0B581B0B1
:1048400060480188002912D002885F480368002070
:1048500004E00833401C9042114606D25C88002CCC
:10486000F7D11C88002CF4D002E0114600E00020B3
:104870000E4C884206D181B2204601F043FF002051
:1048800001B0F0BDC60002F007FA05464E4F386889
:104890008019458002F006FA0246601C294601F0A4
:1048A000C1FF38688019408801B0F0BDA3520000F4
:1048B000F0B583B001920E46424D298800240029AC
:1048C00002930FD0404A12681788002F0AD0298817
:1048D000083201231C468B4204D2631C178808321D
:1048E000002FF7D18C4205D1A1B21F4801F00AFF79
:1048F000002735E01C4D002813D02E46019D002DC9
:104900002AD00520C102284602F0D2F90746B01C81
:1049100010222946354601F079FF002F0DD10027DE
:104920001EE00520C102304602F0C8F90746E81C27
:10493000314601F0E7FE002FF1D0E000224909687E
:104940000F5208180299416000214180281DA2B22F
:10495000394601F067FF03E0701C01F0CDFE00272F
:10496000384603B0F0BDC04699520000F0B581B0A2
:10497000134D00281FD0002A1DD00C4600291AD044
:10498000002B18D00F490B800F490A6000210F46F9
:104990000E46FF00D151761CF7B29F42F9D3002298
:1049A00000922146134602F08FF9681C214601F05F
:1049B000A9FE01B0F0BD284601F09EFE01B0F0BD99
:1049C0009752000070C0002074C0002070B582B003
:1049D0000E460446102002F07DF900280AD0054654
:1049E0006189A0887278002300930193012A06D080
:1049F000032205E00D4801F07FFE02B070BD0222E7
:104A000000F026FB010607D0C3B218210022284679
:104A100002F066F9024602E0192028700122A088FF
:104A2000294602F063F902B070BDC0462351000070
:104A3000F0B58BB004920C4605460121204602F0E9
:104A4000B3F807460321204602F0AEF803902E4645
:104A50002888001D80B202F03DF9002813D00546D9
:104A600005A8394602F048F9002811D005A8C088E9
:104A7000010701D5C00512D4162128463A4602F096
:104A800041F9024628E01D4801F036FE0BB0F0BDAA
:104A9000162128463A4602F03BF902461CE005A9D9
:104AA000304602F03BF9002801D003460EE0B08802
:104AB0000499491F89B2621D009201910122394671
:104AC000039B00F0C5FA01060CD0C3B2162128469C
:104AD0003A4602F005F90246B088294602F006F986
:104AE0000BB0F0BD28462146049C2246FDF75CFD34
:104AF0001720287077812246EEE7C0462251000039
:104B0000F0B589B00D4604460121284602F04CF864
:104B100006460321284602F047F8029003A83146D2
:104B200002F0EAF807462088001D80B202F0D2F8B1
:104B300000280CD00546002F0ED003A8C08880079F
:104B400010D40C212846324602F0EEF83BE0224811
:104B500001F0D2FD09B0F0BD0C212846324602F02A
:104B6000D7F830E003A9204602F0D8F8002806D094
:104B700003460C212846324602F0B2F823E0A08812
:104B800003AF3946FFF7BEFD388A029A824205D943
:104B90000C212846324602F0CDF814E0801A411C60
:104BA0002088814203DD1018401E03A9088207985F
:104BB000801A81B2A08800916B1C03A9FFF71AFC30
:104BC0000D212970401CA18882B20846294602F0B6
:104BD0008DF809B0F0BDC0461F510000F0B591B08E
:104BE00014460E46074601213046099101F0DCFFCC
:104BF00005460321304601F0D7FF024671480A9569
:104C000029460546089201F00DFE7279681C21467E
:104C100001F008FE07973888001D80B202F05AF8AC
:104C2000002804D00746082C06D3102005E0A81C55
:104C300001F062FD11B0F0BD022006900A9A0899B9
:104C4000501E80B288420AD2701D05900BA802F057
:104C500077F8002603960296099804900FE0082141
:104C6000384602F055F89EE00BA9079C204602F05A
:104C700055F8002834D00390099C002C75D10BA85E
:104C800002F064F8002870D00BAC204602F064F803
:104C90002289A188E81C01F0C5FD0E9801784078B2
:104CA0000002401882B2E188281D01F0BBFD208976
:104CB0000028E1D000240A998842DED3089988426E
:104CC000DAD80BA80599069A02F04CF80028D4D03F
:104CD0000BA8C0888007C7D43004CED10D9ECCE786
:104CE000A0880BA9FFF70EFD0F98801C049989B2CC
:104CF00000220392022904D382B2029B9BB2934208
:104D0000BAD1012903D17870049B5B1C01E0049B9C
:104D10000298029080B299B20A18208882420493C5
:104D200006D90229A8D8001F0BAA1082801C78700F
:104D30000BAC2289384602F01BF807988088218A3C
:104D400000910499891C049189B27B180022039276
:104D50002146FFF74FFB0446681D214601F0D2FCB7
:104D6000049820180490039C87E7049988B20228CD
:104D700002D30920387017E00399080606D0CBB299
:104D8000082138460A9A01F0ABFF0CE0300405D048
:104D9000B2B20821384601F0C7FF04E008213846C6
:104DA0000A9A01F0EBFF0146A81D8CB2214601F0E2
:104DB000A9FC079880883946224601F097FF11B078
:104DC000F0BDC04617510000F0B587B00A46044652
:104DD0000121104601F0E8FE064601A8314601F027
:104DE0008BFF07462088001D80B201F073FF00286A
:104DF0000CD00546002F0ED001A8C088800710D423
:104E00000A212846324601F08FFF2EE01B4801F0B0
:104E100073FC07B0F0BD0A212846324601F078FF46
:104E200023E001A9204601F079FF002806D00346BF
:104E30000A212846324601F053FF16E0A08801AE51
:104E40003146FFF75FFC2088318A814202D3401E41
:104E500001A90882A08801A90A8A00926B1C00227D
:104E6000FFF7C8FA0B212970401CA18882B20846BE
:104E7000294601F03BFF07B0F0BDC0461E510000BF
:104E800080B582B00189002907D000230381808882
:104E900000930193042200F0DBF802B080BDF0B56E
:104EA00089B015460C4607460121204601F07CFEDC
:104EB000064603A8314601F01FFF00280CD0412010
:104EC000800003A9C9880140814205D103A9384661
:104ED00001F024FF002801D009B0F0BDB888E91E18
:104EE00089B2E21C0092019100223146134600F083
:104EF000AFF809B0F0BD0000F0B58BB003920C46DE
:104F0000074601260846314601F04EFE014605A837
:104F1000049101F0F1FE0546102001F0DBFE0028AF
:104F20000CD0002D0FD005A9CA8811073D4613D417
:104F300012210446049A01F0E5FE1AE0274801F028
:104F4000DBFB0BB0F0BD12210446049A01F0E0FE39
:104F5000214606463D460EE005A9D20511D4098A30
:104F6000C91C039B99420CD212210446049A01F0F9
:104F70000BFF21460646A888324601F0B7FE0BB06B
:104F8000F0BD002AD4D5074605A9284601F0C6FE83
:104F9000002805D0034612213C463846049A13E007
:104FA000A8880399C91E89B2E21C009201910022CF
:104FB000049C2146134600F04BF8010609D0C3B209
:104FC000122122463C46384601F08AFE3946064602
:104FD000D1E7132039463870CDE7C0462151000093
:104FE000B0B50C4605460846FFF7D2FB01462948F6
:104FF0000288002091420AD0C900274A126851183D
:1050000049680A68002A02D0284621469047B0BD68
:10501000F0B581B01C4615460E4607460846FFF718
:10502000B7FB01461B480288002091420ED0234660
:10503000C900194A1268511849684C68002C05D0FB
:1050400006980090384631462A46A04701B0F0BD88
:10505000F0B583B01C4615460E4607460846FFF7D6
:1050600097FB01460B4802880020914210D023464E
:10507000C900094A1268511849688C68002C07D089
:105080000998089900910190384631462A46A04770
:1050900003B0F0BD70C0002074C000200848014972
:1050A000C1647047D9610020092040010449054AC4
:1050B0000A50E2480021044A026041607047C0463D
:1050C000500B0020156A0020ED490000F0B587B0B4
:1050D0000546D8482E184520000128180290F848A7
:1050E0002B5C0391497B9768D0682C46503402783A
:1050F000002B45D0002965D0092A00D0B1E0FF215E
:1051000009020F40092109028F4200D0FCE0027A17
:1051100004A90A72027943791B029A188379C57926
:105120002D02EB181B049A180592027843781B0293
:105130009A188378C0780002C01800048018049080
:10514000481C01F027FE07460D460120307000265E
:10515000039A967210208143B9482F303840029B41
:1051600003C3517BB448401C01F0CCFAB64A3A4024
:1051700051208543218830462B4601F011FE55E130
:10518000002970D0092A00D1CAE0072A00D008E11E
:10519000FF231B021F40012673029F4200D015E12E
:1051A00040780E2800D041E1002603988672A2487C
:1051B000401D01F0A7FA21881A203246334601F03B
:1051C000EFFD33E10E2A00D09CE0FF2109023940B7
:1051D00009231B02994200D0E7E0027A04A90A726F
:1051E000027943791B029A188379C4792402E3185F
:1051F0001B049A180592027843781B029A18837848
:10520000C0780002C018000480180490481C01F007
:10521000C1FD0191894A0ACA894A0090084011409B
:105220002F2404400A191027BB43284601F0BEFD75
:10523000002800D1F7E00246F8430121317081498E
:1052400091610399D161019B034000987C4E3040ED
:105250000443029804604360284601F0ADFD002637
:10526000E4E00126E2E0082A00D09CE0FF210902E8
:10527000394009231B02994200D0C1E0027A04A9F7
:105280000A72027943791B029A188379C47924023D
:10529000E3181B049A180592027843781B029A18A7
:1052A0008378C0780002C018000480180490481C5D
:1052B00001F070FD0191614A0ACA614A00900840FC
:1052C00011402F2404400A191027BB43284601F03F
:1052D0006DFD002800D1A8E00246F843012131709D
:1052E000584991610399D161019B03400098544E44
:1052F00030400443029804604360284601F05CFD9E
:10530000002693E0012691E02846039C214601F007
:1053100059FD0026A672617B474801F0F3F985E04C
:10532000FF2109020F4009210902434B8F425AD144
:10533000027A04A90A72027943791B029A188379C6
:10534000C5792D02EB181B049A1805920278437850
:105350001B029A188378C0780002C01800048018D5
:105360000490481C01F016FD07460D4601203070E0
:105370000026039A96721020814331482F3038401E
:10538000029B03C3517B2C48C01D01F0BBF92E4A80
:105390003A4051208543218830462B4601F000FDDC
:1053A00044E0012642E0012640E02846039D2946CC
:1053B00001F008FD204CA01C394601F009FD002633
:1053C000AE72697BE01C01F09DF92FE02846039C3A
:1053D000214601F0F7FC0026A672617B1648001DED
:1053E00001F090F922E02846039C21461D4601F079
:1053F000E9FC0026A672617BA81D01F083F915E087
:105400002846039C214601F0DDFC0B4D2846083060
:10541000394601F0DDFC0026A672617B093528467D
:1054200001F070F902E0022600E00226304607B0E3
:10543000F0BDC04649040000CE36000078C0002010
:1054400000CF87F7A98002002FCF87F770B500281B
:1054500010D00D4600290DD0002A0BD0D168097854
:1054600000240E290FD0082927D11549405C0028B7
:1054700023D10CE01620492100242246234601F0C6
:10548000ADFC204670BD0E49405C002815D00124BB
:105490002C730026EE72FF2004302881304601F084
:1054A000A3FC03C50748EE806E716E61AE61E861D2
:1054B000AC700548314601F025F9204670BDC04664
:1054C00051030000D95D0020CD36000010B5044620
:1054D00000F078FD002802D00C21012006E000F049
:1054E0004BFD002801D1014600E00C212070084648
:1054F00010BD000010B50A46002911D00446906B7B
:1055000000280DD0107C072811D0062816D00528B9
:105510001DD110480068D060104600F075FD13E002
:105520008520C1001C20002301F058FC10BD094853
:105530000068D060104600F06BFD05E0054800688B
:10554000D060104600F06AFD0120207010BD0020E0
:10555000207010BD50080020B0B50D4600290FD0B6
:105560000446A86B00280BD0287C07280FD00628FB
:1055700012D0052817D12846114600F046FD0FE04D
:105580001C200A4900232A4601F028FCB0BD284609
:10559000114600F040FD03E02846114600F048FDAA
:1055A00001202070B0BD00202070B0BD8D0400002F
:1055B00010B50A46002918D00446906B002814D074
:1055C000107C072817D0062823D0052831D1404861
:1055D0000178D068484318490968884200D80146D4
:1055E000D160104600F012FD20E01C20134900237A
:1055F00001F0F4FB10BD36480178D06848430E49ED
:105600000968884200D80146D160104600F004FDC8
:105610000CE02F480178D068484307490968884260
:1056200000D80146D160104600F021FD0120207015
:1056300010BD0020207010BD54080020530400004D
:10564000B0B50D46002919D00446A86B002815D026
:10565000287C072819D0062826D0052835D1E868E7
:105660001B490978FCF75AFF1A490968884200D398
:105670000146E960284600F0CAFC23E01C201649D8
:1056800000232A4601F0AAFBB0BDE868104909785A
:10569000FCF744FF0F490968884200D30146E960DE
:1056A000284600F0BAFC0DE0E86809490978FCF7E3
:1056B00035FF08490968884200D30146E960284659
:1056C00000F0E8FC01202070B0BD00202070B0BDCB
:1056D0005C08002058080020B5040000B0B504465E
:1056E000012500F0D7FB002801D0284608E000F093
:1056F00069FC002801D0012002E000F03DFC0546D5
:1057000020702846B0BD70B504460C26012500F077
:10571000F5FB00280BD100F062FC002807D100F057
:1057200038FC0546002801D12E4600E00C262570E5
:10573000304670BD70B504460C26012500F0DEFB36
:1057400000280BD100F04BFC002807D100F021FC11
:105750000546002801D12E4600E00C262570304673
:1057600070BD10B5044600F0C9FB002803D100F05D
:1057700036FC002803D0002020700C2010BD00F063
:1057800008FC00212170002800D00C2010BD000072
:10579000152000011249074A0A5053208000064A8A
:1057A0000A502920C000054A0A5051208000044AAE
:1057B0000A5070474D63002065620020BD620020E2
:1057C000016200200648014901667047E963002034
:1057D00003480449044A054B8363C263016470476C
:1057E000500B00206F6400201364002041640020EF
:1057F00070470000B0B584B0002808D00446816826
:10580000022001F0F7FA002804D004B0B0BD042053
:1058100004B0B0BDE389A289607C014601F0F0FAD2
:105820000028F2D16269A369217C607C0125009582
:10583000019002900025284601F0E8FA0028E4D102
:10584000206A01F0E9FA0028DFD1A18B606A01F03B
:10585000E9FA0028D9D106480570627C03CC01F032
:10586000E7FA0028D1D101F0E9FA284604B0B0BD2A
:105870000C0D002070B50126067027480078002422
:10588000002801D0204670BDEFF31085EFF31080A3
:1058900072B601F0D9FA00280CD0344C20780028D8
:1058A00004D11F4801F0D6FA0120207085F310883A
:1058B000012070BD2F490846683800682B4A1278CD
:1058C000002A1DD030401BD0052208680B68984282
:1058D00004D0531E12061A46F7D1FF22110613D028
:1058E00023490968814213D90C4A128885F310882C
:1058F000081A5109884200D800263446204670BD57
:1059000085F31088204670BD85F31088204670BD51
:1059100085F31088204670BD5F0900202208002012
:10592000FFFFFF1FB0B501210170EFF31084EFF30B
:10593000108072B60D4D2878002813D00C480068EE
:105940000C490968814205D2491D814204D201F007
:1059500087FA05E0642001E04B20800000F042FE61
:105960000020287084F31088B0BDC0465B09002079
:1059700080000040E8010040B0B584B0002808D0A5
:1059800004468168042001F035FA002804D004B0F0
:10599000B0BD042004B0B0BDE389A289607C01469B
:1059A00001F02EFA0028F2D16269A369217C607CA3
:1059B00001250095019002900025284601F026FA65
:1059C0000028E4D1206A01F027FA0028DFD1A18B5A
:1059D000606A01F027FA0028D9D103CC627A01F07D
:1059E00045FA0028D3D10348057001F045FA28464E
:1059F00004B0B0BD9C0D002070B584B0002808D064
:105A000004468168062001F0F5F9002804D004B0AE
:105A100070BD042004B070BDE389A289A17C607CC4
:105A200001F0EEF90028F2D16269A369217C607C63
:105A3000A57C01260096019002950025284601F0DC
:105A4000E5F90028E3D1206A01F0E6F90028DED16B
:105A5000A18B606A01F0E6F90028D8D103CC627A04
:105A600001F0E6F90028D2D10348057001F00AFAE6
:105A7000284604B070BDC0469D0D0020B0B584B06E
:105A8000002808D004468168032001F0B3F90028FB
:105A900004D004B0B0BD042004B0B0BDE389A28935
:105AA000607C014601F0ACF90028F2D16269A3697B
:105AB000217C607C012500950190029000252846FC
:105AC00001F0A4F90028E4D1206A01F0A5F900282A
:105AD000DFD1A18B606A01F0A5F90028D9D103CCF0
:105AE000627A01F0C3F90028D3D10348057001F0B0
:105AF000CFF9284604B0B0BDBC0D002070B584B00D
:105B0000002808D004468168052001F073F90028B8
:105B100004D004B070BD042004B070BD638A228A32
:105B2000A17D607D01F06CF90028F2D1A17DE068D3
:105B300001F0B4F90028ECD1A269E369217D607D10
:105B4000A57D01260096019002950025284601F0CA
:105B50005DF90028DDD1606A01F05EF90028D8D136
:105B6000218CA06A01F05EF90028D2D103CCA27B7F
:105B700001F07CF90028CCD10348057001F094F9BC
:105B8000284604B070BDC046BD0D00200248034940
:105B90008164034941657047200D00203166002073
:105BA0008165002070B50546554E3068002801D04B
:105BB000012070BD01F07EF92846FFF71BFE044668
:105BC000002801D0204670BD0348306003CD01F0AD
:105BD00077F9204670BDC04684270200F0B581B039
:105BE0000446474F3868002801D001261EE001F026
:105BF00061F903CC637A00252A46083C01F066F976
:105C000003C42068627A2946083C01F065F9A06067
:105C10002046FFF7B1FE0646284601F063F9002E44
:105C200004D10448386003CC01F04AF9304601B091
:105C3000F0BDC046D427020070B50546304E30682E
:105C4000002801D0012070BD01F034F92846FFF78B
:105C5000D3FE0446002801D0204670BD03483060C2
:105C600003CD01F02DF9204670BDC046E4270200A7
:105C7000F0B581B00446224F3868002801D00126D3
:105C80001EE001F017F903CC637A00252A46083C90
:105C900001F01CF903C42068627A2946083C01F02F
:105CA0001BF9A0602046FFF7E9FE0646284601F0F2
:105CB00019F9002E04D10448386003CC01F000F932
:105CC000304601B0F0BDC046F427020070B505466D
:105CD0000B4E3068002801D0012070BD01F0EAF8B9
:105CE0002846FFF70BFF0446002801D0204670BD70
:105CF0000448306003CD01F0E3F8204670BDC04693
:105D0000C00D002004280200B0B501230370D06844
:105D100004780020162C35D87123DB00CB18C04640
:105D20007C4424796400A744151A2D0B2D2D2D2DAC
:105D3000102D0B2D1F2D102D2D2D2D2D242D290037
:105D40000846194601F0D4F8B0BD08461946FFF7D9
:105D50007DFBB0BD0846194601F0D0F8B0BD08463D
:105D6000194601F0D1F8B0BD0846194601F0D2F845
:105D7000B0BD0846194601F0D3F8B0BD0846194633
:105D800001F0D4F8B0BD000080B582B0002001461B
:105D9000024601F0D1F801F0D5F801F0D9F8FCF78E
:105DA00059FF012000030A4988800A4808600091D1
:105DB000E120030308480221084AFCF73FFE08A03F
:105DC00014A117A201F012F9FEF7F6F902B080BD96
:105DD00080D5002038E0002080B00460000800601A
:105DE0005B257320542025735D626C65206D75748E
:105DF000692D726F6C652070726F6A6563742863B9
:105E0000702920737461727420746F20776F726BC5
:105E10002E0A00004A756E203236203230323400AD
:105E200031383A35343A35370000000080B501F09A
:105E300095F801F099F801F09DF8002800D080BD98
:105E400001F09EF8054801F0A1F8022000F0FEFDE7
:105E50000B2001F0A1F8002080BDC04620F5010014
:105E6000084909680A4A1278824203D800200029AA
:105E700007D105E03522D20042438818002900D11D
:105E80000846704778AD0020014800787047C0464A
:105E900072C00020F0B581B0FFF7F6FF002827D0D0
:105EA000044600250126E8B2FFF7DAFF00280FD0EC
:105EB00099300178002907D04078002804D00020CC
:105EC000374600280FD114E0304600280BD110E0EF
:105ED000912001011E202A46234600F07FFF002763
:105EE0003846002805D06D1CAC42DCD1002700E00C
:105EF00000270120384001B0F0BD0000F0B581B0AE
:105F0000FFF7C2FF002828D0044600250126E8B28A
:105F1000FFF7A6FF00280DD08D30017B002905D0AA
:105F2000417B002902D00078002811D0304600289B
:105F30000AD115E01E200C492A46234600F04EFFE8
:105F40000027384600280BD06D1CAC42DFD106E09C
:105F5000002037460028F7D102E0002700E00027A4
:105F60000120384001B0F0BD26090000014800685A
:105F70007047C0467CAD002080B5FFF7F7FF0028D2
:105F800005D03321C900405C411E884180BD0020FE
:105F900080BD80B5FFF7EAFF0146002000290AD046
:105FA0003322D2008A181278002A04D0913108785E
:105FB000411E4842484180BD014800687047C046C4
:105FC00080AD002080B5FFF7F7FF002805D04721FE
:105FD0008900405C411E884180BD002080BD80B5A5
:105FE000FFF7EAFF0146002000290CD0472292006B
:105FF0008A181278002A06D0A531097802220A43AD
:10600000032A00D1012080BD704770477047704758
:10601000172181747047704770477047FF217431B2
:10602000826B642353548374501819214170704754
:1060300070B50A460446FF2108462030A36B1E189F
:10604000B92040001D18185C002807D0FF2A00D88E
:10605000D1B268781A2200F036F8687030780028DB
:1060600001D0012000E00220285CA07470BDB0B512
:106070000446FF20A16B024620328A5C002A08D029
:1060800074300D18287801211A2200F01CF82870AD
:10609000A074B0BDB0B50446FF20A16B024620320B
:1060A0008A5C002A08D074300D18287832216422C6
:1060B00000F003F82870A074B0BD4018904200D8DA
:1060C0000246D0B270475318834200D2421AD0B26F
:1060D00070470000F0B585B016460546EFF3058021
:1060E00002AA95701180D67000240394002800D174
:1060F000E443002E2DD0242E18D801932B48009075
:106100000068002100F04EFF0390002809D12648C6
:10611000009000680027394600F044FF03900028F3
:106120003AD000980068049003980EE0802E27D89B
:1061300001931D4800680027394600F033FF0390A3
:10614000002824D018490968049101993246FCF7C7
:106150002BFA144EF01C294600F0D4FA14480068BB
:1061600002A900273A46234600F022FF002805D066
:10617000321D81B2104600F0C5FA10E001270EE092
:106180000848801C314600F0BDFA002707E00548AA
:10619000401C00F0B1FA02E0024800F0ADFA3846C7
:1061A00005B0F0BD0460000068D500206CD500206B
:1061B0007487002080B582B0019100900022EFF337
:1061C0000580002801D0134600E0D343084800684A
:1061D000694600F0EDFE002806D0014605A000F05B
:1061E00005FF002002B080BD012002B080BDC04686
:1061F000FCC10020626C655F7461736B5F73656ED8
:10620000645F6D73675F746F5F6C6C635F74617301
:106210006B206661696C65643A25750A00000000B0
:1062200080B5282000F00EFA0A2000F00BFA0B20AF
:1062300000F008FA0C2000F005FA0D2000F002FA38
:106240000E2000F0FFF90F2000F0FCF9102000F004
:10625000F9F9352000F0F6F9112000F0F3F91220D9
:1062600000F0F0F980BD00001C4615460E460746BA
:10627000FCF74AFC07A001F00BF90BA039463246A7
:1062800000F0B4FE10A02946224600F0AFFEFCF755
:106290000FFCFEE773797374656D206572726F721F
:1062A000206F6363757273007531364572724D6F7E
:1062B00064756C653A2575207531364572724C6986
:1062C0006E653A25750A0000753332457272496E63
:1062D000666F313A257520753332457272496E66A4
:1062E0006F323A25750A000010B5002417212046A8
:1062F00000F0CCF9FCF730FBFCF778FBFCF744FB33
:106300000249034A2046FEF715F810BD1D50002033
:1063100011500020B0B50C460546C160D0037D2168
:10632000C900FCF7FBF80019A860B0BD10B582B039
:106330000446407D217D00290CD0EFF31081EFF35E
:10634000108272B60022227562682260626A22623E
:1063500081F3108800280AD0EFF31081EFF3108248
:1063600072B600226275E27DA27581F31088A17D6C
:1063700002291ED0002934D1EFF31080EFF31081F1
:1063800072B6E16A002901D0A26A8A6217490A68D6
:10639000A24201D1A26A0A6015490A68A24201D14B
:1063A000E26A0A6080F310880020A062E06202B016
:1063B00010BD002803D02169019122680AE0207EE7
:1063C00001280CD100200190074801A900F016F91E
:1063D000226801992046FFF79DFF02B010BD012001
:1063E000A07502B010BDC046003005606CD600201C
:1063F00070D6002080B5FCF7CFFA80BD70B586B0AE
:10640000172000F01FF9054600282BD1394D012433
:106410002846214600F0D2FD01A9032008747D2002
:10642000C000039011480290281D0190104804906C
:10643000104E304600F0C8FD05460020122100F045
:1064400025F9FCF783FAFCF7C5FAFCF797FA072160
:10645000304600F0BFFD3046214600F0C1FD304619
:1064600000F09CF8284606B070BDC04680C00020F1
:1064700000014900C0810050F0B583B0002821D050
:10648000194908600126F507184C082220462946BC
:1064900000F0DEF8B60706222046314600F0D8F8B4
:1064A0000227204629463A4600F0BAF820463146EF
:1064B0003A4600F0B5F82C2000F0C4F8002804D0CB
:1064C00003B0F0BD102003B0F0BD09480290E120F8
:1064D00040020190074801A900F0C0F80028EFD160
:1064E000FFF78CFF03B0F0BD7895002000B004608A
:1064F0002130010100040060F0B581B00C46054672
:1065000000290AD000210DA60F466A5C304600F033
:106510006DFD7F1CF9B2A142F7D30E4841880E48A9
:10652000008822462B4600F023F90C4800882946B3
:106530002246FDF767FC01B0F0BDC0466D5F7538BF
:1065400052784275665B25645D203D2025303258C7
:106550000A0000001CD600209401012096010120B1
:1065600003B40148019001BD39C4010003B40148DE
:10657000019001BDB978010003B40148019001BD4B
:10658000117A010003B40148019001BD6D7801004A
:1065900003B40148019001BDB17A010003B4014880
:1065A000019001BD1979010003B40148019001BDBA
:1065B000610E020003B40148019001BD45A3010032
:1065C00003B40148019001BDADA0010003B401482E
:1065D000019001BD65BF010003B40148019001BDF8
:1065E000BDBD010003B40148019001BD51F8020096
:1065F00003B40148019001BD1DBF010003B401486F
:10660000019001BD45BF010003B40148019001BDE7
:10661000CDBF010003B40148019001BD698D0100A7
:1066200003B40148019001BD058F010003B4014886
:10663000019001BDE971010003B40148019001BD61
:1066400079DC010003B40148019001BD55720100DD
:1066500003B40148019001BD858E010003B40148D7
:10666000019001BD89DB010003B40148019001BD27
:106670000922010003B40148019001BDD1230100AA
:1066800003B40148019001BD79C0010003B4014881
:10669000019001BD89C2010003B40148019001BD10
:1066A000BDBE010003B40148019001BD81BE0100DF
:1066B00003B40148019001BDF9BD010003B40148D4
:1066C000019001BDD9C0010003B40148019001BD92
:1066D0000114010003B40148019001BD1D23010014
:1066E00003B40148019001BD51EC030003B401481B
:1066F000019001BDE105030003B40148019001BD13
:10670000E9F6020003B40148019001BDFDF6020064
:1067100003B40148019001BDF912010003B401481E
:10672000019001BDB9A0030003B40148019001BD6F
:10673000A511010003B40148019001BD9D120100A3
:1067400003B40148019001BDE12B030003B40148EB
:10675000019001BD3129030003B40148019001BD3E
:106760003D2A030003B40148019001BD012E03003E
:1067700003B40148019001BD4D2F030003B401484B
:10678000019001BD6118020003B40148019001BDF0
:106790002D20020003B40148019001BDFD23020039
:1067A00003B40148019001BD6982020003B40148AD
:1067B000019001BD1528030003B40148019001BDFB
:1067C000FB27030003B40148019001BDB13C030065
:1067D00003B40148019001BDABF6010003B40148C8
:1067E000019001BDD91F030003B40148019001BD10
:1067F000C5F7020003B40148019001BDC92303009D
:1068000003B40148019001BD39F7020003B4014807
:10681000019001BDD9F7020003B40148019001BD08
:1068200025F7020003B40148019001BD11F70200F1
:1068300003B40148019001BD03F9020003B401480B
:10684000019001BD61F7020003B40148019001BD50
:10685000892A030003B40148019001BDD505030056
:1068600003B40148019001BD6D18030003B4014851
:10687000019001BDB95A030003B40148019001BD64
:10688000DD59030003B40148019001BD85180300E0
:1068900003B40148019001BDAF28030003B40148CF
:1068A000019001BDFD05030003B40148019001BD45
:1068B0000506030003B40148019001BDF50503007E
:1068C00003B40148019001BDED05030003B4014884
:1068D000019001BD89A6010003B40148019001BDEA
:1068E000F11A020003B40148019001BD79230200AE
:1068F00003B40148019001BD7520020003B40148B2
:10690000019001BD3920020003B40148019001BD8E
:106910004520020003B40148019001BD812002001E
:1069200003B40148019001BD6920020003B401488D
:10693000019001BD5120020003B40148019001BD46
:106940005D20020003B40148019001BD31E0020066
:1069500003B40148019001BD19E0020003B40148ED
:10696000019001BD25E0020003B40148019001BD82
:10697000B9DF020003B40148019001BDD1DF02007C
:1069800003B40148019001BDF5DF020003B40148E2
:10699000019001BDDDDF020003B40148019001BD9B
:1069A00001E0020003B40148019001BDE9DF0200EB
:1069B00003B40148019001BD0DE0020003B4014899
:1069C000019001BD49E0020003B40148019001BDFE
:1069D0003DE0020003B40148019001BDADDF0200BB
:1069E00003B40148019001BD5DE9030003B401480F
:1069F000019001BD75E9030003B40148019001BD98
:106A000069E9030003B40148019001BD51E90300A5
:106A100003B40148019001BD45E9030003B40148F6
:106A2000019001BD49E2030003B40148019001BD9A
:106A300055E2030003B40148019001BD513A03003F
:106A400003B40148019001BD253D030003B4014892
:106A5000019001BD0559010003B40148019001BD39
:106A60007927030003B40148019001BDE523030029
:106A700003B40148019001BD8D23030003B4014814
:106A8000019001BD5D28030003B40148019001BDE0
:106A90009F28030003B40148019001BDEB280300C7
:106AA00003B40148019001BD3594020003B40148CC
:106AB000019001BD25AA020003B40148019001BD67
:106AC00049A0020003B40148019001BDCD39020084
:106AD00003B40148019001BD7DDC020003B401480C
:106AE000019001BD11F4020003B40148019001BD01
:106AF00015D0020003B40148019001BD192C020019
:106B000003B40148019001BD1959020003B40148C2
:106B1000019001BD5129020003B40148019001BD5B
:106B20002982020003B40148019001BDC5DF0200C3
:106B300003B40148019001BD7DDE010003B40148AA
:106B4000019001BDA5BC020003B40148019001BD44
:106B50007D08010003B40148019001BD61080100F6
:106B600003B40148019001BD4D10010003B4014878
:106B7000019001BDE110010003B40148019001BD85
:106B8000D952030003B40148019001BD393003001C
:106B900003B40148019001BD2944030003B4014836
:106BA000019001BDB105030003B40148019001BD8E
:106BB00099A7030003B40148019001BDA53003006B
:106BC00003B40148019001BD4946030003B40148E4
:106BD000019001BD8931030003B40148019001BD5A
:106BE000ED44030003B40148019001BD09310300E5
:106BF00003B40148019001BDE132030003B4014830
:106C0000019001BDA934030003B40148019001BD06
:106C10003532030003B40148019001BD814E0300E9
:106C200003B40148019001BD3549030003B4014894
:106C3000019001BD6932030003B40148019001BD18
:106C4000B135030003B40148019001BDC331030015
:106C500003B40148019001BDDD30030003B40148D5
:106C6000019001BD8D35030003B40148019001BDC1
:106C70005935030003B40148019001BD09360300F2
:106C800003B40148019001BDF50B030003B40148B2
:106C9000019001BD410C030003B40148019001BD06
:106CA000E10C030003B40148019001BDF10C0300A5
:106CB00003B40148019001BD910C030003B40148E5
:106CC000019001BDA30C030003B40148019001BD74
:106CD000110D030003B40148019001BDC15D030023
:106CE00003B40148019001BD3166030003B40148BB
:106CF000019001BDED16030003B40148019001BDF0
:106D0000190F030003B40148019001BD8766030019
:106D100003B40148019001BD5766030003B4014864
:106D2000019001BD4D17030003B40148019001BD5E
:106D30007B66030003B40148019001BD6366030054
:106D400003B40148019001BD1D10030003B40148C4
:106D5000019001BD1510030003B40148019001BD6D
:106D6000AF0F030003B40148019001BD29100300D7
:106D700003B40148019001BDD1A7030003B4014849
:106D8000019001BD4B66030003B40148019001BDB1
:106D90006F66030003B40148019001BD57EF020084
:106DA00003B40148019001BDDDE0030003B40148D4
:106DB000019001BDFD7A020003B40148019001BDBC
:106DC000CD52020003B40148019001BD05520200FA
:106DD00003B40148019001BD4DF7020003B401481E
:106DE000019001BD6942010003B40148019001BD59
:106DF00031EE020003B40148019001BDA117020069
:106E000003B40148019001BDDD10020003B4014844
:106E1000019001BDF115020003B40148019001BDCC
:106E20004917020003B40148019001BD4913020053
:106E300003B40148019001BD7115020003B401487B
:106E4000019001BD9D0F020003B40148019001BDF6
:106E5000E11A020003B40148019001BD1D180200AF
:106E600003B40148019001BD4D18020003B401486C
:106E7000019001BD9112020003B40148019001BDCF
:106E8000F111020003B40148019001BD3512020066
:106E900003B40148019001BDD513020003B40148B9
:106EA000019001BD6114020003B40148019001BDCD
:106EB0001514020003B40148019001BD1124020021
:106EC00003B40148019001BDE922020003B4014866
:106ED000019001BD3D1E020003B40148019001BDB7
:106EE000751E020003B40148019001BDC91D0200D6
:106EF00003B40148019001BD2178020003B40148A8
:106F0000019001BD8543020003B40148019001BD19
:106F1000B12D020003B40148019001BD11F102003E
:106F200003B40148019001BDC961020003B40148E6
:106F3000019001BDE9C0020003B40148019001BD08
:106F4000ADC3010003B40148019001BD43D7010066
:106F500003B40148019001BD41F9020003B40148A6
:106F6000019001BD5D52010003B40148019001BDD3
:106F70005D58010003B40148019001BDD9530100DF
:106F800003B40148019001BDE955010003B4014873
:106F9000019001BD195A010003B40148019001BDDF
:106FA00091B2010003B40148019001BD4D110100EF
:106FB00003B40148019001BD3514010003B4014838
:106FC000019001BDE1DD010003B40148019001BD64
:106FD000417B010003B40148019001BDE17C010047
:106FE00003B40148019001BD397901000FB410B517
:106FF00003A9044B044A029800F008F810BC08BC2E
:1070000004B01847E54E0020E8860020FFB591B097
:107010000F460546002606E025280AD0149A139943
:1070200090476D1C761C28780028F5D1304615B0A5
:10703000F0BD002400940121F34A029400E00443CF
:107040006D1C2B780846203B98401042F7D12878D9
:107050002A280ED0022128780246303A092A15D86B
:10706000009A0A235A43303A80180C436D1C009052
:10707000F1E701CF0090002805DA01204003044326
:10708000009840420090022004436D1C28782E286E
:1070900015D10420044368786D1C2A280AD101CF39
:1070A0006D1C02900BE002990A22514330394018BE
:1070B0006D1C02902878014630390929F3D92878C7
:1070C0006C2810D006DC4C281AD068280ED06A280C
:1070D00017D104E0742813D07A2812D110E00120CF
:1070E000400504430CE00121090501E003210905E5
:1070F0000C436978814203D10120000524186D1CDE
:107100006D1C287803906E281ED00CDC632831D0CB
:1071100004DC00288AD0582811D1B2E064287BD042
:1071200069280CD178E073282DD004DC6F2870D04A
:10713000702804D1A7E075286CD078286BD0149AF9
:1071400013999047761C62E06002400F022807D036
:1071500003280AD0042838680AD006603F1D56E08C
:107160003868F11706604160F8E738680680F5E78F
:107170000670F3E73878694608740020487404A85C
:107180000390012003E0386803900020C0433F1DB6
:1071900061070FD5002101E00199491C029A019174
:1071A000914213DA8142F7DB019A0399895C002945
:1071B000F2D10BE0002101E00199491C01918142CB
:1071C000FADB019A0399895C0029F5D101990098AD
:1071D000139A401A00902146149B00F03BF9019944
:1071E0008019461807E0039803990078491C039119
:1071F000149A139990470198401E0190401CF2D1B7
:107200002146149B139A009800F014F986196D1CFE
:1072100009E741E033E034E00A20002104900591C1
:107220006002410F022905D001CFC21794460329FD
:1072300005D007E0FF1DFF08FF0003CF06E000B206
:10724000C2179446042902D140B2C1178C460022CD
:107250006146944506DA0A460021404291418C4637
:107260002D2102E0210504D52B216A46117601214A
:1072700003E0E10701D02021F7E7019154E00A2063
:107280000BE0102009E010200490002104200443AA
:1072900008200591029003E0082000210591049048
:1072A0006002410F022905D001CF00229446032934
:1072B00006D006E0FF1DFF08FF0003CF8C4603E069
:1072C00080B2042900D1C0B20021019121072BD541
:1072D0000399702906D0049A1021059B4A401A434D
:1072E00005D00EE040216A461176012108E0614692
:1072F000014306D030216A46117603995176022166
:107300000191049A0821059B4A401A430CD1614619
:10731000014301D1610707D530216A461176012169
:1073200001910299491E02910399582904D037A16D
:1073300003910FA90F910DE039A1F9E76146059B73
:10734000049AFBF701F9039B8C469B5C0F9A521E33
:107350000F92137061460143F0D10F9807A9081AE4
:1073600020300390600704D5012000048443029874
:1073700001E0012002900399884201DD401A00E0FB
:10738000002041180290019809180098401A0090B6
:10739000E00306D42146149B139A009800F05AF893
:1073A00086190020049008E006A9085C149A139935
:1073B00090470498401C761C049001998842F3DBA6
:1073C000E0030CD52146149B139A009800F042F874
:1073D000861904E0149A302013999047761C02997C
:1073E000481E02900029F5DC08E00F980F990078FC
:1073F000491C0F91149A13999047761C0399481EC3
:1074000003900029F1DCFBE609280100303132331A
:1074100034353637383961626364656600000000D0
:1074200030313233343536373839414243444546BA
:1074300000000000F8B5044600251E4617468804E3
:1074400004D405E039462020B0476D1C641EF9D5F0
:107450002846F8BDFFB50446002581B01E46C80386
:1074600001D5302700E02027880404D505E0384600
:107470000399B0476D1C641EF9D5284605B0F0BDD0
:1074800010B50249FCF7A8FE10BD0000E8860020F8
:1074900010B5044601E0FCF79FFE2078641C034908
:1074A0000028F8D10A20FCF797FE10BDE8860020DE
:1074B0001F840020000000004087002034000000EE
:1074C00078870020000600004C84002001000000A6
:1074D000F886002044000000788D0020000800009D
:1074E00020000000000000000000000032840020A6
:1074F00000000000240101202400000000CF002033
:107500000004000059840020000000000001012058
:107510002400000000D3002040020000074001A02A
:10752000000000000000000000001000100000003B
:1075300064000000A000A0000002000000000000A5
:107540000007000018090000000000000000000013
:10755000000000000000000000000000000000002B
:1075600070AE00200001040040B00020280004009C
:1075700040AF00200001020070B10020280004008C
:10758000E0AE002000010200B0B00020280004009E
:10759000168400200100000080C10020440000008B
:1075A00000C70020000800002000000000000000CC
:1075B000000000000384002000000000C8C100207B
:1075C0003400000000C2002000050000C786002033
:1075D00001000000480101204400000090D6002076
:1075E000000400001800000000000000000000007F
:1075F000D93E00204D4000200000000055404D03C2
:1076000003BA0000114700201D470020D547002085
:10761000654A0020F14A0020294B0020FE006578D1
:10762000706572696D656E74616C00004669726D9B
:1076300077617265205265766973696F6E0000002C
:107640004861726477617265205265766973696F0B
:107650006E0000004D616E756661637475726572CF
:10766000204E616D650000004D6F64656C204E75A5
:107670006D6265720000000053657269616C204E96
:10768000756D626572000000536F66747761726594
:10769000205265766973696F6E005B48617264465B
:1076A00061756C745F48616E646C65725D43757280
:1076B00072656E74206D73703A20307825303858BA
:1076C0000A004F63637572656420696E207461738C
