:020000041000EA
:100000004B2A110200000000A4030000EEC3A6E981
:100010007EEEE78880B500F087F90020002100F02F
:100020000DF8292000F00FF8202000F011F800F062
:1000300033F900F013F800F025F980BD4CF2B93C1B
:10004000C0F2000C604747F67D1CC0F2000C604710
:1000500047F6D12CC0F2000C6047000080B54FF08D
:10006000A040012100F075F900060BD1032000F03B
:1000700075F9000606D1012000F075F9000604BFED
:10008000002080BD00F074F94FF47A7000F075F92B
:10009000012080BD2DE9F04381B019B343F2B83897
:1000A0000F4606464FF0FF344FF00009C2F2000839
:1000B0003D46B7F5807F28BF4FF480754FF0A040D4
:1000C000314642462B46CDF8009000F05BF960B90E
:1000D00040462946224600F05AF904467F1B2E442A
:1000E000E6D103E04FF0FF3400E00124204601B0E8
:1000F000BDE8F08310B582B004464FF0000C4FF01D
:10010000A0404FF4805122462023CDF800C000F0DB
:1001100039F9000622D120461C214FF0FF3200F0B1
:1001200036F9E169814219D1E078112816D1A07819
:10013000022813D1E168B1F5002F0FD8606846F2AC
:100140007872C4F26A72904208D1A068FFF7A2FFE9
:100150002169401A18BF012002B010BD012002B071
:1001600010BD00002DE9F0410C4605460E184FF079
:100170000008B4F5803F07D3A8B228B94FF4803700
:100180000321102021E000BFB4F5004F08D328461A
:100190006FF3DF3020B94FF4004702210F2014E045
:1001A00029466FF31F31200BB1FA81F1B8EB143FF0
:1001B00018BF0120490901404FF008004FF4807733
:1001C00018BF0C2018BF4FF4805725FA00F082B2F8
:1001D0004FF0A04047F2305300F0DEF800060BD19C
:1001E0003D44B542A4EB070424BF0020BDE8F081E4
:1001F000B4F5803FC0D2C7E700F0BAF84FF47A7088
:1002000000F0BBF80120BDE8F08100002DE9F047C7
:1002100082B04FF000098AB343F2B83814460E4654
:100220000746C2F2000840F6B83A00BF2546B4F5CA
:10023000807F28BF4FF480754FF0A040394642467A
:100240002B46CDF8009000F09DF890B94FF0A040FB
:10025000314642462B46CDF80090CDF804A000F080
:10026000A0F848B92F44641B2E44DFD14FF0000999
:1002700004E04FF0010901E04FF00109484602B0E7
:10028000BDE8F08780B542F20400C1F200000068CA
:1002900000F08CF880BD0000B0B588B06846FFF76C
:1002A00029FF08B101243CE0DDE90501FFF75AFF11
:1002B00038B100F05DF84FF47A7000F05EF8012478
:1002C0002FE0DDE902020599FFF7A0FF38B100F049
:1002D0004FF84FF47A7000F050F8012421E00399B0
:1002E0000598FFF7D7FE0499884213D14FF0A0403C
:1002F0000021102247F23053002400F04DF805464B
:1003000000F036F828060CD04FF47A7000F035F87B
:10031000012406E000F02CF84FF47A7000F02DF87C
:100320000124204608B0B0BDEC20C6F205000168EB
:100330007F2221F002010160016821F004010160C7
:100340006FF0030143180431342943F8D82CF9D154
:10035000704748F6F57CC0F2000C604747F2613CFC
:10036000C0F2000C604747F21D3CC0F2000C604731
:1003700047F6717CC0F2000C604744F2717CC0F219
:10038000000C604748F69D2CC0F2000C604744F218
:10039000C17CC0F2000C604748F6A10CC0F2000C12
:1003A000604749F2D90CC0F2000C604744F62D0CAE
:1003B000C0F2000C604700000000000000000000D8
:1003C000000000000000000000000000000000002D
:1003D000000000000000000000000000000000001D
:1003E000000000000000000000000000000000000D
:1003F00000000000000000000000000000000000FD
:020000041000EA
:102000000000012055210010692100107B210010E3
:102010008D2100108F210010912100100000000080
:10202000000000000000000000000000D1020000DD
:1020300095210010000000007503000081030000DE
:102040009B2100109D2100109F210010A121001054
:10205000A3210010A5210010A7210010A921001024
:10206000AB210010AD210010AF210010813C0020F9
:10207000B3210010B5210010B7210010B9210010C4
:10208000BB210010BD210010BF210010C121001094
:10209000C3210010C5210010C7210010C921001064
:1020A000CB210010CD210010CF210010D121001034
:1020B000D3210010D5210010D7210010D921001004
:1020C000DB210010DD210010DF210010E1210010D4
:1020D000E32100101D370020E7210010E921001046
:1020E000EB210010ED210010EF210010F121001074
:1020F000F3210010F5210010F7210010F921001044
:10210000FB210010FD210010FF2100100122001012
:1021100003220010052200100722001009220010DF
:102120000B2200100D2200100F22001000000000F2
:10213000000000000000000000000000000000009F
:10214000DFF80CD000F070F800480047E9400020AC
:10215000000001202E4880F308882E4880F30A886A
:102160002D4880472D4800475FEA0E00EFF30881B5
:10217000EFF309822A4B9847FEE75FEA0E00EFF380
:102180000881EFF30982274B9847FEE7FEE7FEE759
:10219000FEE7FEE7FEE7FEE7FEE7FEE7FEE7FEE717
:1021A000FEE7FEE7FEE7FEE7FEE7FEE7FEE7FEE707
:1021B000FEE7FEE7FEE7FEE7FEE7FEE7FEE7FEE7F7
:1021C000FEE7FEE7FEE7FEE7FEE7FEE7FEE7FEE7E7
:1021D000FEE7FEE7FEE7FEE7FEE7FEE7FEE7FEE7D7
:1021E000FEE7FEE7FEE7FEE7FEE7FEE7FEE7FEE7C7
:1021F000FEE7FEE7FEE7FEE7FEE7FEE7FEE7FEE7B7
:10220000FEE7FEE7FEE7FEE7FEE7FEE7FEE7FEE7A6
:102210000000012000F000204D220010412100109C
:10222000513C0020B9370020064C074D06E0E0681D
:1022300040F0010394E8070098471034AC42F6D30D
:10224000FFF782FFE82200101823001082B0002060
:102250000190009042F20001C1F200010091019052
:10226000FFE701984A2810D8FFE70098019950F835
:102270002100019943F20002C2F2000242F821005B
:10228000FFE7019801300190EBE743F20000C2F252
:1022900000004EF60851CEF2000108604EF688505C
:1022A000CEF20000016841F4700101604EF6145056
:1022B000CEF20000016841F010010160016841F4B4
:1022C0008071016002B0704702E008C8121F08C1A7
:1022D000002AFAD170477047002001E001C1121FA7
:1022E000002AFBD1704700001823001000320020A4
:1022F000EC230000C82200100447001000B00020AA
:1023000004000000C82200100847001004B000209C
:1023100018020000D822001030B50B4601460020FC
:102320002022012409E021FA02F59D4205D303FA97
:1023300002F5491B04FA02F52844151EA2F1010218
:10234000F1DC30BD2DE9F05F0546002092469B464A
:1023500088460646814640241BE0284641464746BB
:10236000224600F0E8F953465A46C01A914110D36C
:1023700011461846224600F0CFF92D1A67EB0108E6
:102380004F4622460120002100F0C6F917EB000954
:102390004E41201EA4F10104DFDC484631462A46A6
:1023A0004346BDE8F09F2DE9FE4F804681EA0300D9
:1023B000C00F0C46009021F0004123F00045B8EB1F
:1023C0000200A94105D24046214690461C460B46D4
:1023D000024623F00040104347D0270DC7F30A0000
:1023E000C3F30A510290401A019040286BDAC3F3FC
:1023F000130040F4801B0098924620B10023D2EBDA
:10240000030A63EB0B0B01985946C0F1400250469A
:1024100000F082F906460D4650465946019A00F0F2
:102420009AF910EB08006141002487EA115284EA0E
:10243000E7731A4340D0009A62B3019A012A4FEA27
:10244000075215DC001B61EB02014FF0004202EA6B
:102450000752CDE90042001C41F5801132462B465F
:1024600000F09AF903B0BDE8F08F40462146F9E745
:10247000001B61EB0201001C41F5801300185B4159
:102480002018A2F5001747EB030140EAD570B619F2
:102490006D4111E06D084FEA360645EAC0754FEA16
:1024A0000752001B61EB0201001C41F58011490835
:1024B0004FEA30000019514132462B4603B0BDE8C7
:1024C000F04F00F05AB90098012240000023D0EBF1
:1024D000020263EBE073009821464FEAE074B8EB28
:1024E000000061EB0401E9E783F000435BE781F062
:1024F000004158E72DE9FE4F81EA030404F000444F
:1025000021F0004100944FF0000B23F0004350EA0B
:1025100001045ED052EA03045BD0C3F30A54C1F352
:102520000A552C44A4F2F3340194A0FB0254C1F3E5
:10253000130141F48011C3F3130343F4801301FB2F
:10254000024400FB034E840A970A44EA815447EA96
:102550008357A4FB076802958D0A05FB07854FEAA0
:10256000932C04FB0C542705029D4FEA065847EABA
:102570001637B5EB08056EEB070C870E920E47EA8F
:10258000811742EA8312A7FB0201B6EB0B0164EB51
:1025900000042B0D43EA0C335E1844EB1C50DA4662
:1025A0005146E7FB0201C5F313044FEA0B3343EA3C
:1025B00014534FEA0432019C43EA0603A4F10C04CD
:1025C0000294009CCDE900B400F0E6F803B0BDE849
:1025D000F08F00200146F9E72DE9F04D81EA030470
:1025E00004F0004B21F0004514464FF0000A23F0A0
:1025F000004150EA050220D054EA01021DD0C5F383
:102600000A570246C5F31303C1F31300C1F30A5678
:1026100040F4801543F48013A7EB0608101BD64640
:1026200008F2FD3873EB050002D308F1010801E060
:1026300092185B41B8F1000F03DA00200146BDE8B3
:10264000F08D00204FF48011064684460EE0171BE3
:1026500073EB050705D3121B63EB050306434CEA36
:10266000010C49084FEA300092185B4150EA01071B
:10267000EDD152EA030012D082EA040083EA050198
:10268000084305D0101BAB4106D20122002306E00F
:1026900000224FF0004302E06FF0010253101AEBEA
:1026A00006004CEB085110EB0A0041EB0B01BDE8B2
:1026B000F04D00F062B8C1F30A52C1F3130140F2C9
:1026C000FF3341F480119A4202DA0020014670473C
:1026D00040F233439A42A2F2334202DC524200F00B
:1026E0002AB800F019B8000030B5041E71F10004DA
:1026F00004DB4FF00044404264EB0101141E73F10F
:10270000000405DB1C464FF00043524263EB040318
:10271000994208BF904230BD202A04DB203A00FADB
:1027200002F1002070479140C2F1200320FA03F328
:10273000194390407047202A04DB203A21FA02F026
:102740000021704721FA02F3D040C2F120029140EB
:10275000084319467047202A06DBCB17203A41FA76
:1027600002F043EAE07306E041FA02F3D040C2F11E
:102770002002914008431946704710B5141E73F1AA
:10278000000408DA401C41F1000192185B411A4331
:1027900001D120F0010010BD2DE9F04D92469B467D
:1027A00011B1B1FA81F202E0B0FA80F22032904623
:1027B000FFF7B2FF04460F4640EA0A0041EA0B0168
:1027C00053465A46084313D0114653EA010019D024
:1027D000C8F140025046FFF7AEFF05460E46504690
:1027E00059464246FFF798FF084305D0012004E010
:1027F00020463946BDE8F08D0020054346EAE076E4
:102800002C4337430A986305E40AA0EB0800002232
:10281000FD0A44EA47540A3002D500200146E9E7A0
:10282000010510196941DDE9084500196941BDE854
:10283000F04DA2E780B586B048F28010C5F20000E6
:102840000DF11701049000F0E5FE9DF81710049AB1
:102850000390104600F0E3FE9DF81710890600294A
:1028600014D0FFE748F28010C5F2000005A900F07F
:10287000DBFE9DF81710BDF8142045F2D253C2F2CA
:1028800000030290184600F079FFFFE748F2C010FD
:10289000C5F200000DF11701019000F0BBFE9DF89C
:1028A0001710019A0090104600F0B9FE9DF817101D
:1028B0008906002909D0FFE79DF8171045F2C2509C
:1028C000C2F2000000F05AFFFFE706B080BD000032
:1028D00080B590B00E900D910C9200F0B5FBEFF327
:1028E00008810F910F9945F27852C2F200020990C7
:1028F000104600F043FF00210B919DF838100907A6
:10290000002907D5FFE745F29440C2F2000000F02D
:1029100035FF06E045F2C440C2F2000000F02EFF91
:10292000FFE79DF838004007002809D5FFE745F28A
:10293000B540C2F2000000F021FF0C990B9108E0B5
:1029400045F2A640C2F2000000F018FF0D990B916D
:10295000FFE745F2DB40C2F2000000F00FFF0B99E9
:10296000096845F20852C2F200020890104600F0D1
:1029700005FF0B99496845F21652C2F20002079012
:10298000104600F0FBFE0B99896845F22452C2F212
:1029900000020690104600F0F1FE0B99C96845F25E
:1029A0003252C2F200020590104600F0E7FE0B9989
:1029B000096945F25C52C2F200020490104600F030
:1029C000DDFE0B99496945F24E52C2F200020390B6
:1029D000104600F0D3FE0B99896945F24052C2F2CD
:1029E00000020290104600F0C9FE0B99C96945F239
:1029F0006A52C2F200020190104600F0BFFE0B992D
:102A000089690A914EF62C51CEF2000109688907B6
:102A1000002907D5FFE745F23930C2F2000000F087
:102A2000ADFEFFE74EF62C50CEF200000068C00F5E
:102A3000002807D0FFE745F25430C2F2000000F052
:102A40009DFEFFE74EF62C50CEF2000000684000DD
:102A5000002840F18581FFE745F22430C2F20000F2
:102A600000F08CFE4EF62851CEF2000109680906EE
:102A700000296ED0FFE745F20430C2F2000000F0FA
:102A80007DFE4EF62851CEF200010968C9070029E3
:102A900008D0FFE70A9945F21240C2F2000000F0A8
:102AA0006DFEFFE74EF62850CEF20000006880076A
:102AB00000281DD5FFE70A9945F29F30C2F20000B9
:102AC00000F05CFE4EF62851CEF2000109680906BE
:102AD00000290CD5FFE74EF63450CEF20000016815
:102AE00045F28740C2F2000000F048FEFFE7FFE732
:102AF0004EF62850CEF2000000680007002807D5E7
:102B0000FFE745F2C210C2F2000000F037FEFFE717
:102B10004EF62850CEF200000068C006002807D507
:102B2000FFE745F21820C2F2000000F027FEFFE7A1
:102B30004EF62850CEF2000000688006002807D527
:102B4000FFE745F22110C2F2000000F017FEFFE798
:102B5000FFE74EF62850CEF20000006810F47F4FD9
:102B60007DD0FFE745F24830C2F2000000F006FEDB
:102B70004EF62851CEF200010968C905002907D593
:102B8000FFE745F24700C2F2000000F0F7FDFFE763
:102B90004EF62850CEF200000068800500281DD5B2
:102BA000FFE70A9945F26830C2F2000000F0E6FD46
:102BB0004EF62851CEF200010968090400290CD50F
:102BC000FFE74EF63850CEF20000016845F287402C
:102BD000C2F2000000F0D2FDFFE7FFE74EF62850FA
:102BE000CEF2000000684005002807D5FFE744F654
:102BF000DB70C2F2000000F0C1FDFFE74EF6285086
:102C0000CEF2000000680005002807D5FFE745F276
:102C10006C20C2F2000000F0B1FDFFE74EF6285034
:102C2000CEF200000068C004002807D5FFE745F297
:102C3000B920C2F2000000F0A1FDFFE74EF62850D7
:102C4000CEF2000000688004002807D5FFE745F2B7
:102C50007510C2F2000000F091FDFFE7FFE74EF6AD
:102C60002850CEF200000068000C002877D0FFE763
:102C700045F21630C2F2000000F080FD4EF62851F9
:102C8000CEF200010968C903002907D5FFE744F621
:102C90006570C2F2000000F071FDFFE74EF62850AB
:102CA000CEF2000000688003002807D5FFE745F258
:102CB000E300C2F2000000F061FDFFE74EF628508D
:102CC000CEF2000000684003002807D5FFE744F675
:102CD0003670C2F2000000F051FDFFE74EF62850BA
:102CE000CEF2000000680003002807D5FFE745F298
:102CF0007500C2F2000000F041FDFFE74EF62850DB
:102D0000CEF200000068C002002807D5FFE745F2B8
:102D1000B600C2F2000000F031FDFFE74EF6285089
:102D2000CEF200000068C001002807D5FFE745F299
:102D30001300C2F2000000F021FDFFE74EF628501C
:102D4000CEF2000000688001002807D5FFE744F6B6
:102D50009F70C2F2000000F011FDFFE7FFE7FFE700
:102D600000F02AF9FFE7FEE780B586B005900491F0
:102D7000039200F069F90599049A039B45F2E94C26
:102D8000C2F2000C0290604600F0F8FC019000F0E6
:102D900013F9FFE7FEE7000080B586B000208DF84C
:102DA0001600ADF8140040F60001C6F2000105AAB5
:102DB000049008460391114600F03BFCBDF8141046
:102DC000039A0290104600F039FC0DF11601039AA7
:102DD0000190104600F037FC9DF816204BF21C01C4
:102DE000C2F20001039B0090184600F031FC0499E8
:102DF0008DF81710FFE79DF817009DF81610884210
:102E000014DAFFE79DF817004BF21C01C2F2000133
:102E1000095C45F2E650C2F2000000F0AFFCFFE7AB
:102E20009DF8170001308DF81700E4E745F2E450F3
:102E3000C2F2000000F0A2FC06B080BD81B00146E5
:102E40008DF803009DF9030000280FD4FFE79DF9DA
:102E5000030000F01F01012202FA01F140094EF2C5
:102E60008022CEF2000242F82010FFE701B0704746
:102E700081B001468DF803009DF9030000280FD4AE
:102E8000FFE79DF9030000F01F01012202FA01F1A2
:102E900040094EF20012CEF2000242F82010FFE785
:102EA00001B0704782B002468DF8070000919DF98D
:102EB000070000280AD4FFE7009840019DF9071099
:102EC0004EF20042CEF2000288540BE0009840011E
:102ED0009DF8071001F00F014EF61452CEF20002D9
:102EE0008854FFE702B0704780B586B0DDF820C097
:102EF00004900391029201930298B0F1C04F10D058
:102F0000FFE7029840F20041C6F20001884208D073
:102F1000FFE7029840F60001C6F20001884210D196
:102F2000FFE704984BF20001C6F2040188420CD07E
:102F3000FFE704984BF28001C6F20401884204D0F6
:102F4000FFE710208DF8170032E008984BF20401DB
:102F5000C2F200010860086800280CD0FFE74BF2BD
:102F60001200C2F20000002101804BF21000C2F2F8
:102F700000000180FFE702984BF20C01C2F2000151
:102F8000086004984BF20801C2F20001086003983F
:102F90004BF21401C2F20001086001984BF21801D3
:102FA000C2F20001086000F04FF88DF81700FFE74B
:102FB0009DF8170006B080BD80B582B04BF20400CA
:102FC000C2F200000068002801D1FFE73AE0FFE705
:102FD0004BF21200C2F2000000884BF21001C2F264
:102FE0000001098888422DD0FFE74BF20C00C2F2A5
:102FF000000000684BF20401C2F200010A68126886
:103000004BF21203C2F20003B3F800C012F80C2016
:1030100001911146009300F020FB00990A880132CB
:103020000A800A88019BD3F800C0BCF804C062453E
:1030300007DBFFE74BF21200C2F200000021018023
:10304000FFE7C5E702B080BD80B586B04BF20C004B
:10305000C2F200000068B0F1C04F17D1FFE72B208B
:1030600000F000FB4BF20801C2F2000109684BF2CC
:103070001402C2F2000212680423029008461146AC
:103080001A4600F0F4FA8DF816003AE04BF20C0004
:10309000C2F20000006840F20041C6F2000188421E
:1030A00017D1FFE72C2000F0DDFA4BF20801C2F245
:1030B000000109684BF21402C2F2000212680823F0
:1030C0000190084611461A4600F0D1FA8DF8160014
:1030D00016E02D2000F0C6FA4BF20801C2F2000102
:1030E00009684BF21402C2F2000212680C2300902D
:1030F000084611461A4600F0BAFA8DF81600FFE7A6
:10310000FFE7FFE79DF81600002805D0FFE79DF8D0
:1031100016008DF8170031E0FFE74BF20800C2F20D
:10312000000000684BF21401C2F20001096802229B
:1031300000F0A2FA8DF81600FFE79DF816000028AF
:1031400005D0FFE79DF816008DF8170016E0FFE7A1
:103150004BF21800C2F200000068039043F2210015
:10316000C0F2011004904BF20C00C2F200000068A3
:1031700003A900F086FA8DF81700FFE79DF8170005
:1031800006B080BD80B584B0039002914BF204007C
:10319000C2F20000006800280ED1FFE703988DF806
:1031A00007004BF20C00C2F2000000680DF10701AD
:1031B000012200F06BFA1FE003984BF20401C2F207
:1031C00000010A6812684BF21003C2F20003B3F860
:1031D00000C002F80C0018880130188018880968AF
:1031E0008988884207DBFFE74BF21000C2F200003B
:1031F00000210180FFE7FFE7039804B080BD0000D5
:1032000080B582B0002001904EF20000C6F20400AA
:1032100000F041FA64210090084600F041FA00F005
:1032200073F8012000F02EF800F004F800F084F8A4
:10323000FFE7FEE780B584B0012000210391039AE7
:1032400000F033FA6946039A0A604BF20001C6F2B5
:1032500004014FF0004340F20042C6F200024FF476
:10326000612C0290084619466346FFF73DFE45F281
:10327000A051C2F200010190084600F07FFA04B0AC
:1032800080BD000080B584B001468DF80F0000209D
:103290008DF80E000F200DF10E0201230291114650
:1032A0001A4600F007FA9DF80E10002904D1FFE736
:1032B000562000F004FAFFE710200DF10E01012264
:1032C00000F0F8F99DF80E10002905D0FFE79DF8F1
:1032D0000E0000F0F9F903E0A92000F0F5F9FFE78E
:1032E000002000F0F6F9032164220190084600F066
:1032F000F5F99DF80F1040F6C412009008461146EB
:1033000000F0F1F904B080BD80B584B0022000F077
:10331000EFF9002103900846029100F0EEF90299BE
:103320000190084600F0EEF902990090084600F07E
:10333000EEF904B080BD000080B582B000208DF8A9
:1033400007009DF8070001460328009110D8009956
:10335000DFE801F00205080B00F03AF909E000F09F
:1033600031F906E000F090F803E000F087F800E0A3
:10337000FFE702B080BD000080B596B0172000F0D6
:1033800071F940F60401C6F2000111914BF21C01E3
:10339000C2F2000112914FF47A71139105218DF858
:1033A000541040F20011C0F24901149148F280110A
:1033B000C5F2000111AA109008460F9111460E9215
:1033C00000F0AAF907210F9A0D9010460C9100F019
:1033D000A8F93F210F9A0B9010460A9100F0A6F928
:1033E0000F990990084600F0A6F94BF21C11C2F2A1
:1033F0000001119140F60001C6F200011291042172
:103400008DF8541040F20011C0F20521149148F2D9
:10341000C011C5F20001089008460E9A07911146A6
:1034200000F07AF907990690084600F089F90799A3
:10343000059008460C9900F074F907990490084625
:103440000A9900F073F907990390084600F073F9A0
:1034500001212522029008461146019200F075F9DB
:10346000019900900846FFF7E9FC03210198FFF756
:1034700019FD0198FFF7FCFC16B080BD80B500F087
:1034800039F8FFF779FF80BD80B582B000F032F8DF
:10349000FFF772FF0020ADF80600FFE7BDF8060059
:1034A000FF280ED8FFE7BDF806004BF21C11C2F250
:1034B00000010854FFE7BDF806000130ADF8060032
:1034C000ECE70020ADF80600FFE7BDF8060010307D
:1034D000ADF806009DF8061048F2C010C5F20000D5
:1034E00000F038F94FF47A710090084600F0D8F8EF
:1034F000EBE7000080B58AB02D2000F0B3F84BF266
:103500008001C6F2040102220C23079008460691AE
:10351000114605921A4600F0AAF84FF400310A222B
:10352000069B04901846039100F0A1F806990290BA
:1035300008460599059A00F09FF8069901900846FB
:103540000399059A00F098F84FF46121089143F22D
:103550002101C0F20111099140F60001C6F20001FB
:1035600008AA00900846114600F08BF80AB080BD0A
:1035700080B586B001200B21059100F0E6F8059991
:1035800004900846FFF75AFC03210598FFF78AFCD0
:103590000598FFF76DFC40F60000C6F2000002211E
:1035A000039000F0DCF80821039A0290104600F026
:1035B000DBF84821039A0190104600F0DAF806B0D3
:1035C00080BD000080B5FFF795FFFFF7D1FF80BDFC
:1035D00080B586B03920ADF8140043F23560C3F6EB
:1035E0003700049043F23120C3F233400390FFF7D9
:1035F00081FF40F60000C6F200003021029000F08A
:103600002CF803A90A22029B0190184600F03EF80C
:1036100006B080BD48F21D2CC0F2000C604748F295
:10362000590CC0F2000C604748F2C52CC0F2000CE7
:1036300060474DF6A55CC0F2000C60474DF6ED2CDE
:10364000C0F2000C60474DF6D55CC0F2000C60473C
:103650004DF6F56CC0F2000C60474DF67D7CC0F273
:10366000000C604747F67D1CC0F2000C604749F62D
:10367000210CC0F2000C604749F69D0CC0F2000C12
:1036800060474DF6656CC0F2000C60474EF2CD1CF1
:10369000C0F2000C60474FF6310CC0F2000C6047DE
:1036A00044F2717CC0F2000C60474CF2113CC0F255
:1036B000000C604748F20D7CC0F2000C60474AF6EF
:1036C000596CC0F2000C60474AF6696CC0F2000CFD
:1036D00060474AF6B13CC0F2000C604745F6651CF5
:1036E000C0F2000C604745F6295CC0F2000C604750
:1036F0004AF67D5CC0F2000C60474AF6A95CC0F255
:10370000000C60474AF6FD5CC0F2000C604745F6CD
:10371000214CC0F2000C604748F2653CC0F2000C3E
:10372000604748F2F14CC0F2000C604748F2351C8B
:10373000C0F2000C604748F2151CC0F2000C604754
:1037400048F27D4CC0F2000C60474CF2C51CC0F240
:10375000000C604748F2195CC0F2000C60474EF262
:10376000F90CC0F2000C60474EF2211CC0F2000CB4
:1037700060474DF6B93CC0F2000C60470FB4054BF2
:1037800010B503A9044A029800F0CAF810BC5DF80D
:1037900014FB00006D40002000B000202DE9FF5F09
:1037A00082B00021DDE90430020DDDF840B00343B2
:1037B00018D044F61050A2F2FF324243151411986B
:1037C00001281FD0A5EB0B00401C5FEA000A4FF058
:1037D00000064E4FDFF83891B046504615D5CAF175
:1037E000000413E0119801244AA3012801D16FEAD3
:1037F0000B010298119AC0E90031C0E9024206B0FB
:10380000BDE8F09FCBF10000DFE704460021404A0D
:10381000491842EB0450CDE9001012E0E00707D050
:1038200032463B4640464946FEF764FE804689469E
:1038300032463B4610461946FEF75CFE06460F46EA
:103840006410002CEAD1DDE90401DDE90023BAF1BE
:10385000000F06DAFEF74EFE42464B46FEF74AFEE2
:1038600005E0FEF7B9FE42464B46FEF7B5FE0446BC
:103870000E460022284BFEF737FF03D84FF0FF30EB
:10388000014607E00022254B20463146FEF78BFD1E
:10389000FEF711FF102409E0002C0ADB0A220023A6
:1038A000FEF750FD039B30321A55641E50EA0102A8
:1038B000F2D1641C039AC4F111031444119A012A31
:1038C00003D0012208430DD10AE0084304D00020B0
:1038D0004FF0110B119072E7A3EB0B056D1E0DE07D
:1038E0005B4504DD4FF0000205F1010504E003DA59
:1038F0004FF00002A5F10105002AECD002981199C1
:10390000C0E90231C0E9004579E700000000144039
:103910000000F03F300000000000F0430000E03FF6
:103920002DE9FF4F95B09B468946064600250FE2DC
:10393000252877D100242746F84A0121059400E084
:10394000044316F8013F203B01FA03F01042F7D17F
:1039500030782A2811D06FF02F033078A0F1300290
:10396000092A16D8059A44F0020402EB820203EBFE
:1039700042021044761C0590EFE759F8042B05929B
:10398000002A03DA504244F40054059044F0020443
:10399000761C30782E2816D116F8010F44F0040456
:1039A0002A280DD06FF02F023078A0F13003092BB8
:1039B00009D807EB870302EB4303C718761CF3E72C
:1039C00059F8047B761C30786C280FD006DC4C2824
:1039D00017D068280DD06A2814D104E0742810D0BC
:1039E0007A280FD10DE044F400140AE044F4801466
:1039F00001E044F440147278824202D104F580144C
:103A0000761C761C307866280BD013DC582877D0CB
:103A100009DC002875D04528F6D04628F4D0472880
:103A20001AD19DE118E0632835D0642879D0652843
:103A300012D195E1702873D008DC6728F1D069288D
:103A40006FD06E280DD06F2806D1B5E073282CD02A
:103A5000752875D0782874D05A46179990476D1CF0
:103A600075E1C4F30250022809D003280DD0D9F81B
:103A7000001004280DD00D6009F1040967E1D9F8A0
:103A80000010EA17C1E90052F6E7D9F800100D80DE
:103A9000F2E70D70F0E719F8041B8DF80010002014
:103AA0008DF80100EA46012003E059F804AB4FF01D
:103AB000FF3061074FF0000102D40DE008F1010171
:103AC0008846B9420FDA8045F8DB1AF80810002959
:103AD000F4D108E008F1010188468142FADB1AF8C6
:103AE00008100029F6D105985B46A0EB080721468F
:103AF0003846179A00F094FA284400EB080507E0CE
:103B00004DE029E10DE01AF8010B5A46179990474C
:103B1000B8F10108F7D25B4621463846179A13E1FF
:103B200042E00A220092C4F302524FF0000A022A35
:103B300008D059F804CB032A4FEAEC710AD00DE003
:103B400029E02AE009F1070121F00702F2E802C1A9
:103B5000914609E00FFA8CFC4FEAEC71042A03D17C
:103B60004FFA8CFC4FEAEC71002907DA0A46002173
:103B7000DCF1000C61EB02012D2202E0220504D5EC
:103B80002B228DF80420012203E0E20701D020223D
:103B9000F7E7904659E00A2102E010220DE01021DB
:103BA0004FF0000A00910BE010224FF0000A44F0A1
:103BB00004040827009203E008224FF0000A009254
:103BC000C4F30252022A05D059F804CB0021032A7B
:103BD00008D009E009F1070121F00702F2E802C16B
:103BE000914605E01FFA8CFC042A01D10CF0FF0C71
:103BF0004FF00008220728D5702806D0009B83F0DC
:103C0000100353EA0A0305D00EE040228DF8042089
:103C1000012208E05CEA010206D030228DF804207F
:103C20008DF8050002229046009B83F0080353EABA
:103C30000A030AD15CEA010201D1620705D53022EC
:103C40008DF804204FF001087F1E582804D034A0BE
:103C500003900EA802900DE036A0F9E753466046A7
:103C6000009AFEF76FFB84460398825C0298401E20
:103C7000029002705CEA0100F0D1029806A9081ACD
:103C800000F1200A600702D524F4803400E0012707
:103C9000574502DDA7EB0A0000E0002000EB0A0117
:103CA000009005984144401A0590E00306D45B4615
:103CB0002146179A059800F0B3F90544002706E05D
:103CC00001A85A46C05D179990476D1C7F1C474557
:103CD000F6DBE0030CD55B462146179A059800F009
:103CE0009FF9054404E030205A46179990476D1C0F
:103CF0000099481E00900029F5DC08E0029802991E
:103D00005A460078491C0291179990476D1CBAF1E8
:103D10000001AAF1010AF1DC65E1000009280100B7
:103D20003031323334353637383961626364656631
:103D300000000000303132333435363738394142F3
:103D4000434445460000000000F058F90544761C45
:103D5000307800287FF4ECAD19B02846BDE8F08F2C
:103D6000620700D4062709F1070222F0070CFCE8DD
:103D70000223E14603F000485FEA080C02D00FF28C
:103D8000702C0DE05FEA045C02D50FF2682C07E0AE
:103D90005FEAC47C02D00FF2602C01E0AFF2700C3D
:103DA0004FF0FF3823F00043CDF850C065280CD009
:103DB00006DC452809D046281DD047283DD13DE0E6
:103DC000662818D067287ED138E00021112F01DB4A
:103DD000112000E0781CCDE9000106A90EA8FFF72C
:103DE000DDFCDDE90F010E9A03910021009207F13D
:103DF000010A04914DE04FF000400097CDE9011019
:103E000006A90EA8FFF7CAFCDDE90F0203920E9B7C
:103E100011990022DDF80CA00093049211B9791CCD
:103E200000EB010AB7EB0A0004D4C0F1FF3007F140
:103E3000010A0490AAEB0700019044E0012F00DA88
:103E400001270021112F01DD112000E03846CDE9C6
:103E5000000106A90EA8FFF7A1FCDDE90F010E9AEB
:103E60000391002104910092BA4621070CD40399D2
:103E7000514500DA8A46BAF1010F05DD009AAAF130
:103E80000101515C302908D0B84202DA10F1040F68
:103E900006DA0121CDE9011015E0AAF10101E9E7F7
:103EA000002805DC049901440491AAEB000102E01A
:103EB000411C514500DD8A460499401A401C01907E
:103EC0004FF000400290200704D40198504501DBD8
:103ED000CDF8048000208DF84F0002980DF14F07B7
:103EE000B0F1004F25D02B200E9002984FF0020821
:103EF00000280CDA404202902D200E9007E00A21A3
:103F00000298FEF709FA3031029007F8011DB8F166
:103F10000001A8F10108F2DC02980028EFD1791E17
:103F20000E980870307800F0200040F0450007F847
:103F3000020D12A8C01B00F107081498007800B108
:103F4000012000EB0A01019801EBE0710598414462
:103F5000401A401E0590E00306D45B462146179A9E
:103F6000059800F05DF805441498007818B15A4699
:103F7000179990476D1CE00324D55B462146179A9C
:103F8000059800F04DF805441CE00498002807DB74
:103F9000DDE90301884203DD0098405C179901E0E8
:103FA000179930205A469047049805F10105401CA6
:103FB00004900198401E019004D12E205A46179972
:103FC00090476D1CBAF10001AAF1010ADDDC05E0A1
:103FD00017F8010B5A46179990476D1CB8F100016C
:103FE000A8F10108F4DC5B462146179A0598ABE678
:103FF0002D0000002B000000200000002DE9F04102
:10400000044600251E461746880404D405E03946B8
:104010002020B0476D1C641EF9D52846BDE8F0810C
:104020002DE9F041044600251E469046C80301D5FF
:10403000302700E02027880404D505E041463846B3
:10404000B0476D1C641EF9D52846BDE8F0815B4978
:104050004E5650435D616E20696E74656772697477
:104060007920636865636B206572726F7220686186
:1040700073206F636375727265640D0A005B554E41
:10408000444546494E5354525D616E20756E6465D9
:1040900066696E656420696E737472756374696FA6
:1040A0006E206572726F7220686173206F63637532
:1040B000727265640D0A005B44495642595A455272
:1040C0004F5D616E20696E74656765722064697604
:1040D0006973696F6E206279207A65726F206572EC
:1040E000726F7220686173206F63637572726564AA
:1040F0000D0A005B494D5052454349534552525DAC
:10410000496D7072656369736520646174612061D3
:104110006363657373206572726F722068617320C8
:104120006F636375727265640D0A005B554E414C96
:1041300049474E45445D616E20756E616C69676EDE
:10414000656420616363657373206572726F7220AA
:10415000686173206F636375727265640D0A005B3A
:10416000494255534552525D696E7374727563745A
:10417000696F6E20627573206572726F722068615C
:1041800073206F636375727265640D0A005B4E4F36
:1041900043505D6120636F70726F636573736F72FC
:1041A0002064697361626C6564206F72206E6F7445
:1041B0002070726573656E74206572726F7220680C
:1041C0006173206F636375727265640D0A005B53DF
:1041D000544B4F465D6120737461636B206F76654D
:1041E00072666C6F77206572726F722068617320DF
:1041F0006F636375727265640D0A005B494E5653B6
:10420000544154455D20616E20455053522E542038
:104210006F7220455053522E49542076616C696468
:10422000697479206572726F7220686173206F63A0
:104230006375727265640D0A005B4D4C53504552B4
:10424000525D41204D656D4D616E6167652066610F
:10425000756C74206F636375727265642064757227
:10426000696E6720666C6F6174696E672D706F6927
:104270006E74206C617A7920737461746520707239
:1042800065736572766174696F6E0D0A005B4C53DD
:10429000504552525D4120627573206661756C74A1
:1042A000206F6363757272656420647572696E67EE
:1042B00020666C6F6174696E672D706F696E742013
:1042C0006C617A79207374617465207072657365AE
:1042D00072766174696F6E0D0A005B4D554E5354D2
:1042E0004B4552525D556E737461636B20666F72FD
:1042F00020616E20657863657074696F6E207265E9
:104300007475726E206861732063617573656420D3
:104310006F6E65206F72206D6F72652061636365DB
:1043200073732076696F6C6174696F6E730D0A0028
:104330005B4D53544B4552525D537461636B696ED0
:104340006720666F7220616E20657863657074699E
:104350006F6E20656E747279206861732063617579
:10436000736564206F6E65206F72206D6F726520BB
:104370006163636573732076696F6C6174696F6ED6
:10438000730D0A005B554E53544B4552525D556EAA
:10439000737461636B20666F7220616E2065786351
:1043A000657074696F6E2072657475726E206861D5
:1043B0007320636175736564206F6E65206F722072
:1043C0006D6F7265204275734661756C74730D0A6A
:1043D000005B53544B4552525D537461636B696E7D
:1043E0006720666F7220616E2065786365707469FE
:1043F0006F6E20656E7472792068617320636175D9
:10440000736564206F6E65206F72206D6F7265201A
:104410004275734661756C74730D0A004D656D4D80
:10442000616E616765204661756C740D0A00557395
:10443000616765204661756C740D0A00436F6E6696
:104440006967757261626C65204661756C740D0AEE
:1044500000566563746F72204661756C740D0A00B6
:10446000427573204661756C740D0A00446562756F
:1044700067204576656E74204661756C740D0A0080
:104480005B5052454349534552525D20646174610B
:1044900020627573206572726F7220686173206F7D
:1044A000636375727265642C205043203A20307823
:1044B000253038780D0A005B4441434356494F4C40
:1044C0005D205468652070726F636573736F72202E
:1044D000617474656D707465642061206C6F6164D3
:1044E000206F722073746F72652061742061206C7C
:1044F0006F636174696F6E207468617420646F65A6
:1045000073206E6F74207065726D697420746865B5
:10451000206F7065726174696F6E2C205043203A71
:10452000203078253038780D0A005B4941434356E6
:10453000494F4C5D5468652070726F636573736F8B
:104540007220617474656D7074656420616E206999
:104550006E737472756374696F6E206665746368D8
:104560002066726F6D2061206C6F636174696F6E7D
:10457000207468617420646F6573206E6F7420709E
:1045800065726D697420657865637574696F6E2CEA
:10459000205043203A203078253038780D0A0041E9
:1045A00054203A3078253038780D0A004F6363750F
:1045B00072656420696E207461736B2E0A005573F6
:1045C000696E67207533324D73702E0A005573691A
:1045D0006E67207533325073702E0A004F63637517
:1045E00072656420696E20696E746572727570748C
:1045F0002E0A00537461636B206672616D653A0A1E
:10460000004E4D495F48616E646C65723A202530FA
:1046100038582C20253038582C20253038580A009E
:10462000523020203A203078253038580A00523154
:1046300020203A203078253038580A005232202085
:104640003A203078253038580A00523320203A205A
:104650003078253038580A00504320203A203078EE
:10466000253038580A004C5220203A203078253026
:1046700038580A00523132203A20307825303858E4
:104680000A00785053523A203078253038580A00C2
:104690005B486172644661756C745F48616E646CFE
:1046A00065725D43757272656E74206D73703A2029
:1046B0003078253038580A005541525420657861C9
:1046C0006D706C6520636F64652073746172742013
:1046D000746F20776F726B2E0A00444D413720496A
:1046E0004E543A20253032580A00444D4136204974
:1046F0004E543A20253032582C2025640A002530AB
:08470000325820000000000007
:040000051000215571
:00000001FF
