:020000040800F2
:100000002807002051020008190500081105000802
:10001000150500080905000885050008FFFFFFFF1A
:10002000FFFFFFFFFFFFFFFFFFFFFFFF21050008AE
:100030000D050008FFFFFFFF1D050008250500084E
:100040006B0200086B0200086B0200086B020008DC
:100050006B0200086B0200086B0200086B020008CC
:100060006B0200086B0200086B0200086B020008BC
:100070006B0200086B0200086B0200086B020008AC
:100080006B0200086B0200086B0200086B0200089C
:100090006B0200086B0200086B0200086B0200088C
:1000A0006B0200086B0200086B0200086B0200087C
:1000B0006B0200086B0200086B0200086B0200086C
:1000C0006B0200086B0200086B0200086B0200085C
:1000D0006B0200086B0200086B0200086B0200084C
:1000E0006B0200086B0200086B0200086B0200083C
:1000F0006B0200086B0200086B0200086B0200082C
:100100006B0200086B0200086B0200086B0200081B
:100110006B0200086B0200086B0200086B0200080B
:100120006B0200086B0200086B0200086B020008FB
:100130006B0200086B0200086B0200086B020008EB
:10014000FFFFFFFFFFFFFFFFFFFFFFFFFFFFFFFFBF
:100150006B0200086B0200086B0200086B020008CB
:100160006B0200086B0200086B0200086B020008BB
:100170006B0200086B0200086B02000800F002F836
:1001800000F057F814A696E8000CB244B344DA45E0
:1001900001D100F04EF8BAE80F000FA696E8300043
:1001A000A5EB040504EB0607AAEB0704A7F101077A
:1001B0004FEA15154FEA3414A4F10104AC4201D3FF
:1001C00000F037F813F0010F18BFFB1A43F00103DA
:1001D00000F001F8DBE71847E81200000813000000
:1001E000103A24BF78C878C1FAD8520724BF30C863
:1001F00030C144BF04680C607047000070470000C5
:100200000023002400250026103A28BF78C1FBD81F
:10021000520728BF30C148BF0B607047642900F007
:100220007980002070471FB501F039F91FBD10B566
:1002300010BD00F037F91146FFF7F5FF00F08EFF13
:1002400000F055F903B4FFF7F2FF03BC00F09CF98E
:100250000948804709480047FEE7FEE7FEE7FEE75A
:10026000FEE7FEE7FEE7FEE7FEE7FEE70448054996
:10027000054A064B70470000290500087D0100086B
:100280002801002028070020280300202803002040
:10029000704700000FB4044910B503AA029800F09B
:1002A000D3F810BC5DF814FB900000202DE9F0415C
:1002B0000E460446002020622046E168884730B39D
:1002C000252805D0D4E901219047206A401CF2E797
:1002D000E168204600278847050018D0A5F14100B5
:1002E000192802D820354FF40067324629462046A7
:1002F0002760FFF793FF40B1012804D0F61D26F0D8
:1003000007060836D8E7361DD6E72846DAE7206A1A
:10031000BDE8F0812DE9F0410646002410687529FA
:10032000314616A510D0AFF30080002802DA404213
:1003300013A507E031688A0701D512A502E0490735
:1003400004D511A5012401E0AFF3008000210A22A9
:1003500006F1240709E0B0FBF2FCB0FBF2F302FB6C
:100360001C00303078541846491C0028F3D123462D
:100370002A463046BDE8F04100F00CB8000000000D
:100380002D0000002B000000200000007047704787
:10039000704770472DE9F0470D469946924604464E
:1003A00000F124080168880604D5E06921F01001F5
:1003B000216000E00120A84201DD471B00E000278A
:1003C000A1697A1902EB0900081AA0612078C00619
:1003D00002D42046AFF30080002608E0D4E90121D2
:1003E0001AF806009047206A401C761C20624E4591
:1003F000F4DB2078C0060AD52046AFF3008006E083
:10040000D4E9012130209047206A401C2062381E28
:10041000A7F10107F4DC07E0D4E9012118F8050091
:100420009047206A401C2062281EA5F10105F3DCDC
:100430002046AFF300802078000602D50220BDE8F8
:10044000F0870120FBE70000074B70B50D467B44A9
:1004500000F011F80446284600F020F810B14FF0E3
:10046000FF3070BD204670BD3305000001694A1C95
:1004700002610878704700B58FB0CDE901310021E5
:10048000059105497944CDE9031011466846FFF707
:100490000DFF0FB000BD0000E5FFFFFF007B00F087
:1004A00080007047754600F02BF8AE46050069469F
:1004B000534620F00700854618B020B5FFF7D6FE5A
:1004C000BDE820404FF000064FF000074FF0000855
:1004D0004FF0000BAC46ACE8C009ACE8C009ACE892
:1004E000C009ACE8C00921F007018D46704710B57E
:1004F0000446AFF300802046BDE81040FFF7A2BEDF
:100500000048704730000020FEE700007047000000
:10051000FEE70000FEE700007047000070470000A3
:1005200070470000704700004EF68850CEF2000081
:10053000026841F2000142F47002C4F2020102605A
:100540000A6842F001020A600A689207FCD54A680C
:1005500022F003024A6000BF4A6812F00C0FFBD180
:100560000A684FF6FF73CFF6F2631A400A60002262
:100570004A600A634FF41F028A604FF0006140F83E
:10058000801C7047FEE700007047000041F2040144
:10059000C4F202010A6800F00F0022F0F00242EA01
:1005A000001008607047000041F20401C4F202012B
:1005B0000A6800F0070022F4E06242EA00200860C6
:1005C0007047000041F20401C4F202010A6800F021
:1005D000070022F4605242EAC02008607047000021
:1005E00041F25401C4F202010A68012822F03002EB
:1005F00008BF30320A607047042888BF7047DFE8C0
:1006000000F0032B15220C0041F20000C4F202009E
:10061000026861F300020260704741F20000C4F218
:100620000200426A61F300024262704741F2000038
:10063000C4F20200026801F0010122F0807242EA75
:1006400001610160704741F20000C4F20200026AD9
:1006500061F300020262704741F20000C4F202003E
:10066000026801F0010122F4803242EA0141016096
:100670007047000041F20401C4F202010B6841F22C
:10068000002CC0F27A0CC3F38103B0B5DFE803F0AD
:100690002C023702C0F800C00A682FA3C2F303126D
:1006A0009A5C036841F2B84523FA02F242600B6893
:1006B000C0F60005C3F30223EB5C22FA03F3C36028
:1006C0000B68C3F3C223EB5C0425DA4082600B683D
:1006D000096805EA9363C1F38131194422A3595C87
:1006E000B2FBF1F10161B0BD0A6D9205D2D5CA6AC3
:1006F000920144BF46F6004CC0F2DC2CCAE7D1F8A8
:1007000000E00B680A689B0CC2F34172140103F00D
:100710000F0301340F2B254618BF0225002A18BFEE
:1007200025465FEACE322B4406D440F60012C0F2D2
:100730003D0203FB02FCADE70A68920302D403FB0F
:100740000CFCA7E70A6DC2F301320232BCFBF2F2E5
:1007500002FB03FC9EE700BF000000000000000059
:10076000010203040607080902040608020C081027
:1007700041F20002010CC4F20202895800F01F008D
:1007800021FA00F000F001007047000041F254012E
:10079000C4F202010A6800F0030022F4405242EA67
:1007A000003008607047000041F200000021C4F2F0
:1007B000020000BF0268920304D4B1F5405F01F16A
:1007C0000101F7D30068C0F34040704741F20002D6
:1007D00000F01F034FF0010CC4F2020201290CFAD1
:1007E00003F14FEA1040835814BF23EA0101194373
:1007F0008150704741F2000200F01F034FF0010CDE
:10080000C4F2020201290CFA03F14FEA10408358A6
:1008100014BF23EA010119438150704780B541F2AA
:10082000040EC4F2020EDEF800C070B14CF4803346
:10083000CEF80030DEF800C0012814BF4CF40030C0
:100840002CF40030CEF8000009E02CF48030CEF813
:100850000000DEF82C0040F00070CEF82C00DEF82E
:10086000000061F39540CEF80000DEF800000909B1
:1008700061F35E70CEF80000DEF8000020F000406A
:1008800040EAC270CEF8000080BD000041F20000D6
:10089000C4F20200016841F00101016001688907AA
:1008A000FCD5416821F00301416000BF416811F0AF
:1008B0000C0FFBD101684FF6FF72CFF6F2621140C8
:1008C00001600021416001634FF41F0181607047A6
:1008D00041F20401C4F202010A6860F301020A60F5
:1008E00000BF00BF00BF00BF00BF00BF00BF00BF10
:1008F00000BF00BF00BF00BF00BF00BF00BF00BF00
:1009000000BF00BF00BF00BF7047000041F20400FD
:10091000C4F202000068C0F381007047002808BFDD
:10092000704780B54EF2100140F2E40ECEF20001A5
:10093000C2F2000E4FF0320C002300BF82B2332A05
:1009400006D3DEF80020323802FB0CF24A6004E0E5
:10095000DEF800005043486000208B600A6842F0D7
:1009600001020A600A6802F00112012AFAD00A683C
:1009700022F001020A6002048B60DFD1BDE88040F2
:1009800070470000B0B543F600050446C4F2010507
:100990002846802100F012FD0028F9D0A1B2284697
:1009A00000F0FEFC2846402100F008FD0028F9D0A8
:1009B0002046B0BD40F200424FF6FF71C0F2001277
:1009C000C0E9001270470000B0B58B790A88032B8C
:1009D0000BD07BB94979282901F00F0E18D01829BE
:1009E00008BF0261110616D12EE04FF0000E11066D
:1009F00011D129E003F0080C0B79C97903F0040345
:100A0000634401F0030103EB010E110603D11BE067
:100A10004261110618D000234FF00F0C002104E0B2
:100A20000131082903F104030ED022FA01F4E4078E
:100A3000F6D004680CFA03F5AC43046004680EFABF
:100A400003F52C430460EBE7B2F5807F38BFB0BDFF
:100A5000120A00234FF00F0C002104E00131082995
:100A600003F104030ED022FA01F4E407F6D044683F
:100A70000CFA03F5AC43446044680EFA03F52C43CA
:100A80004460EBE7B0BD000080680840401AB0FA4F
:100A900080F04009704700002DE9F04182B0042049
:100AA00000F028FC40F22000C2F2000000684DF681
:100AB0008361C4F21B31A0FB0101880C40F2E80104
:100AC000C2F20001086008684FF47A71484340F2AE
:100AD000E401C2F2000140F200080860C2F200081E
:100AE000D8F800000121FFF771FE6C462046FFF7A1
:100AF00061FF40F20C06C2F2000640F21405318894
:100B0000C2F2000540F200472868C0F210170091B9
:100B100021460197FFF758FFD8F804000121FFF79D
:100B200055FE6C462046FFF745FF718868680091C6
:100B300021460197FFF748FFD8F808000121FFF789
:100B400045FE6C462046FFF735FFB188A868009146
:100B500021460197FFF738FF308800281CBF29681D
:100B60000861708800281CBF69680861B088002887
:100B70001CBFA96808610220C0F2180001210125EC
:100B8000FFF724FE6C462046FFF714FF42F60000F4
:100B9000C0F20010CDE9005040F60000C4F20100A0
:100BA0002146FFF711FF02B0BDE8F08170B540F2B9
:100BB0002415C2F20005287840F60004C4F20104AE
:100BC00078BB204601210126FFF75EFF48B340F2C3
:100BD000E4002E70C2F2000001684EF2100001EB3A
:100BE0008101CEF20000490041600021816001686E
:100BF00041F00101016000BF016801F0011101290C
:100C0000FAD0016821F001010160002181602046D5
:100C10000121FFF739FF01460020002908BF01200C
:100C200070BD20460121FFF72FFF002804BF0020E0
:100C30002870012070BD0000022811D840F20C017C
:100C4000C2F2000131F81010002908BF704740F2CD
:100C50001402C2F2000252F82000C2685140C16082
:100C60007047000001F0FE01002A18BF0122114464
:100C70000161704710B50446006800F03DFA204657
:100C800000F0CEF820680121BDE8104000F002B865
:100C900001617047026861F3000202607047000062
:100CA00001F45F424FF6FF735A408B07426101D552
:100CB00042698269C90658BF70474169016841F0BD
:100CC000010101607047000082B000220192009291
:100CD0000A0F0192019A1823002A08BF1423C05852
:100CE00021F07F410090009818BF090C084018BF00
:100CF000012002B07047000070B586B0044600685D
:100D0000154620F00100206001A80E46FFF7B2FC56
:100D100045F20040C4F2000084420BD045F600408A
:100D2000C4F20100844207D045F60000C4F200007E
:100D3000844203D1049902E0039900E000214DF6BA
:100D40008360C4F21B30A1FB000248F2A060C0F235
:100D50000100636885424FEA924060F307036360D5
:100D60001DD86A00B1FBF2F2E3694FF6FC7632421D
:100D70006FF31F3240F6FF7608BF0422B3431A44D4
:100D8000E261E26944F6C053C0F2C13322F400428A
:100D90009942E2613CD3206A40F03F0035E0E269CD
:100DA000192322F48042002E18BF02F5804208BFAA
:100DB00003236B43B1FBF3F1E261E2690B046FF3D0
:100DC0001F3140F6FF7308BF01219A431144E161CE
:100DD000E16941F6802241F40041E161C0F206027E
:100DE000216A954287BFC0EB0010C0004FF4967295
:100DF000504348F63812C0F24102A0FB0202501CD8
:100E000021F03F0100F03F000843206206B070BDB2
:100E1000216A013060F30501216206B070BD000057
:100E200070B582B040F600450446C4F20105006882
:100E3000A5F53841884201D002B070BD1520C0F23E
:100E40001C000121FFF7C2FC0326C0F21806304641
:100E50000121FFF7BBFC30460121FFF7B7FC41F64B
:100E60000400C0F20820019040206E460090284601
:100E70003146FFF7A9FD8020009028463146FFF754
:100E8000A3FD206848F2A062C0F201020021FFF732
:100E900033FF20680021482200F020F902B070BD25
:100EA000026801F0010122F4006242EAC1210160FE
:100EB000704700002DE9F047DDF8209000271D461F
:100EC0009246884604464260038100204FF0FF3678
:100ED000C1F20207207600BF20683946FFF7F4FE12
:100EE00048B10136B145F7D11221002821761CBF47
:100EF0000120BDE8F08720680021FFF7D1FF2046E0
:100F000041464A4600F06AF801462CA0FFF7C2F9B4
:100F100020680221FFF7C4FE45B309F1010812E081
:100F2000206800F015F920684FF48061FFF7B8FEE3
:100F30001120207667B320681AF8011BFFF7A8FE7E
:100F4000013D280412D0464620688021FFF7BCFEF0
:100F50000028F0D1074620684FF48061FFF7B4FE07
:100F60000028DDD1013EEFD11220E2E709F10106B0
:100F700020680421FFF7A8FEB8B9054620684FF4A1
:100F80008061FFF7A1FE28B9013EF1D112200AE0ED
:100F900003250DE0206800F0DBF820684FF4806145
:100FA000FFF77EFE112020760DB1002500E004251C
:100FB000206800F0CDF82846BDE8F087493243208C
:100FC0007472616E736D697373696F6E207374618F
:100FD0007475733A2025640A000000002DE9F04181
:100FE0008046006816460D4600F0ACF8741C264694
:100FF000D8F800000121FFF767FE28B9013EF7D1BC
:10100000122188F8181018B3D8F800008168090474
:1010100004D4E9B20022FFF725FE31E0F02141EAD5
:10102000D51101F0F601FFF733FE2746D8F800008E
:101030000821FFF749FEF0B90646D8F800004FF442
:101040008061FFF741FE40B9013FEFD112200FE070
:101050000D2088F81800BDE8F081D8F8000000F0F5
:1010600077F8D8F800004FF48061FFF719FE1120DF
:1010700088F8180066B3D8F80000E9B2FFF708FE58
:10108000D8F800000221FFF71FFEC8B90546D8F8BE
:1010900000004FF48061FFF717FE18B9013CEFD153
:1010A00012200AE0D8F8000000F052F8D8F800004A
:1010B0004FF48061FFF7F4FD112088F8180015B196
:1010C0000020BDE8F0810F2088F81800BDE8F0810D
:1010D0000E2088F81800BDE8F0810000836801F058
:1010E000010123F4004343EAC1318160816862F366
:1010F000090181607047000010B545F20041C4F25B
:10110000000115248842C0F2100411D045F60041B8
:10111000C4F20101884208D045F60001C4F2000182
:10112000884218BF10BD013402E01724C0F20C043D
:1011300020460121FFF75EFB20460021BDE810405C
:10114000FFF758BB016841F48071016070470000EF
:10115000016841F4007101607047000082B000F046
:1011600035F8FFF799FC4FF4E13000F0CFF840F28A
:10117000EC0445F20040C2F20004C4F2000020601A
:101180002046FFF777FD40F224054FF48036C2F287
:10119000000500BFFFF70AFD0028FBD120464821CB
:1011A0002A4608230096FFF785FE38B90120FFF78D
:1011B00043FD4FF4FA70FFF7B1FBEBE70020FFF7B8
:1011C0003BFD4FF4FA70FFF7A9FBF7E780B5FFF797
:1011D0005DFB01200121FFF70FFA00BFFFF7E4FAE2
:1011E0000028FBD002203B210122FFF717FB002043
:1011F000FFF7CCFA02200121FFF7FEF91920FFF7D3
:10120000B7FA0128FAD10020FFF7C0F90420FFF750
:10121000D9F90420FFF7C8F90120FFF7E1F902200E
:10122000FFF756FBFFF772FB0228FBD10020FFF708
:10123000D7F9BDE8804000F001B80000B0B541F238
:10124000040441F20025C4F20204C0F27A05FFF75B
:101250005DFB02280BD0A8BB206D800532D5E06A6B
:10126000800144BF46F60045C0F2DC252AE0D4F8F0
:1012700000C021682268890CC2F34172130101F099
:101280000F01581C0F29034618BF0223002A18BF5C
:1012900003465FEACC3003EB010006D440F60011B0
:1012A000C0F23D0100FB01F50CE02168890301D487
:1012B000454307E0216DC1F301310231B5FBF1F186
:1012C00001FB00F540F22000C2F200000560216839
:1012D00004A2C1F30311515C026822FA01F101601A
:1012E000B0BD00BF000000000000000001020304C8
:1012F000060708094EF21001CEF200010A68042820
:1013000022F0040208BF04320A607047F0B583B0CF
:101310000225C0F21805044605F10C000121FFF773
:1013200055FA28460121FFF751FA28460121FFF717
:101330004DFA01AE3046FFF73DFB40F2004043F668
:101340000005C0F20810C4F2010502904FF40070CD
:10135000A5F54057019038463146FFF735FB41F679
:101360000000C0F2081002904FF4806001903846EF
:101370003146FFF729FB284621460022002300F0D2
:1013800023F82846012100F081F82846012100F0C9
:1013900073F82846012100F007F803B0F0BD000003
:1013A0006FF35F2141607047C26801F0010122F4D0
:1013B000005242EA4131C1607047000000680840B5
:1013C00018BF0120704700002DE9F04186B001AD43
:1013D00004462846984616460F46FFF74BF946F254
:1013E000FF30C4F20100844205F1080008DC43F636
:1013F0000001C4F201018C4210D046F2000107E066
:1014000046F20041C4F201018C4207D046F60001C9
:10141000C4F201018C4218BF05F10C0000684CF6C3
:10142000CD4100EB80004000B0FBF7F0CCF6CC41A2
:10143000A0FB0112D10801EB8103A0EB43000428BB
:10144000A0684FF0010388BF03EBD201C1EA00009E
:10145000A060E06806F0010120F4805040EA01300D
:10146000E060206908F0030120F4405040EA0130B8
:10147000206106B0BDE8F081C26801F0010122F0F0
:10148000040242EA8101C16070470000C26801F0B5
:10149000010122F0080242EAC101C1607047F1EE89
:1014A000100A4FF6FF71C0F2C03120EA010040F08F
:1014B0004070E1EE100A70470000000001020304D2
:1014C000E01400080000002030000000E0010008E7
:1014D0001015000830000020F80600000002000887
:1014E0000500180005001800050018000020004045
:1014F000008000000014014000140140001401406D
:1015000000127A000102030405060708000000002B
:040000050800017D71
:00000001FF
