:020000040800F2
:10000000009F002051020008E9070008E1070008EE
:10001000E50700082107000855080008FFFFFFFF5B
:10002000FFFFFFFFFFFFFFFFFFFFFFFFF1070008DC
:1000300049070008FFFFFFFFED070008F50700086C
:100040006B0200086B0200086B0200086B020008DC
:100050006B0200086B0200084D0700086B020008E5
:100060006B0200086B020008A90700086B02000879
:10007000250700086B0200086B0200086B020008ED
:100080006B0200086B0200086B0200086B0200089C
:100090006B0200086B0200086B0200086B0200088C
:1000A0006B0200086B0200086B0200086B0200087C
:1000B0006B0200086B0200086B0200086B0200086C
:1000C0006B0200086B0200086B0200086B0200085C
:1000D0006B0200086B0200086B0200086B0200084C
:1000E0006B0200086B0200086B0200086B0200083C
:1000F0006B0200086B0200086B0200086B0200082C
:100100006B0200086B0200086B0200086B0200081B
:100110006B0200086B0200086B0200086B0200080B
:100120006B0200086B0200086B0200086B020008FB
:100130006B0200086B0200086B0200086B020008EB
:10014000FFFFFFFFFFFFFFFFFFFFFFFFFFFFFFFFBF
:100150006B0200086B0200086B0200086B020008CB
:100160006B0200086B0200086B0200086B020008BB
:100170006B0200086B0200086B02000800F002F836
:1001800000F057F814A696E8000CB244B344DA45E0
:1001900001D100F04EF8BAE80F000FA696E8300043
:1001A000A5EB040504EB0607AAEB0704A7F101077A
:1001B0004FEA15154FEA3414A4F10104AC4201D3FF
:1001C00000F037F813F0010F18BFFB1A43F00103DA
:1001D00000F001F8DBE718474C2300006C23000017
:1001E000103A24BF78C878C1FAD8520724BF30C863
:1001F00030C144BF04680C607047000070470000C5
:100200000023002400250026103A28BF78C1FBD81F
:10021000520728BF30C148BF0B607047782900F0F3
:100220006D80002070471FB502F04EF91FBD10B55C
:1002300010BD00F043FA1146FFF7F5FF01F036FE5E
:1002400000F061FA03B4FFF7F2FF03BC00F004FB17
:100250000948804709480047FEE7FEE7FEE7FEE75A
:10026000FEE7FEE7FEE7FEE7FEE7FEE70448054996
:10027000054A064B70470000F90700087D01000899
:1002800000990020009F0020009B0020009B002080
:10029000704700000FB4044910B503AA029800F09B
:1002A000ADF910BC5DF814FB8800002070B5044661
:1002B00085690068C10601D5302600E02026C00708
:1002C00007D070BDD4E9012130469047206A401C18
:1002D00020626D1EF6D570BD70B504468569007844
:1002E000C00707D170BDD4E9012120209047206AC2
:1002F000401C20626D1EF6D570BD000070B504462E
:100300000D4621461068AFF300802188090502D50B
:100310000F4A7A4402E00E4A7A440E32002104F178
:10032000240305E000F00F060009965D5E54491CA9
:100330000028F7D120780023000704D5702D02D0C3
:1003400009B1022311322046BDE8704000F0FDB82B
:10035000CC2100002DE9F05F894604464FF0000AE9
:10036000DFF824B1FB44C0F820A02046E1688847AC
:1003700000287DD0252806D0D4E901219047206AA5
:10038000401C2062F1E700255F462046E16888476F
:100390002028064607DB312E05D2B81910F8200CAC
:1003A00008B10543F1E7A80701D525F00405C4F815
:1003B0001CA00027C4F818A02A2E09D0304602F04D
:1003C0007CF838B304EB8708303EC8F8186019E0B1
:1003D00059F8041B204604EB87029161E1688847C5
:1003E000012F064618D1E069002820DA25F0200503
:1003F0001DE0D8F8180000EB800006EB4000303814
:10040000C8F818002046E1688847064602F055F80B
:100410000028EED1012F0AD02E2E08D12046E16807
:1004200088477F1C0646022F45F02005C4DBA069E3
:10043000002803DA404245F00105A061E80701D039
:1004400025F01005A6B1A6F14100192802D82036E2
:1004500045F400654A463146204625604D46FFF783
:10046000DDFE60B1012807D0ED1D25F0070000E09A
:1004700007E000F1080978E705F1040975E730465F
:100480007AE7206ABDE8F09FA221000010B504467B
:1004900003E000F0CDFC401C09D014F8010B054925
:1004A0000028F6D1BDE810400A2000F0C1BC4FF092
:1004B000FF3010BD88000020032A40F2308010F089
:1004C000030C00F0158011F8013BBCF1020F6244EF
:1004D00098BF11F801CB00F8013B38BF11F8013B80
:1004E000A2F1040298BF00F801CB38BF00F8013B2D
:1004F00011F0030300F09480083AC0F0088051F82E
:10050000043B083A51F804CBA0E80810F5E7121DA7
:100510005CBF51F8043B40F8043BAFF30080D207C6
:1005200024BF11F8013B11F801CB48BF11F8012B92
:1005300024BF00F8013B00F801CB48BF00F8012BB5
:10054000704770477047704770472DE9F0470D4678
:1005500099469246044600F124080168880604D5AD
:10056000E06921F01001216000E00120A84201DDD6
:10057000471B00E00027A1697A1902EB0900081A5D
:10058000A0612078C00602D42046FFF78FFE002627
:1005900008E0D4E901211AF806009047206A401CBF
:1005A000761C20624E45F4DB2078C0060AD5204632
:1005B000FFF77CFE06E0D4E9012130209047206A55
:1005C000401C2062381EA7F10107F4DC07E0D4E9E3
:1005D000012118F805009047206A401C2062281E5F
:1005E000A5F10105F3DC2046FFF776FE2078000632
:1005F00002D50220BDE8F0870120FBE7074B70B56C
:100600000D467B4400F043F80446284600F052F8BB
:1006100010B14FF0FF3070BD204670BD2B080000B8
:1006200010B5203AC0F00B80B1E81850A0E818507F
:10063000B1E81850A0E81850203ABFF4F5AF5FEACF
:10064000027C24BFB1E81850A0E8185044BF18C974
:1006500018C0BDE810405FEA827C24BF51F8043B1B
:1006600040F8043B08BF7047D20728BF31F8023B6F
:1006700048BF11F8012B28BF20F8023B48BF00F803
:10068000012B704701694A1C02610878704700B568
:100690008FB0CDE901310021059105497944CDE9BB
:1006A000031011466846FFF755FE0FB000BD00006D
:1006B000E5FFFFFF007B00F080007047754600F00B
:1006C0002BF8AE4605006946534620F007008546E4
:1006D00018B020B5FFF7CAFDBDE820404FF0000676
:1006E0004FF000074FF000084FF0000BAC46ACE8AD
:1006F000C009ACE8C009ACE8C009ACE8C00921F009
:1007000007018D46704710B50446AFF300802046C0
:10071000BDE81040FFF796BD004870472800002054
:10072000FEE7000080B5202000F0EEFA002808BFA8
:1007300080BD44F6E431C2F20001012220200A709B
:10074000BDE8804000F08EBA70470000B0B50120CF
:1007500000F062FB002808BFB0BD1C24C4F20204F4
:100760002046002100F076FA43F20005C4F20105AC
:100770002846002101F0A8FCA868E868204644F655
:10078000E04100F06DFA2846012101F09DFC204671
:10079000012100F05FFA002000F0EAFE0120BDE830
:1007A000B04000F0F3BA000010B5102000F034FBA8
:1007B000002808BF10BD40F60004C4F20104204622
:1007C000102100F007FCB0FA80F0410904F5205038
:1007D00001F000FD1020BDE8104000F0D7BA000085
:1007E000FEE70000FEE700007047000070470000D1
:1007F00070470000704700004EF68850CEF20000AF
:10080000026841F2000142F47002C4F20201026087
:100810000A6842F001020A600A689207FCD54A6839
:1008200022F003024A6000BF4A6812F00C0FFBD1AD
:100830000A684FF6FF73CFF6F2631A400A6000228F
:100840004A600A634FF41F028A604FF0006140F86B
:10085000801C7047FEE700007047000041F2040171
:10086000C4F202010A6800F00F0022F0F00242EA2E
:10087000001008607047000041F20401C4F2020158
:100880000A6800F0070022F4E06242EA00200860F3
:100890007047000041F20401C4F202010A6800F04E
:1008A000070022F4605242EAC0200860704700004E
:1008B00041F25401C4F202010A68012822F0300218
:1008C00008BF30320A607047042888BF7047DFE8ED
:1008D00000F0032B15220C0041F20000C4F20200CC
:1008E000026861F300020260704741F20000C4F246
:1008F0000200426A61F300024262704741F2000066
:10090000C4F20200026801F0010122F0807242EAA2
:1009100001610160704741F20000C4F20200026A06
:1009200061F300020262704741F20000C4F202006B
:10093000026801F0010122F4803242EA01410160C3
:100940007047000041F20401C4F202010B6841F259
:10095000002CC0F27A0CC3F38103B0B5DFE803F0DA
:100960002C023702C0F800C00A682FA3C2F303129A
:100970009A5C036842F21B5523FA02F242600B684C
:10098000C0F60005C3F30223EB5C22FA03F3C36055
:100990000B68C3F3C223EB5C0425DA4082600B686A
:1009A000096805EA9363C1F38131194422A3595CB4
:1009B000B2FBF1F10161B0BD0A6D9205D2D5CA6AF0
:1009C000920144BF46F6004CC0F2DC2CCAE7D1F8D5
:1009D00000E00B680A689B0CC2F34172140103F03B
:1009E0000F0301340F2B254618BF0225002A18BF1C
:1009F00025465FEACE322B4406D440F60012C0F200
:100A00003D0203FB02FCADE70A68920302D403FB3C
:100A10000CFCA7E70A6DC2F301320232BCFBF2F212
:100A200002FB03FC9EE700BF000000000000000086
:100A3000010203040607080902040608020C081054
:100A400041F20002010CC4F20202895800F01F00BA
:100A500021FA00F000F001007047000041F254015B
:100A6000C4F202010A6800F0030022F4405242EA94
:100A7000003008607047000041F200000021C4F21D
:100A8000020000BF0268920304D4B1F5405F01F197
:100A90000101F7D30068C0F34040704741F2000203
:100AA00000F01F034FF0010CC4F2020201290CFAFE
:100AB00003F14FEA1040835814BF23EA01011943A0
:100AC0008150704741F2000200F01F034FF0010C0B
:100AD000C4F2020201290CFA03F14FEA10408358D4
:100AE00014BF23EA010119438150704780B541F2D8
:100AF000040EC4F2020EDEF800C070B14CF4803374
:100B0000CEF80030DEF800C0012814BF4CF40030ED
:100B10002CF40030CEF8000009E02CF48030CEF840
:100B20000000DEF82C0040F00070CEF82C00DEF85B
:100B3000000061F39540CEF80000DEF800000909DE
:100B400061F35E70CEF80000DEF8000020F0004097
:100B500040EAC270CEF8000080BD000041F2000003
:100B6000C4F20200016841F00101016001688907D7
:100B7000FCD5416821F00301416000BF416811F0DC
:100B80000C0FFBD101684FF6FF72CFF6F2621140F5
:100B900001600021416001634FF41F0181607047D3
:100BA00041F20401C4F202010A6860F301020A6022
:100BB00000BF00BF00BF00BF00BF00BF00BF00BF3D
:100BC00000BF00BF00BF00BF00BF00BF00BF00BF2D
:100BD00000BF00BF00BF00BF7047000041F204002B
:100BE000C4F202000068C0F381007047002808BF0B
:100BF000704780B54EF2100144F6DC3ECEF20001A3
:100C0000C2F2000E4FF0320C002300BF82B2332A32
:100C100006D3DEF80020323802FB0CF24A6004E012
:100C2000DEF800005043486000208B600A6842F004
:100C300001020A600A6802F00112012AFAD00A6869
:100C400022F001020A6002048B60DFD1BDE880401F
:100C500070470000026861F3000202607047000004
:100C6000416070470421B0F1805FC4F2020192BF7D
:100C7000086020F07040C1F80004704702684BF62D
:100C8000EF731A4002600A8903681A4302604A7CC3
:100C9000036802F0030223F4405343EA0232026085
:100CA000CA7B036802F0030223F4406343EA822212
:100CB00002608A7B036802F0030223F4407343EA74
:100CC000022202604A7B036802F0010223F08003E3
:100CD00043EAC21202600A7B036862F38613036070
:100CE0000A7C036862F3451303604A8942600A681C
:100CF00082604968C1607047002A02680CBF22EA1E
:100D000001011143016070470021C4F20201B0F1FA
:100D1000805F88BF01F580610968084018BF012025
:100D200070470000016821F00101016000210160AD
:100D300041608160C16040F2FF4100EA010204218C
:100D4000B2F5816FC4F2020105D3D208902A88BFA0
:100D5000704701F5806100F0FC004CF6CD42083888
:100D6000CCF6CC42A0FB02026FF0030000EA920036
:100D70000F220B6802FA00F0184308607047000069
:100D800000214160012101810170704740F214414E
:100D9000C4F2010151F8042C08600240824208BFED
:100DA0000860704740F20841C4F20101426851F8FE
:100DB000083C934341F8083C51F8043C934341F804
:100DC000043C437A002B08BF704703786FEA020C9B
:100DD0002BB151F8043C134341F8043C04E051F8B2
:100DE000083C134341F8083C0B6803EA0C030B6012
:100DF0004B6803EA0C034B60007A012807D018B94E
:100E00000868104308607047086810430860486825
:100E1000104348607047000040F20041C4F20101F5
:100E20004A6909681040084018BF01207047000057
:100E3000B0B543F600050446C4F2010528468021FA
:100E400001F0CAFA0028F9D0A1B2284601F0B6FA9A
:100E50002846402101F0C0FA0028F9D02046B0BD54
:100E60000161704740F200424FF6FF71C0F200127C
:100E7000C0E90012704700008B08032B88BF704741
:100E800080B50C2202EA810E4FF00F0C02EB8301B9
:100E90000CFA0EF2DFE803F0022F11200821C4F251
:100EA00001010B6800FA0EF023EA02020A600A68E8
:100EB00010430860BDE8804070470821C4F201017A
:100EC0008B6800FA0EF023EA02028A608A681043F7
:100ED0008860BDE8804070470821C4F20101CB68FA
:100EE00000FA0EF023EA0202CA60CA681043C86022
:100EF000BDE8804070470821C4F201014B6800FA48
:100F00000EF023EA02024A604A6810434860BDE8D6
:100F100080407047B0B58B790A88032B0BD07BB922
:100F20004979282901F00F0E18D0182908BF02614D
:100F3000110616D12EE04FF0000E110611D129E056
:100F400003F0080C0B79C97903F00403634401F042
:100F5000030103EB010E110603D11BE042611106F0
:100F600018D000234FF00F0C002104E001310829B4
:100F700003F104030ED022FA01F4E407F6D004686A
:100F80000CFA03F5AC43046004680EFA03F52C4335
:100F90000460EBE7B2F5807F38BFB0BD120A0023D2
:100FA0004FF00F0C002104E00131082903F1040384
:100FB0000ED022FA01F4E407F6D044680CFA03F5E7
:100FC000AC43446044680EFA03F52C434460EBE7FD
:100FD000B0BD000080680840401AB0FA80F04009B7
:100FE0007047000070B582B00446006840F60045C6
:100FF000C4F2010500F0DEFE2068A5F53841884204
:1010000041D14FF4C0100121FFF748FD1520C0F277
:101010001C000121FFF742FD0326C0F218063046EE
:101020000121FFF73BFD30460121FFF737FD41F677
:101030000400C0F20820019040206E46009028462F
:101040003146FFF767FF8020009028463146FFF7C2
:1010500061FF28464021FFF703FF28468021FFF764
:10106000FFFE206848F2A062C0F20102002100F0F9
:10107000DDFA1F200121002200F0E2FF20200121E3
:10108000002200F0DDFF2068012100F09DFA02B08F
:1010900070BD00002DE9F04784B00446FFF7A2FFC1
:1010A00040F2013003ADADF80C004FF0010A4FF4EF
:1010B0008039204648212A4603238DF80EA0CDF81A
:1010C000009000F0FDFBFF272046022148224FF44C
:1010D00080738DF80C70CDE9005ACDF808904FF070
:1010E000020800F027FD9DF80C00F8B1002000BFB9
:1010F00006466420FFF77AFD092E12D02046022111
:1011000048224FF480738DF80C70CDE9005ACDF869
:10111000089000F00FFD9DF80C00002806F101007A
:10112000E6D1092E02D367A0FFF7B0F94FF0000A0D
:101130002046022148220023ADF80CA0CDE900583A
:10114000CDF8089000F0F6FCBDF80C104FF0FF321F
:1011500009BA002808BF0A0C91B2B1F5D87F02D0B5
:101160005CA0FFF797F845F63010ADF80C00222090
:101170008DF80E004FF4803503AA20464821032342
:101180000095032700F09CFB48F20336CFF6FF766C
:1011900003AA204648210323ADF80C608DF80E7099
:1011A000009500F08DFB06F58060ADF80C0003AAF9
:1011B0002046482103238DF80E70009500F080FB37
:1011C00006F55060ADF80C0003AA20464821032321
:1011D0008DF80E70009500F073FB41F23000ADF811
:1011E0000C00012703AA2046482103238DF80E7026
:1011F000009500F065FB44F20300C8F20000039084
:1012000003AA204648210423009500F059FB44F22C
:101210000320CDF20070039003AA20464821042346
:10122000009500F04DFB46F23000ADF80C000820B0
:101230008DF80E0003AA204648210323009500F0F4
:101240003FFB40F20220C4F20000039003AA2046B4
:1012500048210423009500F033FB40F2014603AA25
:10126000204648210323ADF80C608DF80E700095E0
:1012700000F026FB03AA204648210323ADF80C60AA
:101280008DF80EA0009500F01BFB4FF48370ADF8B5
:101290000C0011208DF80E0003AA204648210323DC
:1012A000009500F00DFB03AA204648210323ADF86A
:1012B0000C708DF80E70009500F002FB04B0BDE8D4
:1012C000F08700BF5265736574206661696C656460
:1012D00021000000496E76616C6964206D6F646561
:1012E0006C2069643A203078253034580A000000B8
:1012F0002DE9F04F8DB0009181464FF4C0100121CF
:101300004FF0010BFFF7CAFB0224C0F2180420467D
:101310000121FFF7C3FB601C0121FFF7BFFB04F1B4
:101320000A000121FFF7BAFB4FF4A0100121FFF7DB
:10133000B5FB42F6000043F20006C0F20820C4F2FA
:1013400001060C90A020A6F520570BAC0B90384658
:101350002146FFF7DFFD4FF0000AA6F510502146A9
:101360008DF832A0CDF82CB0FFF7D4FD012000217C
:10137000FFF782FD01AD2846FFF702FDCDF808B06A
:101380004FF4807B28468DF804A0ADF80CB0FFF731
:1013900009FD06200021002200F052FE4FF0100847
:1013A000384621468DF832A0CDF82C80FFF7B2FDEB
:1013B00000200421FFF760FD02208DF80C00284674
:1013C000CDF80880FFF7EEFC0A200021002200F093
:1013D00037FE09AC204600F06FFE0120C0F202008B
:1013E000099040F20010C0F201100A9030462146E8
:1013F00000F07AFE3046012100F0ECFE304601217B
:1014000000F06CFE3046012100F05EFE1C24C4F2A8
:1014100002042046FFF786FC43F20C00C4F20100F0
:10142000CDE90409009804A9ADF81A004FF4007042
:10143000ADF820002046ADF818A0CDF81CB0FFF79D
:101440001DFC204602210122FFF756FC0C20002142
:10145000002200F0F5FD0DB0BDE8F08F2DE9F04160
:1014600082B0042000F054FF40F22000C2F20000DD
:1014700000684DF68361C4F21B31A0FB0101880CAA
:1014800044F6E031C2F20001086008684FF47A7156
:10149000484344F6DC31C2F2000140F20008086023
:1014A000C2F20008D8F800000121FFF7F7FA6C46F5
:1014B0002046FFF7D7FC40F20C06C2F2000640F2CD
:1014C00014053188C2F2000540F200472868C0F2D6
:1014D0001017009121460197FFF71CFDD8F8040072
:1014E0000121FFF7DBFA6C462046FFF7BBFC718851
:1014F0006868009121460197FFF70CFDD8F80800B5
:101500000121FFF7CBFA6C462046FFF7ABFCB18810
:10151000A868009121460197FFF7FCFC308800285D
:101520001CBF29680861708800281CBF69680861B1
:10153000B08800281CBFA96808610220C0F218000A
:1015400001210125FFF7AAFA6C462046FFF78AFC25
:1015500042F60000C0F20010CDE9005040F6000055
:10156000C4F201002146FFF7D5FC02B0BDE8F081CE
:1015700002280FD840F20C01C2F2000131F810101D
:10158000002908BF704740F21402C2F2000252F86C
:10159000200041617047000001F0FE01002A18BFE1
:1015A0000122114401617047026801F0010122F437
:1015B000806242EA81210160704700000069C0B288
:1015C0007047000001617047026861F30002026029
:1015D0007047000001F45F424FF6FF735A408B07DB
:1015E000426101D542698269C90658BF70474169A5
:1015F000016841F0010101607047000082B00022E3
:10160000019200920A0F0192019A1823002A08BF42
:101610001423C05821F07F410090009818BF090C96
:10162000084018BF012002B07047000070B586B0B6
:1016300004460068154620F00100206001A80E460F
:10164000FFF780F945F20040C4F2000084420BD05D
:1016500045F60040C4F20100844207D045F6000080
:10166000C4F20000844203D1049902E0039900E02F
:1016700000214DF68360C4F21B30A1FB000248F24A
:10168000A060C0F20100636885424FEA924060F3B7
:10169000070363601DD86A00B1FBF2F2E3694FF6FD
:1016A000FC7632426FF31F3240F6FF7608BF042209
:1016B000B3431A44E261E26944F6C053C0F2C13355
:1016C00022F400429942E2613CD3206A40F03F009C
:1016D00035E0E269192322F48042002E18BF02F59A
:1016E000804208BF03236B43B1FBF3F1E261E2697F
:1016F0000B046FF31F3140F6FF7308BF01219A43BB
:101700001144E161E16941F6802241F40041E16167
:10171000C0F20602216A954287BFC0EB0010C000EC
:101720004FF49672504348F63812C0F24102A0FBC3
:101730000202501C21F03F0100F03F0008432062EC
:1017400006B070BD216A013060F30501216206B068
:1017500070BD00002DE9F04381B0044600680D46DD
:1017600001211646FFF720FF206800F049FB06F133
:1017700001094E4620680121FFF740FF28B9013ECC
:10178000F8D112210028217677D0206881680904D9
:1017900004D4E9B20122FFF7FFFE5DE0062101EA71
:1017A000D51808F1F001FFF70DFF4F46206808211A
:1017B000FFF724FFB0B9064620684FF48061FFF7B9
:1017C0001DFF18B9013FF1D1122008E0206800F098
:1017D0001DFB20684FF48061FFF7FCFE1120002EF6
:1017E00020765DD02068E9B2FFF7ECFE4E4600BFE0
:1017F00020680221FFF702FFA8B9054620684FF4D0
:101800008061FFF7FBFE18B9013EF1D1122008E01C
:10181000206800F0FBFA20684FF48061FFF7DAFEE1
:1018200011202076D5B320680221FFF7D3FE20686F
:1018300000F0E6FA4D4600BF20680121FFF7DEFE0A
:1018400020B9013DF8D112212176B0B1206848F0CD
:10185000F101FFF7B7FE00BF20680221FFF7CEFEBF
:10186000C0B9054620684FF48061FFF7C7FE30B964
:10187000B9F10109F0D112200AE00D2011E0206831
:1018800000F0C4FA20684FF48061FFF7A3FE112036
:1018900020761DB1002001B0BDE8F0830F2000E0EC
:1018A0000E20207601B0BDE8F0830000026801F050
:1018B000010122F4006242EAC12101607047000088
:1018C0002DE9F047DDF8209000271D469246884616
:1018D00004464260038100204FF0FF36C1F2020748
:1018E000207600BF20683946FFF788FE48B10136F0
:1018F000B145F7D11221002821761CBF0120BDE897
:10190000F08720680021FFF7D1FF204641464A4674
:1019100000F05AF80146206809B102254FE0022183
:10192000FFF758FE45B309F1010812E0206800F006
:101930006DFA20684FF48061FFF74CFE112020768D
:1019400067B320681AF8011BFFF73CFE013D28042D
:1019500012D0464620688021FFF750FE0028F0D1C3
:10196000074620684FF48061FFF748FE0028DDD16C
:10197000013EEFD11220E2E709F1010620680421BF
:10198000FFF73CFEB8B9054620684FF48061FFF7C9
:1019900035FE28B9013EF1D112200AE003250DE001
:1019A000206800F033FA20684FF48061FFF712FEE0
:1019B000112020760DB1002500E00425206800F0FC
:1019C00025FA2846BDE8F0872DE9F04180460068F9
:1019D00016460D4600F014FA741C2646D8F800008E
:1019E0000121FFF70BFE28B9013EF7D1122188F83B
:1019F000181018B3D8F800008168090404D4E9B2BB
:101A00000022FFF7C9FD31E0F02141EAD51101F0D4
:101A1000F601FFF7D7FD2746D8F800000821FFF7A9
:101A2000EDFDF0B90646D8F800004FF48061FFF7ED
:101A3000E5FD40B9013FEFD112200FE00D2088F8FD
:101A40001800BDE8F081D8F8000000F0DFF9D8F800
:101A500000004FF48061FFF7BDFD112088F81800E9
:101A600066B3D8F80000E9B2FFF7ACFDD8F8000083
:101A70000221FFF7C3FDC8B90546D8F800004FF4AE
:101A80008061FFF7BBFD18B9013CEFD112200AE0DD
:101A9000D8F8000000F0BAF9D8F800004FF48061DF
:101AA000FFF798FD112088F8180015B10020BDE857
:101AB000F0810F2088F81800BDE8F0810E2088F82A
:101AC0001800BDE8F0810000F0B581B0054600685F
:101AD0000129144622D0210A1E46FFF773FD771C08
:101AE00028688021FFF78AFD064648B928684FF428
:101AF0008061FFF783FD28B9013FF1D112210AE08F
:101B0000002109E0286800F081F928684FF480611D
:101B1000FFF760FD1121297628682EB1E1B2FFF7A9
:101B200051FD002001B0F0BD0C4600F06FF92046D9
:101B300001B0F0BD2DE9F04F83B00446DDE90CA003
:101B40000E9D0027984693468946C4F804A020813C
:101B500000204FF0FF36C1F2020720762068394698
:101B6000FFF74CFD38B10136B542F7D1122121768D
:101B700008B101254BE020680021FFF797FE20689F
:101B80000121FFF711FD204659462A46FFF71CFFA9
:101B90000146206809B1022537E00221CDF808A0EE
:101BA000FFF718FD4FF0FF3A20688021FFF726FD70
:101BB000B8B9074620684FF48061FFF71FFD28B9C8
:101BC0000AF1010A5545EFD1122008E0206800F023
:101BD0001DF920684FF48061FFF7FCFC112020768E
:101BE0008FB12046494642462B46FFF76DFF08B1AC
:101BF00004250CE02046802101222B4600F00CF940
:101C000048B1052500E00325206800F0FFF82846CC
:101C100003B0BDE8F08F204659462A46FFF79AFDEB
:101C20000146206809B10625EFE7DDF83480B8F1F8
:101C3000020F0DD0B8F1010F16D10021FFF7B4FC4F
:101C400020680221FFF7C6FC206800F0DFF812E0F0
:101C50000121FFF72BFE20680221FFF7BBFC206863
:101C60000021FFF7A1FC06E00121FFF79DFC2068A1
:101C70000221FFF7AFFCB8F1000F00F08E8005F1F4
:101C8000010A11E0029F4FF0010B3D464FF6FF762F
:101C90002068FFF793FCB0445F4428705FEA084077
:101CA0004FF000050297B2D01FFA88F0042855467D
:101CB0001ED20128554629D0022855465646CDF851
:101CC000048031D120680421FFF798FC30B9013D30
:101CD000F8D100284FF01200207662D0029F4FF614
:101CE000FF70461E4FF0020B4FF00108B94647E067
:101CF00020684021FFF782FC0028C3D1013DF7D1C5
:101D000000284FF012002076BCD148E02068402126
:101D1000FFF774FC0028B5D1013DF7D100284FF042
:101D200012002076AED13EE020680421FFF766FC69
:101D300030B9013EF8D100284FF01200207634D09F
:101D400020680021FFF730FC2068FFF737FC02997C
:101D50005546087020680421FFF750FC30B9013D5A
:101D6000F8D100284FF01200207620D0029F4FF6C5
:101D7000FF7007F10109861E4FF0030B4FF00208B8
:101D8000206800F043F82068FFF718FC07EB08050F
:101D9000DDF8048089F800007AE7002537E70B2595
:101DA00032E7082530E707252EE709252CE70A2525
:101DB0002AE7000010B545F20041C4F200011524E5
:101DC0008842C0F2100411D045F60041C4F201016E
:101DD000884208D045F60001C4F20001884218BFCD
:101DE00010BD013402E01724C0F20C04204601218A
:101DF000FEF768FE20460021BDE81040FEF762BEF7
:101E0000016841F48071016070470000016841F48D
:101E100000710160704700002DE9F04381B00D466C
:101E20000021C1F202018D4204460AD15E1C00BFAE
:101E300020682946FFF7E2FB28B3013EF8D11220C3
:101E400030E05F1C4FEAC2784FEA8279102601E049
:101E5000013FF4D020682946FFF7D0FB98B9B8F1CC
:101E6000000F05D020684FF48061FFF7C7FB70B901
:101E7000B9F1000FECD520681021FFF7BFFB002857
:101E8000E6D0102509E0002001B0BDE8F08320680D
:101E9000FFF7BCFF11254FF4806620683146FFF73D
:101EA00099FB2846207601B0BDE8F08343F6000494
:101EB000C4F2010449F6C805A4F56440C2F2000565
:101EC000286000F091F9FFF7C9FA48F28040C0F2AB
:101ED0001E0000F029FA34A0FEF7D8FA2846FFF7D2
:101EE000D9F838A0FEF7D2FA44F6E536C2F2000679
:101EF000304644F6E041FFF7FBF936A0FEF7C6FA9C
:101F000044F6E43B40F2DC05C2F2000B0FF2F009AC
:101F1000A6F1A20AC2F2000544F660279BF8000071
:101F20000028FBD0062000F075F80A2000F072F8B7
:101F300000208BF800004846FEF7ACF920468021CF
:101F400000F04AFA0028F9D06FF09F08564600BF0B
:101F5000A43608F1A00808EB05003146A022FEF7E0
:101F6000ABFAB845F4D100262046802100F034FABF
:101F70000028F9D0A95D204600F020FA0136B6F518
:101F8000964FF1D10120FEF701FF1020FEF7FEFE73
:101F900006200021002200F053F80A200021002230
:101FA00000F04EF8BAE700BF0D0A2D2D2D20537911
:101FB0007374656D205374617274696E67202D2D82
:101FC0002D0D000049324320496E697420446F6E24
:101FD000650D00005350492B444D4120496E6974F2
:101FE00020446F6E652C2057616974696E672066A6
:101FF0006F72205653594E432E2E2E0D00000000B6
:102000002D2D2D4652414D455F53544152542D2D97
:102010002D000000002848BF704700F01F0101227A
:1020200002FA01F11C2202EAD0004EF28012CEF236
:1020300000028150BFF34F8FBFF36F8F70470000D6
:10204000B0B54EF60C5ECEF2000EDEF800304FF06A
:10205000FF35C3F3022383F00704042C28BF0424B4
:10206000033B05FA04F438BF0023A143994005FA65
:1020700003F39A4300F00F03043B4EF2001C734439
:10208000CEF2000C11430C33B0F1FF3F4FEA0111C7
:1020900000EB0C02C8BF02F540730028197048BF5E
:1020A000B0BD00F01F01012202FA01F1C0F342109D
:1020B0004CF82010B0BD00000021C0F803100160F2
:1020C0000121C17170470000026801F0010122F096
:1020D000400242EA8111016070470000426861F3EA
:1020E0000002426070470000C26922F40062C261CF
:1020F0000A78032A27D8DFE802F0021A060E0268DF
:1021000022F4004202E0026842F4004202600268E7
:1021100022F4804206E0026842F400420260026853
:1021200042F480420260026822F480620AE002689F
:1021300022F400420260026822F4804202600268D7
:1021400042F480620260CA79036802F0010223F45B
:10215000007343EA422202604A78012A06D1CA7912
:10216000012A03D1026842F4807202E0026822F47C
:10217000807202604A78036862F3820303608A789F
:102180004368072A23F4807388BF03F58073436094
:102190008A78036862F3C5030360CA78036802F0B3
:1021A000010223F0800343EAC21202600A79036845
:1021B00002F0010223F4006343EAC22202604A797A
:1021C000036862F3410303608979026861F30002E6
:1021D00002607047026801F0010122F4807242EA55
:1021E000012101607047000080B5FEF7B7FC0120B7
:1021F0000121FEF769FB00BFFEF73EFC0028FBD083
:1022000002203B210122FEF771FC0020FEF726FC94
:1022100002200121FEF758FB1920FEF711FC0128CE
:10222000FAD10020FEF71AFB0420FEF733FB04204E
:10223000FEF722FB0120FEF73BFB0220FEF7B0FC7D
:10224000FEF7CCFC0228FBD10020FEF731FBBDE8F5
:10225000804000F001B80000B0B541F2040441F242
:102260000025C4F20204C0F27A05FEF7B7FC02288A
:102270000BD0A8BB206D800532D5E06A800144BF39
:1022800046F60045C0F2DC252AE0D4F800C02168FB
:102290002268890CC2F34172130101F00F01581C2E
:1022A0000F29034618BF0223002A18BF03465FEA1E
:1022B000CC3003EB010006D440F60011C0F23D0122
:1022C00000FB01F50CE02168890301D4454307E0D8
:1022D000216DC1F301310231B5FBF1F101FB00F5D4
:1022E00040F22000C2F200000560216804A2C1F3A0
:1022F0000311515C026822FA01F10160B0BD00BF18
:1023000000000000000000000102030406070809A5
:102310004EF21001CEF200010A68042822F00402F5
:1023200008BF04320A607047F0B583B00225C0F2DE
:102330001805044605F10C000121FEF7AFFB284605
:102340000121FEF7ABFB28460121FEF7A7FB01AEFA
:102350003046FEF787FD40F2004043F60005C0F22C
:102360000810C4F2010502904FF40070A5F5405723
:10237000019038463146FEF7CDFD41F60000C0F22F
:10238000081002904FF48060019038463146FEF705
:10239000C1FD284621460022002300F023F82846EC
:1023A000012100F081F82846012100F073F8284649
:1023B000012100F007F803B0F0BD00006FF35F21CA
:1023C00041607047C26801F0010122F4005242EA04
:1023D0004131C160704700000068084018BF01200B
:1023E000704700002DE9F04186B001AD0446284653
:1023F000984616460F46FEF7A5FA46F2FF30C4F29D
:102400000100844205F1080008DC43F60001C4F233
:1024100001018C4210D046F2000107E046F2004173
:10242000C4F201018C4207D046F60001C4F201015A
:102430008C4218BF05F10C0000684CF6CD4100EB52
:1024400080004000B0FBF7F0CCF6CC41A0FB0112BD
:10245000D10801EB8103A0EB43000428A0684FF0F2
:10246000010388BF03EBD201C1EA0000A060E0686D
:1024700006F0010120F4805040EA0130E06020695C
:1024800008F0030120F4405040EA0130206106B01A
:10249000BDE8F081C26801F0010122F0040242EAC5
:1024A0008101C16070470000C26801F0010122F0A3
:1024B000080242EAC101C160704730380A2801D2DF
:1024C0000120704700207047F1EE100A4FF6FF71AF
:1024D000C0F2C03120EA010040F04070E1EE100A85
:1024E000704730313233343536373839414243441E
:1024F000454640305800303132333435363738397C
:102500006162636465664030780004000008000082
:1025100000000000000200010000100000000001A7
:1025200002030400482500080000002028000000E5
:10253000E00100087025000828000020D89E000057
:102540000002000800000000050018000500180047
:102550000500180000200040008000000014014029
:10256000001401400014014000127A000000000035
:040000050800017D71
:00000001FF
