:020000040800F2
:10000000687900205102000805080008FD07000873
:100010000108000871070008A1080008FFFFFFFFA2
:10002000FFFFFFFFFFFFFFFFFFFFFFFF0D080008BF
:10003000A9070008FFFFFFFF0908000811080008D2
:100040006B0200086B0200086B0200086B020008DC
:100050006B0200086B0200086B0200086B020008CC
:10006000AD0700086B020008E50700086B020008F6
:10007000750700086B0200086B0200086B0200089D
:100080006B0200086B0200086B0200086B0200089C
:100090006B0200086B0200086B0200086B0200088C
:1000A0006B0200086B0200086B0200086B0200087C
:1000B0006B0200086B0200086B0200086B0200086C
:1000C0006B0200086B0200086B0200086B0200085C
:1000D0006B0200086B0200086B0200086B0200084C
:1000E0006B0200086B0200086B0200086B0200083C
:1000F0006B0200086B0200086B0200086B0200082C
:100100006B0200086B0200086B0200086B0200081B
:100110006B0200086B0200086B0200086B0200080B
:100120006B0200086B0200086B0200086B020008FB
:100130006B0200086B0200086B0200086B020008EB
:10014000FFFFFFFFFFFFFFFFFFFFFFFFFFFFFFFFBF
:100150006B0200086B0200086B0200086B020008CB
:100160006B0200086B0200086B0200086B020008BB
:100170006B0200086B0200086B02000800F002F836
:1001800000F057F814A696E8000CB244B344DA45E0
:1001900001D100F04EF8BAE80F000FA696E8300043
:1001A000A5EB040504EB0607AAEB0704A7F101077A
:1001B0004FEA15154FEA3414A4F10104AC4201D3FF
:1001C00000F037F813F0010F18BFFB1A43F00103DA
:1001D00000F001F8DBE71847182900003829000073
:1001E000103A24BF78C878C1FAD8520724BF30C863
:1001F00030C144BF04680C607047000070470000C5
:100200000023002400250026103A28BF78C1FBD81F
:10021000520728BF30C148BF0B607047782900F0F3
:100220006D80002070471FB502F034FC1FBD10B573
:1002300010BD00F06BFA1146FFF7F5FF01F0FEFF6D
:1002400000F089FA03B4FFF7F2FF03BC00F02AFBC9
:100250000948804709480047FEE7FEE7FEE7FEE75A
:10026000FEE7FEE7FEE7FEE7FEE7FEE70448054996
:10027000054A064B70470000450800087D0100084C
:100280006873002068790020687500206875002078
:10029000704700000FB4044910B503AA029800F09B
:1002A000D5F910BC5DF814FB8800002070B5044639
:1002B00085690068C10601D5302600E02026C00708
:1002C00007D070BDD4E9012130469047206A401C18
:1002D00020626D1EF6D570BD70B504468569007844
:1002E000C00707D170BDD4E9012120209047206AC2
:1002F000401C20626D1EF6D570BD000070B504462E
:100300000D4621461068AFF300802188090502D50B
:100310000F4A7A4402E00E4A7A440E32002104F178
:10032000240305E000F00F060009965D5E54491CA9
:100330000028F7D120780023000704D5702D02D0C3
:1003400009B1022311322046BDE8704000F024B903
:10035000982700002DE9F05F894604464FF0000A17
:10036000DFF824B1FB44C0F820A02046E1688847AC
:1003700000287DD0252806D0D4E901219047206AA5
:10038000401C2062F1E700255F462046E16888476F
:100390002028064607DB312E05D2B81910F8200CAC
:1003A00008B10543F1E7A80701D525F00405C4F815
:1003B0001CA00027C4F818A02A2E09D0304602F04D
:1003C00062FB38B304EB8708303EC8F8186019E0C8
:1003D00059F8041B204604EB87029161E1688847C5
:1003E000012F064618D1E069002820DA25F0200503
:1003F0001DE0D8F8180000EB800006EB4000303814
:10040000C8F818002046E1688847064602F03BFB22
:100410000028EED1012F0AD02E2E08D12046E16807
:1004200088477F1C0646022F45F02005C4DBA069E3
:10043000002803DA404245F00105A061E80701D039
:1004400025F01005A6B1A6F14100192802D82036E2
:1004500045F400654A463146204625604D46FFF783
:10046000DDFE60B1012807D0ED1D25F0070000E09A
:1004700007E000F1080978E705F1040975E730465F
:100480007AE7206ABDE8F09F6E27000010B50446A9
:1004900003E000F03FFD401C09D014F8010B0549B2
:1004A0000028F6D1BDE810400A2000F033BD4FF01F
:1004B000FF3010BD88000020032A40F2308010F089
:1004C000030C00F0158011F8013BBCF1020F6244EF
:1004D00098BF11F801CB00F8013B38BF11F8013B80
:1004E000A2F1040298BF00F801CB38BF00F8013B2D
:1004F00011F0030300F0BC80083AC0F0088051F806
:10050000043B083A51F804CBA0E80810F5E7121DA7
:100510005CBF51F8043B40F8043BAFF30080D207C6
:1005200024BF11F8013B11F801CB48BF11F8012B92
:1005300024BF00F8013B00F801CB48BF00F8012BB5
:1005400070474FF0000200B5134694469646203996
:1005500022BFA0E80C50A0E80C50B1F12001BFF47C
:10056000F7AF090728BFA0E80C5048BF0CC05DF8E2
:1005700004EB890028BF40F8042B08BF704748BF30
:1005800020F8022B11F0804F18BF00F8012B7047A4
:1005900070477047704770472DE9F0470D46994600
:1005A0009246044600F124080168880604D5E069F3
:1005B00021F01001216000E00120A84201DD471B6D
:1005C00000E00027A1697A1902EB0900081AA0616E
:1005D0002078C00602D42046FFF768FE002608E017
:1005E000D4E901211AF806009047206A401C761CC5
:1005F00020624E45F4DB2078C0060AD52046FFF77E
:1006000055FE06E0D4E9012130209047206A401CC5
:100610002062381EA7F10107F4DC07E0D4E90121CC
:1006200018F805009047206A401C2062281EA5F19A
:100630000105F3DC2046FFF74FFE2078000602D5C7
:100640000220BDE8F0870120FBE70000074B70B5F2
:100650000D467B4400F043F80446284600F052F86B
:1006600010B14FF0FF3070BD204670BDBF080000D4
:1006700010B5203AC0F00B80B1E81850A0E818502F
:10068000B1E81850A0E81850203ABFF4F5AF5FEA7F
:10069000027C24BFB1E81850A0E8185044BF18C924
:1006A00018C0BDE810405FEA827C24BF51F8043BCB
:1006B00040F8043B08BF7047D20728BF31F8023B1F
:1006C00048BF11F8012B28BF20F8023B48BF00F8B3
:1006D000012B704701694A1C02610878704700B518
:1006E0008FB0CDE901310021059105497944CDE96B
:1006F000031011466846FFF72DFE0FB000BD000045
:10070000E5FFFFFF007B00F080007047754600F0BA
:100710002BF8AE4605006946534620F00700854693
:1007200018B020B5FFF7A2FDBDE820404FF000064D
:100730004FF000074FF000084FF0000BAC46ACE85C
:10074000C009ACE8C009ACE8C009ACE8C00921F0B8
:1007500007018D46704710B50446AFF30080204670
:10076000BDE81040FFF76EBD00487047280000202C
:10077000FEE7000080B5202000F03EFB002808BF07
:1007800080BD1C20C4F20200002100F089FA42F270
:10079000E441C2F200010122202081F84020BDE89E
:1007A000804000F085BA00007047000010B50420BA
:1007B00000F0A4FB002808BF10BD1C24C4F20204F2
:1007C0002046002100F06CFA204644F6286100F033
:1007D0006DFA2046012100F063FA0420BDE81040C4
:1007E00000F046BB80B5102000F088FB002808BF51
:1007F00080BD1020BDE8804000F03ABBFEE700005D
:10080000FEE70000704700007047000070470000DE
:1008100047F26430C2F200000168013101600068F3
:1008200045F62941CCF28F2148434AF614614FEA3C
:10083000F000C0F24711884288BF7047002001F0E5
:100840005DB800004EF68850CEF20000026841F21A
:10085000000142F47002C4F2020102600A6842F030
:1008600001020A600A689207FCD54A6822F0030276
:100870004A6000BF4A6812F00C0FFBD10A684FF6BD
:10088000FF73CFF6F2631A400A6000224A600A63DF
:100890004FF41F028A604FF0006140F8801C7047DF
:1008A000FEE700007047000041F20401C4F20201BB
:1008B0000A6800F00F0022F0F00242EA001008601F
:1008C0007047000041F20401C4F202010A6800F01E
:1008D000070022F4E06242EA00200860704700004E
:1008E00041F20401C4F202010A6800F0070022F498
:1008F000605242EAC02008607047000041F2540193
:10090000C4F202010A68012822F0300208BF303226
:100910000A607047042888BF7047DFE800F0032BA7
:1009200015220C0041F20000C4F20200026861F3DB
:1009300000020260704741F20000C4F20200426A05
:1009400061F300024262704741F20000C4F202000B
:10095000026801F0010122F0807242EA0161016047
:10096000704741F20000C4F20200026A61F3000223
:100970000262704741F20000C4F20200026801F016
:10098000010122F4803242EA014101607047000017
:1009900041F20401C4F202010B6841F2002CC0F2E2
:1009A0007A0CC3F38103B0B5DFE803F02C02370201
:1009B000C0F800C00A682FA3C2F303129A5C036850
:1009C00042F6E72523FA02F242600B68C0F6000502
:1009D000C3F30223EB5C22FA03F3C3600B68C3F397
:1009E000C223EB5C0425DA4082600B68096805EAE3
:1009F0009363C1F38131194422A3595CB2FBF1F135
:100A00000161B0BD0A6D9205D2D5CA6A920144BF98
:100A100046F6004CC0F2DC2CCAE7D1F800E00B68C7
:100A20000A689B0CC2F34172140103F00F030134F6
:100A30000F2B254618BF0225002A18BF25465FEA5E
:100A4000CE322B4406D440F60012C0F23D0203FB26
:100A500002FCADE70A68920302D403FB0CFCA7E793
:100A60000A6DC2F301320232BCFBF2F202FB03FC5C
:100A70009EE700BF00000000000000000102030428
:100A80000607080902040608020C081041F20002D9
:100A9000010CC4F20202895800F01F0021FA00F094
:100AA00000F001007047000041F25401C4F202015D
:100AB0000A6800F0030022F4405242EA0030086065
:100AC0007047000041F200000021C4F2020000BFA4
:100AD0000268920304D4B1F5405F01F10101F7D33C
:100AE0000068C0F34040704741F2000200F01F036D
:100AF0004FF0010CC4F2020201290CFA03F14FEA93
:100B00001040835814BF23EA0101194381507047F4
:100B100041F2000200F01F034FF0010CC4F2020288
:100B200001290CFA03F14FEA1040835814BF23EA5D
:100B3000010119438150704780B541F2040EC4F29F
:100B4000020EDEF800C070B14CF48033CEF80030F5
:100B5000DEF800C0012814BF4CF400302CF4003043
:100B6000CEF8000009E02CF48030CEF80000DEF86A
:100B70002C0040F00070CEF82C00DEF8000061F38D
:100B80009540CEF80000DEF80000090961F35E70C0
:100B9000CEF80000DEF8000020F0004040EAC2700D
:100BA000CEF8000080BD000041F20000C4F2020057
:100BB000016841F00101016001688907FCD54168C5
:100BC00021F00301416000BF416811F00C0FFBD11F
:100BD00001684FF6FF72CFF6F2621140016000210A
:100BE000416001634FF41F018160704741F20401CD
:100BF000C4F202010A6860F301020A6000BF00BF8C
:100C000000BF00BF00BF00BF00BF00BF00BF00BFEC
:100C100000BF00BF00BF00BF00BF00BF00BF00BFDC
:100C200000BF00BF7047000041F20400C4F20200A0
:100C30000068C0F381007047002808BF704780B586
:100C40004EF2100142F2DC4ECEF20001C2F2000E72
:100C50004FF0320C002300BF82B2332A06D3DEF8F5
:100C60000020323802FB0CF24A6004E0DEF800009B
:100C70005043486000208B600A6842F001020A601D
:100C80000A6802F00112012AFAD00A6822F0010271
:100C90000A6002048B60DFD1BDE88040704700002D
:100CA000026861F300020260704700004160704713
:100CB0000421B0F1805FC4F2020192BF086020F00D
:100CC0007040C1F800047047D0F8A430DB0105D4AF
:100CD000D0F8A43043F08073C0F8A430013906295D
:100CE00088BF7047DFE801F00426141D0C2F380080
:100CF000D0F8A01021F0FF011144C0F8A0107047F7
:100D0000D0F8A41021F0FF011144C0F8A4107047DE
:100D1000D0F8A01021F47F0141EA0241C0F8A010F0
:100D20007047D0F8A01021F07F4141EA0261C0F87D
:100D3000A0107047D0F8A01021F47F4141EA0221B1
:100D4000C0F8A0107047D0F8A41021F47F4141EA08
:100D50000221C0F8A4107047D0F8A41021F47F013C
:100D600041EA0241C0F8A4107047000002684BF647
:100D7000EF731A4002600A8903681A4302604A7CD2
:100D8000036802F0030223F4405343EA0232026094
:100D9000CA7B036802F0030223F4406343EA822221
:100DA00002608A7B036802F0030223F4407343EA83
:100DB000022202604A7B036802F0010223F08003F2
:100DC00043EAC21202600A7B036862F3861303607F
:100DD0000A7C036862F3451303604A8942600A682B
:100DE00082604968C1607047002A02680CBF22EA2D
:100DF00001011143016070470021C4F20201B0F10A
:100E0000805F88BF01F580610968084018BF012034
:100E100070470000016821F00101016000210160BC
:100E200041608160C16040F2FF4100EA010204219B
:100E3000B2F5816FC4F2020105D3D208902A88BFAF
:100E4000704701F5806100F0FC004CF6CD42083897
:100E5000CCF6CC42A0FB02026FF0030000EA920045
:100E60000F220B6802FA00F0184308607047000078
:100E700040F21441C4F2010151F8042C0860024010
:100E8000824208BF0860704740F20841C4F2010185
:100E9000426851F8083C934341F8083C51F8043C3F
:100EA000934341F8043C437A002B08BF7047037812
:100EB0006FEA020C2BB151F8043C134341F8043C97
:100EC00004E051F8083C134341F8083C0B6803EA7E
:100ED0000C030B604B6803EA0C034B60007A01289B
:100EE00007D018B9086810430860704708681043B5
:100EF00008604868104348607047000040F20041B5
:100F0000C4F201014A6909681040084018BF012075
:100F100070470000B0B543F600050446C4F2010571
:100F20002846802101F03EFD0028F9D0A1B22846D4
:100F300001F02AFD2846402101F034FD0028F9D0B7
:100F40002046B0BD0161704740F200424FF6FF718C
:100F5000C0F20012C0E90012704700008B08032B9A
:100F600088BF704780B50C2202EA810E4FF00F0C4B
:100F700002EB83010CFA0EF2DFE803F0022F1120DE
:100F80000821C4F201010B6800FA0EF023EA020204
:100F90000A600A6810430860BDE880407047082175
:100FA000C4F201018B6800FA0EF023EA02028A60A3
:100FB0008A6810438860BDE8804070470821C4F209
:100FC0000101CB6800FA0EF023EA0202CA60CA6887
:100FD0001043C860BDE8804070470821C4F2010199
:100FE0004B6800FA0EF023EA02024A604A68104396
:100FF0004860BDE880407047B0B58B790A88032B04
:101000000BD07BB94979282901F00F0E18D0182987
:1010100008BF0261110616D12EE04FF0000E110636
:1010200011D129E003F0080C0B79C97903F004030E
:10103000634401F0030103EB010E110603D11BE031
:101040004261110618D000234FF00F0C002104E07C
:101050000131082903F104030ED022FA01F4E40758
:10106000F6D004680CFA03F5AC43046004680EFA89
:1010700003F52C430460EBE7B2F5807F38BFB0BDC9
:10108000120A00234FF00F0C002104E0013108295F
:1010900003F104030ED022FA01F4E407F6D0446809
:1010A0000CFA03F5AC43446044680EFA03F52C4394
:1010B0004460EBE7B0BD0000B0B5C0F3074353FA9E
:1010C00090F2C2F120024FF0FF3E2EFA02F40EFA27
:1010D00003F240F2000E4FEA106CC4F2010E5CF80D
:1010E0000E50224025EA0202C0B29840002918BFE3
:1010F00002434CF80E20B0BD002808BF70472DE910
:10110000F04182B00446006840F60045C4F2010593
:1011100001F018F82068A5F53841884257D1032717
:10112000C0F21807B81C0121FFF7DEFC0420009074
:1011300040F20040C0F2102005F50066E84601903C
:1011400030464146FFF758FF30460421FFF7FAFECC
:101150004FF4C0100121FFF7C7FC1520C0F21C009E
:101160000121FFF7C1FC38460121FFF7BDFC3846DD
:101170000121FFF7B9FC40F20140C2F60400012151
:10118000FFF79AFF41F60400C0F2082001904FF4E7
:101190008070009028464146FFF72EFF4FF4007004
:1011A000009028464146FFF727FF206848F2A062DA
:1011B000C0F20102002100F001FC1F2001210022E9
:1011C00001F006F920200121002201F001F9206838
:1011D000012100F0C1FB02B0BDE8F0417047000002
:1011E0002DE9F04F85B0044600284FF0FF3000F0A5
:1011F000A3810E46002900F09F811546002A00F0C9
:101200009B8120465821FFF79CF945F20040C4F22B
:101210000000206040F2033040F290314FF00008AF
:10122000C0F20310C0F2D701C4E90E6584F8408013
:10123000C4E9110142F60200A4F84C005E2084F8D3
:1012400050004FF46470A4F8520001204FF00109DF
:10125000C1F20110A4F8428084F84E90606500F05D
:1012600095F9204600F0F0F92046FFF745FF40F2DF
:10127000013004ADADF810004FF4803B204648210A
:101280002A4603238DF81290CDF800B000F0E0FC60
:10129000FF272046022148224FF480738DF81070FA
:1012A0008DE8200A4FF0020A00F00CFE9DF81000B5
:1012B00018B3002006466420FFF7BEFC092E12D0AA
:1012C0002046022148224FF480738DF81070CDE93A
:1012D0000059CDF808B000F0F5FD9DF81000002889
:1012E00006F10100E6D1092E07D399A0FFF7CEF849
:1012F0006FF0010005B0BDE8F08F204602214822C2
:101300000023ADF81080CDE9005ACDF808B000F008
:10131000D9FDBDF810104FF0FF3209BA002808BF00
:101320000A0C91B2B1F5D87FA4F8422040F00781B1
:1013300094F84C0045F63011ADF810108DF81200FD
:101340004FF4803504AA204648210323009500F07D
:101350007FFC94F8440048F20336CFF6FF768DF810
:10136000120004AA204648210323ADF8106000951E
:1013700000F06EFC94F8450006F58061ADF81010A1
:101380008DF8120004AA204648210323009500F09E
:101390005FFC94F8460006F55061ADF810108DF82A
:1013A000120004AA204648210323009500F050FCB7
:1013B00094F8470041F23001ADF810108DF812009A
:1013C00004AA204648210323009500F041FCB4F80C
:1013D000480044F2030100BA000CADF81010ADF85B
:1013E000120004AA204648210423009500F030FC96
:1013F000B4F84A0044F2032100BA000CADF8101012
:10140000ADF8120004AA204648210423009500F0FC
:101410001FFC94F84D0046F23001ADF810108DF825
:10142000120004AA204648210323009500F010FC76
:10143000B4F8480040F20221400840BAADF810105C
:10144000ADF8120004AA204648210423009500F0BC
:10145000FFFB94F84E002121ADF810108DF812001A
:1014600004AA204648210323009500F0F1FB94F8DC
:10147000500040F22111ADF810108DF8120004AAAE
:10148000204648210323009500F0E2FB94F8530026
:1014900040F22151ADF810108DF8120004AA204638
:1014A00048210323009500F0D3FB94F8520040F24A
:1014B0002161ADF810108DF8120004AA20464821D1
:1014C0000323009500F0C4FB94F8540040F2014659
:1014D0008DF8120004AA204648210323ADF81060BD
:1014E000009500F0B5FB94F8550004AA8DF81200A1
:1014F000204648210323ADF81060009500F0A8FBBA
:1015000094F8560046F23071ADF810108DF81200C4
:1015100004AA204648210323009500F099FB0120EE
:10152000ADF810008DF8120004AA204648210323CC
:10153000009500F08DFB002005B0BDE8F08F0AA0FB
:10154000FEF7A8FE6FF0020005B0BDE8F08F00BF07
:10155000484D303142302072657365742066616990
:101560006C6564210D000000496E76616C69642031
:10157000484D30314230206D6F64656C2049443AEB
:10158000203078253034580D0A0000002DE9F04154
:101590008AB001A8FFF7FCF90120C0F21C0001216C
:1015A0004FF00108FFF7A0FA0220C0F21800012155
:1015B000FFF79AFA8020089040F2004040F2004481
:1015C000C0F20810C4F20004099004F5823008A9A2
:1015D000FFF712FD019849F68171C1F25E61A0FB2F
:1015E00001014FF0FF3000EB115081B218FA80F08A
:1015F000450820460022002700F0C6FF20460021B3
:1016000000F0DCFF0DF11906304601F063F9062009
:101610008DF819002046022132468DF81E808DF883
:101620001C7001F0D3F8204602212A4600F0B4FFD6
:101630002046012101F054F92046012100F0C8FFA5
:101640000AB0BDE8F0810000002800F0CC80816B7A
:10165000002900F0C880C16B002908BF70472DE940
:10166000F0478CB081464FF4C01001214FF00108C3
:10167000FFF73AFA0224C0F21804A01C0121FFF778
:1016800033FA20460121FFF72FFA601C0121FFF7F2
:101690002BFA0120C0F21C000121FFF725FA4FF4BC
:1016A000A0100121FFF720FA40F20040C0F2002014
:1016B00040F200440B90FF20C4F200040AAD0A90EF
:1016C00004F586302946FFF797FC142004270A907A
:1016D00004F582302946ADF82D70FFF78DFC2820E7
:1016E000ADF82D0004F584302946CDF82880FFF7A9
:1016F00083FC40F20240C2F208400121FFF7DCFC0B
:10170000002002214FF0000AFFF728FC02AD4FF441
:10171000807628468DF808A00397ADF81060FFF793
:10172000B3FB0420FFF7A4FB08200021002200F0F7
:101730004FFE00200421FFF711FC102003902846E3
:101740008DF808A0ADF81060FFF79EFB1020FFF7A2
:101750008FFB0A200121002200F03AFE01AD28464D
:1017600001F030F8204629460022ADF804708DF8CB
:10177000068000F041FF20464FF40061012200F096
:101780002DFF2046012100F023FF1C24C4F2020497
:10179000A4F11C0002214A22FFF796FA2046FFF727
:1017A00039FB41F20800D9E90E12C4F20100CDE97B
:1017B00005014FF40070ADF8240005A92046ADF8EE
:1017C0001CA0ADF81E200896FFF7D0FA2046022193
:1017D0000122FFF709FB0C200021002200F0F8FD98
:1017E0000CB0BDE8F04770472DE9F04182B004200D
:1017F00000F0BEFE40F22000C2F2000000684DF68C
:101800008361C4F21B31A0FB0101880C42F2E0416C
:10181000C2F20001086008684FF47A71484342F24E
:10182000DC41C2F2000140F200080860C2F2000888
:10183000D8F800000121FFF757F96C462046FFF762
:1018400083FB40F20C06C2F2000640F21405318818
:10185000C2F2000540F200472868C0F2101700915C
:1018600021460197FFF7C8FBD8F804000121FFF7D4
:101870003BF96C462046FFF767FB7188686800916A
:1018800021460197FFF7B8FBD8F808000121FFF7C0
:101890002BF96C462046FFF757FBB188A8680091EA
:1018A00021460197FFF7A8FB308800281CBF296854
:1018B0000861708800281CBF69680861B08800282A
:1018C0001CBFA96808610220C0F21800012101258F
:1018D000FFF70AF96C462046FFF736FB42F6000098
:1018E000C0F20010CDE9005040F60000C4F2010043
:1018F0002146FFF781FB02B0BDE8F081022811D834
:1019000040F20C01C2F2000131F81010002908BFAA
:10191000704740F21402C2F2000252F82000C2687E
:101920005140C1607047000001F0FE01002A18BF5D
:101930000122114401617047026801F0010122F4A3
:10194000806242EA81210160704700000069C0B2F4
:101950007047000001617047026861F30002026095
:101960007047000001F45F424FF6FF735A408B0747
:10197000426101D542698269C90658BF7047416911
:10198000016841F0010101607047000082B000224F
:10199000019200920A0F0192019A1823002A08BFAF
:1019A0001423C05821F07F410090009818BF090C03
:1019B000084018BF012002B07047000070B586B023
:1019C00004460068154620F00100206001A80E467C
:1019D000FEF7DEFF45F20040C4F2000084420BD067
:1019E00045F60040C4F20100844207D045F60000ED
:1019F000C4F20000844203D1049902E0039900E09C
:101A000000214DF68360C4F21B30A1FB000248F2B6
:101A1000A060C0F20100636885424FEA924060F323
:101A2000070363601DD86A00B1FBF2F2E3694FF669
:101A3000FC7632426FF31F3240F6FF7608BF042275
:101A4000B3431A44E261E26944F6C053C0F2C133C1
:101A500022F400429942E2613CD3206A40F03F0008
:101A600035E0E269192322F48042002E18BF02F506
:101A7000804208BF03236B43B1FBF3F1E261E269EB
:101A80000B046FF31F3140F6FF7308BF01219A4327
:101A90001144E161E16941F6802241F40041E161D4
:101AA000C0F20602216A954287BFC0EB0010C00059
:101AB0004FF49672504348F63812C0F24102A0FB30
:101AC0000202501C21F03F0100F03F000843206259
:101AD00006B070BD216A013060F30501216206B0D5
:101AE00070BD00002DE9F04381B0044600680D464A
:101AF00001211646FFF720FF206800F049FB06F1A0
:101B000001094E4620680121FFF740FF28B9013E38
:101B1000F8D112210028217677D020688168090445
:101B200004D4E9B20122FFF7FFFE5DE0062101EADD
:101B3000D51808F1F001FFF70DFF4F462068082186
:101B4000FFF724FFB0B9064620684FF48061FFF725
:101B50001DFF18B9013FF1D1122008E0206800F004
:101B60001DFB20684FF48061FFF7FCFE1120002E62
:101B700020765DD02068E9B2FFF7ECFE4E4600BF4C
:101B800020680221FFF702FFA8B9054620684FF43C
:101B90008061FFF7FBFE18B9013EF1D1122008E089
:101BA000206800F0FBFA20684FF48061FFF7DAFE4E
:101BB00011202076D5B320680221FFF7D3FE2068DC
:101BC00000F0E6FA4D4600BF20680121FFF7DEFE77
:101BD00020B9013DF8D112212176B0B1206848F03A
:101BE000F101FFF7B7FE00BF20680221FFF7CEFE2C
:101BF000C0B9054620684FF48061FFF7C7FE30B9D1
:101C0000B9F10109F0D112200AE00D2011E020689D
:101C100000F0C4FA20684FF48061FFF7A3FE1120A2
:101C200020761DB1002001B0BDE8F0830F2000E058
:101C30000E20207601B0BDE8F0830000026801F0BC
:101C4000010122F4006242EAC121016070470000F4
:101C50002DE9F047DDF8209000271D469246884682
:101C600004464260038100204FF0FF36C1F20207B4
:101C7000207600BF20683946FFF788FE48B101365C
:101C8000B145F7D11221002821761CBF0120BDE803
:101C9000F08720680021FFF7D1FF204641464A46E1
:101CA00000F05AF80146206809B102254FE00221F0
:101CB000FFF758FE45B309F1010812E0206800F073
:101CC0006DFA20684FF48061FFF74CFE11202076FA
:101CD00067B320681AF8011BFFF73CFE013D28049A
:101CE00012D0464620688021FFF750FE0028F0D130
:101CF000074620684FF48061FFF748FE0028DDD1D9
:101D0000013EEFD11220E2E709F10106206804212B
:101D1000FFF73CFEB8B9054620684FF48061FFF735
:101D200035FE28B9013EF1D112200AE003250DE06D
:101D3000206800F033FA20684FF48061FFF712FE4C
:101D4000112020760DB1002500E00425206800F068
:101D500025FA2846BDE8F0872DE9F0418046006865
:101D600016460D4600F014FA741C2646D8F80000FA
:101D70000121FFF70BFE28B9013EF7D1122188F8A7
:101D8000181018B3D8F800008168090404D4E9B227
:101D90000022FFF7C9FD31E0F02141EAD51101F041
:101DA000F601FFF7D7FD2746D8F800000821FFF716
:101DB000EDFDF0B90646D8F800004FF48061FFF75A
:101DC000E5FD40B9013FEFD112200FE00D2088F86A
:101DD0001800BDE8F081D8F8000000F0DFF9D8F86D
:101DE00000004FF48061FFF7BDFD112088F8180056
:101DF00066B3D8F80000E9B2FFF7ACFDD8F80000F0
:101E00000221FFF7C3FDC8B90546D8F800004FF41A
:101E10008061FFF7BBFD18B9013CEFD112200AE049
:101E2000D8F8000000F0BAF9D8F800004FF480614B
:101E3000FFF798FD112088F8180015B10020BDE8C3
:101E4000F0810F2088F81800BDE8F0810E2088F896
:101E50001800BDE8F0810000F0B581B005460068CB
:101E60000129144622D0210A1E46FFF773FD771C74
:101E700028688021FFF78AFD064648B928684FF494
:101E80008061FFF783FD28B9013FF1D112210AE0FB
:101E9000002109E0286800F081F928684FF480618A
:101EA000FFF760FD1121297628682EB1E1B2FFF716
:101EB00051FD002001B0F0BD0C4600F06FF9204646
:101EC00001B0F0BD2DE9F04F83B00446DDE90CA070
:101ED0000E9D0027984693468946C4F804A02081A9
:101EE00000204FF0FF36C1F2020720762068394605
:101EF000FFF74CFD38B10136B542F7D112212176FA
:101F000008B101254BE020680021FFF797FE20680B
:101F10000121FFF711FD204659462A46FFF71CFF15
:101F20000146206809B1022537E00221CDF808A05A
:101F3000FFF718FD4FF0FF3A20688021FFF726FDDC
:101F4000B8B9074620684FF48061FFF71FFD28B934
:101F50000AF1010A5545EFD1122008E0206800F08F
:101F60001DF920684FF48061FFF7FCFC11202076FA
:101F70008FB12046494642462B46FFF76DFF08B118
:101F800004250CE02046802101222B4600F00CF9AC
:101F900048B1052500E00325206800F0FFF8284639
:101FA00003B0BDE8F08F204659462A46FFF79AFD58
:101FB0000146206809B10625EFE7DDF83480B8F165
:101FC000020F0DD0B8F1010F16D10021FFF7B4FCBC
:101FD00020680221FFF7C6FC206800F0DFF812E05D
:101FE0000121FFF72BFE20680221FFF7BBFC2068D0
:101FF0000021FFF7A1FC06E00121FFF79DFC20680E
:102000000221FFF7AFFCB8F1000F00F08E8005F160
:10201000010A11E0029F4FF0010B3D464FF6FF769B
:102020002068FFF793FCB0445F4428705FEA0840E3
:102030004FF000050297B2D01FFA88F004285546E9
:102040001ED20128554629D0022855465646CDF8BD
:10205000048031D120680421FFF798FC30B9013D9C
:10206000F8D100284FF01200207662D0029F4FF680
:10207000FF70461E4FF0020B4FF00108B94647E0D3
:1020800020684021FFF782FC0028C3D1013DF7D131
:1020900000284FF012002076BCD148E02068402193
:1020A000FFF774FC0028B5D1013DF7D100284FF0AF
:1020B00012002076AED13EE020680421FFF766FCD6
:1020C00030B9013EF8D100284FF01200207634D00C
:1020D00020680021FFF730FC2068FFF737FC0299E9
:1020E0005546087020680421FFF750FC30B9013DC7
:1020F000F8D100284FF01200207620D0029F4FF632
:10210000FF7007F10109861E4FF0030B4FF0020824
:10211000206800F043F82068FFF718FC07EB08057B
:10212000DDF8048089F800007AE7002537E70B2501
:1021300032E7082530E707252EE709252CE70A2591
:102140002AE7000010B545F20041C4F20001152451
:102150008842C0F2100411D045F60041C4F20101DA
:10216000884208D045F60001C4F20001884218BF39
:1021700010BD013402E01724C0F20C0420460121F6
:10218000FEF7C6FC20460021BDE81040FEF7C0BCAB
:10219000016841F48071016070470000016841F4FA
:1021A00000710160704700002DE9F04381B00D46D9
:1021B0000021C1F202018D4204460AD15E1C00BF1B
:1021C00020682946FFF7E2FB28B3013EF8D1122030
:1021D00030E05F1C4FEAC2784FEA8279102601E0B6
:1021E000013FF4D020682946FFF7D0FB98B9B8F139
:1021F000000F05D020684FF48061FFF7C7FB70B96E
:10220000B9F1000FECD520681021FFF7BFFB0028C3
:10221000E6D0102509E0002001B0BDE8F083206879
:10222000FFF7BCFF11254FF4806620683146FFF7A9
:1022300099FB2846207601B0BDE8F08300F004F950
:10224000FFF7D2FA45F21050C0F2220000F052FB24
:1022500034A0FEF71BF942F2E44AC2F2000A42F24D
:102260003C51C2F20001504644F62862FEF7B8FF26
:1022700018B133A0FEF70AF9FEE7BAF8421043F6A8
:10228000000537A0C4F20105FEF704F83BA0FEF7F5
:10229000FDF840F2DC044FF0A40BC2F200040FF290
:1022A000FC0900BF9AF840000028FBD00420FEF78C
:1022B000DFFD082000F076F8002736A08AF840708D
:1022C000FDF7E8FFDAF83800602207FB0B0000F6A4
:1022D000760107EB470004EB40163046FEF7ECF8BA
:1022E0004FF000082846802100F05CFB0028F9D060
:1022F00016F80810284600F047FB08F10108B8F16D
:10230000600FEFD10137602FDCD14846FEF7BEF8F1
:102310000420FEF7ADFD08200021002200F058F84F
:10232000C0E700BF0D0A2D2D2D2053797374656D04
:10233000205374617274696E67202D2D2D0D00007D
:10234000484D3031423020696E697469616C697A38
:102350006174696F6E206661696C6564210D0000AF
:10236000484D30314230204D6F64656C2049443A0D
:10237000203078253034580D0A000000484D3031A7
:10238000423020696E697469616C697A65642E0DEA
:1023900000000000494D475F53000000494D475F72
:1023A000450D0000002848BF704700F01F010122C2
:1023B00002FA01F11C2202EAD0004EF28012CEF2A3
:1023C00000028150BFF34F8FBFF36F8F7047000043
:1023D000B0B54EF60C5ECEF2000EDEF800304FF0D7
:1023E000FF35C3F3022383F00704042C28BF042421
:1023F000033B05FA04F438BF0023A143994005FAD2
:1024000003F39A4300F00F03043B4EF2001C7344A5
:10241000CEF2000C11430C33B0F1FF3F4FEA011133
:1024200000EB0C02C8BF02F540730028197048BFCA
:10243000B0BD00F01F01012202FA01F1C0F3421009
:102440004CF82010B0BD000080B5FEF7ADFB0120B8
:102450000121FEF75FFA00BFFEF734FB0028FBD036
:1024600002203B210122FEF767FB0020FEF71CFB48
:1024700002200121FEF74EFA1920FEF707FB012882
:10248000FAD10020FEF710FA0420FEF729FA042002
:10249000FEF718FA0120FEF731FA0220FEF7A6FB3C
:1024A000FEF7C2FB0228FBD10020FEF727FABDE8A9
:1024B000804000F001B80000B0B541F2040441F2E0
:1024C0000025C4F20204C0F27A05FEF7ADFB022833
:1024D0000BD0A8BB206D800532D5E06A800144BFD7
:1024E00046F60045C0F2DC252AE0D4F800C0216899
:1024F0002268890CC2F34172130101F00F01581CCC
:102500000F29034618BF0223002A18BF03465FEABB
:10251000CC3003EB010006D440F60011C0F23D01BF
:1025200000FB01F50CE02168890301D4454307E075
:10253000216DC1F301310231B5FBF1F101FB00F571
:1025400040F22000C2F200000560216804A2C1F33D
:102550000311515C026822FA01F10160B0BD00BFB5
:102560000000000000000000010203040607080943
:102570004EF21001CEF200010A68042822F0040293
:1025800008BF04320A607047C1628262416941F04B
:102590000101416170470000062988BF7047DFE8EC
:1025A00001F0040B080B060B0A0042637047C2637C
:1025B000704782637047026470470000026801F050
:1025C000070122F0700242EA011101607047000029
:1025D000026861F3000202607047000032B1012A14
:1025E00018BF7047C2681143C1607047C26822EAD1
:1025F0000101C1607047000080B591F800C0BCF1D6
:10260000060F88BF80BDDFE80CF004DC71DC38DC2D
:10261000A80050F8203F02F0030223F001030360FA
:1026200091F801C003686CF34103036091F801C0A5
:10263000D0F800E04FEA5C0363F3C30EC0F800E09B
:1026400091F802C050F8083C6CF3010340F8083CD4
:10265000C97850F8083C01F00F0123F0F00343EA79
:10266000011140F8081C50F8081C21F00C0141EA47
:10267000820140F8081C0121A0E050F8203F02F040
:10268000030223F4807303604B78D0F800C003F09A
:10269000010E2CF4007343EA4E23036091F801C04D
:1026A000D0F800E04FEA5C0363F3CB2EC0F800E003
:1026B00091F802C050F8043C6CF3010340F8043C6C
:1026C000C97850F8043C01F00F0123F0F00343EA0D
:1026D000011140F8041C50F8041C21F00C0141EADF
:1026E000820140F8041C4FF4807167E050F8203FED
:1026F00002F0030223F01003036091F801C00368A5
:102700006CF34513036091F801C0D0F800E04FEA84
:102710005C0363F3C71EC0F800E08B7850F808CC68
:1027200003F0030E2CF4407343EA0E2340F8083CF8
:10273000C97850F8083C01F00F0123F4704343EAD4
:10274000013140F8081C50F8081C21F4406141EAAE
:10275000822140F8081C102130E050F8203F02F0A0
:10276000030223F4805303604B78D0F800C003F0D9
:10277000010E2CF4005343EA4E3303608B7850F87B
:1027800004CC03F0030E2CF4407343EA0E2340F80C
:10279000043CC97850F8043C01F00F0123F4704365
:1027A00043EA013140F8041C50F8041C21F4406154
:1027B00041EA822140F8041C4FF480510268114321
:1027C000016080BD4FF480310160704770B553786F
:1027D000947801F1080E01F1090C03FA0EFE04FAD7
:1027E0000CF54FF4007C43680CFA01F4A3434360FA
:1027F0004368ADB22B4343604FF4807345688B4010
:1028000025EA0303436043681FFA8EF52B434360B8
:102810004B00056A05249C4025EA040C0629C0F8F3
:1028200020C034D8DFE801F0043318330E3326001B
:10283000816921F0030181611178856961F30615D1
:10284000856124E0C16921F00301C1611178C56986
:1028500061F30615C5611AE0816921F44071816157
:102860001178856901F0070125F4E04545EA013159
:1028700081610CE0C16921F44071C1611178C569C1
:1028800001F0070125F4E04545EA0131C161D17845
:1028900043F001051679A9400825DC1C9D4006FA85
:1028A00004F42CEA05064FF6FE7525402E4302255A
:1028B0009D40AE4389B2314301625679927903F16A
:1028C000020E06FA03F302FA0EF21A4392B2114311
:1028D000016270BD0021C0F8031001607047000064
:1028E000426C01F0010122F4004242EAC13141642C
:1028F00070470000F0B583B00225C0F21805044609
:1029000005F10C000121FEF7EFF828460121FEF742
:10291000EBF828460121FEF7E7F801AE3046FEF756
:1029200013FB40F2004043F60005C0F20810C4F269
:10293000010502904FF40070A5F54057019038460C
:102940003146FEF759FB41F60000C0F20810029034
:102950004FF48060019038463146FEF74DFB284623
:1029600021460022002300F023F82846012100F030
:1029700081F82846012100F073F82846012100F073
:1029800007F803B0F0BD00006FF35F2141607047AE
:10299000C26801F0010122F4005242EA4131C160F3
:1029A000704700000068084018BF01207047000011
:1029B0002DE9F04186B001AD0446284698461646FA
:1029C0000F46FDF7E5FF46F2FF30C4F201008442F6
:1029D00005F1080008DC43F60001C4F201018C4255
:1029E00010D046F2000107E046F20041C4F20101B6
:1029F0008C4207D046F60001C4F201018C4218BF98
:102A000005F10C0000684CF6CD4100EB8000400061
:102A1000B0FBF7F0CCF6CC41A0FB0112D10801EBE2
:102A20008103A0EB43000428A0684FF0010388BF96
:102A300003EBD201C1EA0000A060E06806F00101EA
:102A400020F4805040EA0130E060206908F0030182
:102A500020F4405040EA0130206106B0BDE8F0812A
:102A6000C26801F0010122F0040242EA8101C16062
:102A700070470000C26801F0010122F0080242EA3A
:102A8000C101C160704730380A2801D20120704767
:102A900000207047F1EE100A4FF6FF71C0F2C0310E
:102AA00020EA010040F04070E1EE100A704730313A
:102AB0003233343536373839414243444546403065
:102AC0005800303132333435363738396162636417
:102AD0006566403078000400000800000000000037
:102AE00000020001000010000000000102030400C9
:102AF000102B00080000002028000000E001000862
:102B0000382B00082800002040790000000200084F
:102B100005001800050018000500180000200040FE
:102B20000080000000140140001401400014014026
:082B300000127A000000000011
:040000050800017D71
:00000001FF
