:020000040800F2
:10000000C006002049020008090300080103000897
:1000100005030008F902000875030008FFFFFFFF51
:10002000FFFFFFFFFFFFFFFFFFFFFFFF11030008C0
:10003000FD020008FFFFFFFF0D0300081503000885
:1000400063020008630200086302000863020008FC
:1000500063020008630200086302000863020008EC
:1000600063020008630200086302000863020008DC
:1000700063020008630200086302000863020008CC
:1000800063020008630200086302000863020008BC
:1000900063020008630200086302000863020008AC
:1000A000630200086302000863020008630200089C
:1000B000630200086302000863020008630200088C
:1000C000630200086302000863020008630200087C
:1000D000630200086302000863020008630200086C
:1000E000630200086302000863020008630200085C
:1000F000630200086302000863020008630200084C
:10010000630200086302000863020008630200083B
:10011000630200086302000863020008630200082B
:10012000630200086302000863020008630200081B
:10013000630200086302000863020008630200080B
:10014000FFFFFFFFFFFFFFFFFFFFFFFFFFFFFFFFBF
:1001500063020008630200086302000863020008EB
:1001600063020008630200086302000863020008DB
:1001700063020008630200086302000800F002F84E
:1001800000F052F814A696E8000CB244B344DA45E5
:1001900001D100F049F8BAE80F000FA696E8300048
:1001A000A5EB040504EB0607AAEB0704A7F101077A
:1001B0004FEA15154FEA3414A4F10104AC4201D3FF
:1001C00000F032F813F0010F18BFFB1A43F00103DF
:1001D00000F001F8DBE71847D40B0000F40B000037
:1001E000103A24BF78C878C1FAD8520724BF30C863
:1001F00030C144BF04680C607047000070470000C5
:100200000023002400250026103A28BF78C1FBD81F
:10021000520728BF30C148BF0B6070471FB500F0C0
:10022000B4FD1FBD10B510BD00F033F81146FFF747
:10023000F5FF00F05FFB00F051F803B4FFF7F2FFA9
:1002400003BC00F099F800000948804709480047BE
:10025000FEE7FEE7FEE7FEE7FEE7FEE7FEE7FEE776
:10026000FEE7FEE704480549054A064B70470000D3
:10027000190300087D010008C0000020C00600200E
:10028000C0020020C00200207047704770477047CE
:100290007047754600F02CF8AE4605006946534697
:1002A00020F00700854618B020B5FFF7DBFFBDE85A
:1002B00020404FF000064FF000074FF000084FF0CD
:1002C000000BAC46ACE8C009ACE8C009ACE8C0091A
:1002D000ACE8C00921F007018D46704710B504460F
:1002E000AFF300802046BDE81040FFF7A6BF000036
:1002F0000048704728000020FEE70000704700001B
:10030000FEE70000FEE700007047000070470000B5
:1003100070470000704700004EF68850CEF2000093
:10032000026841F2000142F47002C4F2020102606C
:100330000A6842F001020A600A689207FCD54A681E
:1003400022F003024A6000BF4A6812F00C0FFBD192
:100350000A684FF6FF73CFF6F2631A400A60002274
:100360004A600A634FF41F028A604FF0006140F850
:10037000801C7047FEE700007047000041F2040156
:10038000C4F202010A6800F00F0022F0F00242EA13
:10039000001008607047000041F20401C4F202013D
:1003A0000A6800F0070022F4E06242EA00200860D8
:1003B0007047000041F20401C4F202010A6800F033
:1003C000070022F4605242EAC02008607047000033
:1003D00041F25401C4F202010A68012822F03002FD
:1003E00008BF30320A607047042888BF7047DFE8D2
:1003F00000F0032B15220C0041F20000C4F20200B1
:10040000026861F300020260704741F20000C4F22A
:100410000200426A61F300024262704741F200004A
:10042000C4F20200026801F0010122F0807242EA87
:1004300001610160704741F20000C4F20200026AEB
:1004400061F300020262704741F20000C4F2020050
:10045000026801F0010122F4803242EA01410160A8
:100460007047000041F20401C4F202010B6841F23E
:10047000002CC0F27A0CC3F38103B0B5DFE803F0BF
:100480002C023702C0F800C00A682FA3C2F303127F
:100490009A5C036840F6A45523FA02F242600B68A6
:1004A000C0F60005C3F30223EB5C22FA03F3C3603A
:1004B0000B68C3F3C223EB5C0425DA4082600B684F
:1004C000096805EA9363C1F38131194422A3595C99
:1004D000B2FBF1F10161B0BD0A6D9205D2D5CA6AD5
:1004E000920144BF46F6004CC0F2DC2CCAE7D1F8BA
:1004F00000E00B680A689B0CC2F34172140103F020
:100500000F0301340F2B254618BF0225002A18BF00
:1005100025465FEACE322B4406D440F60012C0F2E4
:100520003D0203FB02FCADE70A68920302D403FB21
:100530000CFCA7E70A6DC2F301320232BCFBF2F2F7
:1005400002FB03FC9EE700BF00000000000000006B
:10055000010203040607080902040608020C081039
:1005600041F20002010CC4F20202895800F01F009F
:1005700021FA00F000F001007047000041F2540140
:10058000C4F202010A6800F0030022F4405242EA79
:10059000003008607047000041F200000021C4F202
:1005A000020000BF0268920304D4B1F5405F01F17C
:1005B0000101F7D30068C0F34040704741F20002E8
:1005C00000F01F034FF0010CC4F2020201290CFAE3
:1005D00003F14FEA1040835814BF23EA0101194385
:1005E0008150704780B541F2040EC4F2020EDEF86D
:1005F00000C070B14CF48033CEF80030DEF800C09B
:10060000012814BF4CF400302CF40030CEF8000068
:1006100009E02CF48030CEF80000DEF82C0040F029
:100620000070CEF82C00DEF8000061F39540CEF8A3
:100630000000DEF80000090961F35E70CEF80000EA
:10064000DEF8000020F0004040EAC270CEF8000062
:1006500080BD000041F20000C4F20200016841F0D8
:100660000101016001688907FCD5416821F003019F
:10067000416000BF416811F00C0FFBD101684FF6DB
:10068000FF72CFF6F2621140016000214160016308
:100690004FF41F018160704741F20401C4F202016E
:1006A0000A6860F301020A6000BF00BF00BF00BF1C
:1006B00000BF00BF00BF00BF00BF00BF00BF00BF42
:1006C00000BF00BF00BF00BF00BF00BF00BF00BF32
:1006D0007047000041F20400C4F202000068C0F359
:1006E0008100704740F200424FF6FF71C0F20012E5
:1006F000C0E9001270470000B0B58B790A88032B5F
:100700000BD07BB94979282901F00F0E18D0182990
:1007100008BF0261110616D12EE04FF0000E11063F
:1007200011D129E003F0080C0B79C97903F0040317
:10073000634401F0030103EB010E110603D11BE03A
:100740004261110618D000234FF00F0C002104E085
:100750000131082903F104030ED022FA01F4E40761
:10076000F6D004680CFA03F5AC43046004680EFA92
:1007700003F52C430460EBE7B2F5807F38BFB0BDD2
:10078000120A00234FF00F0C002104E00131082968
:1007900003F104030ED022FA01F4E407F6D0446812
:1007A0000CFA03F5AC43446044680EFA03F52C439D
:1007B0004460EBE7B0BD00002DE9F04182B00420B9
:1007C00000F01AFA40F22000C2F2000000684DF674
:1007D0008361C4F21B31A0FB0101880C40F2A80127
:1007E000C2F20001086008684FF47A71484340F291
:1007F000A401C2F2000140F200080860C2F2000841
:10080000D8F800000121FFF7D9FE6C462046FFF71B
:1008100069FF40F20C06C2F2000640F2140531886E
:10082000C2F2000540F200472868C0F2101700919C
:1008300021460197FFF760FFD8F804000121FFF778
:10084000BDFE6C462046FFF74DFF71886868009139
:1008500021460197FFF750FFD8F808000121FFF764
:10086000ADFE6C462046FFF73DFFB188A8680091B9
:1008700021460197FFF740FF308800281CBF2968F8
:100880000861708800281CBF69680861B08800286A
:100890001CBFA96808610220C0F2180001210125CF
:1008A000FFF78CFE6C462046FFF71CFF42F6000067
:1008B000C0F20010CDE9005040F60000C4F2010083
:1008C0002146FFF719FF02B0BDE8F08102280FD8DA
:1008D00040F20C01C2F2000131F81010002908BFEB
:1008E000704740F21402C2F2000252F82000416147
:1008F0007047000000F0ECF8FFF75EFF40F2900553
:10090000C2F200052846FFF7ADFD0020FFF7DEFF2D
:1009100001204FF00108FFF7D9FF0220FFF7D6FFB3
:100920000224C0F2180404F109000121FFF746FE79
:1009300020460121FFF742FE601C0121FFF73EFE29
:1009400040F2AC0640F2004742F60044C2F2000614
:100950004FF47060C0F20817C4F20104C6E9000742
:10096000A4F510503146FFF7C7FE4FF46040C6E9CA
:100970000007A4F5005738463146FFF7BDFE40F2A8
:1009800000414FF48050C0F20011C6E90001384622
:100990003146FFF7B1FE286843F60D21CEF6B86167
:1009A000A0FB01014FF0FF3000EB913081B28A00D3
:1009B00012FA80F24CF6CD43053ACCF6CC43A2FBBA
:1009C000032340F277124A4344F6D357A2F2771238
:1009D000C1F26207A2FB072619224A4348F21F55BB
:1009E000193AC5F2EB15A2FB05257D224A437D3A53
:1009F000A2FB072740F2B402C2F2000240F2880BC9
:100A00001080D808C2F2000BABF80000B00940F229
:100A10008A06C2F2000640F28C0A30806809C2F2EF
:100A2000000A40F28E09AAF80000B809C2F20009D3
:100A3000A9F800002046002200F0EAF82046002134
:100A400000F000F940F2B605C2F20005284600F0B9
:100A50008DF940F20710C0F2001028604FF480704A
:100A6000A880204600212A4685F8068000F0FAF882
:100A7000BBF800202046002100F0D2F820460221D9
:100A80002A4600F0EFF832882046022100F0C8F82C
:100A9000204604212A4600F0E5F8BAF80020204656
:100AA000042100F0BDF8204606212A4600F0DAF8BD
:100AB000B9F800202046062100F0B2F820460121B6
:100AC00000F05AF92046012100F0C6F8FEE70000C8
:100AD00080B5FFF7BFFD01200121FFF785FC00BFB6
:100AE000FFF75AFD0028FBD002203B210122FFF72F
:100AF00079FD0020FFF742FD02200121FFF774FC81
:100B00001920FFF72DFD0128FAD10020FFF736FC50
:100B10000420FFF74FFC0420FFF73EFC0120FFF705
:100B200057FC0220FFF7B8FDFFF7D4FD0228FBD1E8
:100B30000020FFF74DFCBDE8804000F001B8000048
:100B4000B0B541F2040441F20025C4F20204C0F23F
:100B50007A05FFF7BFFD02280BD0A8BB206D8005EA
:100B600032D5E06A800144BF46F60045C0F2DC257C
:100B70002AE0D4F800C021682268890CC2F34172CF
:100B8000130101F00F01581C0F29034618BF02235F
:100B9000002A18BF03465FEACC3003EB010006D4FD
:100BA00040F60011C0F23D0100FB01F50CE02168A8
:100BB000890301D4454307E0216DC1F301310231BE
:100BC000B5FBF1F101FB00F540F22000C2F200009C
:100BD0000560216804A2C1F30311515C026822FA86
:100BE00001F10160B0BD00BF000000000000000086
:100BF00001020304060708094EF21001CEF20001BB
:100C00000A68042822F0040208BF04320A60704710
:100C1000C1628262416941F0010141617047000097
:100C2000062988BF7047DFE801F0040B080B060BAC
:100C30000A0042637047C263704782637047026470
:100C400070470000026801F0070122F0700242EADA
:100C50000111016070470000026861F30002026048
:100C60007047000070B55378947801F1080E01F1D7
:100C7000090C03FA0EFE04FA0CF54FF4007C4368ED
:100C80000CFA01F4A34343604368ADB22B434360C5
:100C90004FF4807345688B4025EA03034360436843
:100CA0001FFA8EF52B4343604B00056A05249C40D8
:100CB00025EA040C0629C0F820C034D8DFE801F08A
:100CC000043318330E332600816921F0030181615A
:100CD0001178856961F30615856124E0C16921F009
:100CE0000301C1611178C56961F30615C5611AE098
:100CF000816921F4407181611178856901F00701F2
:100D000025F4E04545EA013181610CE0C16921F437
:100D10004071C1611178C56901F0070125F4E04512
:100D200045EA0131C161D17843F001051679A94046
:100D30000825DC1C9D4006FA04F42CEA05064FF653
:100D4000FE7525402E4302259D40AE4389B23143B6
:100D500001625679927903F1020E06FA03F302FA60
:100D60000EF21A4392B21143016270BD0021C0F825
:100D70000310016070470000426C01F0010122F491
:100D8000004242EAC13141647047F1EE100A4FF669
:100D9000FF71C0F2C03120EA010040F04070E1EE86
:100DA000100A70470000000001020304D00D000883
:100DB0000000002028000000E0010008F80D0008F5
:100DC0002800002098060000000200080000000033
:100DD000050018000500180005001800002000405C
:100DE0000080000000140140001401400014014084
:080DF00000127A00000000006F
:040000050800017D71
:00000001FF
